{
  "_format": "hh-sol-artifact-1",
  "contractName": "ExamRegistry",
  "sourceName": "contracts/ExamRegistry.sol",
  "abi": [
    {
      "anonymous": false,
      "inputs": [
        {
          "indexed": true,
          "internalType": "address",
          "name": "authority",
          "type": "address"
        },
        {
          "indexed": false,
          "internalType": "string",
          "name": "name",
          "type": "string"
        }
      ],
      "name": "AuthorityRegistered",
      "type": "event"
    },
    {
      "anonymous": false,
      "inputs": [
        {
          "indexed": true,
          "internalType": "address",
          "name": "centerAddress",
          "type": "address"
        },
        {
          "indexed": false,
          "internalType": "string",
          "name": "name",
          "type": "string"
        }
      ],
      "name": "CenterRegistered",
      "type": "event"
    },
    {
      "anonymous": false,
      "inputs": [
        {
          "indexed": true,
          "internalType": "uint256",
          "name": "paperId",
          "type": "uint256"
        },
        {
          "indexed": false,
          "internalType": "uint256",
          "name": "unlockTimestamp",
          "type": "uint256"
        },
        {
          "indexed": true,
          "internalType": "address",
          "name": "authority",
          "type": "address"
        }
      ],
      "name": "PaperScheduled",
      "type": "event"
    },
    {
      "anonymous": false,
      "inputs": [
        {
          "indexed": true,
          "internalType": "uint256",
          "name": "paperId",
          "type": "uint256"
        },
        {
          "indexed": false,
          "internalType": "uint256",
          "name": "timestamp",
          "type": "uint256"
        }
      ],
      "name": "PaperUnlocked",
      "type": "event"
    },
    {
      "anonymous": false,
      "inputs": [
        {
          "indexed": true,
          "internalType": "uint256",
          "name": "paperId",
          "type": "uint256"
        },
        {
          "indexed": false,
          "internalType": "string",
          "name": "examName",
          "type": "string"
        },
        {
          "indexed": true,
          "internalType": "address",
          "name": "teacher",
          "type": "address"
        }
      ],
      "name": "PaperUploaded",
      "type": "event"
    },
    {
      "inputs": [
        {
          "internalType": "address",
          "name": "",
          "type": "address"
        }
      ],
      "name": "authorities",
      "outputs": [
        {
          "internalType": "string",
          "name": "name",
          "type": "string"
        },
        {
          "internalType": "bool",
          "name": "isRegistered",
          "type": "bool"
        },
        {
          "internalType": "bool",
          "name": "isActive",
          "type": "bool"
        }
      ],
      "stateMutability": "view",
      "type": "function"
    },
    {
      "inputs": [
        {
          "internalType": "uint256",
          "name": "",
          "type": "uint256"
        }
      ],
      "name": "authorityAddresses",
      "outputs": [
        {
          "internalType": "address",
          "name": "",
          "type": "address"
        }
      ],
      "stateMutability": "view",
      "type": "function"
    },
    {
      "inputs": [
        {
          "internalType": "uint256",
          "name": "",
          "type": "uint256"
        }
      ],
      "name": "centerAddresses",
      "outputs": [
        {
          "internalType": "address",
          "name": "",
          "type": "address"
        }
      ],
      "stateMutability": "view",
      "type": "function"
    },
    {
      "inputs": [
        {
          "internalType": "address",
          "name": "",
          "type": "address"
        }
      ],
      "name": "centers",
      "outputs": [
        {
          "internalType": "string",
          "name": "name",
          "type": "string"
        },
        {
          "internalType": "bytes",
          "name": "publicKey",
          "type": "bytes"
        },
        {
          "internalType": "bool",
          "name": "isRegistered",
          "type": "bool"
        }
      ],
      "stateMutability": "view",
      "type": "function"
    },
    {
      "inputs": [],
      "name": "getAllAuthorities",
      "outputs": [
        {
          "internalType": "address[]",
          "name": "",
          "type": "address[]"
        },
        {
          "internalType": "string[]",
          "name": "",
          "type": "string[]"
        }
      ],
      "stateMutability": "view",
      "type": "function"
    },
    {
      "inputs": [],
      "name": "getAllCenters",
      "outputs": [
        {
          "internalType": "address[]",
          "name": "",
          "type": "address[]"
        },
        {
          "internalType": "string[]",
          "name": "",
          "type": "string[]"
        }
      ],
      "stateMutability": "view",
      "type": "function"
    },
    {
      "inputs": [
        {
          "internalType": "address",
          "name": "_center",
          "type": "address"
        }
      ],
      "name": "getCenterPublicKey",
      "outputs": [
        {
          "internalType": "bytes",
          "name": "",
          "type": "bytes"
        }
      ],
      "stateMutability": "view",
      "type": "function"
    },
    {
      "inputs": [
        {
          "internalType": "uint256",
          "name": "_paperId",
          "type": "uint256"
        }
      ],
      "name": "getMyClassroom",
      "outputs": [
        {
          "internalType": "string",
          "name": "",
          "type": "string"
        }
      ],
      "stateMutability": "view",
      "type": "function"
    },
    {
      "inputs": [
        {
          "internalType": "uint256",
          "name": "_paperId",
          "type": "uint256"
        }
      ],
      "name": "getPaper",
      "outputs": [
        {
          "components": [
            {
              "internalType": "string",
              "name": "examName",
              "type": "string"
            },
            {
              "internalType": "string",
              "name": "subject",
              "type": "string"
            },
            {
              "internalType": "address",
              "name": "teacher",
              "type": "address"
            },
            {
              "internalType": "string[]",
              "name": "ipfsCIDs",
              "type": "string[]"
            },
            {
              "internalType": "uint256",
              "name": "uploadTimestamp",
              "type": "uint256"
            },
            {
              "internalType": "uint256",
              "name": "unlockTimestamp",
              "type": "uint256"
            },
            {
              "internalType": "bool",
              "name": "isScheduled",
              "type": "bool"
            },
            {
              "internalType": "bool",
              "name": "isUnlocked",
              "type": "bool"
            },
            {
              "internalType": "address",
              "name": "authority",
              "type": "address"
            },
            {
              "internalType": "bytes",
              "name": "timeLockedKey",
              "type": "bytes"
            },
            {
              "internalType": "string",
              "name": "keyDerivationSalt",
              "type": "string"
            }
          ],
          "internalType": "struct ExamRegistry.Paper",
          "name": "",
          "type": "tuple"
        }
      ],
      "stateMutability": "view",
      "type": "function"
    },
    {
      "inputs": [
        {
          "internalType": "uint256",
          "name": "_paperId",
          "type": "uint256"
        }
      ],
      "name": "getTimeLockedKey",
      "outputs": [
        {
          "internalType": "bytes",
          "name": "",
          "type": "bytes"
        },
        {
          "internalType": "string",
          "name": "",
          "type": "string"
        }
      ],
      "stateMutability": "view",
      "type": "function"
    },
    {
      "inputs": [
        {
          "internalType": "uint256",
          "name": "_paperId",
          "type": "uint256"
        },
        {
          "internalType": "address",
          "name": "_center",
          "type": "address"
        }
      ],
      "name": "isAssignedToCenter",
      "outputs": [
        {
          "internalType": "bool",
          "name": "",
          "type": "bool"
        }
      ],
      "stateMutability": "view",
      "type": "function"
    },
    {
      "inputs": [
        {
          "internalType": "uint256",
          "name": "",
          "type": "uint256"
        },
        {
          "internalType": "address",
          "name": "",
          "type": "address"
        }
      ],
      "name": "paperAssignments",
      "outputs": [
        {
          "internalType": "bool",
          "name": "",
          "type": "bool"
        }
      ],
      "stateMutability": "view",
      "type": "function"
    },
    {
      "inputs": [
        {
          "internalType": "uint256",
          "name": "",
          "type": "uint256"
        },
        {
          "internalType": "address",
          "name": "",
          "type": "address"
        }
      ],
      "name": "paperClassrooms",
      "outputs": [
        {
          "internalType": "string",
          "name": "",
          "type": "string"
        }
      ],
      "stateMutability": "view",
      "type": "function"
    },
    {
      "inputs": [],
      "name": "paperCount",
      "outputs": [
        {
          "internalType": "uint256",
          "name": "",
          "type": "uint256"
        }
      ],
      "stateMutability": "view",
      "type": "function"
    },
    {
      "inputs": [
        {
          "internalType": "uint256",
          "name": "",
          "type": "uint256"
        }
      ],
      "name": "papers",
      "outputs": [
        {
          "internalType": "string",
          "name": "examName",
          "type": "string"
        },
        {
          "internalType": "string",
          "name": "subject",
          "type": "string"
        },
        {
          "internalType": "address",
          "name": "teacher",
          "type": "address"
        },
        {
          "internalType": "uint256",
          "name": "uploadTimestamp",
          "type": "uint256"
        },
        {
          "internalType": "uint256",
          "name": "unlockTimestamp",
          "type": "uint256"
        },
        {
          "internalType": "bool",
          "name": "isScheduled",
          "type": "bool"
        },
        {
          "internalType": "bool",
          "name": "isUnlocked",
          "type": "bool"
        },
        {
          "internalType": "address",
          "name": "authority",
          "type": "address"
        },
        {
          "internalType": "bytes",
          "name": "timeLockedKey",
          "type": "bytes"
        },
        {
          "internalType": "string",
          "name": "keyDerivationSalt",
          "type": "string"
        }
      ],
      "stateMutability": "view",
      "type": "function"
    },
    {
      "inputs": [
        {
          "internalType": "string",
          "name": "_name",
          "type": "string"
        }
      ],
      "name": "registerAuthority",
      "outputs": [],
      "stateMutability": "nonpayable",
      "type": "function"
    },
    {
      "inputs": [
        {
          "internalType": "string",
          "name": "_name",
          "type": "string"
        },
        {
          "internalType": "bytes",
          "name": "_publicKey",
          "type": "bytes"
        }
      ],
      "name": "registerExamCenter",
      "outputs": [],
      "stateMutability": "nonpayable",
      "type": "function"
    },
    {
      "inputs": [
        {
          "internalType": "uint256",
          "name": "_paperId",
          "type": "uint256"
        },
        {
          "internalType": "uint256",
          "name": "_unlockTimestamp",
          "type": "uint256"
        },
        {
          "internalType": "address[]",
          "name": "_centers",
          "type": "address[]"
        },
        {
          "internalType": "string[]",
          "name": "_classrooms",
          "type": "string[]"
        }
      ],
      "name": "scheduleExam",
      "outputs": [],
      "stateMutability": "nonpayable",
      "type": "function"
    },
    {
      "inputs": [
        {
          "internalType": "uint256",
          "name": "_paperId",
          "type": "uint256"
        }
      ],
      "name": "unlockPaper",
      "outputs": [],
      "stateMutability": "nonpayable",
      "type": "function"
    },
    {
      "inputs": [
        {
          "internalType": "string",
          "name": "_examName",
          "type": "string"
        },
        {
          "internalType": "string",
          "name": "_subject",
          "type": "string"
        },
        {
          "internalType": "string[]",
          "name": "_ipfsCIDs",
          "type": "string[]"
        },
        {
          "internalType": "bytes",
          "name": "_timeLockedKey",
          "type": "bytes"
        },
        {
          "internalType": "string",
          "name": "_keyDerivationSalt",
          "type": "string"
        }
      ],
      "name": "uploadPaper",
      "outputs": [
        {
          "internalType": "uint256",
          "name": "",
          "type": "uint256"
        }
      ],
      "stateMutability": "nonpayable",
      "type": "function"
    }
  ],
  "bytecode": "0x608060405234801561001057600080fd5b50614663806100206000396000f3fe608060405234801561001057600080fd5b506004361061012b5760003560e01c806393e9b6ed116100ad578063b5438f6d11610071578063b5438f6d1461039b578063b69dab68146103cb578063bc7cf6dd146103fb578063da0d83de1461042b578063fedf2c561461045b5761012b565b806393e9b6ed146102d15780639a0dd66614610301578063a56c2cb914610331578063a6470ba01461034f578063a930ecd71461037f5761012b565b806354a253dc116100f457806354a253dc146101e7578063554a14ac146102035780635e775a2714610235578063665fbc441461026e57806391223d691461029f5761012b565b8062c172a21461013057806307993f041461014c5780632460cf761461017c5780633b0ae1fd146101985780634cdf8093146101c8575b600080fd5b61014a60048036038101906101459190612e4e565b61047a565b005b61016660048036038101906101619190612efc565b6106b8565b6040516101739190613235565b60405180910390f35b61019660048036038101906101919190612efc565b610b4f565b005b6101b260048036038101906101ad9190613283565b610ca9565b6040516101bf91906132fa565b60405180910390f35b6101d0610d7d565b6040516101de929190613451565b60405180910390f35b61020160048036038101906101fc9190613631565b61100c565b005b61021d60048036038101906102189190613283565b6114d1565b60405161022c93929190613729565b60405180910390f35b61024f600480360381019061024a9190612efc565b611618565b6040516102659a9998979695949392919061378c565b60405180910390f35b61028860048036038101906102839190612efc565b6118e6565b604051610296929190613844565b60405180910390f35b6102b960048036038101906102b49190613283565b611e6c565b6040516102c89392919061387b565b60405180910390f35b6102eb60048036038101906102e691906138b9565b611f38565b6040516102f891906138f9565b60405180910390f35b61031b60048036038101906103169190612efc565b611ff3565b6040516103289190613914565b60405180910390f35b610339612032565b604051610346919061392f565b60405180910390f35b6103696004803603810190610364919061394a565b612038565b604051610376919061392f565b60405180910390f35b61039960048036038101906103949190613a51565b6123b1565b005b6103b560048036038101906103b09190612efc565b612573565b6040516103c29190613a9a565b60405180910390f35b6103e560048036038101906103e09190612efc565b612745565b6040516103f29190613914565b60405180910390f35b610415600480360381019061041091906138b9565b612784565b6040516104229190613a9a565b60405180910390f35b610445600480360381019061044091906138b9565b612831565b60405161045291906138f9565b60405180910390f35b610463612860565b604051610471929190613451565b60405180910390f35b60008251116104be576040517f08c379a00000000000000000000000000000000000000000000000000000000081526004016104b590613b08565b60405180910390fd5b6000815111610502576040517f08c379a00000000000000000000000000000000000000000000000000000000081526004016104f990613b74565b60405180910390fd5b600260003373ffffffffffffffffffffffffffffffffffffffff1673ffffffffffffffffffffffffffffffffffffffff16815260200190815260200160002060020160009054906101000a900460ff166105ba576003339080600181540180825580915050600190039060005260206000200160009091909190916101000a81548173ffffffffffffffffffffffffffffffffffffffff021916908373ffffffffffffffffffffffffffffffffffffffff1602179055505b604051806060016040528083815260200182815260200160011515815250600260003373ffffffffffffffffffffffffffffffffffffffff1673ffffffffffffffffffffffffffffffffffffffff168152602001908152602001600020600082015181600001908161062c9190613da0565b5060208201518160010190816106429190613ecd565b5060408201518160020160006101000a81548160ff0219169083151502179055509050503373ffffffffffffffffffffffffffffffffffffffff167f1ffb27eb65cbbc9dfaa75d97c82c72d0f599317651d968e7e4ea93553e154c92836040516106ac9190613a9a565b60405180910390a25050565b6106c0612aef565b816000811180156106d357506001548111155b610712576040517f08c379a000000000000000000000000000000000000000000000000000000000815260040161070990613feb565b60405180910390fd5b6000808481526020019081526020016000206040518061016001604052908160008201805461074090613bc3565b80601f016020809104026020016040519081016040528092919081815260200182805461076c90613bc3565b80156107b95780601f1061078e576101008083540402835291602001916107b9565b820191906000526020600020905b81548152906001019060200180831161079c57829003601f168201915b505050505081526020016001820180546107d290613bc3565b80601f01602080910402602001604051908101604052809291908181526020018280546107fe90613bc3565b801561084b5780601f106108205761010080835404028352916020019161084b565b820191906000526020600020905b81548152906001019060200180831161082e57829003601f168201915b505050505081526020016002820160009054906101000a900473ffffffffffffffffffffffffffffffffffffffff1673ffffffffffffffffffffffffffffffffffffffff1673ffffffffffffffffffffffffffffffffffffffff16815260200160038201805480602002602001604051908101604052809291908181526020016000905b8282101561097b5783829060005260206000200180546108ee90613bc3565b80601f016020809104026020016040519081016040528092919081815260200182805461091a90613bc3565b80156109675780601f1061093c57610100808354040283529160200191610967565b820191906000526020600020905b81548152906001019060200180831161094a57829003601f168201915b5050505050815260200190600101906108cf565b50505050815260200160048201548152602001600582015481526020016006820160009054906101000a900460ff161515151581526020016006820160019054906101000a900460ff161515151581526020016006820160029054906101000a900473ffffffffffffffffffffffffffffffffffffffff1673ffffffffffffffffffffffffffffffffffffffff1673ffffffffffffffffffffffffffffffffffffffff168152602001600782018054610a3390613bc3565b80601f0160208091040260200160405190810160405280929190818152602001828054610a5f90613bc3565b8015610aac5780601f10610a8157610100808354040283529160200191610aac565b820191906000526020600020905b815481529060010190602001808311610a8f57829003601f168201915b50505050508152602001600882018054610ac590613bc3565b80601f0160208091040260200160405190810160405280929190818152602001828054610af190613bc3565b8015610b3e5780601f10610b1357610100808354040283529160200191610b3e565b820191906000526020600020905b815481529060010190602001808311610b2157829003601f168201915b505050505081525050915050919050565b80600081118015610b6257506001548111155b610ba1576040517f08c379a0000000000000000000000000000000000000000000000000000000008152600401610b9890613feb565b60405180910390fd5b600080600084815260200190815260200160002090508060060160009054906101000a900460ff16610c08576040517f08c379a0000000000000000000000000000000000000000000000000000000008152600401610bff90614057565b60405180910390fd5b8060050154421015610c4f576040517f08c379a0000000000000000000000000000000000000000000000000000000008152600401610c46906140c3565b60405180910390fd5b60018160060160016101000a81548160ff021916908315150217905550827f79f7de7ac9a8923c7ccc915fb4c5041920583f938a5406435331e490e06e0cf342604051610c9c919061392f565b60405180910390a2505050565b6060600260008373ffffffffffffffffffffffffffffffffffffffff1673ffffffffffffffffffffffffffffffffffffffff1681526020019081526020016000206001018054610cf890613bc3565b80601f0160208091040260200160405190810160405280929190818152602001828054610d2490613bc3565b8015610d715780601f10610d4657610100808354040283529160200191610d71565b820191906000526020600020905b815481529060010190602001808311610d5457829003601f168201915b50505050509050919050565b606080600060038054905067ffffffffffffffff811115610da157610da0612c82565b5b604051908082528060200260200182016040528015610dcf5781602001602082028036833780820191505090505b509050600060038054905067ffffffffffffffff811115610df357610df2612c82565b5b604051908082528060200260200182016040528015610e2657816020015b6060815260200190600190039081610e115790505b50905060005b600380549050811015610fff5760038181548110610e4d57610e4c6140e3565b5b9060005260206000200160009054906101000a900473ffffffffffffffffffffffffffffffffffffffff16838281518110610e8b57610e8a6140e3565b5b602002602001019073ffffffffffffffffffffffffffffffffffffffff16908173ffffffffffffffffffffffffffffffffffffffff16815250506002600060038381548110610edd57610edc6140e3565b5b9060005260206000200160009054906101000a900473ffffffffffffffffffffffffffffffffffffffff1673ffffffffffffffffffffffffffffffffffffffff1673ffffffffffffffffffffffffffffffffffffffff1681526020019081526020016000206000018054610f5090613bc3565b80601f0160208091040260200160405190810160405280929190818152602001828054610f7c90613bc3565b8015610fc95780601f10610f9e57610100808354040283529160200191610fc9565b820191906000526020600020905b815481529060010190602001808311610fac57829003601f168201915b5050505050828281518110610fe157610fe06140e3565b5b60200260200101819052508080610ff790614141565b915050610e2c565b5081819350935050509091565b600460003373ffffffffffffffffffffffffffffffffffffffff1673ffffffffffffffffffffffffffffffffffffffff16815260200190815260200160002060010160009054906101000a900460ff1680156110b45750600460003373ffffffffffffffffffffffffffffffffffffffff1673ffffffffffffffffffffffffffffffffffffffff16815260200190815260200160002060010160019054906101000a900460ff165b6110f3576040517f08c379a00000000000000000000000000000000000000000000000000000000081526004016110ea906141d5565b60405180910390fd5b8360008111801561110657506001548111155b611145576040517f08c379a000000000000000000000000000000000000000000000000000000000815260040161113c90613feb565b60405180910390fd5b8151835114611189576040517f08c379a000000000000000000000000000000000000000000000000000000000815260040161118090614241565b60405180910390fd5b4284116111cb576040517f08c379a00000000000000000000000000000000000000000000000000000000081526004016111c2906142ad565b60405180910390fd5b600080600087815260200190815260200160002090508060060160009054906101000a900460ff1615611233576040517f08c379a000000000000000000000000000000000000000000000000000000000815260040161122a90614319565b60405180910390fd5b60005b84518110156114105760026000868381518110611256576112556140e3565b5b602002602001015173ffffffffffffffffffffffffffffffffffffffff1673ffffffffffffffffffffffffffffffffffffffff16815260200190815260200160002060020160009054906101000a900460ff166112e8576040517f08c379a00000000000000000000000000000000000000000000000000000000081526004016112df90614385565b60405180910390fd5b8381815181106112fb576112fa6140e3565b5b602002602001015160066000898152602001908152602001600020600087848151811061132b5761132a6140e3565b5b602002602001015173ffffffffffffffffffffffffffffffffffffffff1673ffffffffffffffffffffffffffffffffffffffff16815260200190815260200160002090816113799190613da0565b5060016007600089815260200190815260200160002060008784815181106113a4576113a36140e3565b5b602002602001015173ffffffffffffffffffffffffffffffffffffffff1673ffffffffffffffffffffffffffffffffffffffff16815260200190815260200160002060006101000a81548160ff021916908315150217905550808061140890614141565b915050611236565b5084816005018190555060018160060160006101000a81548160ff021916908315150217905550338160060160026101000a81548173ffffffffffffffffffffffffffffffffffffffff021916908373ffffffffffffffffffffffffffffffffffffffff1602179055503373ffffffffffffffffffffffffffffffffffffffff16867f3d33224841a69211485d8e455a900b8e87a0cf87d2e1df52f1ea56ebc485d700876040516114c1919061392f565b60405180910390a3505050505050565b60026020528060005260406000206000915090508060000180546114f490613bc3565b80601f016020809104026020016040519081016040528092919081815260200182805461152090613bc3565b801561156d5780601f106115425761010080835404028352916020019161156d565b820191906000526020600020905b81548152906001019060200180831161155057829003601f168201915b50505050509080600101805461158290613bc3565b80601f01602080910402602001604051908101604052809291908181526020018280546115ae90613bc3565b80156115fb5780601f106115d0576101008083540402835291602001916115fb565b820191906000526020600020905b8154815290600101906020018083116115de57829003601f168201915b5050505050908060020160009054906101000a900460ff16905083565b600060205280600052604060002060009150905080600001805461163b90613bc3565b80601f016020809104026020016040519081016040528092919081815260200182805461166790613bc3565b80156116b45780601f10611689576101008083540402835291602001916116b4565b820191906000526020600020905b81548152906001019060200180831161169757829003601f168201915b5050505050908060010180546116c990613bc3565b80601f01602080910402602001604051908101604052809291908181526020018280546116f590613bc3565b80156117425780601f1061171757610100808354040283529160200191611742565b820191906000526020600020905b81548152906001019060200180831161172557829003601f168201915b5050505050908060020160009054906101000a900473ffffffffffffffffffffffffffffffffffffffff16908060040154908060050154908060060160009054906101000a900460ff16908060060160019054906101000a900460ff16908060060160029054906101000a900473ffffffffffffffffffffffffffffffffffffffff16908060070180546117d590613bc3565b80601f016020809104026020016040519081016040528092919081815260200182805461180190613bc3565b801561184e5780601f106118235761010080835404028352916020019161184e565b820191906000526020600020905b81548152906001019060200180831161183157829003601f168201915b50505050509080600801805461186390613bc3565b80601f016020809104026020016040519081016040528092919081815260200182805461188f90613bc3565b80156118dc5780601f106118b1576101008083540402835291602001916118dc565b820191906000526020600020905b8154815290600101906020018083116118bf57829003601f168201915b505050505090508a565b606080826000811180156118fc57506001548111155b61193b576040517f08c379a000000000000000000000000000000000000000000000000000000000815260040161193290613feb565b60405180910390fd5b60008060008681526020019081526020016000206040518061016001604052908160008201805461196b90613bc3565b80601f016020809104026020016040519081016040528092919081815260200182805461199790613bc3565b80156119e45780601f106119b9576101008083540402835291602001916119e4565b820191906000526020600020905b8154815290600101906020018083116119c757829003601f168201915b505050505081526020016001820180546119fd90613bc3565b80601f0160208091040260200160405190810160405280929190818152602001828054611a2990613bc3565b8015611a765780601f10611a4b57610100808354040283529160200191611a76565b820191906000526020600020905b815481529060010190602001808311611a5957829003601f168201915b505050505081526020016002820160009054906101000a900473ffffffffffffffffffffffffffffffffffffffff1673ffffffffffffffffffffffffffffffffffffffff1673ffffffffffffffffffffffffffffffffffffffff16815260200160038201805480602002602001604051908101604052809291908181526020016000905b82821015611ba6578382906000526020600020018054611b1990613bc3565b80601f0160208091040260200160405190810160405280929190818152602001828054611b4590613bc3565b8015611b925780601f10611b6757610100808354040283529160200191611b92565b820191906000526020600020905b815481529060010190602001808311611b7557829003601f168201915b505050505081526020019060010190611afa565b50505050815260200160048201548152602001600582015481526020016006820160009054906101000a900460ff161515151581526020016006820160019054906101000a900460ff161515151581526020016006820160029054906101000a900473ffffffffffffffffffffffffffffffffffffffff1673ffffffffffffffffffffffffffffffffffffffff1673ffffffffffffffffffffffffffffffffffffffff168152602001600782018054611c5e90613bc3565b80601f0160208091040260200160405190810160405280929190818152602001828054611c8a90613bc3565b8015611cd75780601f10611cac57610100808354040283529160200191611cd7565b820191906000526020600020905b815481529060010190602001808311611cba57829003601f168201915b50505050508152602001600882018054611cf090613bc3565b80601f0160208091040260200160405190810160405280929190818152602001828054611d1c90613bc3565b8015611d695780601f10611d3e57610100808354040283529160200191611d69565b820191906000526020600020905b815481529060010190602001808311611d4c57829003601f168201915b50505050508152505090508060e00151611db8576040517f08c379a0000000000000000000000000000000000000000000000000000000008152600401611daf906143f1565b60405180910390fd5b6007600086815260200190815260200160002060003373ffffffffffffffffffffffffffffffffffffffff1673ffffffffffffffffffffffffffffffffffffffff16815260200190815260200160002060009054906101000a900460ff16611e55576040517f08c379a0000000000000000000000000000000000000000000000000000000008152600401611e4c9061445d565b60405180910390fd5b806101200151816101400151935093505050915091565b6004602052806000526040600020600091509050806000018054611e8f90613bc3565b80601f0160208091040260200160405190810160405280929190818152602001828054611ebb90613bc3565b8015611f085780601f10611edd57610100808354040283529160200191611f08565b820191906000526020600020905b815481529060010190602001808311611eeb57829003601f168201915b5050505050908060010160009054906101000a900460ff16908060010160019054906101000a900460ff16905083565b600082600081118015611f4d57506001548111155b611f8c576040517f08c379a0000000000000000000000000000000000000000000000000000000008152600401611f8390613feb565b60405180910390fd5b6007600085815260200190815260200160002060008473ffffffffffffffffffffffffffffffffffffffff1673ffffffffffffffffffffffffffffffffffffffff16815260200190815260200160002060009054906101000a900460ff1691505092915050565b6003818154811061200357600080fd5b906000526020600020016000915054906101000a900473ffffffffffffffffffffffffffffffffffffffff1681565b60015481565b60008086511161207d576040517f08c379a0000000000000000000000000000000000000000000000000000000008152600401612074906144c9565b60405180910390fd5b60008451116120c1576040517f08c379a00000000000000000000000000000000000000000000000000000000081526004016120b890614535565b60405180910390fd5b6000835111612105576040517f08c379a00000000000000000000000000000000000000000000000000000000081526004016120fc906145a1565b60405180910390fd5b6000825111612149576040517f08c379a00000000000000000000000000000000000000000000000000000000081526004016121409061460d565b60405180910390fd5b6001600081548092919061215c90614141565b91905055506040518061016001604052808781526020018681526020013373ffffffffffffffffffffffffffffffffffffffff16815260200185815260200142815260200160008152602001600015158152602001600015158152602001600073ffffffffffffffffffffffffffffffffffffffff168152602001848152602001838152506000806001548152602001908152602001600020600082015181600001908161220a9190613da0565b5060208201518160010190816122209190613da0565b5060408201518160020160006101000a81548173ffffffffffffffffffffffffffffffffffffffff021916908373ffffffffffffffffffffffffffffffffffffffff1602179055506060820151816003019080519060200190612284929190612b79565b506080820151816004015560a0820151816005015560c08201518160060160006101000a81548160ff02191690831515021790555060e08201518160060160016101000a81548160ff0219169083151502179055506101008201518160060160026101000a81548173ffffffffffffffffffffffffffffffffffffffff021916908373ffffffffffffffffffffffffffffffffffffffff1602179055506101208201518160070190816123379190613ecd565b5061014082015181600801908161234e9190613da0565b509050503373ffffffffffffffffffffffffffffffffffffffff166001547ff2addd0844bf6c683670be19a71fe7603380bdc0b1a9ecde0137f08b5e0d644a8860405161239b9190613a9a565b60405180910390a3600154905095945050505050565b600460003373ffffffffffffffffffffffffffffffffffffffff1673ffffffffffffffffffffffffffffffffffffffff16815260200190815260200160002060010160009054906101000a900460ff16612469576005339080600181540180825580915050600190039060005260206000200160009091909190916101000a81548173ffffffffffffffffffffffffffffffffffffffff021916908373ffffffffffffffffffffffffffffffffffffffff1602179055505b604051806060016040528082815260200160011515815260200160011515815250600460003373ffffffffffffffffffffffffffffffffffffffff1673ffffffffffffffffffffffffffffffffffffffff16815260200190815260200160002060008201518160000190816124de9190613da0565b5060208201518160010160006101000a81548160ff02191690831515021790555060408201518160010160016101000a81548160ff0219169083151502179055509050503373ffffffffffffffffffffffffffffffffffffffff167f8b3ab3ac57020b92e516b703bb37e5b4d0b12cc6c39d69288f9380be3f19dcbe826040516125689190613a9a565b60405180910390a250565b60608160008111801561258857506001548111155b6125c7576040517f08c379a00000000000000000000000000000000000000000000000000000000081526004016125be90613feb565b60405180910390fd5b6007600084815260200190815260200160002060003373ffffffffffffffffffffffffffffffffffffffff1673ffffffffffffffffffffffffffffffffffffffff16815260200190815260200160002060009054906101000a900460ff16612664576040517f08c379a000000000000000000000000000000000000000000000000000000000815260040161265b9061445d565b60405180910390fd5b6006600084815260200190815260200160002060003373ffffffffffffffffffffffffffffffffffffffff1673ffffffffffffffffffffffffffffffffffffffff16815260200190815260200160002080546126bf90613bc3565b80601f01602080910402602001604051908101604052809291908181526020018280546126eb90613bc3565b80156127385780601f1061270d57610100808354040283529160200191612738565b820191906000526020600020905b81548152906001019060200180831161271b57829003601f168201915b5050505050915050919050565b6005818154811061275557600080fd5b906000526020600020016000915054906101000a900473ffffffffffffffffffffffffffffffffffffffff1681565b60066020528160005260406000206020528060005260406000206000915091505080546127b090613bc3565b80601f01602080910402602001604051908101604052809291908181526020018280546127dc90613bc3565b80156128295780601f106127fe57610100808354040283529160200191612829565b820191906000526020600020905b81548152906001019060200180831161280c57829003601f168201915b505050505081565b60076020528160005260406000206020528060005260406000206000915091509054906101000a900460ff1681565b606080600060058054905067ffffffffffffffff81111561288457612883612c82565b5b6040519080825280602002602001820160405280156128b25781602001602082028036833780820191505090505b509050600060058054905067ffffffffffffffff8111156128d6576128d5612c82565b5b60405190808252806020026020018201604052801561290957816020015b60608152602001906001900390816128f45790505b50905060005b600580549050811015612ae257600581815481106129305761292f6140e3565b5b9060005260206000200160009054906101000a900473ffffffffffffffffffffffffffffffffffffffff1683828151811061296e5761296d6140e3565b5b602002602001019073ffffffffffffffffffffffffffffffffffffffff16908173ffffffffffffffffffffffffffffffffffffffff168152505060046000600583815481106129c0576129bf6140e3565b5b9060005260206000200160009054906101000a900473ffffffffffffffffffffffffffffffffffffffff1673ffffffffffffffffffffffffffffffffffffffff1673ffffffffffffffffffffffffffffffffffffffff1681526020019081526020016000206000018054612a3390613bc3565b80601f0160208091040260200160405190810160405280929190818152602001828054612a5f90613bc3565b8015612aac5780601f10612a8157610100808354040283529160200191612aac565b820191906000526020600020905b815481529060010190602001808311612a8f57829003601f168201915b5050505050828281518110612ac457612ac36140e3565b5b60200260200101819052508080612ada90614141565b91505061290f565b5081819350935050509091565b6040518061016001604052806060815260200160608152602001600073ffffffffffffffffffffffffffffffffffffffff168152602001606081526020016000815260200160008152602001600015158152602001600015158152602001600073ffffffffffffffffffffffffffffffffffffffff16815260200160608152602001606081525090565b828054828255906000526020600020908101928215612bc1579160200282015b82811115612bc0578251829081612bb09190613da0565b5091602001919060010190612b99565b5b509050612bce9190612bd2565b5090565b5b80821115612bf25760008181612be99190612bf6565b50600101612bd3565b5090565b508054612c0290613bc3565b6000825580601f10612c145750612c33565b601f016020900490600052602060002090810190612c329190612c36565b5b50565b5b80821115612c4f576000816000905550600101612c37565b5090565b6000604051905090565b600080fd5b600080fd5b600080fd5b600080fd5b6000601f19601f8301169050919050565b7f4e487b7100000000000000000000000000000000000000000000000000000000600052604160045260246000fd5b612cba82612c71565b810181811067ffffffffffffffff82111715612cd957612cd8612c82565b5b80604052505050565b6000612cec612c53565b9050612cf88282612cb1565b919050565b600067ffffffffffffffff821115612d1857612d17612c82565b5b612d2182612c71565b9050602081019050919050565b82818337600083830152505050565b6000612d50612d4b84612cfd565b612ce2565b905082815260208101848484011115612d6c57612d6b612c6c565b5b612d77848285612d2e565b509392505050565b600082601f830112612d9457612d93612c67565b5b8135612da4848260208601612d3d565b91505092915050565b600067ffffffffffffffff821115612dc857612dc7612c82565b5b612dd182612c71565b9050602081019050919050565b6000612df1612dec84612dad565b612ce2565b905082815260208101848484011115612e0d57612e0c612c6c565b5b612e18848285612d2e565b509392505050565b600082601f830112612e3557612e34612c67565b5b8135612e45848260208601612dde565b91505092915050565b60008060408385031215612e6557612e64612c5d565b5b600083013567ffffffffffffffff811115612e8357612e82612c62565b5b612e8f85828601612d7f565b925050602083013567ffffffffffffffff811115612eb057612eaf612c62565b5b612ebc85828601612e20565b9150509250929050565b6000819050919050565b612ed981612ec6565b8114612ee457600080fd5b50565b600081359050612ef681612ed0565b92915050565b600060208284031215612f1257612f11612c5d565b5b6000612f2084828501612ee7565b91505092915050565b600081519050919050565b600082825260208201905092915050565b60005b83811015612f63578082015181840152602081019050612f48565b60008484015250505050565b6000612f7a82612f29565b612f848185612f34565b9350612f94818560208601612f45565b612f9d81612c71565b840191505092915050565b600073ffffffffffffffffffffffffffffffffffffffff82169050919050565b6000612fd382612fa8565b9050919050565b612fe381612fc8565b82525050565b600081519050919050565b600082825260208201905092915050565b6000819050602082019050919050565b60006130218383612f6f565b905092915050565b6000602082019050919050565b600061304182612fe9565b61304b8185612ff4565b93508360208202850161305d85613005565b8060005b85811015613099578484038952815161307a8582613015565b945061308583613029565b925060208a01995050600181019050613061565b50829750879550505050505092915050565b6130b481612ec6565b82525050565b60008115159050919050565b6130cf816130ba565b82525050565b600081519050919050565b600082825260208201905092915050565b60006130fc826130d5565b61310681856130e0565b9350613116818560208601612f45565b61311f81612c71565b840191505092915050565b60006101608301600083015184820360008601526131488282612f6f565b915050602083015184820360208601526131628282612f6f565b91505060408301516131776040860182612fda565b506060830151848203606086015261318f8282613036565b91505060808301516131a460808601826130ab565b5060a08301516131b760a08601826130ab565b5060c08301516131ca60c08601826130c6565b5060e08301516131dd60e08601826130c6565b506101008301516131f2610100860182612fda565b5061012083015184820361012086015261320c82826130f1565b9150506101408301518482036101408601526132288282612f6f565b9150508091505092915050565b6000602082019050818103600083015261324f818461312a565b905092915050565b61326081612fc8565b811461326b57600080fd5b50565b60008135905061327d81613257565b92915050565b60006020828403121561329957613298612c5d565b5b60006132a78482850161326e565b91505092915050565b600082825260208201905092915050565b60006132cc826130d5565b6132d681856132b0565b93506132e6818560208601612f45565b6132ef81612c71565b840191505092915050565b6000602082019050818103600083015261331481846132c1565b905092915050565b600081519050919050565b600082825260208201905092915050565b6000819050602082019050919050565b60006133548383612fda565b60208301905092915050565b6000602082019050919050565b60006133788261331c565b6133828185613327565b935061338d83613338565b8060005b838110156133be5781516133a58882613348565b97506133b083613360565b925050600181019050613391565b5085935050505092915050565b600082825260208201905092915050565b60006133e782612fe9565b6133f181856133cb565b93508360208202850161340385613005565b8060005b8581101561343f57848403895281516134208582613015565b945061342b83613029565b925060208a01995050600181019050613407565b50829750879550505050505092915050565b6000604082019050818103600083015261346b818561336d565b9050818103602083015261347f81846133dc565b90509392505050565b600067ffffffffffffffff8211156134a3576134a2612c82565b5b602082029050602081019050919050565b600080fd5b60006134cc6134c784613488565b612ce2565b905080838252602082019050602084028301858111156134ef576134ee6134b4565b5b835b818110156135185780613504888261326e565b8452602084019350506020810190506134f1565b5050509392505050565b600082601f83011261353757613536612c67565b5b81356135478482602086016134b9565b91505092915050565b600067ffffffffffffffff82111561356b5761356a612c82565b5b602082029050602081019050919050565b600061358f61358a84613550565b612ce2565b905080838252602082019050602084028301858111156135b2576135b16134b4565b5b835b818110156135f957803567ffffffffffffffff8111156135d7576135d6612c67565b5b8086016135e48982612d7f565b855260208501945050506020810190506135b4565b5050509392505050565b600082601f83011261361857613617612c67565b5b813561362884826020860161357c565b91505092915050565b6000806000806080858703121561364b5761364a612c5d565b5b600061365987828801612ee7565b945050602061366a87828801612ee7565b935050604085013567ffffffffffffffff81111561368b5761368a612c62565b5b61369787828801613522565b925050606085013567ffffffffffffffff8111156136b8576136b7612c62565b5b6136c487828801613603565b91505092959194509250565b600082825260208201905092915050565b60006136ec82612f29565b6136f681856136d0565b9350613706818560208601612f45565b61370f81612c71565b840191505092915050565b613723816130ba565b82525050565b6000606082019050818103600083015261374381866136e1565b9050818103602083015261375781856132c1565b9050613766604083018461371a565b949350505050565b61377781612fc8565b82525050565b61378681612ec6565b82525050565b60006101408201905081810360008301526137a7818d6136e1565b905081810360208301526137bb818c6136e1565b90506137ca604083018b61376e565b6137d7606083018a61377d565b6137e4608083018961377d565b6137f160a083018861371a565b6137fe60c083018761371a565b61380b60e083018661376e565b81810361010083015261381e81856132c1565b905081810361012083015261383381846136e1565b90509b9a5050505050505050505050565b6000604082019050818103600083015261385e81856132c1565b9050818103602083015261387281846136e1565b90509392505050565b6000606082019050818103600083015261389581866136e1565b90506138a4602083018561371a565b6138b1604083018461371a565b949350505050565b600080604083850312156138d0576138cf612c5d565b5b60006138de85828601612ee7565b92505060206138ef8582860161326e565b9150509250929050565b600060208201905061390e600083018461371a565b92915050565b6000602082019050613929600083018461376e565b92915050565b6000602082019050613944600083018461377d565b92915050565b600080600080600060a0868803121561396657613965612c5d565b5b600086013567ffffffffffffffff81111561398457613983612c62565b5b61399088828901612d7f565b955050602086013567ffffffffffffffff8111156139b1576139b0612c62565b5b6139bd88828901612d7f565b945050604086013567ffffffffffffffff8111156139de576139dd612c62565b5b6139ea88828901613603565b935050606086013567ffffffffffffffff811115613a0b57613a0a612c62565b5b613a1788828901612e20565b925050608086013567ffffffffffffffff811115613a3857613a37612c62565b5b613a4488828901612d7f565b9150509295509295909350565b600060208284031215613a6757613a66612c5d565b5b600082013567ffffffffffffffff811115613a8557613a84612c62565b5b613a9184828501612d7f565b91505092915050565b60006020820190508181036000830152613ab481846136e1565b905092915050565b7f4e616d6520726571756972656400000000000000000000000000000000000000600082015250565b6000613af2600d836136d0565b9150613afd82613abc565b602082019050919050565b60006020820190508181036000830152613b2181613ae5565b9050919050565b7f5075626c6963206b657920726571756972656400000000000000000000000000600082015250565b6000613b5e6013836136d0565b9150613b6982613b28565b602082019050919050565b60006020820190508181036000830152613b8d81613b51565b9050919050565b7f4e487b7100000000000000000000000000000000000000000000000000000000600052602260045260246000fd5b60006002820490506001821680613bdb57607f821691505b602082108103613bee57613bed613b94565b5b50919050565b60008190508160005260206000209050919050565b60006020601f8301049050919050565b600082821b905092915050565b600060088302613c567fffffffffffffffffffffffffffffffffffffffffffffffffffffffffffffffff82613c19565b613c608683613c19565b95508019841693508086168417925050509392505050565b6000819050919050565b6000613c9d613c98613c9384612ec6565b613c78565b612ec6565b9050919050565b6000819050919050565b613cb783613c82565b613ccb613cc382613ca4565b848454613c26565b825550505050565b600090565b613ce0613cd3565b613ceb818484613cae565b505050565b5b81811015613d0f57613d04600082613cd8565b600181019050613cf1565b5050565b601f821115613d5457613d2581613bf4565b613d2e84613c09565b81016020851015613d3d578190505b613d51613d4985613c09565b830182613cf0565b50505b505050565b600082821c905092915050565b6000613d7760001984600802613d59565b1980831691505092915050565b6000613d908383613d66565b9150826002028217905092915050565b613da982612f29565b67ffffffffffffffff811115613dc257613dc1612c82565b5b613dcc8254613bc3565b613dd7828285613d13565b600060209050601f831160018114613e0a5760008415613df8578287015190505b613e028582613d84565b865550613e6a565b601f198416613e1886613bf4565b60005b82811015613e4057848901518255600182019150602085019450602081019050613e1b565b86831015613e5d5784890151613e59601f891682613d66565b8355505b6001600288020188555050505b505050505050565b60008190508160005260206000209050919050565b601f821115613ec857613e9981613e72565b613ea284613c09565b81016020851015613eb1578190505b613ec5613ebd85613c09565b830182613cf0565b50505b505050565b613ed6826130d5565b67ffffffffffffffff811115613eef57613eee612c82565b5b613ef98254613bc3565b613f04828285613e87565b600060209050601f831160018114613f375760008415613f25578287015190505b613f2f8582613d84565b865550613f97565b601f198416613f4586613e72565b60005b82811015613f6d57848901518255600182019150602085019450602081019050613f48565b86831015613f8a5784890151613f86601f891682613d66565b8355505b6001600288020188555050505b505050505050565b7f496e76616c696420706170657220494400000000000000000000000000000000600082015250565b6000613fd56010836136d0565b9150613fe082613f9f565b602082019050919050565b6000602082019050818103600083015261400481613fc8565b9050919050565b7f5061706572206e6f74207363686564756c656400000000000000000000000000600082015250565b60006140416013836136d0565b915061404c8261400b565b602082019050919050565b6000602082019050818103600083015261407081614034565b9050919050565b7f546f6f206561726c7920746f20756e6c6f636b00000000000000000000000000600082015250565b60006140ad6013836136d0565b91506140b882614077565b602082019050919050565b600060208201905081810360008301526140dc816140a0565b9050919050565b7f4e487b7100000000000000000000000000000000000000000000000000000000600052603260045260246000fd5b7f4e487b7100000000000000000000000000000000000000000000000000000000600052601160045260246000fd5b600061414c82612ec6565b91507fffffffffffffffffffffffffffffffffffffffffffffffffffffffffffffffff820361417e5761417d614112565b5b600182019050919050565b7f4e6f7420617574686f72697a6564000000000000000000000000000000000000600082015250565b60006141bf600e836136d0565b91506141ca82614189565b602082019050919050565b600060208201905081810360008301526141ee816141b2565b9050919050565b7f43656e746572732f436c617373726f6f6d73206d69736d617463680000000000600082015250565b600061422b601b836136d0565b9150614236826141f5565b602082019050919050565b6000602082019050818103600083015261425a8161421e565b9050919050565b7f556e6c6f636b2074696d65206d75737420626520696e20667574757265000000600082015250565b6000614297601d836136d0565b91506142a282614261565b602082019050919050565b600060208201905081810360008301526142c68161428a565b9050919050565b7f506170657220616c7265616479207363686564756c6564000000000000000000600082015250565b60006143036017836136d0565b915061430e826142cd565b602082019050919050565b60006020820190508181036000830152614332816142f6565b9050919050565b7f43656e746572206e6f7420726567697374657265640000000000000000000000600082015250565b600061436f6015836136d0565b915061437a82614339565b602082019050919050565b6000602082019050818103600083015261439e81614362565b9050919050565b7f5061706572206e6f7420756e6c6f636b65642079657400000000000000000000600082015250565b60006143db6016836136d0565b91506143e6826143a5565b602082019050919050565b6000602082019050818103600083015261440a816143ce565b9050919050565b7f4e6f742061737369676e656420746f2074686973207061706572000000000000600082015250565b6000614447601a836136d0565b915061445282614411565b602082019050919050565b600060208201905081810360008301526144768161443a565b9050919050565b7f4578616d206e616d652072657175697265640000000000000000000000000000600082015250565b60006144b36012836136d0565b91506144be8261447d565b602082019050919050565b600060208201905081810360008301526144e2816144a6565b9050919050565b7f4950465320434944732072657175697265640000000000000000000000000000600082015250565b600061451f6012836136d0565b915061452a826144e9565b602082019050919050565b6000602082019050818103600083015261454e81614512565b9050919050565b7f54696d652d6c6f636b6564206b65792072657175697265640000000000000000600082015250565b600061458b6018836136d0565b915061459682614555565b602082019050919050565b600060208201905081810360008301526145ba8161457e565b9050919050565b7f4b65792064657269766174696f6e2073616c7420726571756972656400000000600082015250565b60006145f7601c836136d0565b9150614602826145c1565b602082019050919050565b60006020820190508181036000830152614626816145ea565b905091905056fea2646970667358221220910ea4cfb45cf3f9981b8a12833fa436d46a01198e7ca25a51bae8d96a20c09164736f6c63430008140033",
  "linkReferences": {},
  "deployedLinkReferences": {}
}