{
  "_format": "hh-sol-artifact-1",
  "contractName": "ExamRegistry",
  "sourceName": "contracts/ExamRegistry.sol",
  "abi": [
    {
      "anonymous": false,
      "inputs": [
        {
          "indexed": true,
          "internalType": "address",
          "name": "authority",
          "type": "address"
        },
        {
          "indexed": false,
          "internalType": "bytes",
          "name": "publicKey",
          "type": "bytes"
        }
      ],
      "name": "AuthorityRegistered",
      "type": "event"
    },
    {
      "anonymous": false,
      "inputs": [
        {
          "indexed": true,
          "internalType": "address",
          "name": "centerAddress",
          "type": "address"
        },
        {
          "indexed": false,
          "internalType": "string",
          "name": "name",
          "type": "string"
        }
      ],
      "name": "CenterRegistered",
      "type": "event"
    },
    {
      "anonymous": false,
      "inputs": [
        {
          "indexed": true,
          "internalType": "uint256",
          "name": "paperId",
          "type": "uint256"
        },
        {
          "indexed": false,
          "internalType": "uint256",
          "name": "unlockTimestamp",
          "type": "uint256"
        },
        {
          "indexed": true,
          "internalType": "address",
          "name": "authority",
          "type": "address"
        }
      ],
      "name": "PaperScheduled",
      "type": "event"
    },
    {
      "anonymous": false,
      "inputs": [
        {
          "indexed": true,
          "internalType": "uint256",
          "name": "paperId",
          "type": "uint256"
        },
        {
          "indexed": false,
          "internalType": "uint256",
          "name": "timestamp",
          "type": "uint256"
        }
      ],
      "name": "PaperUnlocked",
      "type": "event"
    },
    {
      "anonymous": false,
      "inputs": [
        {
          "indexed": true,
          "internalType": "uint256",
          "name": "paperId",
          "type": "uint256"
        },
        {
          "indexed": false,
          "internalType": "string",
          "name": "examName",
          "type": "string"
        },
        {
          "indexed": true,
          "internalType": "address",
          "name": "teacher",
          "type": "address"
        }
      ],
      "name": "PaperUploaded",
      "type": "event"
    },
    {
      "inputs": [],
      "name": "authorityPublicKey",
      "outputs": [
        {
          "internalType": "bytes",
          "name": "",
          "type": "bytes"
        }
      ],
      "stateMutability": "view",
      "type": "function"
    },
    {
      "inputs": [
        {
          "internalType": "uint256",
          "name": "",
          "type": "uint256"
        }
      ],
      "name": "centerAddresses",
      "outputs": [
        {
          "internalType": "address",
          "name": "",
          "type": "address"
        }
      ],
      "stateMutability": "view",
      "type": "function"
    },
    {
      "inputs": [
        {
          "internalType": "address",
          "name": "",
          "type": "address"
        }
      ],
      "name": "centers",
      "outputs": [
        {
          "internalType": "string",
          "name": "name",
          "type": "string"
        },
        {
          "internalType": "bytes",
          "name": "publicKey",
          "type": "bytes"
        },
        {
          "internalType": "bool",
          "name": "isRegistered",
          "type": "bool"
        }
      ],
      "stateMutability": "view",
      "type": "function"
    },
    {
      "inputs": [],
      "name": "getAllCenters",
      "outputs": [
        {
          "internalType": "address[]",
          "name": "",
          "type": "address[]"
        },
        {
          "internalType": "string[]",
          "name": "",
          "type": "string[]"
        }
      ],
      "stateMutability": "view",
      "type": "function"
    },
    {
      "inputs": [
        {
          "internalType": "address",
          "name": "_center",
          "type": "address"
        }
      ],
      "name": "getCenterPublicKey",
      "outputs": [
        {
          "internalType": "bytes",
          "name": "",
          "type": "bytes"
        }
      ],
      "stateMutability": "view",
      "type": "function"
    },
    {
      "inputs": [
        {
          "internalType": "uint256",
          "name": "_paperId",
          "type": "uint256"
        }
      ],
      "name": "getMyClassroom",
      "outputs": [
        {
          "internalType": "string",
          "name": "",
          "type": "string"
        }
      ],
      "stateMutability": "view",
      "type": "function"
    },
    {
      "inputs": [
        {
          "internalType": "uint256",
          "name": "_paperId",
          "type": "uint256"
        }
      ],
      "name": "getMyPaperKey",
      "outputs": [
        {
          "internalType": "bytes",
          "name": "",
          "type": "bytes"
        }
      ],
      "stateMutability": "view",
      "type": "function"
    },
    {
      "inputs": [
        {
          "internalType": "uint256",
          "name": "_paperId",
          "type": "uint256"
        }
      ],
      "name": "getPaper",
      "outputs": [
        {
          "components": [
            {
              "internalType": "string",
              "name": "examName",
              "type": "string"
            },
            {
              "internalType": "string",
              "name": "subject",
              "type": "string"
            },
            {
              "internalType": "address",
              "name": "teacher",
              "type": "address"
            },
            {
              "internalType": "string[]",
              "name": "ipfsCIDs",
              "type": "string[]"
            },
            {
              "internalType": "uint256",
              "name": "uploadTimestamp",
              "type": "uint256"
            },
            {
              "internalType": "uint256",
              "name": "unlockTimestamp",
              "type": "uint256"
            },
            {
              "internalType": "bool",
              "name": "isScheduled",
              "type": "bool"
            },
            {
              "internalType": "bool",
              "name": "isUnlocked",
              "type": "bool"
            },
            {
              "internalType": "address",
              "name": "authority",
              "type": "address"
            },
            {
              "internalType": "bytes",
              "name": "authorityEncryptedKey",
              "type": "bytes"
            }
          ],
          "internalType": "struct ExamRegistry.Paper",
          "name": "",
          "type": "tuple"
        }
      ],
      "stateMutability": "view",
      "type": "function"
    },
    {
      "inputs": [
        {
          "internalType": "uint256",
          "name": "",
          "type": "uint256"
        },
        {
          "internalType": "address",
          "name": "",
          "type": "address"
        }
      ],
      "name": "paperClassrooms",
      "outputs": [
        {
          "internalType": "string",
          "name": "",
          "type": "string"
        }
      ],
      "stateMutability": "view",
      "type": "function"
    },
    {
      "inputs": [],
      "name": "paperCount",
      "outputs": [
        {
          "internalType": "uint256",
          "name": "",
          "type": "uint256"
        }
      ],
      "stateMutability": "view",
      "type": "function"
    },
    {
      "inputs": [
        {
          "internalType": "uint256",
          "name": "",
          "type": "uint256"
        },
        {
          "internalType": "address",
          "name": "",
          "type": "address"
        }
      ],
      "name": "paperKeys",
      "outputs": [
        {
          "internalType": "bytes",
          "name": "",
          "type": "bytes"
        }
      ],
      "stateMutability": "view",
      "type": "function"
    },
    {
      "inputs": [
        {
          "internalType": "uint256",
          "name": "",
          "type": "uint256"
        }
      ],
      "name": "papers",
      "outputs": [
        {
          "internalType": "string",
          "name": "examName",
          "type": "string"
        },
        {
          "internalType": "string",
          "name": "subject",
          "type": "string"
        },
        {
          "internalType": "address",
          "name": "teacher",
          "type": "address"
        },
        {
          "internalType": "uint256",
          "name": "uploadTimestamp",
          "type": "uint256"
        },
        {
          "internalType": "uint256",
          "name": "unlockTimestamp",
          "type": "uint256"
        },
        {
          "internalType": "bool",
          "name": "isScheduled",
          "type": "bool"
        },
        {
          "internalType": "bool",
          "name": "isUnlocked",
          "type": "bool"
        },
        {
          "internalType": "address",
          "name": "authority",
          "type": "address"
        },
        {
          "internalType": "bytes",
          "name": "authorityEncryptedKey",
          "type": "bytes"
        }
      ],
      "stateMutability": "view",
      "type": "function"
    },
    {
      "inputs": [
        {
          "internalType": "bytes",
          "name": "_publicKey",
          "type": "bytes"
        }
      ],
      "name": "registerAuthority",
      "outputs": [],
      "stateMutability": "nonpayable",
      "type": "function"
    },
    {
      "inputs": [
        {
          "internalType": "string",
          "name": "_name",
          "type": "string"
        },
        {
          "internalType": "bytes",
          "name": "_publicKey",
          "type": "bytes"
        }
      ],
      "name": "registerExamCenter",
      "outputs": [],
      "stateMutability": "nonpayable",
      "type": "function"
    },
    {
      "inputs": [
        {
          "internalType": "uint256",
          "name": "_paperId",
          "type": "uint256"
        },
        {
          "internalType": "uint256",
          "name": "_unlockTimestamp",
          "type": "uint256"
        },
        {
          "internalType": "address[]",
          "name": "_centers",
          "type": "address[]"
        },
        {
          "internalType": "string[]",
          "name": "_classrooms",
          "type": "string[]"
        },
        {
          "internalType": "bytes[]",
          "name": "_encryptedKeys",
          "type": "bytes[]"
        }
      ],
      "name": "scheduleExam",
      "outputs": [],
      "stateMutability": "nonpayable",
      "type": "function"
    },
    {
      "inputs": [
        {
          "internalType": "uint256",
          "name": "_paperId",
          "type": "uint256"
        }
      ],
      "name": "unlockPaper",
      "outputs": [],
      "stateMutability": "nonpayable",
      "type": "function"
    },
    {
      "inputs": [
        {
          "internalType": "string",
          "name": "_examName",
          "type": "string"
        },
        {
          "internalType": "string",
          "name": "_subject",
          "type": "string"
        },
        {
          "internalType": "string[]",
          "name": "_ipfsCIDs",
          "type": "string[]"
        },
        {
          "internalType": "bytes",
          "name": "_authorityEncryptedKey",
          "type": "bytes"
        }
      ],
      "name": "uploadPaper",
      "outputs": [
        {
          "internalType": "uint256",
          "name": "",
          "type": "uint256"
        }
      ],
      "stateMutability": "nonpayable",
      "type": "function"
    }
  ],
  "bytecode": "0x608060405234801561001057600080fd5b5061371c806100206000396000f3fe608060405234801561001057600080fd5b506004361061010a5760003560e01c8063984f6eae116100a2578063b5438f6d11610071578063b5438f6d146102e8578063b724af4014610318578063ba8d1ac914610348578063bc7cf6dd14610378578063c633f568146103a85761010a565b8063984f6eae1461024e5780639a0dd6661461027e578063a37b7522146102ae578063a56c2cb9146102ca5761010a565b80633b0ae1fd116100de5780633b0ae1fd146101955780634cdf8093146101c5578063554a14ac146101e45780635e775a27146102165761010a565b8062c172a21461010f57806307993f041461012b5780631dcd14fe1461015b5780632460cf7614610179575b600080fd5b61012960048036038101906101249190612104565b6103c4565b005b610145600480360381019061014091906121b2565b610602565b60405161015291906124cf565b60405180910390f35b610163610a07565b604051610170919061253b565b60405180910390f35b610193600480360381019061018e91906121b2565b610a95565b005b6101af60048036038101906101aa9190612589565b610bef565b6040516101bc919061253b565b60405180910390f35b6101cd610cc3565b6040516101db9291906126eb565b60405180910390f35b6101fe60048036038101906101f99190612589565b610f52565b60405161020d9392919061277b565b60405180910390f35b610230600480360381019061022b91906121b2565b611099565b604051610245999897969594939291906127de565b60405180910390f35b610268600480360381019061026391906121b2565b6112d9565b604051610275919061253b565b60405180910390f35b610298600480360381019061029391906121b2565b61140e565b6040516102a59190612880565b60405180910390f35b6102c860048036038101906102c3919061289b565b61144d565b005b6102d26114ae565b6040516102df91906128e4565b60405180910390f35b61030260048036038101906102fd91906121b2565b6114b4565b60405161030f91906128ff565b60405180910390f35b610332600480360381019061032d9190612a07565b6115e9565b60405161033f91906128e4565b60405180910390f35b610362600480360381019061035d9190612ade565b6118c9565b60405161036f919061253b565b60405180910390f35b610392600480360381019061038d9190612ade565b611976565b60405161039f91906128ff565b60405180910390f35b6103c260048036038101906103bd9190612cc2565b611a23565b005b6000825111610408576040517f08c379a00000000000000000000000000000000000000000000000000000000081526004016103ff90612ddd565b60405180910390fd5b600081511161044c576040517f08c379a000000000000000000000000000000000000000000000000000000000815260040161044390612e49565b60405180910390fd5b600260003373ffffffffffffffffffffffffffffffffffffffff1673ffffffffffffffffffffffffffffffffffffffff16815260200190815260200160002060020160009054906101000a900460ff16610504576003339080600181540180825580915050600190039060005260206000200160009091909190916101000a81548173ffffffffffffffffffffffffffffffffffffffff021916908373ffffffffffffffffffffffffffffffffffffffff1602179055505b604051806060016040528083815260200182815260200160011515815250600260003373ffffffffffffffffffffffffffffffffffffffff1673ffffffffffffffffffffffffffffffffffffffff16815260200190815260200160002060008201518160000190816105769190613075565b50602082015181600101908161058c91906131a2565b5060408201518160020160006101000a81548160ff0219169083151502179055509050503373ffffffffffffffffffffffffffffffffffffffff167f1ffb27eb65cbbc9dfaa75d97c82c72d0f599317651d968e7e4ea93553e154c92836040516105f691906128ff565b60405180910390a25050565b61060a611dac565b8160008111801561061d57506001548111155b61065c576040517f08c379a0000000000000000000000000000000000000000000000000000000008152600401610653906132c0565b60405180910390fd5b6000808481526020019081526020016000206040518061014001604052908160008201805461068a90612e98565b80601f01602080910402602001604051908101604052809291908181526020018280546106b690612e98565b80156107035780601f106106d857610100808354040283529160200191610703565b820191906000526020600020905b8154815290600101906020018083116106e657829003601f168201915b5050505050815260200160018201805461071c90612e98565b80601f016020809104026020016040519081016040528092919081815260200182805461074890612e98565b80156107955780601f1061076a57610100808354040283529160200191610795565b820191906000526020600020905b81548152906001019060200180831161077857829003601f168201915b505050505081526020016002820160009054906101000a900473ffffffffffffffffffffffffffffffffffffffff1673ffffffffffffffffffffffffffffffffffffffff1673ffffffffffffffffffffffffffffffffffffffff16815260200160038201805480602002602001604051908101604052809291908181526020016000905b828210156108c557838290600052602060002001805461083890612e98565b80601f016020809104026020016040519081016040528092919081815260200182805461086490612e98565b80156108b15780601f10610886576101008083540402835291602001916108b1565b820191906000526020600020905b81548152906001019060200180831161089457829003601f168201915b505050505081526020019060010190610819565b50505050815260200160048201548152602001600582015481526020016006820160009054906101000a900460ff161515151581526020016006820160019054906101000a900460ff161515151581526020016006820160029054906101000a900473ffffffffffffffffffffffffffffffffffffffff1673ffffffffffffffffffffffffffffffffffffffff1673ffffffffffffffffffffffffffffffffffffffff16815260200160078201805461097d90612e98565b80601f01602080910402602001604051908101604052809291908181526020018280546109a990612e98565b80156109f65780601f106109cb576101008083540402835291602001916109f6565b820191906000526020600020905b8154815290600101906020018083116109d957829003601f168201915b505050505081525050915050919050565b60048054610a1490612e98565b80601f0160208091040260200160405190810160405280929190818152602001828054610a4090612e98565b8015610a8d5780601f10610a6257610100808354040283529160200191610a8d565b820191906000526020600020905b815481529060010190602001808311610a7057829003601f168201915b505050505081565b80600081118015610aa857506001548111155b610ae7576040517f08c379a0000000000000000000000000000000000000000000000000000000008152600401610ade906132c0565b60405180910390fd5b600080600084815260200190815260200160002090508060060160009054906101000a900460ff16610b4e576040517f08c379a0000000000000000000000000000000000000000000000000000000008152600401610b459061332c565b60405180910390fd5b8060050154421015610b95576040517f08c379a0000000000000000000000000000000000000000000000000000000008152600401610b8c90613398565b60405180910390fd5b60018160060160016101000a81548160ff021916908315150217905550827f79f7de7ac9a8923c7ccc915fb4c5041920583f938a5406435331e490e06e0cf342604051610be291906128e4565b60405180910390a2505050565b6060600260008373ffffffffffffffffffffffffffffffffffffffff1673ffffffffffffffffffffffffffffffffffffffff1681526020019081526020016000206001018054610c3e90612e98565b80601f0160208091040260200160405190810160405280929190818152602001828054610c6a90612e98565b8015610cb75780601f10610c8c57610100808354040283529160200191610cb7565b820191906000526020600020905b815481529060010190602001808311610c9a57829003601f168201915b50505050509050919050565b606080600060038054905067ffffffffffffffff811115610ce757610ce6611f38565b5b604051908082528060200260200182016040528015610d155781602001602082028036833780820191505090505b509050600060038054905067ffffffffffffffff811115610d3957610d38611f38565b5b604051908082528060200260200182016040528015610d6c57816020015b6060815260200190600190039081610d575790505b50905060005b600380549050811015610f455760038181548110610d9357610d926133b8565b5b9060005260206000200160009054906101000a900473ffffffffffffffffffffffffffffffffffffffff16838281518110610dd157610dd06133b8565b5b602002602001019073ffffffffffffffffffffffffffffffffffffffff16908173ffffffffffffffffffffffffffffffffffffffff16815250506002600060038381548110610e2357610e226133b8565b5b9060005260206000200160009054906101000a900473ffffffffffffffffffffffffffffffffffffffff1673ffffffffffffffffffffffffffffffffffffffff1673ffffffffffffffffffffffffffffffffffffffff1681526020019081526020016000206000018054610e9690612e98565b80601f0160208091040260200160405190810160405280929190818152602001828054610ec290612e98565b8015610f0f5780601f10610ee457610100808354040283529160200191610f0f565b820191906000526020600020905b815481529060010190602001808311610ef257829003601f168201915b5050505050828281518110610f2757610f266133b8565b5b60200260200101819052508080610f3d90613416565b915050610d72565b5081819350935050509091565b6002602052806000526040600020600091509050806000018054610f7590612e98565b80601f0160208091040260200160405190810160405280929190818152602001828054610fa190612e98565b8015610fee5780601f10610fc357610100808354040283529160200191610fee565b820191906000526020600020905b815481529060010190602001808311610fd157829003601f168201915b50505050509080600101805461100390612e98565b80601f016020809104026020016040519081016040528092919081815260200182805461102f90612e98565b801561107c5780601f106110515761010080835404028352916020019161107c565b820191906000526020600020905b81548152906001019060200180831161105f57829003601f168201915b5050505050908060020160009054906101000a900460ff16905083565b60006020528060005260406000206000915090508060000180546110bc90612e98565b80601f01602080910402602001604051908101604052809291908181526020018280546110e890612e98565b80156111355780601f1061110a57610100808354040283529160200191611135565b820191906000526020600020905b81548152906001019060200180831161111857829003601f168201915b50505050509080600101805461114a90612e98565b80601f016020809104026020016040519081016040528092919081815260200182805461117690612e98565b80156111c35780601f10611198576101008083540402835291602001916111c3565b820191906000526020600020905b8154815290600101906020018083116111a657829003601f168201915b5050505050908060020160009054906101000a900473ffffffffffffffffffffffffffffffffffffffff16908060040154908060050154908060060160009054906101000a900460ff16908060060160019054906101000a900460ff16908060060160029054906101000a900473ffffffffffffffffffffffffffffffffffffffff169080600701805461125690612e98565b80601f016020809104026020016040519081016040528092919081815260200182805461128290612e98565b80156112cf5780601f106112a4576101008083540402835291602001916112cf565b820191906000526020600020905b8154815290600101906020018083116112b257829003601f168201915b5050505050905089565b6060816000811180156112ee57506001548111155b61132d576040517f08c379a0000000000000000000000000000000000000000000000000000000008152600401611324906132c0565b60405180910390fd5b6006600084815260200190815260200160002060003373ffffffffffffffffffffffffffffffffffffffff1673ffffffffffffffffffffffffffffffffffffffff168152602001908152602001600020805461138890612e98565b80601f01602080910402602001604051908101604052809291908181526020018280546113b490612e98565b80156114015780601f106113d657610100808354040283529160200191611401565b820191906000526020600020905b8154815290600101906020018083116113e457829003601f168201915b5050505050915050919050565b6003818154811061141e57600080fd5b906000526020600020016000915054906101000a900473ffffffffffffffffffffffffffffffffffffffff1681565b806004908161145c91906131a2565b503373ffffffffffffffffffffffffffffffffffffffff167f5d47b0b84afb162d342858473fe12f672a0e5896db383cdca19e76abf5092491826040516114a3919061253b565b60405180910390a250565b60015481565b6060816000811180156114c957506001548111155b611508576040517f08c379a00000000000000000000000000000000000000000000000000000000081526004016114ff906132c0565b60405180910390fd5b6005600084815260200190815260200160002060003373ffffffffffffffffffffffffffffffffffffffff1673ffffffffffffffffffffffffffffffffffffffff168152602001908152602001600020805461156390612e98565b80601f016020809104026020016040519081016040528092919081815260200182805461158f90612e98565b80156115dc5780601f106115b1576101008083540402835291602001916115dc565b820191906000526020600020905b8154815290600101906020018083116115bf57829003601f168201915b5050505050915050919050565b60008085511161162e576040517f08c379a0000000000000000000000000000000000000000000000000000000008152600401611625906134aa565b60405180910390fd5b60006004805461163d90612e98565b90501161167f576040517f08c379a000000000000000000000000000000000000000000000000000000000815260040161167690613516565b60405180910390fd5b6001600081548092919061169290613416565b91905055506040518061014001604052808681526020018581526020013373ffffffffffffffffffffffffffffffffffffffff16815260200184815260200142815260200160008152602001600015158152602001600015158152602001600073ffffffffffffffffffffffffffffffffffffffff168152602001838152506000806001548152602001908152602001600020600082015181600001908161173a9190613075565b5060208201518160010190816117509190613075565b5060408201518160020160006101000a81548173ffffffffffffffffffffffffffffffffffffffff021916908373ffffffffffffffffffffffffffffffffffffffff16021790555060608201518160030190805190602001906117b4929190611e2f565b506080820151816004015560a0820151816005015560c08201518160060160006101000a81548160ff02191690831515021790555060e08201518160060160016101000a81548160ff0219169083151502179055506101008201518160060160026101000a81548173ffffffffffffffffffffffffffffffffffffffff021916908373ffffffffffffffffffffffffffffffffffffffff16021790555061012082015181600701908161186791906131a2565b509050503373ffffffffffffffffffffffffffffffffffffffff166001547ff2addd0844bf6c683670be19a71fe7603380bdc0b1a9ecde0137f08b5e0d644a876040516118b491906128ff565b60405180910390a36001549050949350505050565b60066020528160005260406000206020528060005260406000206000915091505080546118f590612e98565b80601f016020809104026020016040519081016040528092919081815260200182805461192190612e98565b801561196e5780601f106119435761010080835404028352916020019161196e565b820191906000526020600020905b81548152906001019060200180831161195157829003601f168201915b505050505081565b60056020528160005260406000206020528060005260406000206000915091505080546119a290612e98565b80601f01602080910402602001604051908101604052809291908181526020018280546119ce90612e98565b8015611a1b5780601f106119f057610100808354040283529160200191611a1b565b820191906000526020600020905b8154815290600101906020018083116119fe57829003601f168201915b505050505081565b84600081118015611a3657506001548111155b611a75576040517f08c379a0000000000000000000000000000000000000000000000000000000008152600401611a6c906132c0565b60405180910390fd5b8251845114611ab9576040517f08c379a0000000000000000000000000000000000000000000000000000000008152600401611ab090613582565b60405180910390fd5b8151845114611afd576040517f08c379a0000000000000000000000000000000000000000000000000000000008152600401611af4906135ee565b60405180910390fd5b428511611b3f576040517f08c379a0000000000000000000000000000000000000000000000000000000008152600401611b369061365a565b60405180910390fd5b600080600088815260200190815260200160002090508060060160009054906101000a900460ff1615611ba7576040517f08c379a0000000000000000000000000000000000000000000000000000000008152600401611b9e906136c6565b60405180910390fd5b60005b8551811015611cea57848181518110611bc657611bc56133b8565b5b6020026020010151600560008a81526020019081526020016000206000888481518110611bf657611bf56133b8565b5b602002602001015173ffffffffffffffffffffffffffffffffffffffff1673ffffffffffffffffffffffffffffffffffffffff1681526020019081526020016000209081611c449190613075565b50838181518110611c5857611c576133b8565b5b6020026020010151600660008a81526020019081526020016000206000888481518110611c8857611c876133b8565b5b602002602001015173ffffffffffffffffffffffffffffffffffffffff1673ffffffffffffffffffffffffffffffffffffffff1681526020019081526020016000209081611cd691906131a2565b508080611ce290613416565b915050611baa565b5085816005018190555060018160060160006101000a81548160ff021916908315150217905550338160060160026101000a81548173ffffffffffffffffffffffffffffffffffffffff021916908373ffffffffffffffffffffffffffffffffffffffff1602179055503373ffffffffffffffffffffffffffffffffffffffff16877f3d33224841a69211485d8e455a900b8e87a0cf87d2e1df52f1ea56ebc485d70088604051611d9b91906128e4565b60405180910390a350505050505050565b6040518061014001604052806060815260200160608152602001600073ffffffffffffffffffffffffffffffffffffffff168152602001606081526020016000815260200160008152602001600015158152602001600015158152602001600073ffffffffffffffffffffffffffffffffffffffff168152602001606081525090565b828054828255906000526020600020908101928215611e77579160200282015b82811115611e76578251829081611e669190613075565b5091602001919060010190611e4f565b5b509050611e849190611e88565b5090565b5b80821115611ea85760008181611e9f9190611eac565b50600101611e89565b5090565b508054611eb890612e98565b6000825580601f10611eca5750611ee9565b601f016020900490600052602060002090810190611ee89190611eec565b5b50565b5b80821115611f05576000816000905550600101611eed565b5090565b6000604051905090565b600080fd5b600080fd5b600080fd5b600080fd5b6000601f19601f8301169050919050565b7f4e487b7100000000000000000000000000000000000000000000000000000000600052604160045260246000fd5b611f7082611f27565b810181811067ffffffffffffffff82111715611f8f57611f8e611f38565b5b80604052505050565b6000611fa2611f09565b9050611fae8282611f67565b919050565b600067ffffffffffffffff821115611fce57611fcd611f38565b5b611fd782611f27565b9050602081019050919050565b82818337600083830152505050565b600061200661200184611fb3565b611f98565b90508281526020810184848401111561202257612021611f22565b5b61202d848285611fe4565b509392505050565b600082601f83011261204a57612049611f1d565b5b813561205a848260208601611ff3565b91505092915050565b600067ffffffffffffffff82111561207e5761207d611f38565b5b61208782611f27565b9050602081019050919050565b60006120a76120a284612063565b611f98565b9050828152602081018484840111156120c3576120c2611f22565b5b6120ce848285611fe4565b509392505050565b600082601f8301126120eb576120ea611f1d565b5b81356120fb848260208601612094565b91505092915050565b6000806040838503121561211b5761211a611f13565b5b600083013567ffffffffffffffff81111561213957612138611f18565b5b61214585828601612035565b925050602083013567ffffffffffffffff81111561216657612165611f18565b5b612172858286016120d6565b9150509250929050565b6000819050919050565b61218f8161217c565b811461219a57600080fd5b50565b6000813590506121ac81612186565b92915050565b6000602082840312156121c8576121c7611f13565b5b60006121d68482850161219d565b91505092915050565b600081519050919050565b600082825260208201905092915050565b60005b838110156122195780820151818401526020810190506121fe565b60008484015250505050565b6000612230826121df565b61223a81856121ea565b935061224a8185602086016121fb565b61225381611f27565b840191505092915050565b600073ffffffffffffffffffffffffffffffffffffffff82169050919050565b60006122898261225e565b9050919050565b6122998161227e565b82525050565b600081519050919050565b600082825260208201905092915050565b6000819050602082019050919050565b60006122d78383612225565b905092915050565b6000602082019050919050565b60006122f78261229f565b61230181856122aa565b935083602082028501612313856122bb565b8060005b8581101561234f578484038952815161233085826122cb565b945061233b836122df565b925060208a01995050600181019050612317565b50829750879550505050505092915050565b61236a8161217c565b82525050565b60008115159050919050565b61238581612370565b82525050565b600081519050919050565b600082825260208201905092915050565b60006123b28261238b565b6123bc8185612396565b93506123cc8185602086016121fb565b6123d581611f27565b840191505092915050565b60006101408301600083015184820360008601526123fe8282612225565b915050602083015184820360208601526124188282612225565b915050604083015161242d6040860182612290565b506060830151848203606086015261244582826122ec565b915050608083015161245a6080860182612361565b5060a083015161246d60a0860182612361565b5060c083015161248060c086018261237c565b5060e083015161249360e086018261237c565b506101008301516124a8610100860182612290565b506101208301518482036101208601526124c282826123a7565b9150508091505092915050565b600060208201905081810360008301526124e981846123e0565b905092915050565b600082825260208201905092915050565b600061250d8261238b565b61251781856124f1565b93506125278185602086016121fb565b61253081611f27565b840191505092915050565b600060208201905081810360008301526125558184612502565b905092915050565b6125668161227e565b811461257157600080fd5b50565b6000813590506125838161255d565b92915050565b60006020828403121561259f5761259e611f13565b5b60006125ad84828501612574565b91505092915050565b600081519050919050565b600082825260208201905092915050565b6000819050602082019050919050565b60006125ee8383612290565b60208301905092915050565b6000602082019050919050565b6000612612826125b6565b61261c81856125c1565b9350612627836125d2565b8060005b8381101561265857815161263f88826125e2565b975061264a836125fa565b92505060018101905061262b565b5085935050505092915050565b600082825260208201905092915050565b60006126818261229f565b61268b8185612665565b93508360208202850161269d856122bb565b8060005b858110156126d957848403895281516126ba85826122cb565b94506126c5836122df565b925060208a019950506001810190506126a1565b50829750879550505050505092915050565b600060408201905081810360008301526127058185612607565b905081810360208301526127198184612676565b90509392505050565b600082825260208201905092915050565b600061273e826121df565b6127488185612722565b93506127588185602086016121fb565b61276181611f27565b840191505092915050565b61277581612370565b82525050565b600060608201905081810360008301526127958186612733565b905081810360208301526127a98185612502565b90506127b8604083018461276c565b949350505050565b6127c98161227e565b82525050565b6127d88161217c565b82525050565b60006101208201905081810360008301526127f9818c612733565b9050818103602083015261280d818b612733565b905061281c604083018a6127c0565b61282960608301896127cf565b61283660808301886127cf565b61284360a083018761276c565b61285060c083018661276c565b61285d60e08301856127c0565b8181036101008301526128708184612502565b90509a9950505050505050505050565b600060208201905061289560008301846127c0565b92915050565b6000602082840312156128b1576128b0611f13565b5b600082013567ffffffffffffffff8111156128cf576128ce611f18565b5b6128db848285016120d6565b91505092915050565b60006020820190506128f960008301846127cf565b92915050565b600060208201905081810360008301526129198184612733565b905092915050565b600067ffffffffffffffff82111561293c5761293b611f38565b5b602082029050602081019050919050565b600080fd5b600061296561296084612921565b611f98565b905080838252602082019050602084028301858111156129885761298761294d565b5b835b818110156129cf57803567ffffffffffffffff8111156129ad576129ac611f1d565b5b8086016129ba8982612035565b8552602085019450505060208101905061298a565b5050509392505050565b600082601f8301126129ee576129ed611f1d565b5b81356129fe848260208601612952565b91505092915050565b60008060008060808587031215612a2157612a20611f13565b5b600085013567ffffffffffffffff811115612a3f57612a3e611f18565b5b612a4b87828801612035565b945050602085013567ffffffffffffffff811115612a6c57612a6b611f18565b5b612a7887828801612035565b935050604085013567ffffffffffffffff811115612a9957612a98611f18565b5b612aa5878288016129d9565b925050606085013567ffffffffffffffff811115612ac657612ac5611f18565b5b612ad2878288016120d6565b91505092959194509250565b60008060408385031215612af557612af4611f13565b5b6000612b038582860161219d565b9250506020612b1485828601612574565b9150509250929050565b600067ffffffffffffffff821115612b3957612b38611f38565b5b602082029050602081019050919050565b6000612b5d612b5884612b1e565b611f98565b90508083825260208201905060208402830185811115612b8057612b7f61294d565b5b835b81811015612ba95780612b958882612574565b845260208401935050602081019050612b82565b5050509392505050565b600082601f830112612bc857612bc7611f1d565b5b8135612bd8848260208601612b4a565b91505092915050565b600067ffffffffffffffff821115612bfc57612bfb611f38565b5b602082029050602081019050919050565b6000612c20612c1b84612be1565b611f98565b90508083825260208201905060208402830185811115612c4357612c4261294d565b5b835b81811015612c8a57803567ffffffffffffffff811115612c6857612c67611f1d565b5b808601612c7589826120d6565b85526020850194505050602081019050612c45565b5050509392505050565b600082601f830112612ca957612ca8611f1d565b5b8135612cb9848260208601612c0d565b91505092915050565b600080600080600060a08688031215612cde57612cdd611f13565b5b6000612cec8882890161219d565b9550506020612cfd8882890161219d565b945050604086013567ffffffffffffffff811115612d1e57612d1d611f18565b5b612d2a88828901612bb3565b935050606086013567ffffffffffffffff811115612d4b57612d4a611f18565b5b612d57888289016129d9565b925050608086013567ffffffffffffffff811115612d7857612d77611f18565b5b612d8488828901612c94565b9150509295509295909350565b7f4e616d6520726571756972656400000000000000000000000000000000000000600082015250565b6000612dc7600d83612722565b9150612dd282612d91565b602082019050919050565b60006020820190508181036000830152612df681612dba565b9050919050565b7f5075626c6963206b657920726571756972656400000000000000000000000000600082015250565b6000612e33601383612722565b9150612e3e82612dfd565b602082019050919050565b60006020820190508181036000830152612e6281612e26565b9050919050565b7f4e487b7100000000000000000000000000000000000000000000000000000000600052602260045260246000fd5b60006002820490506001821680612eb057607f821691505b602082108103612ec357612ec2612e69565b5b50919050565b60008190508160005260206000209050919050565b60006020601f8301049050919050565b600082821b905092915050565b600060088302612f2b7fffffffffffffffffffffffffffffffffffffffffffffffffffffffffffffffff82612eee565b612f358683612eee565b95508019841693508086168417925050509392505050565b6000819050919050565b6000612f72612f6d612f688461217c565b612f4d565b61217c565b9050919050565b6000819050919050565b612f8c83612f57565b612fa0612f9882612f79565b848454612efb565b825550505050565b600090565b612fb5612fa8565b612fc0818484612f83565b505050565b5b81811015612fe457612fd9600082612fad565b600181019050612fc6565b5050565b601f82111561302957612ffa81612ec9565b61300384612ede565b81016020851015613012578190505b61302661301e85612ede565b830182612fc5565b50505b505050565b600082821c905092915050565b600061304c6000198460080261302e565b1980831691505092915050565b6000613065838361303b565b9150826002028217905092915050565b61307e826121df565b67ffffffffffffffff81111561309757613096611f38565b5b6130a18254612e98565b6130ac828285612fe8565b600060209050601f8311600181146130df57600084156130cd578287015190505b6130d78582613059565b86555061313f565b601f1984166130ed86612ec9565b60005b82811015613115578489015182556001820191506020850194506020810190506130f0565b86831015613132578489015161312e601f89168261303b565b8355505b6001600288020188555050505b505050505050565b60008190508160005260206000209050919050565b601f82111561319d5761316e81613147565b61317784612ede565b81016020851015613186578190505b61319a61319285612ede565b830182612fc5565b50505b505050565b6131ab8261238b565b67ffffffffffffffff8111156131c4576131c3611f38565b5b6131ce8254612e98565b6131d982828561315c565b600060209050601f83116001811461320c57600084156131fa578287015190505b6132048582613059565b86555061326c565b601f19841661321a86613147565b60005b828110156132425784890151825560018201915060208501945060208101905061321d565b8683101561325f578489015161325b601f89168261303b565b8355505b6001600288020188555050505b505050505050565b7f496e76616c696420706170657220494400000000000000000000000000000000600082015250565b60006132aa601083612722565b91506132b582613274565b602082019050919050565b600060208201905081810360008301526132d98161329d565b9050919050565b7f5061706572206e6f74207363686564756c656400000000000000000000000000600082015250565b6000613316601383612722565b9150613321826132e0565b602082019050919050565b6000602082019050818103600083015261334581613309565b9050919050565b7f546f6f206561726c7920746f20756e6c6f636b00000000000000000000000000600082015250565b6000613382601383612722565b915061338d8261334c565b602082019050919050565b600060208201905081810360008301526133b181613375565b9050919050565b7f4e487b7100000000000000000000000000000000000000000000000000000000600052603260045260246000fd5b7f4e487b7100000000000000000000000000000000000000000000000000000000600052601160045260246000fd5b60006134218261217c565b91507fffffffffffffffffffffffffffffffffffffffffffffffffffffffffffffffff8203613453576134526133e7565b5b600182019050919050565b7f4578616d206e616d652072657175697265640000000000000000000000000000600082015250565b6000613494601283612722565b915061349f8261345e565b602082019050919050565b600060208201905081810360008301526134c381613487565b9050919050565b7f417574686f72697479206e6f7420726567697374657265642079657400000000600082015250565b6000613500601c83612722565b915061350b826134ca565b602082019050919050565b6000602082019050818103600083015261352f816134f3565b9050919050565b7f43656e746572732f436c617373726f6f6d73206d69736d617463680000000000600082015250565b600061356c601b83612722565b915061357782613536565b602082019050919050565b6000602082019050818103600083015261359b8161355f565b9050919050565b7f43656e746572732f4b657973206d69736d617463680000000000000000000000600082015250565b60006135d8601583612722565b91506135e3826135a2565b602082019050919050565b60006020820190508181036000830152613607816135cb565b9050919050565b7f556e6c6f636b2074696d65206d75737420626520696e20667574757265000000600082015250565b6000613644601d83612722565b915061364f8261360e565b602082019050919050565b6000602082019050818103600083015261367381613637565b9050919050565b7f506170657220616c7265616479207363686564756c6564000000000000000000600082015250565b60006136b0601783612722565b91506136bb8261367a565b602082019050919050565b600060208201905081810360008301526136df816136a3565b905091905056fea264697066735822122040752d47fcd58579b566b9345048d0282ed481ecfdf57585b2e407511448ec7864736f6c63430008140033",
  "linkReferences": {},
  "deployedLinkReferences": {}
}