{
  "_format": "hh-sol-artifact-1",
  "contractName": "ExamRegistry",
  "sourceName": "contracts/ExamRegistry.sol",
  "abi": [
    {
      "anonymous": false,
      "inputs": [
        {
          "indexed": true,
          "internalType": "address",
          "name": "authority",
          "type": "address"
        },
        {
          "indexed": false,
          "internalType": "string",
          "name": "name",
          "type": "string"
        }
      ],
      "name": "AuthorityRegistered",
      "type": "event"
    },
    {
      "anonymous": false,
      "inputs": [
        {
          "indexed": true,
          "internalType": "address",
          "name": "centerAddress",
          "type": "address"
        },
        {
          "indexed": false,
          "internalType": "string",
          "name": "name",
          "type": "string"
        }
      ],
      "name": "CenterRegistered",
      "type": "event"
    },
    {
      "anonymous": false,
      "inputs": [
        {
          "indexed": true,
          "internalType": "uint256",
          "name": "paperId",
          "type": "uint256"
        },
        {
          "indexed": false,
          "internalType": "uint256",
          "name": "unlockTimestamp",
          "type": "uint256"
        },
        {
          "indexed": true,
          "internalType": "address",
          "name": "authority",
          "type": "address"
        }
      ],
      "name": "PaperScheduled",
      "type": "event"
    },
    {
      "anonymous": false,
      "inputs": [
        {
          "indexed": true,
          "internalType": "uint256",
          "name": "paperId",
          "type": "uint256"
        },
        {
          "indexed": false,
          "internalType": "uint256",
          "name": "timestamp",
          "type": "uint256"
        }
      ],
      "name": "PaperUnlocked",
      "type": "event"
    },
    {
      "anonymous": false,
      "inputs": [
        {
          "indexed": true,
          "internalType": "uint256",
          "name": "paperId",
          "type": "uint256"
        },
        {
          "indexed": false,
          "internalType": "string",
          "name": "examName",
          "type": "string"
        },
        {
          "indexed": true,
          "internalType": "address",
          "name": "teacher",
          "type": "address"
        }
      ],
      "name": "PaperUploaded",
      "type": "event"
    },
    {
      "inputs": [
        {
          "internalType": "address",
          "name": "",
          "type": "address"
        }
      ],
      "name": "authorities",
      "outputs": [
        {
          "internalType": "string",
          "name": "name",
          "type": "string"
        },
        {
          "internalType": "bool",
          "name": "isRegistered",
          "type": "bool"
        },
        {
          "internalType": "bool",
          "name": "isActive",
          "type": "bool"
        }
      ],
      "stateMutability": "view",
      "type": "function"
    },
    {
      "inputs": [
        {
          "internalType": "uint256",
          "name": "",
          "type": "uint256"
        }
      ],
      "name": "authorityAddresses",
      "outputs": [
        {
          "internalType": "address",
          "name": "",
          "type": "address"
        }
      ],
      "stateMutability": "view",
      "type": "function"
    },
    {
      "inputs": [
        {
          "internalType": "uint256",
          "name": "",
          "type": "uint256"
        }
      ],
      "name": "centerAddresses",
      "outputs": [
        {
          "internalType": "address",
          "name": "",
          "type": "address"
        }
      ],
      "stateMutability": "view",
      "type": "function"
    },
    {
      "inputs": [
        {
          "internalType": "address",
          "name": "",
          "type": "address"
        }
      ],
      "name": "centers",
      "outputs": [
        {
          "internalType": "string",
          "name": "name",
          "type": "string"
        },
        {
          "internalType": "bytes",
          "name": "publicKey",
          "type": "bytes"
        },
        {
          "internalType": "bool",
          "name": "isRegistered",
          "type": "bool"
        }
      ],
      "stateMutability": "view",
      "type": "function"
    },
    {
      "inputs": [],
      "name": "getAllAuthorities",
      "outputs": [
        {
          "internalType": "address[]",
          "name": "",
          "type": "address[]"
        },
        {
          "internalType": "string[]",
          "name": "",
          "type": "string[]"
        }
      ],
      "stateMutability": "view",
      "type": "function"
    },
    {
      "inputs": [],
      "name": "getAllCenters",
      "outputs": [
        {
          "internalType": "address[]",
          "name": "",
          "type": "address[]"
        },
        {
          "internalType": "string[]",
          "name": "",
          "type": "string[]"
        }
      ],
      "stateMutability": "view",
      "type": "function"
    },
    {
      "inputs": [
        {
          "internalType": "address",
          "name": "_center",
          "type": "address"
        }
      ],
      "name": "getCenterPublicKey",
      "outputs": [
        {
          "internalType": "bytes",
          "name": "",
          "type": "bytes"
        }
      ],
      "stateMutability": "view",
      "type": "function"
    },
    {
      "inputs": [
        {
          "internalType": "uint256",
          "name": "_paperId",
          "type": "uint256"
        }
      ],
      "name": "getDecryptionShares",
      "outputs": [
        {
          "internalType": "bytes",
          "name": "",
          "type": "bytes"
        },
        {
          "internalType": "bytes[]",
          "name": "",
          "type": "bytes[]"
        },
        {
          "internalType": "uint8",
          "name": "",
          "type": "uint8"
        }
      ],
      "stateMutability": "view",
      "type": "function"
    },
    {
      "inputs": [
        {
          "internalType": "uint256",
          "name": "_paperId",
          "type": "uint256"
        }
      ],
      "name": "getMyClassroom",
      "outputs": [
        {
          "internalType": "string",
          "name": "",
          "type": "string"
        }
      ],
      "stateMutability": "view",
      "type": "function"
    },
    {
      "inputs": [
        {
          "internalType": "uint256",
          "name": "_paperId",
          "type": "uint256"
        }
      ],
      "name": "getPaper",
      "outputs": [
        {
          "components": [
            {
              "internalType": "string",
              "name": "examName",
              "type": "string"
            },
            {
              "internalType": "string",
              "name": "subject",
              "type": "string"
            },
            {
              "internalType": "address",
              "name": "teacher",
              "type": "address"
            },
            {
              "internalType": "string[]",
              "name": "ipfsCIDs",
              "type": "string[]"
            },
            {
              "internalType": "uint256",
              "name": "uploadTimestamp",
              "type": "uint256"
            },
            {
              "internalType": "uint256",
              "name": "unlockTimestamp",
              "type": "uint256"
            },
            {
              "internalType": "bool",
              "name": "isScheduled",
              "type": "bool"
            },
            {
              "internalType": "bool",
              "name": "isUnlocked",
              "type": "bool"
            },
            {
              "internalType": "address",
              "name": "authority",
              "type": "address"
            },
            {
              "internalType": "bytes",
              "name": "encryptedK1",
              "type": "bytes"
            },
            {
              "internalType": "bytes[]",
              "name": "masterKeyShares",
              "type": "bytes[]"
            },
            {
              "internalType": "uint8",
              "name": "sharesThreshold",
              "type": "uint8"
            }
          ],
          "internalType": "struct ExamRegistry.Paper",
          "name": "",
          "type": "tuple"
        }
      ],
      "stateMutability": "view",
      "type": "function"
    },
    {
      "inputs": [
        {
          "internalType": "uint256",
          "name": "_paperId",
          "type": "uint256"
        },
        {
          "internalType": "address",
          "name": "_center",
          "type": "address"
        }
      ],
      "name": "isAssignedToCenter",
      "outputs": [
        {
          "internalType": "bool",
          "name": "",
          "type": "bool"
        }
      ],
      "stateMutability": "view",
      "type": "function"
    },
    {
      "inputs": [
        {
          "internalType": "uint256",
          "name": "",
          "type": "uint256"
        },
        {
          "internalType": "address",
          "name": "",
          "type": "address"
        }
      ],
      "name": "paperAssignments",
      "outputs": [
        {
          "internalType": "bool",
          "name": "",
          "type": "bool"
        }
      ],
      "stateMutability": "view",
      "type": "function"
    },
    {
      "inputs": [
        {
          "internalType": "uint256",
          "name": "",
          "type": "uint256"
        },
        {
          "internalType": "address",
          "name": "",
          "type": "address"
        }
      ],
      "name": "paperClassrooms",
      "outputs": [
        {
          "internalType": "string",
          "name": "",
          "type": "string"
        }
      ],
      "stateMutability": "view",
      "type": "function"
    },
    {
      "inputs": [],
      "name": "paperCount",
      "outputs": [
        {
          "internalType": "uint256",
          "name": "",
          "type": "uint256"
        }
      ],
      "stateMutability": "view",
      "type": "function"
    },
    {
      "inputs": [
        {
          "internalType": "uint256",
          "name": "",
          "type": "uint256"
        }
      ],
      "name": "papers",
      "outputs": [
        {
          "internalType": "string",
          "name": "examName",
          "type": "string"
        },
        {
          "internalType": "string",
          "name": "subject",
          "type": "string"
        },
        {
          "internalType": "address",
          "name": "teacher",
          "type": "address"
        },
        {
          "internalType": "uint256",
          "name": "uploadTimestamp",
          "type": "uint256"
        },
        {
          "internalType": "uint256",
          "name": "unlockTimestamp",
          "type": "uint256"
        },
        {
          "internalType": "bool",
          "name": "isScheduled",
          "type": "bool"
        },
        {
          "internalType": "bool",
          "name": "isUnlocked",
          "type": "bool"
        },
        {
          "internalType": "address",
          "name": "authority",
          "type": "address"
        },
        {
          "internalType": "bytes",
          "name": "encryptedK1",
          "type": "bytes"
        },
        {
          "internalType": "uint8",
          "name": "sharesThreshold",
          "type": "uint8"
        }
      ],
      "stateMutability": "view",
      "type": "function"
    },
    {
      "inputs": [
        {
          "internalType": "string",
          "name": "_name",
          "type": "string"
        }
      ],
      "name": "registerAuthority",
      "outputs": [],
      "stateMutability": "nonpayable",
      "type": "function"
    },
    {
      "inputs": [
        {
          "internalType": "string",
          "name": "_name",
          "type": "string"
        },
        {
          "internalType": "bytes",
          "name": "_publicKey",
          "type": "bytes"
        }
      ],
      "name": "registerExamCenter",
      "outputs": [],
      "stateMutability": "nonpayable",
      "type": "function"
    },
    {
      "inputs": [
        {
          "internalType": "uint256",
          "name": "_paperId",
          "type": "uint256"
        },
        {
          "internalType": "uint256",
          "name": "_unlockTimestamp",
          "type": "uint256"
        },
        {
          "internalType": "address[]",
          "name": "_centers",
          "type": "address[]"
        },
        {
          "internalType": "string[]",
          "name": "_classrooms",
          "type": "string[]"
        }
      ],
      "name": "scheduleExam",
      "outputs": [],
      "stateMutability": "nonpayable",
      "type": "function"
    },
    {
      "inputs": [
        {
          "internalType": "uint256",
          "name": "_paperId",
          "type": "uint256"
        }
      ],
      "name": "unlockPaper",
      "outputs": [],
      "stateMutability": "nonpayable",
      "type": "function"
    },
    {
      "inputs": [
        {
          "internalType": "string",
          "name": "_examName",
          "type": "string"
        },
        {
          "internalType": "string",
          "name": "_subject",
          "type": "string"
        },
        {
          "internalType": "string[]",
          "name": "_ipfsCIDs",
          "type": "string[]"
        },
        {
          "internalType": "bytes",
          "name": "_encryptedK1",
          "type": "bytes"
        },
        {
          "internalType": "bytes[]",
          "name": "_masterKeyShares",
          "type": "bytes[]"
        },
        {
          "internalType": "uint8",
          "name": "_sharesThreshold",
          "type": "uint8"
        }
      ],
      "name": "uploadPaper",
      "outputs": [
        {
          "internalType": "uint256",
          "name": "",
          "type": "uint256"
        }
      ],
      "stateMutability": "nonpayable",
      "type": "function"
    }
  ],
  "bytecode": "0x608060405234801561001057600080fd5b50614b1b806100206000396000f3fe608060405234801561001057600080fd5b506004361061012b5760003560e01c806393e9b6ed116100ad578063b69dab6811610071578063b69dab681461039a578063bc7cf6dd146103ca578063c7a10bd6146103fa578063da0d83de1461042c578063fedf2c561461045c5761012b565b806393e9b6ed146102d05780639a0dd66614610300578063a56c2cb914610330578063a930ecd71461034e578063b5438f6d1461036a5761012b565b80634cdf8093116100f45780634cdf8093146101f857806354a253dc14610217578063554a14ac146102335780635e775a271461026557806391223d691461029e5761012b565b8062c172a21461013057806307993f041461014c5780632460cf761461017c57806336272be1146101985780633b0ae1fd146101c8575b600080fd5b61014a60048036038101906101459190612fec565b61047b565b005b6101666004803603810190610161919061309a565b6106b9565b60405161017391906134c6565b60405180910390f35b6101966004803603810190610191919061309a565b610bb4565b005b6101b260048036038101906101ad91906136db565b610d0e565b6040516101bf9190613803565b60405180910390f35b6101e260048036038101906101dd919061384a565b611104565b6040516101ef91906138c1565b60405180910390f35b6102006111d8565b60405161020e929190613a18565b60405180910390f35b610231600480360381019061022c9190613b12565b611467565b005b61024d6004803603810190610248919061384a565b61192c565b60405161025c93929190613c0a565b60405180910390f35b61027f600480360381019061027a919061309a565b611a73565b6040516102959a99989796959493929190613c6d565b60405180910390f35b6102b860048036038101906102b3919061384a565b611cc6565b6040516102c793929190613d1e565b60405180910390f35b6102ea60048036038101906102e59190613d5c565b611d92565b6040516102f79190613d9c565b60405180910390f35b61031a6004803603810190610315919061309a565b611e4d565b6040516103279190613db7565b60405180910390f35b610338611e8c565b6040516103459190613803565b60405180910390f35b61036860048036038101906103639190613dd2565b611e92565b005b610384600480360381019061037f919061309a565b612054565b6040516103919190613e1b565b60405180910390f35b6103b460048036038101906103af919061309a565b612226565b6040516103c19190613db7565b60405180910390f35b6103e460048036038101906103df9190613d5c565b612265565b6040516103f19190613e1b565b60405180910390f35b610414600480360381019061040f919061309a565b612312565b60405161042393929190613ec3565b60405180910390f35b61044660048036038101906104419190613d5c565b612908565b6040516104539190613d9c565b60405180910390f35b610464612937565b604051610472929190613a18565b60405180910390f35b60008251116104bf576040517f08c379a00000000000000000000000000000000000000000000000000000000081526004016104b690613f54565b60405180910390fd5b6000815111610503576040517f08c379a00000000000000000000000000000000000000000000000000000000081526004016104fa90613fc0565b60405180910390fd5b600260003373ffffffffffffffffffffffffffffffffffffffff1673ffffffffffffffffffffffffffffffffffffffff16815260200190815260200160002060020160009054906101000a900460ff166105bb576003339080600181540180825580915050600190039060005260206000200160009091909190916101000a81548173ffffffffffffffffffffffffffffffffffffffff021916908373ffffffffffffffffffffffffffffffffffffffff1602179055505b604051806060016040528083815260200182815260200160011515815250600260003373ffffffffffffffffffffffffffffffffffffffff1673ffffffffffffffffffffffffffffffffffffffff168152602001908152602001600020600082015181600001908161062d91906141ec565b5060208201518160010190816106439190614319565b5060408201518160020160006101000a81548160ff0219169083151502179055509050503373ffffffffffffffffffffffffffffffffffffffff167f1ffb27eb65cbbc9dfaa75d97c82c72d0f599317651d968e7e4ea93553e154c92836040516106ad9190613e1b565b60405180910390a25050565b6106c1612bc6565b816000811180156106d457506001548111155b610713576040517f08c379a000000000000000000000000000000000000000000000000000000000815260040161070a90614437565b60405180910390fd5b600080848152602001908152602001600020604051806101800160405290816000820180546107419061400f565b80601f016020809104026020016040519081016040528092919081815260200182805461076d9061400f565b80156107ba5780601f1061078f576101008083540402835291602001916107ba565b820191906000526020600020905b81548152906001019060200180831161079d57829003601f168201915b505050505081526020016001820180546107d39061400f565b80601f01602080910402602001604051908101604052809291908181526020018280546107ff9061400f565b801561084c5780601f106108215761010080835404028352916020019161084c565b820191906000526020600020905b81548152906001019060200180831161082f57829003601f168201915b505050505081526020016002820160009054906101000a900473ffffffffffffffffffffffffffffffffffffffff1673ffffffffffffffffffffffffffffffffffffffff1673ffffffffffffffffffffffffffffffffffffffff16815260200160038201805480602002602001604051908101604052809291908181526020016000905b8282101561097c5783829060005260206000200180546108ef9061400f565b80601f016020809104026020016040519081016040528092919081815260200182805461091b9061400f565b80156109685780601f1061093d57610100808354040283529160200191610968565b820191906000526020600020905b81548152906001019060200180831161094b57829003601f168201915b5050505050815260200190600101906108d0565b50505050815260200160048201548152602001600582015481526020016006820160009054906101000a900460ff161515151581526020016006820160019054906101000a900460ff161515151581526020016006820160029054906101000a900473ffffffffffffffffffffffffffffffffffffffff1673ffffffffffffffffffffffffffffffffffffffff1673ffffffffffffffffffffffffffffffffffffffff168152602001600782018054610a349061400f565b80601f0160208091040260200160405190810160405280929190818152602001828054610a609061400f565b8015610aad5780601f10610a8257610100808354040283529160200191610aad565b820191906000526020600020905b815481529060010190602001808311610a9057829003601f168201915b5050505050815260200160088201805480602002602001604051908101604052809291908181526020016000905b82821015610b87578382906000526020600020018054610afa9061400f565b80601f0160208091040260200160405190810160405280929190818152602001828054610b269061400f565b8015610b735780601f10610b4857610100808354040283529160200191610b73565b820191906000526020600020905b815481529060010190602001808311610b5657829003601f168201915b505050505081526020019060010190610adb565b5050505081526020016009820160009054906101000a900460ff1660ff1660ff1681525050915050919050565b80600081118015610bc757506001548111155b610c06576040517f08c379a0000000000000000000000000000000000000000000000000000000008152600401610bfd90614437565b60405180910390fd5b600080600084815260200190815260200160002090508060060160009054906101000a900460ff16610c6d576040517f08c379a0000000000000000000000000000000000000000000000000000000008152600401610c64906144a3565b60405180910390fd5b8060050154421015610cb4576040517f08c379a0000000000000000000000000000000000000000000000000000000008152600401610cab9061450f565b60405180910390fd5b60018160060160016101000a81548160ff021916908315150217905550827f79f7de7ac9a8923c7ccc915fb4c5041920583f938a5406435331e490e06e0cf342604051610d019190613803565b60405180910390a2505050565b600080875111610d53576040517f08c379a0000000000000000000000000000000000000000000000000000000008152600401610d4a9061457b565b60405180910390fd5b6000855111610d97576040517f08c379a0000000000000000000000000000000000000000000000000000000008152600401610d8e906145e7565b60405180910390fd5b6000845111610ddb576040517f08c379a0000000000000000000000000000000000000000000000000000000008152600401610dd290614653565b60405180910390fd5b8160ff1683511015610e22576040517f08c379a0000000000000000000000000000000000000000000000000000000008152600401610e19906146bf565b60405180910390fd5b60028260ff161015610e69576040517f08c379a0000000000000000000000000000000000000000000000000000000008152600401610e609061472b565b60405180910390fd5b60016000815480929190610e7c9061477a565b91905055506040518061018001604052808881526020018781526020013373ffffffffffffffffffffffffffffffffffffffff16815260200186815260200142815260200160008152602001600015158152602001600015158152602001600073ffffffffffffffffffffffffffffffffffffffff1681526020018581526020018481526020018360ff1681525060008060015481526020019081526020016000206000820151816000019081610f3391906141ec565b506020820151816001019081610f4991906141ec565b5060408201518160020160006101000a81548173ffffffffffffffffffffffffffffffffffffffff021916908373ffffffffffffffffffffffffffffffffffffffff1602179055506060820151816003019080519060200190610fad929190612c5a565b506080820151816004015560a0820151816005015560c08201518160060160006101000a81548160ff02191690831515021790555060e08201518160060160016101000a81548160ff0219169083151502179055506101008201518160060160026101000a81548173ffffffffffffffffffffffffffffffffffffffff021916908373ffffffffffffffffffffffffffffffffffffffff1602179055506101208201518160070190816110609190614319565b5061014082015181600801908051906020019061107e929190612cb3565b506101608201518160090160006101000a81548160ff021916908360ff1602179055509050503373ffffffffffffffffffffffffffffffffffffffff166001547ff2addd0844bf6c683670be19a71fe7603380bdc0b1a9ecde0137f08b5e0d644a896040516110ed9190613e1b565b60405180910390a360015490509695505050505050565b6060600260008373ffffffffffffffffffffffffffffffffffffffff1673ffffffffffffffffffffffffffffffffffffffff16815260200190815260200160002060010180546111539061400f565b80601f016020809104026020016040519081016040528092919081815260200182805461117f9061400f565b80156111cc5780601f106111a1576101008083540402835291602001916111cc565b820191906000526020600020905b8154815290600101906020018083116111af57829003601f168201915b50505050509050919050565b606080600060038054905067ffffffffffffffff8111156111fc576111fb612e20565b5b60405190808252806020026020018201604052801561122a5781602001602082028036833780820191505090505b509050600060038054905067ffffffffffffffff81111561124e5761124d612e20565b5b60405190808252806020026020018201604052801561128157816020015b606081526020019060019003908161126c5790505b50905060005b60038054905081101561145a57600381815481106112a8576112a76147c2565b5b9060005260206000200160009054906101000a900473ffffffffffffffffffffffffffffffffffffffff168382815181106112e6576112e56147c2565b5b602002602001019073ffffffffffffffffffffffffffffffffffffffff16908173ffffffffffffffffffffffffffffffffffffffff16815250506002600060038381548110611338576113376147c2565b5b9060005260206000200160009054906101000a900473ffffffffffffffffffffffffffffffffffffffff1673ffffffffffffffffffffffffffffffffffffffff1673ffffffffffffffffffffffffffffffffffffffff16815260200190815260200160002060000180546113ab9061400f565b80601f01602080910402602001604051908101604052809291908181526020018280546113d79061400f565b80156114245780601f106113f957610100808354040283529160200191611424565b820191906000526020600020905b81548152906001019060200180831161140757829003601f168201915b505050505082828151811061143c5761143b6147c2565b5b602002602001018190525080806114529061477a565b915050611287565b5081819350935050509091565b600460003373ffffffffffffffffffffffffffffffffffffffff1673ffffffffffffffffffffffffffffffffffffffff16815260200190815260200160002060010160009054906101000a900460ff16801561150f5750600460003373ffffffffffffffffffffffffffffffffffffffff1673ffffffffffffffffffffffffffffffffffffffff16815260200190815260200160002060010160019054906101000a900460ff165b61154e576040517f08c379a00000000000000000000000000000000000000000000000000000000081526004016115459061483d565b60405180910390fd5b8360008111801561156157506001548111155b6115a0576040517f08c379a000000000000000000000000000000000000000000000000000000000815260040161159790614437565b60405180910390fd5b81518351146115e4576040517f08c379a00000000000000000000000000000000000000000000000000000000081526004016115db906148a9565b60405180910390fd5b428411611626576040517f08c379a000000000000000000000000000000000000000000000000000000000815260040161161d90614915565b60405180910390fd5b600080600087815260200190815260200160002090508060060160009054906101000a900460ff161561168e576040517f08c379a000000000000000000000000000000000000000000000000000000000815260040161168590614981565b60405180910390fd5b60005b845181101561186b57600260008683815181106116b1576116b06147c2565b5b602002602001015173ffffffffffffffffffffffffffffffffffffffff1673ffffffffffffffffffffffffffffffffffffffff16815260200190815260200160002060020160009054906101000a900460ff16611743576040517f08c379a000000000000000000000000000000000000000000000000000000000815260040161173a906149ed565b60405180910390fd5b838181518110611756576117556147c2565b5b6020026020010151600660008981526020019081526020016000206000878481518110611786576117856147c2565b5b602002602001015173ffffffffffffffffffffffffffffffffffffffff1673ffffffffffffffffffffffffffffffffffffffff16815260200190815260200160002090816117d491906141ec565b5060016007600089815260200190815260200160002060008784815181106117ff576117fe6147c2565b5b602002602001015173ffffffffffffffffffffffffffffffffffffffff1673ffffffffffffffffffffffffffffffffffffffff16815260200190815260200160002060006101000a81548160ff02191690831515021790555080806118639061477a565b915050611691565b5084816005018190555060018160060160006101000a81548160ff021916908315150217905550338160060160026101000a81548173ffffffffffffffffffffffffffffffffffffffff021916908373ffffffffffffffffffffffffffffffffffffffff1602179055503373ffffffffffffffffffffffffffffffffffffffff16867f3d33224841a69211485d8e455a900b8e87a0cf87d2e1df52f1ea56ebc485d7008760405161191c9190613803565b60405180910390a3505050505050565b600260205280600052604060002060009150905080600001805461194f9061400f565b80601f016020809104026020016040519081016040528092919081815260200182805461197b9061400f565b80156119c85780601f1061199d576101008083540402835291602001916119c8565b820191906000526020600020905b8154815290600101906020018083116119ab57829003601f168201915b5050505050908060010180546119dd9061400f565b80601f0160208091040260200160405190810160405280929190818152602001828054611a099061400f565b8015611a565780601f10611a2b57610100808354040283529160200191611a56565b820191906000526020600020905b815481529060010190602001808311611a3957829003601f168201915b5050505050908060020160009054906101000a900460ff16905083565b6000602052806000526040600020600091509050806000018054611a969061400f565b80601f0160208091040260200160405190810160405280929190818152602001828054611ac29061400f565b8015611b0f5780601f10611ae457610100808354040283529160200191611b0f565b820191906000526020600020905b815481529060010190602001808311611af257829003601f168201915b505050505090806001018054611b249061400f565b80601f0160208091040260200160405190810160405280929190818152602001828054611b509061400f565b8015611b9d5780601f10611b7257610100808354040283529160200191611b9d565b820191906000526020600020905b815481529060010190602001808311611b8057829003601f168201915b5050505050908060020160009054906101000a900473ffffffffffffffffffffffffffffffffffffffff16908060040154908060050154908060060160009054906101000a900460ff16908060060160019054906101000a900460ff16908060060160029054906101000a900473ffffffffffffffffffffffffffffffffffffffff1690806007018054611c309061400f565b80601f0160208091040260200160405190810160405280929190818152602001828054611c5c9061400f565b8015611ca95780601f10611c7e57610100808354040283529160200191611ca9565b820191906000526020600020905b815481529060010190602001808311611c8c57829003601f168201915b5050505050908060090160009054906101000a900460ff1690508a565b6004602052806000526040600020600091509050806000018054611ce99061400f565b80601f0160208091040260200160405190810160405280929190818152602001828054611d159061400f565b8015611d625780601f10611d3757610100808354040283529160200191611d62565b820191906000526020600020905b815481529060010190602001808311611d4557829003601f168201915b5050505050908060010160009054906101000a900460ff16908060010160019054906101000a900460ff16905083565b600082600081118015611da757506001548111155b611de6576040517f08c379a0000000000000000000000000000000000000000000000000000000008152600401611ddd90614437565b60405180910390fd5b6007600085815260200190815260200160002060008473ffffffffffffffffffffffffffffffffffffffff1673ffffffffffffffffffffffffffffffffffffffff16815260200190815260200160002060009054906101000a900460ff1691505092915050565b60038181548110611e5d57600080fd5b906000526020600020016000915054906101000a900473ffffffffffffffffffffffffffffffffffffffff1681565b60015481565b600460003373ffffffffffffffffffffffffffffffffffffffff1673ffffffffffffffffffffffffffffffffffffffff16815260200190815260200160002060010160009054906101000a900460ff16611f4a576005339080600181540180825580915050600190039060005260206000200160009091909190916101000a81548173ffffffffffffffffffffffffffffffffffffffff021916908373ffffffffffffffffffffffffffffffffffffffff1602179055505b604051806060016040528082815260200160011515815260200160011515815250600460003373ffffffffffffffffffffffffffffffffffffffff1673ffffffffffffffffffffffffffffffffffffffff1681526020019081526020016000206000820151816000019081611fbf91906141ec565b5060208201518160010160006101000a81548160ff02191690831515021790555060408201518160010160016101000a81548160ff0219169083151502179055509050503373ffffffffffffffffffffffffffffffffffffffff167f8b3ab3ac57020b92e516b703bb37e5b4d0b12cc6c39d69288f9380be3f19dcbe826040516120499190613e1b565b60405180910390a250565b60608160008111801561206957506001548111155b6120a8576040517f08c379a000000000000000000000000000000000000000000000000000000000815260040161209f90614437565b60405180910390fd5b6007600084815260200190815260200160002060003373ffffffffffffffffffffffffffffffffffffffff1673ffffffffffffffffffffffffffffffffffffffff16815260200190815260200160002060009054906101000a900460ff16612145576040517f08c379a000000000000000000000000000000000000000000000000000000000815260040161213c90614a59565b60405180910390fd5b6006600084815260200190815260200160002060003373ffffffffffffffffffffffffffffffffffffffff1673ffffffffffffffffffffffffffffffffffffffff16815260200190815260200160002080546121a09061400f565b80601f01602080910402602001604051908101604052809291908181526020018280546121cc9061400f565b80156122195780601f106121ee57610100808354040283529160200191612219565b820191906000526020600020905b8154815290600101906020018083116121fc57829003601f168201915b5050505050915050919050565b6005818154811061223657600080fd5b906000526020600020016000915054906101000a900473ffffffffffffffffffffffffffffffffffffffff1681565b60066020528160005260406000206020528060005260406000206000915091505080546122919061400f565b80601f01602080910402602001604051908101604052809291908181526020018280546122bd9061400f565b801561230a5780601f106122df5761010080835404028352916020019161230a565b820191906000526020600020905b8154815290600101906020018083116122ed57829003601f168201915b505050505081565b60608060008360008111801561232a57506001548111155b612369576040517f08c379a000000000000000000000000000000000000000000000000000000000815260040161236090614437565b60405180910390fd5b6000806000878152602001908152602001600020604051806101800160405290816000820180546123999061400f565b80601f01602080910402602001604051908101604052809291908181526020018280546123c59061400f565b80156124125780601f106123e757610100808354040283529160200191612412565b820191906000526020600020905b8154815290600101906020018083116123f557829003601f168201915b5050505050815260200160018201805461242b9061400f565b80601f01602080910402602001604051908101604052809291908181526020018280546124579061400f565b80156124a45780601f10612479576101008083540402835291602001916124a4565b820191906000526020600020905b81548152906001019060200180831161248757829003601f168201915b505050505081526020016002820160009054906101000a900473ffffffffffffffffffffffffffffffffffffffff1673ffffffffffffffffffffffffffffffffffffffff1673ffffffffffffffffffffffffffffffffffffffff16815260200160038201805480602002602001604051908101604052809291908181526020016000905b828210156125d45783829060005260206000200180546125479061400f565b80601f01602080910402602001604051908101604052809291908181526020018280546125739061400f565b80156125c05780601f10612595576101008083540402835291602001916125c0565b820191906000526020600020905b8154815290600101906020018083116125a357829003601f168201915b505050505081526020019060010190612528565b50505050815260200160048201548152602001600582015481526020016006820160009054906101000a900460ff161515151581526020016006820160019054906101000a900460ff161515151581526020016006820160029054906101000a900473ffffffffffffffffffffffffffffffffffffffff1673ffffffffffffffffffffffffffffffffffffffff1673ffffffffffffffffffffffffffffffffffffffff16815260200160078201805461268c9061400f565b80601f01602080910402602001604051908101604052809291908181526020018280546126b89061400f565b80156127055780601f106126da57610100808354040283529160200191612705565b820191906000526020600020905b8154815290600101906020018083116126e857829003601f168201915b5050505050815260200160088201805480602002602001604051908101604052809291908181526020016000905b828210156127df5783829060005260206000200180546127529061400f565b80601f016020809104026020016040519081016040528092919081815260200182805461277e9061400f565b80156127cb5780601f106127a0576101008083540402835291602001916127cb565b820191906000526020600020905b8154815290600101906020018083116127ae57829003601f168201915b505050505081526020019060010190612733565b5050505081526020016009820160009054906101000a900460ff1660ff1660ff168152505090508060e0015161284a576040517f08c379a000000000000000000000000000000000000000000000000000000000815260040161284190614ac5565b60405180910390fd5b6007600087815260200190815260200160002060003373ffffffffffffffffffffffffffffffffffffffff1673ffffffffffffffffffffffffffffffffffffffff16815260200190815260200160002060009054906101000a900460ff166128e7576040517f08c379a00000000000000000000000000000000000000000000000000000000081526004016128de90614a59565b60405180910390fd5b80610120015181610140015182610160015194509450945050509193909250565b60076020528160005260406000206020528060005260406000206000915091509054906101000a900460ff1681565b606080600060058054905067ffffffffffffffff81111561295b5761295a612e20565b5b6040519080825280602002602001820160405280156129895781602001602082028036833780820191505090505b509050600060058054905067ffffffffffffffff8111156129ad576129ac612e20565b5b6040519080825280602002602001820160405280156129e057816020015b60608152602001906001900390816129cb5790505b50905060005b600580549050811015612bb95760058181548110612a0757612a066147c2565b5b9060005260206000200160009054906101000a900473ffffffffffffffffffffffffffffffffffffffff16838281518110612a4557612a446147c2565b5b602002602001019073ffffffffffffffffffffffffffffffffffffffff16908173ffffffffffffffffffffffffffffffffffffffff16815250506004600060058381548110612a9757612a966147c2565b5b9060005260206000200160009054906101000a900473ffffffffffffffffffffffffffffffffffffffff1673ffffffffffffffffffffffffffffffffffffffff1673ffffffffffffffffffffffffffffffffffffffff1681526020019081526020016000206000018054612b0a9061400f565b80601f0160208091040260200160405190810160405280929190818152602001828054612b369061400f565b8015612b835780601f10612b5857610100808354040283529160200191612b83565b820191906000526020600020905b815481529060010190602001808311612b6657829003601f168201915b5050505050828281518110612b9b57612b9a6147c2565b5b60200260200101819052508080612bb19061477a565b9150506129e6565b5081819350935050509091565b6040518061018001604052806060815260200160608152602001600073ffffffffffffffffffffffffffffffffffffffff168152602001606081526020016000815260200160008152602001600015158152602001600015158152602001600073ffffffffffffffffffffffffffffffffffffffff1681526020016060815260200160608152602001600060ff1681525090565b828054828255906000526020600020908101928215612ca2579160200282015b82811115612ca1578251829081612c9191906141ec565b5091602001919060010190612c7a565b5b509050612caf9190612d0c565b5090565b828054828255906000526020600020908101928215612cfb579160200282015b82811115612cfa578251829081612cea9190614319565b5091602001919060010190612cd3565b5b509050612d089190612d30565b5090565b5b80821115612d2c5760008181612d239190612d54565b50600101612d0d565b5090565b5b80821115612d505760008181612d479190612d94565b50600101612d31565b5090565b508054612d609061400f565b6000825580601f10612d725750612d91565b601f016020900490600052602060002090810190612d909190612dd4565b5b50565b508054612da09061400f565b6000825580601f10612db25750612dd1565b601f016020900490600052602060002090810190612dd09190612dd4565b5b50565b5b80821115612ded576000816000905550600101612dd5565b5090565b6000604051905090565b600080fd5b600080fd5b600080fd5b600080fd5b6000601f19601f8301169050919050565b7f4e487b7100000000000000000000000000000000000000000000000000000000600052604160045260246000fd5b612e5882612e0f565b810181811067ffffffffffffffff82111715612e7757612e76612e20565b5b80604052505050565b6000612e8a612df1565b9050612e968282612e4f565b919050565b600067ffffffffffffffff821115612eb657612eb5612e20565b5b612ebf82612e0f565b9050602081019050919050565b82818337600083830152505050565b6000612eee612ee984612e9b565b612e80565b905082815260208101848484011115612f0a57612f09612e0a565b5b612f15848285612ecc565b509392505050565b600082601f830112612f3257612f31612e05565b5b8135612f42848260208601612edb565b91505092915050565b600067ffffffffffffffff821115612f6657612f65612e20565b5b612f6f82612e0f565b9050602081019050919050565b6000612f8f612f8a84612f4b565b612e80565b905082815260208101848484011115612fab57612faa612e0a565b5b612fb6848285612ecc565b509392505050565b600082601f830112612fd357612fd2612e05565b5b8135612fe3848260208601612f7c565b91505092915050565b6000806040838503121561300357613002612dfb565b5b600083013567ffffffffffffffff81111561302157613020612e00565b5b61302d85828601612f1d565b925050602083013567ffffffffffffffff81111561304e5761304d612e00565b5b61305a85828601612fbe565b9150509250929050565b6000819050919050565b61307781613064565b811461308257600080fd5b50565b6000813590506130948161306e565b92915050565b6000602082840312156130b0576130af612dfb565b5b60006130be84828501613085565b91505092915050565b600081519050919050565b600082825260208201905092915050565b60005b838110156131015780820151818401526020810190506130e6565b60008484015250505050565b6000613118826130c7565b61312281856130d2565b93506131328185602086016130e3565b61313b81612e0f565b840191505092915050565b600073ffffffffffffffffffffffffffffffffffffffff82169050919050565b600061317182613146565b9050919050565b61318181613166565b82525050565b600081519050919050565b600082825260208201905092915050565b6000819050602082019050919050565b60006131bf838361310d565b905092915050565b6000602082019050919050565b60006131df82613187565b6131e98185613192565b9350836020820285016131fb856131a3565b8060005b85811015613237578484038952815161321885826131b3565b9450613223836131c7565b925060208a019950506001810190506131ff565b50829750879550505050505092915050565b61325281613064565b82525050565b60008115159050919050565b61326d81613258565b82525050565b600081519050919050565b600082825260208201905092915050565b600061329a82613273565b6132a4818561327e565b93506132b48185602086016130e3565b6132bd81612e0f565b840191505092915050565b600081519050919050565b600082825260208201905092915050565b6000819050602082019050919050565b6000613300838361328f565b905092915050565b6000602082019050919050565b6000613320826132c8565b61332a81856132d3565b93508360208202850161333c856132e4565b8060005b85811015613378578484038952815161335985826132f4565b945061336483613308565b925060208a01995050600181019050613340565b50829750879550505050505092915050565b600060ff82169050919050565b6133a08161338a565b82525050565b60006101808301600083015184820360008601526133c4828261310d565b915050602083015184820360208601526133de828261310d565b91505060408301516133f36040860182613178565b506060830151848203606086015261340b82826131d4565b91505060808301516134206080860182613249565b5060a083015161343360a0860182613249565b5060c083015161344660c0860182613264565b5060e083015161345960e0860182613264565b5061010083015161346e610100860182613178565b50610120830151848203610120860152613488828261328f565b9150506101408301518482036101408601526134a48282613315565b9150506101608301516134bb610160860182613397565b508091505092915050565b600060208201905081810360008301526134e081846133a6565b905092915050565b600067ffffffffffffffff82111561350357613502612e20565b5b602082029050602081019050919050565b600080fd5b600061352c613527846134e8565b612e80565b9050808382526020820190506020840283018581111561354f5761354e613514565b5b835b8181101561359657803567ffffffffffffffff81111561357457613573612e05565b5b8086016135818982612f1d565b85526020850194505050602081019050613551565b5050509392505050565b600082601f8301126135b5576135b4612e05565b5b81356135c5848260208601613519565b91505092915050565b600067ffffffffffffffff8211156135e9576135e8612e20565b5b602082029050602081019050919050565b600061360d613608846135ce565b612e80565b905080838252602082019050602084028301858111156136305761362f613514565b5b835b8181101561367757803567ffffffffffffffff81111561365557613654612e05565b5b8086016136628982612fbe565b85526020850194505050602081019050613632565b5050509392505050565b600082601f83011261369657613695612e05565b5b81356136a68482602086016135fa565b91505092915050565b6136b88161338a565b81146136c357600080fd5b50565b6000813590506136d5816136af565b92915050565b60008060008060008060c087890312156136f8576136f7612dfb565b5b600087013567ffffffffffffffff81111561371657613715612e00565b5b61372289828a01612f1d565b965050602087013567ffffffffffffffff81111561374357613742612e00565b5b61374f89828a01612f1d565b955050604087013567ffffffffffffffff8111156137705761376f612e00565b5b61377c89828a016135a0565b945050606087013567ffffffffffffffff81111561379d5761379c612e00565b5b6137a989828a01612fbe565b935050608087013567ffffffffffffffff8111156137ca576137c9612e00565b5b6137d689828a01613681565b92505060a06137e789828a016136c6565b9150509295509295509295565b6137fd81613064565b82525050565b600060208201905061381860008301846137f4565b92915050565b61382781613166565b811461383257600080fd5b50565b6000813590506138448161381e565b92915050565b6000602082840312156138605761385f612dfb565b5b600061386e84828501613835565b91505092915050565b600082825260208201905092915050565b600061389382613273565b61389d8185613877565b93506138ad8185602086016130e3565b6138b681612e0f565b840191505092915050565b600060208201905081810360008301526138db8184613888565b905092915050565b600081519050919050565b600082825260208201905092915050565b6000819050602082019050919050565b600061391b8383613178565b60208301905092915050565b6000602082019050919050565b600061393f826138e3565b61394981856138ee565b9350613954836138ff565b8060005b8381101561398557815161396c888261390f565b975061397783613927565b925050600181019050613958565b5085935050505092915050565b600082825260208201905092915050565b60006139ae82613187565b6139b88185613992565b9350836020820285016139ca856131a3565b8060005b85811015613a0657848403895281516139e785826131b3565b94506139f2836131c7565b925060208a019950506001810190506139ce565b50829750879550505050505092915050565b60006040820190508181036000830152613a328185613934565b90508181036020830152613a4681846139a3565b90509392505050565b600067ffffffffffffffff821115613a6a57613a69612e20565b5b602082029050602081019050919050565b6000613a8e613a8984613a4f565b612e80565b90508083825260208201905060208402830185811115613ab157613ab0613514565b5b835b81811015613ada5780613ac68882613835565b845260208401935050602081019050613ab3565b5050509392505050565b600082601f830112613af957613af8612e05565b5b8135613b09848260208601613a7b565b91505092915050565b60008060008060808587031215613b2c57613b2b612dfb565b5b6000613b3a87828801613085565b9450506020613b4b87828801613085565b935050604085013567ffffffffffffffff811115613b6c57613b6b612e00565b5b613b7887828801613ae4565b925050606085013567ffffffffffffffff811115613b9957613b98612e00565b5b613ba5878288016135a0565b91505092959194509250565b600082825260208201905092915050565b6000613bcd826130c7565b613bd78185613bb1565b9350613be78185602086016130e3565b613bf081612e0f565b840191505092915050565b613c0481613258565b82525050565b60006060820190508181036000830152613c248186613bc2565b90508181036020830152613c388185613888565b9050613c476040830184613bfb565b949350505050565b613c5881613166565b82525050565b613c678161338a565b82525050565b6000610140820190508181036000830152613c88818d613bc2565b90508181036020830152613c9c818c613bc2565b9050613cab604083018b613c4f565b613cb8606083018a6137f4565b613cc560808301896137f4565b613cd260a0830188613bfb565b613cdf60c0830187613bfb565b613cec60e0830186613c4f565b818103610100830152613cff8185613888565b9050613d0f610120830184613c5e565b9b9a5050505050505050505050565b60006060820190508181036000830152613d388186613bc2565b9050613d476020830185613bfb565b613d546040830184613bfb565b949350505050565b60008060408385031215613d7357613d72612dfb565b5b6000613d8185828601613085565b9250506020613d9285828601613835565b9150509250929050565b6000602082019050613db16000830184613bfb565b92915050565b6000602082019050613dcc6000830184613c4f565b92915050565b600060208284031215613de857613de7612dfb565b5b600082013567ffffffffffffffff811115613e0657613e05612e00565b5b613e1284828501612f1d565b91505092915050565b60006020820190508181036000830152613e358184613bc2565b905092915050565b600082825260208201905092915050565b6000613e59826132c8565b613e638185613e3d565b935083602082028501613e75856132e4565b8060005b85811015613eb15784840389528151613e9285826132f4565b9450613e9d83613308565b925060208a01995050600181019050613e79565b50829750879550505050505092915050565b60006060820190508181036000830152613edd8186613888565b90508181036020830152613ef18185613e4e565b9050613f006040830184613c5e565b949350505050565b7f4e616d6520726571756972656400000000000000000000000000000000000000600082015250565b6000613f3e600d83613bb1565b9150613f4982613f08565b602082019050919050565b60006020820190508181036000830152613f6d81613f31565b9050919050565b7f5075626c6963206b657920726571756972656400000000000000000000000000600082015250565b6000613faa601383613bb1565b9150613fb582613f74565b602082019050919050565b60006020820190508181036000830152613fd981613f9d565b9050919050565b7f4e487b7100000000000000000000000000000000000000000000000000000000600052602260045260246000fd5b6000600282049050600182168061402757607f821691505b60208210810361403a57614039613fe0565b5b50919050565b60008190508160005260206000209050919050565b60006020601f8301049050919050565b600082821b905092915050565b6000600883026140a27fffffffffffffffffffffffffffffffffffffffffffffffffffffffffffffffff82614065565b6140ac8683614065565b95508019841693508086168417925050509392505050565b6000819050919050565b60006140e96140e46140df84613064565b6140c4565b613064565b9050919050565b6000819050919050565b614103836140ce565b61411761410f826140f0565b848454614072565b825550505050565b600090565b61412c61411f565b6141378184846140fa565b505050565b5b8181101561415b57614150600082614124565b60018101905061413d565b5050565b601f8211156141a05761417181614040565b61417a84614055565b81016020851015614189578190505b61419d61419585614055565b83018261413c565b50505b505050565b600082821c905092915050565b60006141c3600019846008026141a5565b1980831691505092915050565b60006141dc83836141b2565b9150826002028217905092915050565b6141f5826130c7565b67ffffffffffffffff81111561420e5761420d612e20565b5b614218825461400f565b61422382828561415f565b600060209050601f8311600181146142565760008415614244578287015190505b61424e85826141d0565b8655506142b6565b601f19841661426486614040565b60005b8281101561428c57848901518255600182019150602085019450602081019050614267565b868310156142a957848901516142a5601f8916826141b2565b8355505b6001600288020188555050505b505050505050565b60008190508160005260206000209050919050565b601f821115614314576142e5816142be565b6142ee84614055565b810160208510156142fd578190505b61431161430985614055565b83018261413c565b50505b505050565b61432282613273565b67ffffffffffffffff81111561433b5761433a612e20565b5b614345825461400f565b6143508282856142d3565b600060209050601f8311600181146143835760008415614371578287015190505b61437b85826141d0565b8655506143e3565b601f198416614391866142be565b60005b828110156143b957848901518255600182019150602085019450602081019050614394565b868310156143d657848901516143d2601f8916826141b2565b8355505b6001600288020188555050505b505050505050565b7f496e76616c696420706170657220494400000000000000000000000000000000600082015250565b6000614421601083613bb1565b915061442c826143eb565b602082019050919050565b6000602082019050818103600083015261445081614414565b9050919050565b7f5061706572206e6f74207363686564756c656400000000000000000000000000600082015250565b600061448d601383613bb1565b915061449882614457565b602082019050919050565b600060208201905081810360008301526144bc81614480565b9050919050565b7f546f6f206561726c7920746f20756e6c6f636b00000000000000000000000000600082015250565b60006144f9601383613bb1565b9150614504826144c3565b602082019050919050565b60006020820190508181036000830152614528816144ec565b9050919050565b7f4578616d206e616d652072657175697265640000000000000000000000000000600082015250565b6000614565601283613bb1565b91506145708261452f565b602082019050919050565b6000602082019050818103600083015261459481614558565b9050919050565b7f4950465320434944732072657175697265640000000000000000000000000000600082015250565b60006145d1601283613bb1565b91506145dc8261459b565b602082019050919050565b60006020820190508181036000830152614600816145c4565b9050919050565b7f456e63727970746564204b312072657175697265640000000000000000000000600082015250565b600061463d601583613bb1565b915061464882614607565b602082019050919050565b6000602082019050818103600083015261466c81614630565b9050919050565b7f4e6f7420656e6f75676820736861726573000000000000000000000000000000600082015250565b60006146a9601183613bb1565b91506146b482614673565b602082019050919050565b600060208201905081810360008301526146d88161469c565b9050919050565b7f5468726573686f6c64206d757374206265206174206c65617374203200000000600082015250565b6000614715601c83613bb1565b9150614720826146df565b602082019050919050565b6000602082019050818103600083015261474481614708565b9050919050565b7f4e487b7100000000000000000000000000000000000000000000000000000000600052601160045260246000fd5b600061478582613064565b91507fffffffffffffffffffffffffffffffffffffffffffffffffffffffffffffffff82036147b7576147b661474b565b5b600182019050919050565b7f4e487b7100000000000000000000000000000000000000000000000000000000600052603260045260246000fd5b7f4e6f7420617574686f72697a6564000000000000000000000000000000000000600082015250565b6000614827600e83613bb1565b9150614832826147f1565b602082019050919050565b600060208201905081810360008301526148568161481a565b9050919050565b7f43656e746572732f436c617373726f6f6d73206d69736d617463680000000000600082015250565b6000614893601b83613bb1565b915061489e8261485d565b602082019050919050565b600060208201905081810360008301526148c281614886565b9050919050565b7f556e6c6f636b2074696d65206d75737420626520696e20667574757265000000600082015250565b60006148ff601d83613bb1565b915061490a826148c9565b602082019050919050565b6000602082019050818103600083015261492e816148f2565b9050919050565b7f506170657220616c7265616479207363686564756c6564000000000000000000600082015250565b600061496b601783613bb1565b915061497682614935565b602082019050919050565b6000602082019050818103600083015261499a8161495e565b9050919050565b7f43656e746572206e6f7420726567697374657265640000000000000000000000600082015250565b60006149d7601583613bb1565b91506149e2826149a1565b602082019050919050565b60006020820190508181036000830152614a06816149ca565b9050919050565b7f4e6f742061737369676e656420746f2074686973207061706572000000000000600082015250565b6000614a43601a83613bb1565b9150614a4e82614a0d565b602082019050919050565b60006020820190508181036000830152614a7281614a36565b9050919050565b7f5061706572206e6f7420756e6c6f636b65642079657400000000000000000000600082015250565b6000614aaf601683613bb1565b9150614aba82614a79565b602082019050919050565b60006020820190508181036000830152614ade81614aa2565b905091905056fea26469706673582212209ce766df0279b2a80be71bb3aa80a1445f9e295ae159703819cd199b69122baa64736f6c63430008140033",
  "linkReferences": {},
  "deployedLinkReferences": {}
}