{
  "_format": "hh-sol-artifact-1",
  "contractName": "ExamRegistry",
  "sourceName": "contracts/ExamRegistry.sol",
  "abi": [
    {
      "anonymous": false,
      "inputs": [
        {
          "indexed": true,
          "internalType": "address",
          "name": "authority",
          "type": "address"
        },
        {
          "indexed": false,
          "internalType": "string",
          "name": "name",
          "type": "string"
        }
      ],
      "name": "AuthorityRegistered",
      "type": "event"
    },
    {
      "anonymous": false,
      "inputs": [
        {
          "indexed": true,
          "internalType": "address",
          "name": "centerAddress",
          "type": "address"
        },
        {
          "indexed": false,
          "internalType": "string",
          "name": "name",
          "type": "string"
        }
      ],
      "name": "CenterRegistered",
      "type": "event"
    },
    {
      "anonymous": false,
      "inputs": [
        {
          "indexed": true,
          "internalType": "uint256",
          "name": "paperId",
          "type": "uint256"
        },
        {
          "indexed": false,
          "internalType": "uint256",
          "name": "unlockTimestamp",
          "type": "uint256"
        },
        {
          "indexed": true,
          "internalType": "address",
          "name": "authority",
          "type": "address"
        }
      ],
      "name": "PaperScheduled",
      "type": "event"
    },
    {
      "anonymous": false,
      "inputs": [
        {
          "indexed": true,
          "internalType": "uint256",
          "name": "paperId",
          "type": "uint256"
        },
        {
          "indexed": false,
          "internalType": "uint256",
          "name": "timestamp",
          "type": "uint256"
        }
      ],
      "name": "PaperUnlocked",
      "type": "event"
    },
    {
      "anonymous": false,
      "inputs": [
        {
          "indexed": true,
          "internalType": "uint256",
          "name": "paperId",
          "type": "uint256"
        },
        {
          "indexed": false,
          "internalType": "string",
          "name": "examName",
          "type": "string"
        },
        {
          "indexed": true,
          "internalType": "address",
          "name": "teacher",
          "type": "address"
        }
      ],
      "name": "PaperUploaded",
      "type": "event"
    },
    {
      "inputs": [
        {
          "internalType": "address",
          "name": "",
          "type": "address"
        }
      ],
      "name": "authorities",
      "outputs": [
        {
          "internalType": "string",
          "name": "name",
          "type": "string"
        },
        {
          "internalType": "bool",
          "name": "isRegistered",
          "type": "bool"
        },
        {
          "internalType": "bool",
          "name": "isActive",
          "type": "bool"
        }
      ],
      "stateMutability": "view",
      "type": "function"
    },
    {
      "inputs": [
        {
          "internalType": "uint256",
          "name": "",
          "type": "uint256"
        }
      ],
      "name": "authorityAddresses",
      "outputs": [
        {
          "internalType": "address",
          "name": "",
          "type": "address"
        }
      ],
      "stateMutability": "view",
      "type": "function"
    },
    {
      "inputs": [
        {
          "internalType": "uint256",
          "name": "",
          "type": "uint256"
        }
      ],
      "name": "centerAddresses",
      "outputs": [
        {
          "internalType": "address",
          "name": "",
          "type": "address"
        }
      ],
      "stateMutability": "view",
      "type": "function"
    },
    {
      "inputs": [
        {
          "internalType": "address",
          "name": "",
          "type": "address"
        }
      ],
      "name": "centers",
      "outputs": [
        {
          "internalType": "string",
          "name": "name",
          "type": "string"
        },
        {
          "internalType": "bytes",
          "name": "publicKey",
          "type": "bytes"
        },
        {
          "internalType": "bool",
          "name": "isRegistered",
          "type": "bool"
        }
      ],
      "stateMutability": "view",
      "type": "function"
    },
    {
      "inputs": [],
      "name": "getAllAuthorities",
      "outputs": [
        {
          "internalType": "address[]",
          "name": "",
          "type": "address[]"
        },
        {
          "internalType": "string[]",
          "name": "",
          "type": "string[]"
        }
      ],
      "stateMutability": "view",
      "type": "function"
    },
    {
      "inputs": [],
      "name": "getAllCenters",
      "outputs": [
        {
          "internalType": "address[]",
          "name": "",
          "type": "address[]"
        },
        {
          "internalType": "string[]",
          "name": "",
          "type": "string[]"
        }
      ],
      "stateMutability": "view",
      "type": "function"
    },
    {
      "inputs": [
        {
          "internalType": "address",
          "name": "_center",
          "type": "address"
        }
      ],
      "name": "getCenterPublicKey",
      "outputs": [
        {
          "internalType": "bytes",
          "name": "",
          "type": "bytes"
        }
      ],
      "stateMutability": "view",
      "type": "function"
    },
    {
      "inputs": [
        {
          "internalType": "uint256",
          "name": "_paperId",
          "type": "uint256"
        }
      ],
      "name": "getMyClassroom",
      "outputs": [
        {
          "internalType": "string",
          "name": "",
          "type": "string"
        }
      ],
      "stateMutability": "view",
      "type": "function"
    },
    {
      "inputs": [
        {
          "internalType": "uint256",
          "name": "_paperId",
          "type": "uint256"
        }
      ],
      "name": "getPaper",
      "outputs": [
        {
          "components": [
            {
              "internalType": "string",
              "name": "examName",
              "type": "string"
            },
            {
              "internalType": "string",
              "name": "subject",
              "type": "string"
            },
            {
              "internalType": "address",
              "name": "teacher",
              "type": "address"
            },
            {
              "internalType": "string[]",
              "name": "ipfsCIDs",
              "type": "string[]"
            },
            {
              "internalType": "uint256",
              "name": "uploadTimestamp",
              "type": "uint256"
            },
            {
              "internalType": "uint256",
              "name": "unlockTimestamp",
              "type": "uint256"
            },
            {
              "internalType": "bool",
              "name": "isScheduled",
              "type": "bool"
            },
            {
              "internalType": "bool",
              "name": "isUnlocked",
              "type": "bool"
            },
            {
              "internalType": "address",
              "name": "authority",
              "type": "address"
            },
            {
              "internalType": "bytes",
              "name": "timeLockedKey",
              "type": "bytes"
            },
            {
              "internalType": "string",
              "name": "keyDerivationSalt",
              "type": "string"
            }
          ],
          "internalType": "struct ExamRegistry.Paper",
          "name": "",
          "type": "tuple"
        }
      ],
      "stateMutability": "view",
      "type": "function"
    },
    {
      "inputs": [
        {
          "internalType": "uint256",
          "name": "_paperId",
          "type": "uint256"
        }
      ],
      "name": "getTimeLockedKey",
      "outputs": [
        {
          "internalType": "bytes",
          "name": "",
          "type": "bytes"
        },
        {
          "internalType": "string",
          "name": "",
          "type": "string"
        }
      ],
      "stateMutability": "view",
      "type": "function"
    },
    {
      "inputs": [
        {
          "internalType": "uint256",
          "name": "_paperId",
          "type": "uint256"
        },
        {
          "internalType": "address",
          "name": "_center",
          "type": "address"
        }
      ],
      "name": "isAssignedToCenter",
      "outputs": [
        {
          "internalType": "bool",
          "name": "",
          "type": "bool"
        }
      ],
      "stateMutability": "view",
      "type": "function"
    },
    {
      "inputs": [
        {
          "internalType": "uint256",
          "name": "",
          "type": "uint256"
        },
        {
          "internalType": "address",
          "name": "",
          "type": "address"
        }
      ],
      "name": "paperAssignments",
      "outputs": [
        {
          "internalType": "bool",
          "name": "",
          "type": "bool"
        }
      ],
      "stateMutability": "view",
      "type": "function"
    },
    {
      "inputs": [
        {
          "internalType": "uint256",
          "name": "",
          "type": "uint256"
        },
        {
          "internalType": "address",
          "name": "",
          "type": "address"
        }
      ],
      "name": "paperClassrooms",
      "outputs": [
        {
          "internalType": "string",
          "name": "",
          "type": "string"
        }
      ],
      "stateMutability": "view",
      "type": "function"
    },
    {
      "inputs": [],
      "name": "paperCount",
      "outputs": [
        {
          "internalType": "uint256",
          "name": "",
          "type": "uint256"
        }
      ],
      "stateMutability": "view",
      "type": "function"
    },
    {
      "inputs": [
        {
          "internalType": "uint256",
          "name": "",
          "type": "uint256"
        }
      ],
      "name": "papers",
      "outputs": [
        {
          "internalType": "string",
          "name": "examName",
          "type": "string"
        },
        {
          "internalType": "string",
          "name": "subject",
          "type": "string"
        },
        {
          "internalType": "address",
          "name": "teacher",
          "type": "address"
        },
        {
          "internalType": "uint256",
          "name": "uploadTimestamp",
          "type": "uint256"
        },
        {
          "internalType": "uint256",
          "name": "unlockTimestamp",
          "type": "uint256"
        },
        {
          "internalType": "bool",
          "name": "isScheduled",
          "type": "bool"
        },
        {
          "internalType": "bool",
          "name": "isUnlocked",
          "type": "bool"
        },
        {
          "internalType": "address",
          "name": "authority",
          "type": "address"
        },
        {
          "internalType": "bytes",
          "name": "timeLockedKey",
          "type": "bytes"
        },
        {
          "internalType": "string",
          "name": "keyDerivationSalt",
          "type": "string"
        }
      ],
      "stateMutability": "view",
      "type": "function"
    },
    {
      "inputs": [
        {
          "internalType": "string",
          "name": "_name",
          "type": "string"
        }
      ],
      "name": "registerAuthority",
      "outputs": [],
      "stateMutability": "nonpayable",
      "type": "function"
    },
    {
      "inputs": [
        {
          "internalType": "string",
          "name": "_name",
          "type": "string"
        },
        {
          "internalType": "bytes",
          "name": "_publicKey",
          "type": "bytes"
        }
      ],
      "name": "registerExamCenter",
      "outputs": [],
      "stateMutability": "nonpayable",
      "type": "function"
    },
    {
      "inputs": [
        {
          "internalType": "uint256",
          "name": "_paperId",
          "type": "uint256"
        },
        {
          "internalType": "uint256",
          "name": "_unlockTimestamp",
          "type": "uint256"
        },
        {
          "internalType": "address[]",
          "name": "_centers",
          "type": "address[]"
        },
        {
          "internalType": "string[]",
          "name": "_classrooms",
          "type": "string[]"
        },
        {
          "internalType": "bytes",
          "name": "_newTimeLockedKey",
          "type": "bytes"
        },
        {
          "internalType": "string",
          "name": "_newSalt",
          "type": "string"
        }
      ],
      "name": "scheduleExam",
      "outputs": [],
      "stateMutability": "nonpayable",
      "type": "function"
    },
    {
      "inputs": [
        {
          "internalType": "uint256",
          "name": "_paperId",
          "type": "uint256"
        }
      ],
      "name": "unlockPaper",
      "outputs": [],
      "stateMutability": "nonpayable",
      "type": "function"
    },
    {
      "inputs": [
        {
          "internalType": "string",
          "name": "_examName",
          "type": "string"
        },
        {
          "internalType": "string",
          "name": "_subject",
          "type": "string"
        },
        {
          "internalType": "string[]",
          "name": "_ipfsCIDs",
          "type": "string[]"
        },
        {
          "internalType": "bytes",
          "name": "_timeLockedKey",
          "type": "bytes"
        },
        {
          "internalType": "string",
          "name": "_keyDerivationSalt",
          "type": "string"
        }
      ],
      "name": "uploadPaper",
      "outputs": [
        {
          "internalType": "uint256",
          "name": "",
          "type": "uint256"
        }
      ],
      "stateMutability": "nonpayable",
      "type": "function"
    }
  ],
  "bytecode": "0x608060405234801561001057600080fd5b506146e7806100206000396000f3fe608060405234801561001057600080fd5b506004361061012b5760003560e01c80639a0dd666116100ad578063b69dab6811610071578063b69dab68146103af578063bc7cf6dd146103df578063c3a4d3f81461040f578063da0d83de1461042b578063fedf2c561461045b5761012b565b80639a0dd666146102e5578063a56c2cb914610315578063a6470ba014610333578063a930ecd714610363578063b5438f6d1461037f5761012b565b8063554a14ac116100f4578063554a14ac146101e75780635e775a2714610219578063665fbc441461025257806391223d691461028357806393e9b6ed146102b55761012b565b8062c172a21461013057806307993f041461014c5780632460cf761461017c5780633b0ae1fd146101985780634cdf8093146101c8575b600080fd5b61014a60048036038101906101459190612e74565b61047a565b005b61016660048036038101906101619190612f22565b6106b8565b604051610173919061325b565b60405180910390f35b61019660048036038101906101919190612f22565b610b4f565b005b6101b260048036038101906101ad91906132a9565b610ca9565b6040516101bf9190613320565b60405180910390f35b6101d0610d7d565b6040516101de929190613477565b60405180910390f35b61020160048036038101906101fc91906132a9565b61100c565b60405161021093929190613507565b60405180910390f35b610233600480360381019061022e9190612f22565b611153565b6040516102499a9998979695949392919061356a565b60405180910390f35b61026c60048036038101906102679190612f22565b611421565b60405161027a929190613622565b60405180910390f35b61029d600480360381019061029891906132a9565b6119a7565b6040516102ac93929190613659565b60405180910390f35b6102cf60048036038101906102ca9190613697565b611a73565b6040516102dc91906136d7565b60405180910390f35b6102ff60048036038101906102fa9190612f22565b611b2e565b60405161030c91906136f2565b60405180910390f35b61031d611b6d565b60405161032a919061370d565b60405180910390f35b61034d6004803603810190610348919061380e565b611b73565b60405161035a919061370d565b60405180910390f35b61037d60048036038101906103789190613915565b611eec565b005b61039960048036038101906103949190612f22565b6120ae565b6040516103a6919061395e565b60405180910390f35b6103c960048036038101906103c49190612f22565b612280565b6040516103d691906136f2565b60405180910390f35b6103f960048036038101906103f49190613697565b6122bf565b604051610406919061395e565b60405180910390f35b61042960048036038101906104249190613a43565b61236c565b005b61044560048036038101906104409190613697565b612857565b60405161045291906136d7565b60405180910390f35b610463612886565b604051610471929190613477565b60405180910390f35b60008251116104be576040517f08c379a00000000000000000000000000000000000000000000000000000000081526004016104b590613b8c565b60405180910390fd5b6000815111610502576040517f08c379a00000000000000000000000000000000000000000000000000000000081526004016104f990613bf8565b60405180910390fd5b600260003373ffffffffffffffffffffffffffffffffffffffff1673ffffffffffffffffffffffffffffffffffffffff16815260200190815260200160002060020160009054906101000a900460ff166105ba576003339080600181540180825580915050600190039060005260206000200160009091909190916101000a81548173ffffffffffffffffffffffffffffffffffffffff021916908373ffffffffffffffffffffffffffffffffffffffff1602179055505b604051806060016040528083815260200182815260200160011515815250600260003373ffffffffffffffffffffffffffffffffffffffff1673ffffffffffffffffffffffffffffffffffffffff168152602001908152602001600020600082015181600001908161062c9190613e24565b5060208201518160010190816106429190613f51565b5060408201518160020160006101000a81548160ff0219169083151502179055509050503373ffffffffffffffffffffffffffffffffffffffff167f1ffb27eb65cbbc9dfaa75d97c82c72d0f599317651d968e7e4ea93553e154c92836040516106ac919061395e565b60405180910390a25050565b6106c0612b15565b816000811180156106d357506001548111155b610712576040517f08c379a00000000000000000000000000000000000000000000000000000000081526004016107099061406f565b60405180910390fd5b6000808481526020019081526020016000206040518061016001604052908160008201805461074090613c47565b80601f016020809104026020016040519081016040528092919081815260200182805461076c90613c47565b80156107b95780601f1061078e576101008083540402835291602001916107b9565b820191906000526020600020905b81548152906001019060200180831161079c57829003601f168201915b505050505081526020016001820180546107d290613c47565b80601f01602080910402602001604051908101604052809291908181526020018280546107fe90613c47565b801561084b5780601f106108205761010080835404028352916020019161084b565b820191906000526020600020905b81548152906001019060200180831161082e57829003601f168201915b505050505081526020016002820160009054906101000a900473ffffffffffffffffffffffffffffffffffffffff1673ffffffffffffffffffffffffffffffffffffffff1673ffffffffffffffffffffffffffffffffffffffff16815260200160038201805480602002602001604051908101604052809291908181526020016000905b8282101561097b5783829060005260206000200180546108ee90613c47565b80601f016020809104026020016040519081016040528092919081815260200182805461091a90613c47565b80156109675780601f1061093c57610100808354040283529160200191610967565b820191906000526020600020905b81548152906001019060200180831161094a57829003601f168201915b5050505050815260200190600101906108cf565b50505050815260200160048201548152602001600582015481526020016006820160009054906101000a900460ff161515151581526020016006820160019054906101000a900460ff161515151581526020016006820160029054906101000a900473ffffffffffffffffffffffffffffffffffffffff1673ffffffffffffffffffffffffffffffffffffffff1673ffffffffffffffffffffffffffffffffffffffff168152602001600782018054610a3390613c47565b80601f0160208091040260200160405190810160405280929190818152602001828054610a5f90613c47565b8015610aac5780601f10610a8157610100808354040283529160200191610aac565b820191906000526020600020905b815481529060010190602001808311610a8f57829003601f168201915b50505050508152602001600882018054610ac590613c47565b80601f0160208091040260200160405190810160405280929190818152602001828054610af190613c47565b8015610b3e5780601f10610b1357610100808354040283529160200191610b3e565b820191906000526020600020905b815481529060010190602001808311610b2157829003601f168201915b505050505081525050915050919050565b80600081118015610b6257506001548111155b610ba1576040517f08c379a0000000000000000000000000000000000000000000000000000000008152600401610b989061406f565b60405180910390fd5b600080600084815260200190815260200160002090508060060160009054906101000a900460ff16610c08576040517f08c379a0000000000000000000000000000000000000000000000000000000008152600401610bff906140db565b60405180910390fd5b8060050154421015610c4f576040517f08c379a0000000000000000000000000000000000000000000000000000000008152600401610c4690614147565b60405180910390fd5b60018160060160016101000a81548160ff021916908315150217905550827f79f7de7ac9a8923c7ccc915fb4c5041920583f938a5406435331e490e06e0cf342604051610c9c919061370d565b60405180910390a2505050565b6060600260008373ffffffffffffffffffffffffffffffffffffffff1673ffffffffffffffffffffffffffffffffffffffff1681526020019081526020016000206001018054610cf890613c47565b80601f0160208091040260200160405190810160405280929190818152602001828054610d2490613c47565b8015610d715780601f10610d4657610100808354040283529160200191610d71565b820191906000526020600020905b815481529060010190602001808311610d5457829003601f168201915b50505050509050919050565b606080600060038054905067ffffffffffffffff811115610da157610da0612ca8565b5b604051908082528060200260200182016040528015610dcf5781602001602082028036833780820191505090505b509050600060038054905067ffffffffffffffff811115610df357610df2612ca8565b5b604051908082528060200260200182016040528015610e2657816020015b6060815260200190600190039081610e115790505b50905060005b600380549050811015610fff5760038181548110610e4d57610e4c614167565b5b9060005260206000200160009054906101000a900473ffffffffffffffffffffffffffffffffffffffff16838281518110610e8b57610e8a614167565b5b602002602001019073ffffffffffffffffffffffffffffffffffffffff16908173ffffffffffffffffffffffffffffffffffffffff16815250506002600060038381548110610edd57610edc614167565b5b9060005260206000200160009054906101000a900473ffffffffffffffffffffffffffffffffffffffff1673ffffffffffffffffffffffffffffffffffffffff1673ffffffffffffffffffffffffffffffffffffffff1681526020019081526020016000206000018054610f5090613c47565b80601f0160208091040260200160405190810160405280929190818152602001828054610f7c90613c47565b8015610fc95780601f10610f9e57610100808354040283529160200191610fc9565b820191906000526020600020905b815481529060010190602001808311610fac57829003601f168201915b5050505050828281518110610fe157610fe0614167565b5b60200260200101819052508080610ff7906141c5565b915050610e2c565b5081819350935050509091565b600260205280600052604060002060009150905080600001805461102f90613c47565b80601f016020809104026020016040519081016040528092919081815260200182805461105b90613c47565b80156110a85780601f1061107d576101008083540402835291602001916110a8565b820191906000526020600020905b81548152906001019060200180831161108b57829003601f168201915b5050505050908060010180546110bd90613c47565b80601f01602080910402602001604051908101604052809291908181526020018280546110e990613c47565b80156111365780601f1061110b57610100808354040283529160200191611136565b820191906000526020600020905b81548152906001019060200180831161111957829003601f168201915b5050505050908060020160009054906101000a900460ff16905083565b600060205280600052604060002060009150905080600001805461117690613c47565b80601f01602080910402602001604051908101604052809291908181526020018280546111a290613c47565b80156111ef5780601f106111c4576101008083540402835291602001916111ef565b820191906000526020600020905b8154815290600101906020018083116111d257829003601f168201915b50505050509080600101805461120490613c47565b80601f016020809104026020016040519081016040528092919081815260200182805461123090613c47565b801561127d5780601f106112525761010080835404028352916020019161127d565b820191906000526020600020905b81548152906001019060200180831161126057829003601f168201915b5050505050908060020160009054906101000a900473ffffffffffffffffffffffffffffffffffffffff16908060040154908060050154908060060160009054906101000a900460ff16908060060160019054906101000a900460ff16908060060160029054906101000a900473ffffffffffffffffffffffffffffffffffffffff169080600701805461131090613c47565b80601f016020809104026020016040519081016040528092919081815260200182805461133c90613c47565b80156113895780601f1061135e57610100808354040283529160200191611389565b820191906000526020600020905b81548152906001019060200180831161136c57829003601f168201915b50505050509080600801805461139e90613c47565b80601f01602080910402602001604051908101604052809291908181526020018280546113ca90613c47565b80156114175780601f106113ec57610100808354040283529160200191611417565b820191906000526020600020905b8154815290600101906020018083116113fa57829003601f168201915b505050505090508a565b6060808260008111801561143757506001548111155b611476576040517f08c379a000000000000000000000000000000000000000000000000000000000815260040161146d9061406f565b60405180910390fd5b6000806000868152602001908152602001600020604051806101600160405290816000820180546114a690613c47565b80601f01602080910402602001604051908101604052809291908181526020018280546114d290613c47565b801561151f5780601f106114f45761010080835404028352916020019161151f565b820191906000526020600020905b81548152906001019060200180831161150257829003601f168201915b5050505050815260200160018201805461153890613c47565b80601f016020809104026020016040519081016040528092919081815260200182805461156490613c47565b80156115b15780601f10611586576101008083540402835291602001916115b1565b820191906000526020600020905b81548152906001019060200180831161159457829003601f168201915b505050505081526020016002820160009054906101000a900473ffffffffffffffffffffffffffffffffffffffff1673ffffffffffffffffffffffffffffffffffffffff1673ffffffffffffffffffffffffffffffffffffffff16815260200160038201805480602002602001604051908101604052809291908181526020016000905b828210156116e157838290600052602060002001805461165490613c47565b80601f016020809104026020016040519081016040528092919081815260200182805461168090613c47565b80156116cd5780601f106116a2576101008083540402835291602001916116cd565b820191906000526020600020905b8154815290600101906020018083116116b057829003601f168201915b505050505081526020019060010190611635565b50505050815260200160048201548152602001600582015481526020016006820160009054906101000a900460ff161515151581526020016006820160019054906101000a900460ff161515151581526020016006820160029054906101000a900473ffffffffffffffffffffffffffffffffffffffff1673ffffffffffffffffffffffffffffffffffffffff1673ffffffffffffffffffffffffffffffffffffffff16815260200160078201805461179990613c47565b80601f01602080910402602001604051908101604052809291908181526020018280546117c590613c47565b80156118125780601f106117e757610100808354040283529160200191611812565b820191906000526020600020905b8154815290600101906020018083116117f557829003601f168201915b5050505050815260200160088201805461182b90613c47565b80601f016020809104026020016040519081016040528092919081815260200182805461185790613c47565b80156118a45780601f10611879576101008083540402835291602001916118a4565b820191906000526020600020905b81548152906001019060200180831161188757829003601f168201915b50505050508152505090508060e001516118f3576040517f08c379a00000000000000000000000000000000000000000000000000000000081526004016118ea90614259565b60405180910390fd5b6007600086815260200190815260200160002060003373ffffffffffffffffffffffffffffffffffffffff1673ffffffffffffffffffffffffffffffffffffffff16815260200190815260200160002060009054906101000a900460ff16611990576040517f08c379a0000000000000000000000000000000000000000000000000000000008152600401611987906142c5565b60405180910390fd5b806101200151816101400151935093505050915091565b60046020528060005260406000206000915090508060000180546119ca90613c47565b80601f01602080910402602001604051908101604052809291908181526020018280546119f690613c47565b8015611a435780601f10611a1857610100808354040283529160200191611a43565b820191906000526020600020905b815481529060010190602001808311611a2657829003601f168201915b5050505050908060010160009054906101000a900460ff16908060010160019054906101000a900460ff16905083565b600082600081118015611a8857506001548111155b611ac7576040517f08c379a0000000000000000000000000000000000000000000000000000000008152600401611abe9061406f565b60405180910390fd5b6007600085815260200190815260200160002060008473ffffffffffffffffffffffffffffffffffffffff1673ffffffffffffffffffffffffffffffffffffffff16815260200190815260200160002060009054906101000a900460ff1691505092915050565b60038181548110611b3e57600080fd5b906000526020600020016000915054906101000a900473ffffffffffffffffffffffffffffffffffffffff1681565b60015481565b600080865111611bb8576040517f08c379a0000000000000000000000000000000000000000000000000000000008152600401611baf90614331565b60405180910390fd5b6000845111611bfc576040517f08c379a0000000000000000000000000000000000000000000000000000000008152600401611bf39061439d565b60405180910390fd5b6000835111611c40576040517f08c379a0000000000000000000000000000000000000000000000000000000008152600401611c3790614409565b60405180910390fd5b6000825111611c84576040517f08c379a0000000000000000000000000000000000000000000000000000000008152600401611c7b90614475565b60405180910390fd5b60016000815480929190611c97906141c5565b91905055506040518061016001604052808781526020018681526020013373ffffffffffffffffffffffffffffffffffffffff16815260200185815260200142815260200160008152602001600015158152602001600015158152602001600073ffffffffffffffffffffffffffffffffffffffff1681526020018481526020018381525060008060015481526020019081526020016000206000820151816000019081611d459190613e24565b506020820151816001019081611d5b9190613e24565b5060408201518160020160006101000a81548173ffffffffffffffffffffffffffffffffffffffff021916908373ffffffffffffffffffffffffffffffffffffffff1602179055506060820151816003019080519060200190611dbf929190612b9f565b506080820151816004015560a0820151816005015560c08201518160060160006101000a81548160ff02191690831515021790555060e08201518160060160016101000a81548160ff0219169083151502179055506101008201518160060160026101000a81548173ffffffffffffffffffffffffffffffffffffffff021916908373ffffffffffffffffffffffffffffffffffffffff160217905550610120820151816007019081611e729190613f51565b50610140820151816008019081611e899190613e24565b509050503373ffffffffffffffffffffffffffffffffffffffff166001547ff2addd0844bf6c683670be19a71fe7603380bdc0b1a9ecde0137f08b5e0d644a88604051611ed6919061395e565b60405180910390a3600154905095945050505050565b600460003373ffffffffffffffffffffffffffffffffffffffff1673ffffffffffffffffffffffffffffffffffffffff16815260200190815260200160002060010160009054906101000a900460ff16611fa4576005339080600181540180825580915050600190039060005260206000200160009091909190916101000a81548173ffffffffffffffffffffffffffffffffffffffff021916908373ffffffffffffffffffffffffffffffffffffffff1602179055505b604051806060016040528082815260200160011515815260200160011515815250600460003373ffffffffffffffffffffffffffffffffffffffff1673ffffffffffffffffffffffffffffffffffffffff16815260200190815260200160002060008201518160000190816120199190613e24565b5060208201518160010160006101000a81548160ff02191690831515021790555060408201518160010160016101000a81548160ff0219169083151502179055509050503373ffffffffffffffffffffffffffffffffffffffff167f8b3ab3ac57020b92e516b703bb37e5b4d0b12cc6c39d69288f9380be3f19dcbe826040516120a3919061395e565b60405180910390a250565b6060816000811180156120c357506001548111155b612102576040517f08c379a00000000000000000000000000000000000000000000000000000000081526004016120f99061406f565b60405180910390fd5b6007600084815260200190815260200160002060003373ffffffffffffffffffffffffffffffffffffffff1673ffffffffffffffffffffffffffffffffffffffff16815260200190815260200160002060009054906101000a900460ff1661219f576040517f08c379a0000000000000000000000000000000000000000000000000000000008152600401612196906142c5565b60405180910390fd5b6006600084815260200190815260200160002060003373ffffffffffffffffffffffffffffffffffffffff1673ffffffffffffffffffffffffffffffffffffffff16815260200190815260200160002080546121fa90613c47565b80601f016020809104026020016040519081016040528092919081815260200182805461222690613c47565b80156122735780601f1061224857610100808354040283529160200191612273565b820191906000526020600020905b81548152906001019060200180831161225657829003601f168201915b5050505050915050919050565b6005818154811061229057600080fd5b906000526020600020016000915054906101000a900473ffffffffffffffffffffffffffffffffffffffff1681565b60066020528160005260406000206020528060005260406000206000915091505080546122eb90613c47565b80601f016020809104026020016040519081016040528092919081815260200182805461231790613c47565b80156123645780601f1061233957610100808354040283529160200191612364565b820191906000526020600020905b81548152906001019060200180831161234757829003601f168201915b505050505081565b600460003373ffffffffffffffffffffffffffffffffffffffff1673ffffffffffffffffffffffffffffffffffffffff16815260200190815260200160002060010160009054906101000a900460ff1680156124145750600460003373ffffffffffffffffffffffffffffffffffffffff1673ffffffffffffffffffffffffffffffffffffffff16815260200190815260200160002060010160019054906101000a900460ff165b612453576040517f08c379a000000000000000000000000000000000000000000000000000000000815260040161244a906144e1565b60405180910390fd5b8560008111801561246657506001548111155b6124a5576040517f08c379a000000000000000000000000000000000000000000000000000000000815260040161249c9061406f565b60405180910390fd5b83518551146124e9576040517f08c379a00000000000000000000000000000000000000000000000000000000081526004016124e09061454d565b60405180910390fd5b42861161252b576040517f08c379a0000000000000000000000000000000000000000000000000000000008152600401612522906145b9565b60405180910390fd5b600080600089815260200190815260200160002090508060060160009054906101000a900460ff1615612593576040517f08c379a000000000000000000000000000000000000000000000000000000000815260040161258a90614625565b60405180910390fd5b60005b865181101561277057600260008883815181106125b6576125b5614167565b5b602002602001015173ffffffffffffffffffffffffffffffffffffffff1673ffffffffffffffffffffffffffffffffffffffff16815260200190815260200160002060020160009054906101000a900460ff16612648576040517f08c379a000000000000000000000000000000000000000000000000000000000815260040161263f90614691565b60405180910390fd5b85818151811061265b5761265a614167565b5b6020026020010151600660008b8152602001908152602001600020600089848151811061268b5761268a614167565b5b602002602001015173ffffffffffffffffffffffffffffffffffffffff1673ffffffffffffffffffffffffffffffffffffffff16815260200190815260200160002090816126d99190613e24565b506001600760008b8152602001908152602001600020600089848151811061270457612703614167565b5b602002602001015173ffffffffffffffffffffffffffffffffffffffff1673ffffffffffffffffffffffffffffffffffffffff16815260200190815260200160002060006101000a81548160ff0219169083151502179055508080612768906141c5565b915050612596565b50838160070190816127829190613f51565b50828160080190816127949190613e24565b5086816005018190555060018160060160006101000a81548160ff021916908315150217905550338160060160026101000a81548173ffffffffffffffffffffffffffffffffffffffff021916908373ffffffffffffffffffffffffffffffffffffffff1602179055503373ffffffffffffffffffffffffffffffffffffffff16887f3d33224841a69211485d8e455a900b8e87a0cf87d2e1df52f1ea56ebc485d70089604051612845919061370d565b60405180910390a35050505050505050565b60076020528160005260406000206020528060005260406000206000915091509054906101000a900460ff1681565b606080600060058054905067ffffffffffffffff8111156128aa576128a9612ca8565b5b6040519080825280602002602001820160405280156128d85781602001602082028036833780820191505090505b509050600060058054905067ffffffffffffffff8111156128fc576128fb612ca8565b5b60405190808252806020026020018201604052801561292f57816020015b606081526020019060019003908161291a5790505b50905060005b600580549050811015612b08576005818154811061295657612955614167565b5b9060005260206000200160009054906101000a900473ffffffffffffffffffffffffffffffffffffffff1683828151811061299457612993614167565b5b602002602001019073ffffffffffffffffffffffffffffffffffffffff16908173ffffffffffffffffffffffffffffffffffffffff168152505060046000600583815481106129e6576129e5614167565b5b9060005260206000200160009054906101000a900473ffffffffffffffffffffffffffffffffffffffff1673ffffffffffffffffffffffffffffffffffffffff1673ffffffffffffffffffffffffffffffffffffffff1681526020019081526020016000206000018054612a5990613c47565b80601f0160208091040260200160405190810160405280929190818152602001828054612a8590613c47565b8015612ad25780601f10612aa757610100808354040283529160200191612ad2565b820191906000526020600020905b815481529060010190602001808311612ab557829003601f168201915b5050505050828281518110612aea57612ae9614167565b5b60200260200101819052508080612b00906141c5565b915050612935565b5081819350935050509091565b6040518061016001604052806060815260200160608152602001600073ffffffffffffffffffffffffffffffffffffffff168152602001606081526020016000815260200160008152602001600015158152602001600015158152602001600073ffffffffffffffffffffffffffffffffffffffff16815260200160608152602001606081525090565b828054828255906000526020600020908101928215612be7579160200282015b82811115612be6578251829081612bd69190613e24565b5091602001919060010190612bbf565b5b509050612bf49190612bf8565b5090565b5b80821115612c185760008181612c0f9190612c1c565b50600101612bf9565b5090565b508054612c2890613c47565b6000825580601f10612c3a5750612c59565b601f016020900490600052602060002090810190612c589190612c5c565b5b50565b5b80821115612c75576000816000905550600101612c5d565b5090565b6000604051905090565b600080fd5b600080fd5b600080fd5b600080fd5b6000601f19601f8301169050919050565b7f4e487b7100000000000000000000000000000000000000000000000000000000600052604160045260246000fd5b612ce082612c97565b810181811067ffffffffffffffff82111715612cff57612cfe612ca8565b5b80604052505050565b6000612d12612c79565b9050612d1e8282612cd7565b919050565b600067ffffffffffffffff821115612d3e57612d3d612ca8565b5b612d4782612c97565b9050602081019050919050565b82818337600083830152505050565b6000612d76612d7184612d23565b612d08565b905082815260208101848484011115612d9257612d91612c92565b5b612d9d848285612d54565b509392505050565b600082601f830112612dba57612db9612c8d565b5b8135612dca848260208601612d63565b91505092915050565b600067ffffffffffffffff821115612dee57612ded612ca8565b5b612df782612c97565b9050602081019050919050565b6000612e17612e1284612dd3565b612d08565b905082815260208101848484011115612e3357612e32612c92565b5b612e3e848285612d54565b509392505050565b600082601f830112612e5b57612e5a612c8d565b5b8135612e6b848260208601612e04565b91505092915050565b60008060408385031215612e8b57612e8a612c83565b5b600083013567ffffffffffffffff811115612ea957612ea8612c88565b5b612eb585828601612da5565b925050602083013567ffffffffffffffff811115612ed657612ed5612c88565b5b612ee285828601612e46565b9150509250929050565b6000819050919050565b612eff81612eec565b8114612f0a57600080fd5b50565b600081359050612f1c81612ef6565b92915050565b600060208284031215612f3857612f37612c83565b5b6000612f4684828501612f0d565b91505092915050565b600081519050919050565b600082825260208201905092915050565b60005b83811015612f89578082015181840152602081019050612f6e565b60008484015250505050565b6000612fa082612f4f565b612faa8185612f5a565b9350612fba818560208601612f6b565b612fc381612c97565b840191505092915050565b600073ffffffffffffffffffffffffffffffffffffffff82169050919050565b6000612ff982612fce565b9050919050565b61300981612fee565b82525050565b600081519050919050565b600082825260208201905092915050565b6000819050602082019050919050565b60006130478383612f95565b905092915050565b6000602082019050919050565b60006130678261300f565b613071818561301a565b9350836020820285016130838561302b565b8060005b858110156130bf57848403895281516130a0858261303b565b94506130ab8361304f565b925060208a01995050600181019050613087565b50829750879550505050505092915050565b6130da81612eec565b82525050565b60008115159050919050565b6130f5816130e0565b82525050565b600081519050919050565b600082825260208201905092915050565b6000613122826130fb565b61312c8185613106565b935061313c818560208601612f6b565b61314581612c97565b840191505092915050565b600061016083016000830151848203600086015261316e8282612f95565b915050602083015184820360208601526131888282612f95565b915050604083015161319d6040860182613000565b50606083015184820360608601526131b5828261305c565b91505060808301516131ca60808601826130d1565b5060a08301516131dd60a08601826130d1565b5060c08301516131f060c08601826130ec565b5060e083015161320360e08601826130ec565b50610100830151613218610100860182613000565b506101208301518482036101208601526132328282613117565b91505061014083015184820361014086015261324e8282612f95565b9150508091505092915050565b600060208201905081810360008301526132758184613150565b905092915050565b61328681612fee565b811461329157600080fd5b50565b6000813590506132a38161327d565b92915050565b6000602082840312156132bf576132be612c83565b5b60006132cd84828501613294565b91505092915050565b600082825260208201905092915050565b60006132f2826130fb565b6132fc81856132d6565b935061330c818560208601612f6b565b61331581612c97565b840191505092915050565b6000602082019050818103600083015261333a81846132e7565b905092915050565b600081519050919050565b600082825260208201905092915050565b6000819050602082019050919050565b600061337a8383613000565b60208301905092915050565b6000602082019050919050565b600061339e82613342565b6133a8818561334d565b93506133b38361335e565b8060005b838110156133e45781516133cb888261336e565b97506133d683613386565b9250506001810190506133b7565b5085935050505092915050565b600082825260208201905092915050565b600061340d8261300f565b61341781856133f1565b9350836020820285016134298561302b565b8060005b858110156134655784840389528151613446858261303b565b94506134518361304f565b925060208a0199505060018101905061342d565b50829750879550505050505092915050565b600060408201905081810360008301526134918185613393565b905081810360208301526134a58184613402565b90509392505050565b600082825260208201905092915050565b60006134ca82612f4f565b6134d481856134ae565b93506134e4818560208601612f6b565b6134ed81612c97565b840191505092915050565b613501816130e0565b82525050565b6000606082019050818103600083015261352181866134bf565b9050818103602083015261353581856132e7565b905061354460408301846134f8565b949350505050565b61355581612fee565b82525050565b61356481612eec565b82525050565b6000610140820190508181036000830152613585818d6134bf565b90508181036020830152613599818c6134bf565b90506135a8604083018b61354c565b6135b5606083018a61355b565b6135c2608083018961355b565b6135cf60a08301886134f8565b6135dc60c08301876134f8565b6135e960e083018661354c565b8181036101008301526135fc81856132e7565b905081810361012083015261361181846134bf565b90509b9a5050505050505050505050565b6000604082019050818103600083015261363c81856132e7565b9050818103602083015261365081846134bf565b90509392505050565b6000606082019050818103600083015261367381866134bf565b905061368260208301856134f8565b61368f60408301846134f8565b949350505050565b600080604083850312156136ae576136ad612c83565b5b60006136bc85828601612f0d565b92505060206136cd85828601613294565b9150509250929050565b60006020820190506136ec60008301846134f8565b92915050565b6000602082019050613707600083018461354c565b92915050565b6000602082019050613722600083018461355b565b92915050565b600067ffffffffffffffff82111561374357613742612ca8565b5b602082029050602081019050919050565b600080fd5b600061376c61376784613728565b612d08565b9050808382526020820190506020840283018581111561378f5761378e613754565b5b835b818110156137d657803567ffffffffffffffff8111156137b4576137b3612c8d565b5b8086016137c18982612da5565b85526020850194505050602081019050613791565b5050509392505050565b600082601f8301126137f5576137f4612c8d565b5b8135613805848260208601613759565b91505092915050565b600080600080600060a0868803121561382a57613829612c83565b5b600086013567ffffffffffffffff81111561384857613847612c88565b5b61385488828901612da5565b955050602086013567ffffffffffffffff81111561387557613874612c88565b5b61388188828901612da5565b945050604086013567ffffffffffffffff8111156138a2576138a1612c88565b5b6138ae888289016137e0565b935050606086013567ffffffffffffffff8111156138cf576138ce612c88565b5b6138db88828901612e46565b925050608086013567ffffffffffffffff8111156138fc576138fb612c88565b5b61390888828901612da5565b9150509295509295909350565b60006020828403121561392b5761392a612c83565b5b600082013567ffffffffffffffff81111561394957613948612c88565b5b61395584828501612da5565b91505092915050565b6000602082019050818103600083015261397881846134bf565b905092915050565b600067ffffffffffffffff82111561399b5761399a612ca8565b5b602082029050602081019050919050565b60006139bf6139ba84613980565b612d08565b905080838252602082019050602084028301858111156139e2576139e1613754565b5b835b81811015613a0b57806139f78882613294565b8452602084019350506020810190506139e4565b5050509392505050565b600082601f830112613a2a57613a29612c8d565b5b8135613a3a8482602086016139ac565b91505092915050565b60008060008060008060c08789031215613a6057613a5f612c83565b5b6000613a6e89828a01612f0d565b9650506020613a7f89828a01612f0d565b955050604087013567ffffffffffffffff811115613aa057613a9f612c88565b5b613aac89828a01613a15565b945050606087013567ffffffffffffffff811115613acd57613acc612c88565b5b613ad989828a016137e0565b935050608087013567ffffffffffffffff811115613afa57613af9612c88565b5b613b0689828a01612e46565b92505060a087013567ffffffffffffffff811115613b2757613b26612c88565b5b613b3389828a01612da5565b9150509295509295509295565b7f4e616d6520726571756972656400000000000000000000000000000000000000600082015250565b6000613b76600d836134ae565b9150613b8182613b40565b602082019050919050565b60006020820190508181036000830152613ba581613b69565b9050919050565b7f5075626c6963206b657920726571756972656400000000000000000000000000600082015250565b6000613be26013836134ae565b9150613bed82613bac565b602082019050919050565b60006020820190508181036000830152613c1181613bd5565b9050919050565b7f4e487b7100000000000000000000000000000000000000000000000000000000600052602260045260246000fd5b60006002820490506001821680613c5f57607f821691505b602082108103613c7257613c71613c18565b5b50919050565b60008190508160005260206000209050919050565b60006020601f8301049050919050565b600082821b905092915050565b600060088302613cda7fffffffffffffffffffffffffffffffffffffffffffffffffffffffffffffffff82613c9d565b613ce48683613c9d565b95508019841693508086168417925050509392505050565b6000819050919050565b6000613d21613d1c613d1784612eec565b613cfc565b612eec565b9050919050565b6000819050919050565b613d3b83613d06565b613d4f613d4782613d28565b848454613caa565b825550505050565b600090565b613d64613d57565b613d6f818484613d32565b505050565b5b81811015613d9357613d88600082613d5c565b600181019050613d75565b5050565b601f821115613dd857613da981613c78565b613db284613c8d565b81016020851015613dc1578190505b613dd5613dcd85613c8d565b830182613d74565b50505b505050565b600082821c905092915050565b6000613dfb60001984600802613ddd565b1980831691505092915050565b6000613e148383613dea565b9150826002028217905092915050565b613e2d82612f4f565b67ffffffffffffffff811115613e4657613e45612ca8565b5b613e508254613c47565b613e5b828285613d97565b600060209050601f831160018114613e8e5760008415613e7c578287015190505b613e868582613e08565b865550613eee565b601f198416613e9c86613c78565b60005b82811015613ec457848901518255600182019150602085019450602081019050613e9f565b86831015613ee15784890151613edd601f891682613dea565b8355505b6001600288020188555050505b505050505050565b60008190508160005260206000209050919050565b601f821115613f4c57613f1d81613ef6565b613f2684613c8d565b81016020851015613f35578190505b613f49613f4185613c8d565b830182613d74565b50505b505050565b613f5a826130fb565b67ffffffffffffffff811115613f7357613f72612ca8565b5b613f7d8254613c47565b613f88828285613f0b565b600060209050601f831160018114613fbb5760008415613fa9578287015190505b613fb38582613e08565b86555061401b565b601f198416613fc986613ef6565b60005b82811015613ff157848901518255600182019150602085019450602081019050613fcc565b8683101561400e578489015161400a601f891682613dea565b8355505b6001600288020188555050505b505050505050565b7f496e76616c696420706170657220494400000000000000000000000000000000600082015250565b60006140596010836134ae565b915061406482614023565b602082019050919050565b600060208201905081810360008301526140888161404c565b9050919050565b7f5061706572206e6f74207363686564756c656400000000000000000000000000600082015250565b60006140c56013836134ae565b91506140d08261408f565b602082019050919050565b600060208201905081810360008301526140f4816140b8565b9050919050565b7f546f6f206561726c7920746f20756e6c6f636b00000000000000000000000000600082015250565b60006141316013836134ae565b915061413c826140fb565b602082019050919050565b6000602082019050818103600083015261416081614124565b9050919050565b7f4e487b7100000000000000000000000000000000000000000000000000000000600052603260045260246000fd5b7f4e487b7100000000000000000000000000000000000000000000000000000000600052601160045260246000fd5b60006141d082612eec565b91507fffffffffffffffffffffffffffffffffffffffffffffffffffffffffffffffff820361420257614201614196565b5b600182019050919050565b7f5061706572206e6f7420756e6c6f636b65642079657400000000000000000000600082015250565b60006142436016836134ae565b915061424e8261420d565b602082019050919050565b6000602082019050818103600083015261427281614236565b9050919050565b7f4e6f742061737369676e656420746f2074686973207061706572000000000000600082015250565b60006142af601a836134ae565b91506142ba82614279565b602082019050919050565b600060208201905081810360008301526142de816142a2565b9050919050565b7f4578616d206e616d652072657175697265640000000000000000000000000000600082015250565b600061431b6012836134ae565b9150614326826142e5565b602082019050919050565b6000602082019050818103600083015261434a8161430e565b9050919050565b7f4950465320434944732072657175697265640000000000000000000000000000600082015250565b60006143876012836134ae565b915061439282614351565b602082019050919050565b600060208201905081810360008301526143b68161437a565b9050919050565b7f54696d652d6c6f636b6564206b65792072657175697265640000000000000000600082015250565b60006143f36018836134ae565b91506143fe826143bd565b602082019050919050565b60006020820190508181036000830152614422816143e6565b9050919050565b7f4b65792064657269766174696f6e2073616c7420726571756972656400000000600082015250565b600061445f601c836134ae565b915061446a82614429565b602082019050919050565b6000602082019050818103600083015261448e81614452565b9050919050565b7f4e6f7420617574686f72697a6564000000000000000000000000000000000000600082015250565b60006144cb600e836134ae565b91506144d682614495565b602082019050919050565b600060208201905081810360008301526144fa816144be565b9050919050565b7f43656e746572732f436c617373726f6f6d73206d69736d617463680000000000600082015250565b6000614537601b836134ae565b915061454282614501565b602082019050919050565b600060208201905081810360008301526145668161452a565b9050919050565b7f556e6c6f636b2074696d65206d75737420626520696e20667574757265000000600082015250565b60006145a3601d836134ae565b91506145ae8261456d565b602082019050919050565b600060208201905081810360008301526145d281614596565b9050919050565b7f506170657220616c7265616479207363686564756c6564000000000000000000600082015250565b600061460f6017836134ae565b915061461a826145d9565b602082019050919050565b6000602082019050818103600083015261463e81614602565b9050919050565b7f43656e746572206e6f7420726567697374657265640000000000000000000000600082015250565b600061467b6015836134ae565b915061468682614645565b602082019050919050565b600060208201905081810360008301526146aa8161466e565b905091905056fea2646970667358221220e22ac2163719e6c61fc21c3bcd71c7482e31b52937709fe838246391f43fb6e664736f6c63430008140033",
  "linkReferences": {},
  "deployedLinkReferences": {}
}