{"contracts/ExamRegistry.sol":{"ExamRegistry":{"abi":[{"anonymous":false,"inputs":[{"indexed":true,"internalType":"address","name":"authority","type":"address"},{"indexed":false,"internalType":"string","name":"name","type":"string"}],"name":"AuthorityRegistered","type":"event"},{"anonymous":false,"inputs":[{"indexed":true,"internalType":"address","name":"centerAddress","type":"address"},{"indexed":false,"internalType":"string","name":"name","type":"string"}],"name":"CenterRegistered","type":"event"},{"anonymous":false,"inputs":[{"indexed":true,"internalType":"uint256","name":"paperId","type":"uint256"},{"indexed":false,"internalType":"uint256","name":"unlockTimestamp","type":"uint256"},{"indexed":true,"internalType":"address","name":"authority","type":"address"}],"name":"PaperScheduled","type":"event"},{"anonymous":false,"inputs":[{"indexed":true,"internalType":"uint256","name":"paperId","type":"uint256"},{"indexed":false,"internalType":"uint256","name":"timestamp","type":"uint256"}],"name":"PaperUnlocked","type":"event"},{"anonymous":false,"inputs":[{"indexed":true,"internalType":"uint256","name":"paperId","type":"uint256"},{"indexed":false,"internalType":"string","name":"examName","type":"string"},{"indexed":true,"internalType":"address","name":"teacher","type":"address"}],"name":"PaperUploaded","type":"event"},{"inputs":[{"internalType":"address","name":"","type":"address"}],"name":"authorities","outputs":[{"internalType":"string","name":"name","type":"string"},{"internalType":"bool","name":"isRegistered","type":"bool"},{"internalType":"bool","name":"isActive","type":"bool"}],"stateMutability":"view","type":"function"},{"inputs":[{"internalType":"uint256","name":"","type":"uint256"}],"name":"authorityAddresses","outputs":[{"internalType":"address","name":"","type":"address"}],"stateMutability":"view","type":"function"},{"inputs":[{"internalType":"uint256","name":"","type":"uint256"}],"name":"centerAddresses","outputs":[{"internalType":"address","name":"","type":"address"}],"stateMutability":"view","type":"function"},{"inputs":[{"internalType":"address","name":"","type":"address"}],"name":"centers","outputs":[{"internalType":"string","name":"name","type":"string"},{"internalType":"bytes","name":"publicKey","type":"bytes"},{"internalType":"bool","name":"isRegistered","type":"bool"}],"stateMutability":"view","type":"function"},{"inputs":[],"name":"getAllAuthorities","outputs":[{"internalType":"address[]","name":"","type":"address[]"},{"internalType":"string[]","name":"","type":"string[]"}],"stateMutability":"view","type":"function"},{"inputs":[],"name":"getAllCenters","outputs":[{"internalType":"address[]","name":"","type":"address[]"},{"internalType":"string[]","name":"","type":"string[]"}],"stateMutability":"view","type":"function"},{"inputs":[{"internalType":"address","name":"_center","type":"address"}],"name":"getCenterPublicKey","outputs":[{"internalType":"bytes","name":"","type":"bytes"}],"stateMutability":"view","type":"function"},{"inputs":[{"internalType":"uint256","name":"_paperId","type":"uint256"}],"name":"getDecryptionShares","outputs":[{"internalType":"bytes","name":"","type":"bytes"},{"internalType":"bytes[]","name":"","type":"bytes[]"},{"internalType":"uint8","name":"","type":"uint8"}],"stateMutability":"view","type":"function"},{"inputs":[{"internalType":"uint256","name":"_paperId","type":"uint256"}],"name":"getMyClassroom","outputs":[{"internalType":"string","name":"","type":"string"}],"stateMutability":"view","type":"function"},{"inputs":[{"internalType":"uint256","name":"_paperId","type":"uint256"}],"name":"getPaper","outputs":[{"components":[{"internalType":"string","name":"examName","type":"string"},{"internalType":"string","name":"subject","type":"string"},{"internalType":"address","name":"teacher","type":"address"},{"internalType":"string[]","name":"ipfsCIDs","type":"string[]"},{"internalType":"uint256","name":"uploadTimestamp","type":"uint256"},{"internalType":"uint256","name":"unlockTimestamp","type":"uint256"},{"internalType":"bool","name":"isScheduled","type":"bool"},{"internalType":"bool","name":"isUnlocked","type":"bool"},{"internalType":"address","name":"authority","type":"address"},{"internalType":"bytes","name":"encryptedK1","type":"bytes"},{"internalType":"bytes[]","name":"masterKeyShares","type":"bytes[]"},{"internalType":"uint8","name":"sharesThreshold","type":"uint8"}],"internalType":"struct ExamRegistry.Paper","name":"","type":"tuple"}],"stateMutability":"view","type":"function"},{"inputs":[{"internalType":"uint256","name":"_paperId","type":"uint256"},{"internalType":"address","name":"_center","type":"address"}],"name":"isAssignedToCenter","outputs":[{"internalType":"bool","name":"","type":"bool"}],"stateMutability":"view","type":"function"},{"inputs":[{"internalType":"uint256","name":"","type":"uint256"},{"internalType":"address","name":"","type":"address"}],"name":"paperAssignments","outputs":[{"internalType":"bool","name":"","type":"bool"}],"stateMutability":"view","type":"function"},{"inputs":[{"internalType":"uint256","name":"","type":"uint256"},{"internalType":"address","name":"","type":"address"}],"name":"paperClassrooms","outputs":[{"internalType":"string","name":"","type":"string"}],"stateMutability":"view","type":"function"},{"inputs":[],"name":"paperCount","outputs":[{"internalType":"uint256","name":"","type":"uint256"}],"stateMutability":"view","type":"function"},{"inputs":[{"internalType":"uint256","name":"","type":"uint256"}],"name":"papers","outputs":[{"internalType":"string","name":"examName","type":"string"},{"internalType":"string","name":"subject","type":"string"},{"internalType":"address","name":"teacher","type":"address"},{"internalType":"uint256","name":"uploadTimestamp","type":"uint256"},{"internalType":"uint256","name":"unlockTimestamp","type":"uint256"},{"internalType":"bool","name":"isScheduled","type":"bool"},{"internalType":"bool","name":"isUnlocked","type":"bool"},{"internalType":"address","name":"authority","type":"address"},{"internalType":"bytes","name":"encryptedK1","type":"bytes"},{"internalType":"uint8","name":"sharesThreshold","type":"uint8"}],"stateMutability":"view","type":"function"},{"inputs":[{"internalType":"string","name":"_name","type":"string"}],"name":"registerAuthority","outputs":[],"stateMutability":"nonpayable","type":"function"},{"inputs":[{"internalType":"string","name":"_name","type":"string"},{"internalType":"bytes","name":"_publicKey","type":"bytes"}],"name":"registerExamCenter","outputs":[],"stateMutability":"nonpayable","type":"function"},{"inputs":[{"internalType":"uint256","name":"_paperId","type":"uint256"},{"internalType":"uint256","name":"_unlockTimestamp","type":"uint256"},{"internalType":"address[]","name":"_centers","type":"address[]"},{"internalType":"string[]","name":"_classrooms","type":"string[]"}],"name":"scheduleExam","outputs":[],"stateMutability":"nonpayable","type":"function"},{"inputs":[{"internalType":"uint256","name":"_paperId","type":"uint256"}],"name":"unlockPaper","outputs":[],"stateMutability":"nonpayable","type":"function"},{"inputs":[{"internalType":"string","name":"_examName","type":"string"},{"internalType":"string","name":"_subject","type":"string"},{"internalType":"string[]","name":"_ipfsCIDs","type":"string[]"},{"internalType":"bytes","name":"_encryptedK1","type":"bytes"},{"internalType":"bytes[]","name":"_masterKeyShares","type":"bytes[]"},{"internalType":"uint8","name":"_sharesThreshold","type":"uint8"}],"name":"uploadPaper","outputs":[{"internalType":"uint256","name":"","type":"uint256"}],"stateMutability":"nonpayable","type":"function"}],"evm":{"bytecode":{"linkReferences":{},"object":"608060405234801561001057600080fd5b50614b1b806100206000396000f3fe608060405234801561001057600080fd5b506004361061012b5760003560e01c806393e9b6ed116100ad578063b69dab6811610071578063b69dab681461039a578063bc7cf6dd146103ca578063c7a10bd6146103fa578063da0d83de1461042c578063fedf2c561461045c5761012b565b806393e9b6ed146102d05780639a0dd66614610300578063a56c2cb914610330578063a930ecd71461034e578063b5438f6d1461036a5761012b565b80634cdf8093116100f45780634cdf8093146101f857806354a253dc14610217578063554a14ac146102335780635e775a271461026557806391223d691461029e5761012b565b8062c172a21461013057806307993f041461014c5780632460cf761461017c57806336272be1146101985780633b0ae1fd146101c8575b600080fd5b61014a60048036038101906101459190612fec565b61047b565b005b6101666004803603810190610161919061309a565b6106b9565b60405161017391906134c6565b60405180910390f35b6101966004803603810190610191919061309a565b610bb4565b005b6101b260048036038101906101ad91906136db565b610d0e565b6040516101bf9190613803565b60405180910390f35b6101e260048036038101906101dd919061384a565b611104565b6040516101ef91906138c1565b60405180910390f35b6102006111d8565b60405161020e929190613a18565b60405180910390f35b610231600480360381019061022c9190613b12565b611467565b005b61024d6004803603810190610248919061384a565b61192c565b60405161025c93929190613c0a565b60405180910390f35b61027f600480360381019061027a919061309a565b611a73565b6040516102959a99989796959493929190613c6d565b60405180910390f35b6102b860048036038101906102b3919061384a565b611cc6565b6040516102c793929190613d1e565b60405180910390f35b6102ea60048036038101906102e59190613d5c565b611d92565b6040516102f79190613d9c565b60405180910390f35b61031a6004803603810190610315919061309a565b611e4d565b6040516103279190613db7565b60405180910390f35b610338611e8c565b6040516103459190613803565b60405180910390f35b61036860048036038101906103639190613dd2565b611e92565b005b610384600480360381019061037f919061309a565b612054565b6040516103919190613e1b565b60405180910390f35b6103b460048036038101906103af919061309a565b612226565b6040516103c19190613db7565b60405180910390f35b6103e460048036038101906103df9190613d5c565b612265565b6040516103f19190613e1b565b60405180910390f35b610414600480360381019061040f919061309a565b612312565b60405161042393929190613ec3565b60405180910390f35b61044660048036038101906104419190613d5c565b612908565b6040516104539190613d9c565b60405180910390f35b610464612937565b604051610472929190613a18565b60405180910390f35b60008251116104bf576040517f08c379a00000000000000000000000000000000000000000000000000000000081526004016104b690613f54565b60405180910390fd5b6000815111610503576040517f08c379a00000000000000000000000000000000000000000000000000000000081526004016104fa90613fc0565b60405180910390fd5b600260003373ffffffffffffffffffffffffffffffffffffffff1673ffffffffffffffffffffffffffffffffffffffff16815260200190815260200160002060020160009054906101000a900460ff166105bb576003339080600181540180825580915050600190039060005260206000200160009091909190916101000a81548173ffffffffffffffffffffffffffffffffffffffff021916908373ffffffffffffffffffffffffffffffffffffffff1602179055505b604051806060016040528083815260200182815260200160011515815250600260003373ffffffffffffffffffffffffffffffffffffffff1673ffffffffffffffffffffffffffffffffffffffff168152602001908152602001600020600082015181600001908161062d91906141ec565b5060208201518160010190816106439190614319565b5060408201518160020160006101000a81548160ff0219169083151502179055509050503373ffffffffffffffffffffffffffffffffffffffff167f1ffb27eb65cbbc9dfaa75d97c82c72d0f599317651d968e7e4ea93553e154c92836040516106ad9190613e1b565b60405180910390a25050565b6106c1612bc6565b816000811180156106d457506001548111155b610713576040517f08c379a000000000000000000000000000000000000000000000000000000000815260040161070a90614437565b60405180910390fd5b600080848152602001908152602001600020604051806101800160405290816000820180546107419061400f565b80601f016020809104026020016040519081016040528092919081815260200182805461076d9061400f565b80156107ba5780601f1061078f576101008083540402835291602001916107ba565b820191906000526020600020905b81548152906001019060200180831161079d57829003601f168201915b505050505081526020016001820180546107d39061400f565b80601f01602080910402602001604051908101604052809291908181526020018280546107ff9061400f565b801561084c5780601f106108215761010080835404028352916020019161084c565b820191906000526020600020905b81548152906001019060200180831161082f57829003601f168201915b505050505081526020016002820160009054906101000a900473ffffffffffffffffffffffffffffffffffffffff1673ffffffffffffffffffffffffffffffffffffffff1673ffffffffffffffffffffffffffffffffffffffff16815260200160038201805480602002602001604051908101604052809291908181526020016000905b8282101561097c5783829060005260206000200180546108ef9061400f565b80601f016020809104026020016040519081016040528092919081815260200182805461091b9061400f565b80156109685780601f1061093d57610100808354040283529160200191610968565b820191906000526020600020905b81548152906001019060200180831161094b57829003601f168201915b5050505050815260200190600101906108d0565b50505050815260200160048201548152602001600582015481526020016006820160009054906101000a900460ff161515151581526020016006820160019054906101000a900460ff161515151581526020016006820160029054906101000a900473ffffffffffffffffffffffffffffffffffffffff1673ffffffffffffffffffffffffffffffffffffffff1673ffffffffffffffffffffffffffffffffffffffff168152602001600782018054610a349061400f565b80601f0160208091040260200160405190810160405280929190818152602001828054610a609061400f565b8015610aad5780601f10610a8257610100808354040283529160200191610aad565b820191906000526020600020905b815481529060010190602001808311610a9057829003601f168201915b5050505050815260200160088201805480602002602001604051908101604052809291908181526020016000905b82821015610b87578382906000526020600020018054610afa9061400f565b80601f0160208091040260200160405190810160405280929190818152602001828054610b269061400f565b8015610b735780601f10610b4857610100808354040283529160200191610b73565b820191906000526020600020905b815481529060010190602001808311610b5657829003601f168201915b505050505081526020019060010190610adb565b5050505081526020016009820160009054906101000a900460ff1660ff1660ff1681525050915050919050565b80600081118015610bc757506001548111155b610c06576040517f08c379a0000000000000000000000000000000000000000000000000000000008152600401610bfd90614437565b60405180910390fd5b600080600084815260200190815260200160002090508060060160009054906101000a900460ff16610c6d576040517f08c379a0000000000000000000000000000000000000000000000000000000008152600401610c64906144a3565b60405180910390fd5b8060050154421015610cb4576040517f08c379a0000000000000000000000000000000000000000000000000000000008152600401610cab9061450f565b60405180910390fd5b60018160060160016101000a81548160ff021916908315150217905550827f79f7de7ac9a8923c7ccc915fb4c5041920583f938a5406435331e490e06e0cf342604051610d019190613803565b60405180910390a2505050565b600080875111610d53576040517f08c379a0000000000000000000000000000000000000000000000000000000008152600401610d4a9061457b565b60405180910390fd5b6000855111610d97576040517f08c379a0000000000000000000000000000000000000000000000000000000008152600401610d8e906145e7565b60405180910390fd5b6000845111610ddb576040517f08c379a0000000000000000000000000000000000000000000000000000000008152600401610dd290614653565b60405180910390fd5b8160ff1683511015610e22576040517f08c379a0000000000000000000000000000000000000000000000000000000008152600401610e19906146bf565b60405180910390fd5b60028260ff161015610e69576040517f08c379a0000000000000000000000000000000000000000000000000000000008152600401610e609061472b565b60405180910390fd5b60016000815480929190610e7c9061477a565b91905055506040518061018001604052808881526020018781526020013373ffffffffffffffffffffffffffffffffffffffff16815260200186815260200142815260200160008152602001600015158152602001600015158152602001600073ffffffffffffffffffffffffffffffffffffffff1681526020018581526020018481526020018360ff1681525060008060015481526020019081526020016000206000820151816000019081610f3391906141ec565b506020820151816001019081610f4991906141ec565b5060408201518160020160006101000a81548173ffffffffffffffffffffffffffffffffffffffff021916908373ffffffffffffffffffffffffffffffffffffffff1602179055506060820151816003019080519060200190610fad929190612c5a565b506080820151816004015560a0820151816005015560c08201518160060160006101000a81548160ff02191690831515021790555060e08201518160060160016101000a81548160ff0219169083151502179055506101008201518160060160026101000a81548173ffffffffffffffffffffffffffffffffffffffff021916908373ffffffffffffffffffffffffffffffffffffffff1602179055506101208201518160070190816110609190614319565b5061014082015181600801908051906020019061107e929190612cb3565b506101608201518160090160006101000a81548160ff021916908360ff1602179055509050503373ffffffffffffffffffffffffffffffffffffffff166001547ff2addd0844bf6c683670be19a71fe7603380bdc0b1a9ecde0137f08b5e0d644a896040516110ed9190613e1b565b60405180910390a360015490509695505050505050565b6060600260008373ffffffffffffffffffffffffffffffffffffffff1673ffffffffffffffffffffffffffffffffffffffff16815260200190815260200160002060010180546111539061400f565b80601f016020809104026020016040519081016040528092919081815260200182805461117f9061400f565b80156111cc5780601f106111a1576101008083540402835291602001916111cc565b820191906000526020600020905b8154815290600101906020018083116111af57829003601f168201915b50505050509050919050565b606080600060038054905067ffffffffffffffff8111156111fc576111fb612e20565b5b60405190808252806020026020018201604052801561122a5781602001602082028036833780820191505090505b509050600060038054905067ffffffffffffffff81111561124e5761124d612e20565b5b60405190808252806020026020018201604052801561128157816020015b606081526020019060019003908161126c5790505b50905060005b60038054905081101561145a57600381815481106112a8576112a76147c2565b5b9060005260206000200160009054906101000a900473ffffffffffffffffffffffffffffffffffffffff168382815181106112e6576112e56147c2565b5b602002602001019073ffffffffffffffffffffffffffffffffffffffff16908173ffffffffffffffffffffffffffffffffffffffff16815250506002600060038381548110611338576113376147c2565b5b9060005260206000200160009054906101000a900473ffffffffffffffffffffffffffffffffffffffff1673ffffffffffffffffffffffffffffffffffffffff1673ffffffffffffffffffffffffffffffffffffffff16815260200190815260200160002060000180546113ab9061400f565b80601f01602080910402602001604051908101604052809291908181526020018280546113d79061400f565b80156114245780601f106113f957610100808354040283529160200191611424565b820191906000526020600020905b81548152906001019060200180831161140757829003601f168201915b505050505082828151811061143c5761143b6147c2565b5b602002602001018190525080806114529061477a565b915050611287565b5081819350935050509091565b600460003373ffffffffffffffffffffffffffffffffffffffff1673ffffffffffffffffffffffffffffffffffffffff16815260200190815260200160002060010160009054906101000a900460ff16801561150f5750600460003373ffffffffffffffffffffffffffffffffffffffff1673ffffffffffffffffffffffffffffffffffffffff16815260200190815260200160002060010160019054906101000a900460ff165b61154e576040517f08c379a00000000000000000000000000000000000000000000000000000000081526004016115459061483d565b60405180910390fd5b8360008111801561156157506001548111155b6115a0576040517f08c379a000000000000000000000000000000000000000000000000000000000815260040161159790614437565b60405180910390fd5b81518351146115e4576040517f08c379a00000000000000000000000000000000000000000000000000000000081526004016115db906148a9565b60405180910390fd5b428411611626576040517f08c379a000000000000000000000000000000000000000000000000000000000815260040161161d90614915565b60405180910390fd5b600080600087815260200190815260200160002090508060060160009054906101000a900460ff161561168e576040517f08c379a000000000000000000000000000000000000000000000000000000000815260040161168590614981565b60405180910390fd5b60005b845181101561186b57600260008683815181106116b1576116b06147c2565b5b602002602001015173ffffffffffffffffffffffffffffffffffffffff1673ffffffffffffffffffffffffffffffffffffffff16815260200190815260200160002060020160009054906101000a900460ff16611743576040517f08c379a000000000000000000000000000000000000000000000000000000000815260040161173a906149ed565b60405180910390fd5b838181518110611756576117556147c2565b5b6020026020010151600660008981526020019081526020016000206000878481518110611786576117856147c2565b5b602002602001015173ffffffffffffffffffffffffffffffffffffffff1673ffffffffffffffffffffffffffffffffffffffff16815260200190815260200160002090816117d491906141ec565b5060016007600089815260200190815260200160002060008784815181106117ff576117fe6147c2565b5b602002602001015173ffffffffffffffffffffffffffffffffffffffff1673ffffffffffffffffffffffffffffffffffffffff16815260200190815260200160002060006101000a81548160ff02191690831515021790555080806118639061477a565b915050611691565b5084816005018190555060018160060160006101000a81548160ff021916908315150217905550338160060160026101000a81548173ffffffffffffffffffffffffffffffffffffffff021916908373ffffffffffffffffffffffffffffffffffffffff1602179055503373ffffffffffffffffffffffffffffffffffffffff16867f3d33224841a69211485d8e455a900b8e87a0cf87d2e1df52f1ea56ebc485d7008760405161191c9190613803565b60405180910390a3505050505050565b600260205280600052604060002060009150905080600001805461194f9061400f565b80601f016020809104026020016040519081016040528092919081815260200182805461197b9061400f565b80156119c85780601f1061199d576101008083540402835291602001916119c8565b820191906000526020600020905b8154815290600101906020018083116119ab57829003601f168201915b5050505050908060010180546119dd9061400f565b80601f0160208091040260200160405190810160405280929190818152602001828054611a099061400f565b8015611a565780601f10611a2b57610100808354040283529160200191611a56565b820191906000526020600020905b815481529060010190602001808311611a3957829003601f168201915b5050505050908060020160009054906101000a900460ff16905083565b6000602052806000526040600020600091509050806000018054611a969061400f565b80601f0160208091040260200160405190810160405280929190818152602001828054611ac29061400f565b8015611b0f5780601f10611ae457610100808354040283529160200191611b0f565b820191906000526020600020905b815481529060010190602001808311611af257829003601f168201915b505050505090806001018054611b249061400f565b80601f0160208091040260200160405190810160405280929190818152602001828054611b509061400f565b8015611b9d5780601f10611b7257610100808354040283529160200191611b9d565b820191906000526020600020905b815481529060010190602001808311611b8057829003601f168201915b5050505050908060020160009054906101000a900473ffffffffffffffffffffffffffffffffffffffff16908060040154908060050154908060060160009054906101000a900460ff16908060060160019054906101000a900460ff16908060060160029054906101000a900473ffffffffffffffffffffffffffffffffffffffff1690806007018054611c309061400f565b80601f0160208091040260200160405190810160405280929190818152602001828054611c5c9061400f565b8015611ca95780601f10611c7e57610100808354040283529160200191611ca9565b820191906000526020600020905b815481529060010190602001808311611c8c57829003601f168201915b5050505050908060090160009054906101000a900460ff1690508a565b6004602052806000526040600020600091509050806000018054611ce99061400f565b80601f0160208091040260200160405190810160405280929190818152602001828054611d159061400f565b8015611d625780601f10611d3757610100808354040283529160200191611d62565b820191906000526020600020905b815481529060010190602001808311611d4557829003601f168201915b5050505050908060010160009054906101000a900460ff16908060010160019054906101000a900460ff16905083565b600082600081118015611da757506001548111155b611de6576040517f08c379a0000000000000000000000000000000000000000000000000000000008152600401611ddd90614437565b60405180910390fd5b6007600085815260200190815260200160002060008473ffffffffffffffffffffffffffffffffffffffff1673ffffffffffffffffffffffffffffffffffffffff16815260200190815260200160002060009054906101000a900460ff1691505092915050565b60038181548110611e5d57600080fd5b906000526020600020016000915054906101000a900473ffffffffffffffffffffffffffffffffffffffff1681565b60015481565b600460003373ffffffffffffffffffffffffffffffffffffffff1673ffffffffffffffffffffffffffffffffffffffff16815260200190815260200160002060010160009054906101000a900460ff16611f4a576005339080600181540180825580915050600190039060005260206000200160009091909190916101000a81548173ffffffffffffffffffffffffffffffffffffffff021916908373ffffffffffffffffffffffffffffffffffffffff1602179055505b604051806060016040528082815260200160011515815260200160011515815250600460003373ffffffffffffffffffffffffffffffffffffffff1673ffffffffffffffffffffffffffffffffffffffff1681526020019081526020016000206000820151816000019081611fbf91906141ec565b5060208201518160010160006101000a81548160ff02191690831515021790555060408201518160010160016101000a81548160ff0219169083151502179055509050503373ffffffffffffffffffffffffffffffffffffffff167f8b3ab3ac57020b92e516b703bb37e5b4d0b12cc6c39d69288f9380be3f19dcbe826040516120499190613e1b565b60405180910390a250565b60608160008111801561206957506001548111155b6120a8576040517f08c379a000000000000000000000000000000000000000000000000000000000815260040161209f90614437565b60405180910390fd5b6007600084815260200190815260200160002060003373ffffffffffffffffffffffffffffffffffffffff1673ffffffffffffffffffffffffffffffffffffffff16815260200190815260200160002060009054906101000a900460ff16612145576040517f08c379a000000000000000000000000000000000000000000000000000000000815260040161213c90614a59565b60405180910390fd5b6006600084815260200190815260200160002060003373ffffffffffffffffffffffffffffffffffffffff1673ffffffffffffffffffffffffffffffffffffffff16815260200190815260200160002080546121a09061400f565b80601f01602080910402602001604051908101604052809291908181526020018280546121cc9061400f565b80156122195780601f106121ee57610100808354040283529160200191612219565b820191906000526020600020905b8154815290600101906020018083116121fc57829003601f168201915b5050505050915050919050565b6005818154811061223657600080fd5b906000526020600020016000915054906101000a900473ffffffffffffffffffffffffffffffffffffffff1681565b60066020528160005260406000206020528060005260406000206000915091505080546122919061400f565b80601f01602080910402602001604051908101604052809291908181526020018280546122bd9061400f565b801561230a5780601f106122df5761010080835404028352916020019161230a565b820191906000526020600020905b8154815290600101906020018083116122ed57829003601f168201915b505050505081565b60608060008360008111801561232a57506001548111155b612369576040517f08c379a000000000000000000000000000000000000000000000000000000000815260040161236090614437565b60405180910390fd5b6000806000878152602001908152602001600020604051806101800160405290816000820180546123999061400f565b80601f01602080910402602001604051908101604052809291908181526020018280546123c59061400f565b80156124125780601f106123e757610100808354040283529160200191612412565b820191906000526020600020905b8154815290600101906020018083116123f557829003601f168201915b5050505050815260200160018201805461242b9061400f565b80601f01602080910402602001604051908101604052809291908181526020018280546124579061400f565b80156124a45780601f10612479576101008083540402835291602001916124a4565b820191906000526020600020905b81548152906001019060200180831161248757829003601f168201915b505050505081526020016002820160009054906101000a900473ffffffffffffffffffffffffffffffffffffffff1673ffffffffffffffffffffffffffffffffffffffff1673ffffffffffffffffffffffffffffffffffffffff16815260200160038201805480602002602001604051908101604052809291908181526020016000905b828210156125d45783829060005260206000200180546125479061400f565b80601f01602080910402602001604051908101604052809291908181526020018280546125739061400f565b80156125c05780601f10612595576101008083540402835291602001916125c0565b820191906000526020600020905b8154815290600101906020018083116125a357829003601f168201915b505050505081526020019060010190612528565b50505050815260200160048201548152602001600582015481526020016006820160009054906101000a900460ff161515151581526020016006820160019054906101000a900460ff161515151581526020016006820160029054906101000a900473ffffffffffffffffffffffffffffffffffffffff1673ffffffffffffffffffffffffffffffffffffffff1673ffffffffffffffffffffffffffffffffffffffff16815260200160078201805461268c9061400f565b80601f01602080910402602001604051908101604052809291908181526020018280546126b89061400f565b80156127055780601f106126da57610100808354040283529160200191612705565b820191906000526020600020905b8154815290600101906020018083116126e857829003601f168201915b5050505050815260200160088201805480602002602001604051908101604052809291908181526020016000905b828210156127df5783829060005260206000200180546127529061400f565b80601f016020809104026020016040519081016040528092919081815260200182805461277e9061400f565b80156127cb5780601f106127a0576101008083540402835291602001916127cb565b820191906000526020600020905b8154815290600101906020018083116127ae57829003601f168201915b505050505081526020019060010190612733565b5050505081526020016009820160009054906101000a900460ff1660ff1660ff168152505090508060e0015161284a576040517f08c379a000000000000000000000000000000000000000000000000000000000815260040161284190614ac5565b60405180910390fd5b6007600087815260200190815260200160002060003373ffffffffffffffffffffffffffffffffffffffff1673ffffffffffffffffffffffffffffffffffffffff16815260200190815260200160002060009054906101000a900460ff166128e7576040517f08c379a00000000000000000000000000000000000000000000000000000000081526004016128de90614a59565b60405180910390fd5b80610120015181610140015182610160015194509450945050509193909250565b60076020528160005260406000206020528060005260406000206000915091509054906101000a900460ff1681565b606080600060058054905067ffffffffffffffff81111561295b5761295a612e20565b5b6040519080825280602002602001820160405280156129895781602001602082028036833780820191505090505b509050600060058054905067ffffffffffffffff8111156129ad576129ac612e20565b5b6040519080825280602002602001820160405280156129e057816020015b60608152602001906001900390816129cb5790505b50905060005b600580549050811015612bb95760058181548110612a0757612a066147c2565b5b9060005260206000200160009054906101000a900473ffffffffffffffffffffffffffffffffffffffff16838281518110612a4557612a446147c2565b5b602002602001019073ffffffffffffffffffffffffffffffffffffffff16908173ffffffffffffffffffffffffffffffffffffffff16815250506004600060058381548110612a9757612a966147c2565b5b9060005260206000200160009054906101000a900473ffffffffffffffffffffffffffffffffffffffff1673ffffffffffffffffffffffffffffffffffffffff1673ffffffffffffffffffffffffffffffffffffffff1681526020019081526020016000206000018054612b0a9061400f565b80601f0160208091040260200160405190810160405280929190818152602001828054612b369061400f565b8015612b835780601f10612b5857610100808354040283529160200191612b83565b820191906000526020600020905b815481529060010190602001808311612b6657829003601f168201915b5050505050828281518110612b9b57612b9a6147c2565b5b60200260200101819052508080612bb19061477a565b9150506129e6565b5081819350935050509091565b6040518061018001604052806060815260200160608152602001600073ffffffffffffffffffffffffffffffffffffffff168152602001606081526020016000815260200160008152602001600015158152602001600015158152602001600073ffffffffffffffffffffffffffffffffffffffff1681526020016060815260200160608152602001600060ff1681525090565b828054828255906000526020600020908101928215612ca2579160200282015b82811115612ca1578251829081612c9191906141ec565b5091602001919060010190612c7a565b5b509050612caf9190612d0c565b5090565b828054828255906000526020600020908101928215612cfb579160200282015b82811115612cfa578251829081612cea9190614319565b5091602001919060010190612cd3565b5b509050612d089190612d30565b5090565b5b80821115612d2c5760008181612d239190612d54565b50600101612d0d565b5090565b5b80821115612d505760008181612d479190612d94565b50600101612d31565b5090565b508054612d609061400f565b6000825580601f10612d725750612d91565b601f016020900490600052602060002090810190612d909190612dd4565b5b50565b508054612da09061400f565b6000825580601f10612db25750612dd1565b601f016020900490600052602060002090810190612dd09190612dd4565b5b50565b5b80821115612ded576000816000905550600101612dd5565b5090565b6000604051905090565b600080fd5b600080fd5b600080fd5b600080fd5b6000601f19601f8301169050919050565b7f4e487b7100000000000000000000000000000000000000000000000000000000600052604160045260246000fd5b612e5882612e0f565b810181811067ffffffffffffffff82111715612e7757612e76612e20565b5b80604052505050565b6000612e8a612df1565b9050612e968282612e4f565b919050565b600067ffffffffffffffff821115612eb657612eb5612e20565b5b612ebf82612e0f565b9050602081019050919050565b82818337600083830152505050565b6000612eee612ee984612e9b565b612e80565b905082815260208101848484011115612f0a57612f09612e0a565b5b612f15848285612ecc565b509392505050565b600082601f830112612f3257612f31612e05565b5b8135612f42848260208601612edb565b91505092915050565b600067ffffffffffffffff821115612f6657612f65612e20565b5b612f6f82612e0f565b9050602081019050919050565b6000612f8f612f8a84612f4b565b612e80565b905082815260208101848484011115612fab57612faa612e0a565b5b612fb6848285612ecc565b509392505050565b600082601f830112612fd357612fd2612e05565b5b8135612fe3848260208601612f7c565b91505092915050565b6000806040838503121561300357613002612dfb565b5b600083013567ffffffffffffffff81111561302157613020612e00565b5b61302d85828601612f1d565b925050602083013567ffffffffffffffff81111561304e5761304d612e00565b5b61305a85828601612fbe565b9150509250929050565b6000819050919050565b61307781613064565b811461308257600080fd5b50565b6000813590506130948161306e565b92915050565b6000602082840312156130b0576130af612dfb565b5b60006130be84828501613085565b91505092915050565b600081519050919050565b600082825260208201905092915050565b60005b838110156131015780820151818401526020810190506130e6565b60008484015250505050565b6000613118826130c7565b61312281856130d2565b93506131328185602086016130e3565b61313b81612e0f565b840191505092915050565b600073ffffffffffffffffffffffffffffffffffffffff82169050919050565b600061317182613146565b9050919050565b61318181613166565b82525050565b600081519050919050565b600082825260208201905092915050565b6000819050602082019050919050565b60006131bf838361310d565b905092915050565b6000602082019050919050565b60006131df82613187565b6131e98185613192565b9350836020820285016131fb856131a3565b8060005b85811015613237578484038952815161321885826131b3565b9450613223836131c7565b925060208a019950506001810190506131ff565b50829750879550505050505092915050565b61325281613064565b82525050565b60008115159050919050565b61326d81613258565b82525050565b600081519050919050565b600082825260208201905092915050565b600061329a82613273565b6132a4818561327e565b93506132b48185602086016130e3565b6132bd81612e0f565b840191505092915050565b600081519050919050565b600082825260208201905092915050565b6000819050602082019050919050565b6000613300838361328f565b905092915050565b6000602082019050919050565b6000613320826132c8565b61332a81856132d3565b93508360208202850161333c856132e4565b8060005b85811015613378578484038952815161335985826132f4565b945061336483613308565b925060208a01995050600181019050613340565b50829750879550505050505092915050565b600060ff82169050919050565b6133a08161338a565b82525050565b60006101808301600083015184820360008601526133c4828261310d565b915050602083015184820360208601526133de828261310d565b91505060408301516133f36040860182613178565b506060830151848203606086015261340b82826131d4565b91505060808301516134206080860182613249565b5060a083015161343360a0860182613249565b5060c083015161344660c0860182613264565b5060e083015161345960e0860182613264565b5061010083015161346e610100860182613178565b50610120830151848203610120860152613488828261328f565b9150506101408301518482036101408601526134a48282613315565b9150506101608301516134bb610160860182613397565b508091505092915050565b600060208201905081810360008301526134e081846133a6565b905092915050565b600067ffffffffffffffff82111561350357613502612e20565b5b602082029050602081019050919050565b600080fd5b600061352c613527846134e8565b612e80565b9050808382526020820190506020840283018581111561354f5761354e613514565b5b835b8181101561359657803567ffffffffffffffff81111561357457613573612e05565b5b8086016135818982612f1d565b85526020850194505050602081019050613551565b5050509392505050565b600082601f8301126135b5576135b4612e05565b5b81356135c5848260208601613519565b91505092915050565b600067ffffffffffffffff8211156135e9576135e8612e20565b5b602082029050602081019050919050565b600061360d613608846135ce565b612e80565b905080838252602082019050602084028301858111156136305761362f613514565b5b835b8181101561367757803567ffffffffffffffff81111561365557613654612e05565b5b8086016136628982612fbe565b85526020850194505050602081019050613632565b5050509392505050565b600082601f83011261369657613695612e05565b5b81356136a68482602086016135fa565b91505092915050565b6136b88161338a565b81146136c357600080fd5b50565b6000813590506136d5816136af565b92915050565b60008060008060008060c087890312156136f8576136f7612dfb565b5b600087013567ffffffffffffffff81111561371657613715612e00565b5b61372289828a01612f1d565b965050602087013567ffffffffffffffff81111561374357613742612e00565b5b61374f89828a01612f1d565b955050604087013567ffffffffffffffff8111156137705761376f612e00565b5b61377c89828a016135a0565b945050606087013567ffffffffffffffff81111561379d5761379c612e00565b5b6137a989828a01612fbe565b935050608087013567ffffffffffffffff8111156137ca576137c9612e00565b5b6137d689828a01613681565b92505060a06137e789828a016136c6565b9150509295509295509295565b6137fd81613064565b82525050565b600060208201905061381860008301846137f4565b92915050565b61382781613166565b811461383257600080fd5b50565b6000813590506138448161381e565b92915050565b6000602082840312156138605761385f612dfb565b5b600061386e84828501613835565b91505092915050565b600082825260208201905092915050565b600061389382613273565b61389d8185613877565b93506138ad8185602086016130e3565b6138b681612e0f565b840191505092915050565b600060208201905081810360008301526138db8184613888565b905092915050565b600081519050919050565b600082825260208201905092915050565b6000819050602082019050919050565b600061391b8383613178565b60208301905092915050565b6000602082019050919050565b600061393f826138e3565b61394981856138ee565b9350613954836138ff565b8060005b8381101561398557815161396c888261390f565b975061397783613927565b925050600181019050613958565b5085935050505092915050565b600082825260208201905092915050565b60006139ae82613187565b6139b88185613992565b9350836020820285016139ca856131a3565b8060005b85811015613a0657848403895281516139e785826131b3565b94506139f2836131c7565b925060208a019950506001810190506139ce565b50829750879550505050505092915050565b60006040820190508181036000830152613a328185613934565b90508181036020830152613a4681846139a3565b90509392505050565b600067ffffffffffffffff821115613a6a57613a69612e20565b5b602082029050602081019050919050565b6000613a8e613a8984613a4f565b612e80565b90508083825260208201905060208402830185811115613ab157613ab0613514565b5b835b81811015613ada5780613ac68882613835565b845260208401935050602081019050613ab3565b5050509392505050565b600082601f830112613af957613af8612e05565b5b8135613b09848260208601613a7b565b91505092915050565b60008060008060808587031215613b2c57613b2b612dfb565b5b6000613b3a87828801613085565b9450506020613b4b87828801613085565b935050604085013567ffffffffffffffff811115613b6c57613b6b612e00565b5b613b7887828801613ae4565b925050606085013567ffffffffffffffff811115613b9957613b98612e00565b5b613ba5878288016135a0565b91505092959194509250565b600082825260208201905092915050565b6000613bcd826130c7565b613bd78185613bb1565b9350613be78185602086016130e3565b613bf081612e0f565b840191505092915050565b613c0481613258565b82525050565b60006060820190508181036000830152613c248186613bc2565b90508181036020830152613c388185613888565b9050613c476040830184613bfb565b949350505050565b613c5881613166565b82525050565b613c678161338a565b82525050565b6000610140820190508181036000830152613c88818d613bc2565b90508181036020830152613c9c818c613bc2565b9050613cab604083018b613c4f565b613cb8606083018a6137f4565b613cc560808301896137f4565b613cd260a0830188613bfb565b613cdf60c0830187613bfb565b613cec60e0830186613c4f565b818103610100830152613cff8185613888565b9050613d0f610120830184613c5e565b9b9a5050505050505050505050565b60006060820190508181036000830152613d388186613bc2565b9050613d476020830185613bfb565b613d546040830184613bfb565b949350505050565b60008060408385031215613d7357613d72612dfb565b5b6000613d8185828601613085565b9250506020613d9285828601613835565b9150509250929050565b6000602082019050613db16000830184613bfb565b92915050565b6000602082019050613dcc6000830184613c4f565b92915050565b600060208284031215613de857613de7612dfb565b5b600082013567ffffffffffffffff811115613e0657613e05612e00565b5b613e1284828501612f1d565b91505092915050565b60006020820190508181036000830152613e358184613bc2565b905092915050565b600082825260208201905092915050565b6000613e59826132c8565b613e638185613e3d565b935083602082028501613e75856132e4565b8060005b85811015613eb15784840389528151613e9285826132f4565b9450613e9d83613308565b925060208a01995050600181019050613e79565b50829750879550505050505092915050565b60006060820190508181036000830152613edd8186613888565b90508181036020830152613ef18185613e4e565b9050613f006040830184613c5e565b949350505050565b7f4e616d6520726571756972656400000000000000000000000000000000000000600082015250565b6000613f3e600d83613bb1565b9150613f4982613f08565b602082019050919050565b60006020820190508181036000830152613f6d81613f31565b9050919050565b7f5075626c6963206b657920726571756972656400000000000000000000000000600082015250565b6000613faa601383613bb1565b9150613fb582613f74565b602082019050919050565b60006020820190508181036000830152613fd981613f9d565b9050919050565b7f4e487b7100000000000000000000000000000000000000000000000000000000600052602260045260246000fd5b6000600282049050600182168061402757607f821691505b60208210810361403a57614039613fe0565b5b50919050565b60008190508160005260206000209050919050565b60006020601f8301049050919050565b600082821b905092915050565b6000600883026140a27fffffffffffffffffffffffffffffffffffffffffffffffffffffffffffffffff82614065565b6140ac8683614065565b95508019841693508086168417925050509392505050565b6000819050919050565b60006140e96140e46140df84613064565b6140c4565b613064565b9050919050565b6000819050919050565b614103836140ce565b61411761410f826140f0565b848454614072565b825550505050565b600090565b61412c61411f565b6141378184846140fa565b505050565b5b8181101561415b57614150600082614124565b60018101905061413d565b5050565b601f8211156141a05761417181614040565b61417a84614055565b81016020851015614189578190505b61419d61419585614055565b83018261413c565b50505b505050565b600082821c905092915050565b60006141c3600019846008026141a5565b1980831691505092915050565b60006141dc83836141b2565b9150826002028217905092915050565b6141f5826130c7565b67ffffffffffffffff81111561420e5761420d612e20565b5b614218825461400f565b61422382828561415f565b600060209050601f8311600181146142565760008415614244578287015190505b61424e85826141d0565b8655506142b6565b601f19841661426486614040565b60005b8281101561428c57848901518255600182019150602085019450602081019050614267565b868310156142a957848901516142a5601f8916826141b2565b8355505b6001600288020188555050505b505050505050565b60008190508160005260206000209050919050565b601f821115614314576142e5816142be565b6142ee84614055565b810160208510156142fd578190505b61431161430985614055565b83018261413c565b50505b505050565b61432282613273565b67ffffffffffffffff81111561433b5761433a612e20565b5b614345825461400f565b6143508282856142d3565b600060209050601f8311600181146143835760008415614371578287015190505b61437b85826141d0565b8655506143e3565b601f198416614391866142be565b60005b828110156143b957848901518255600182019150602085019450602081019050614394565b868310156143d657848901516143d2601f8916826141b2565b8355505b6001600288020188555050505b505050505050565b7f496e76616c696420706170657220494400000000000000000000000000000000600082015250565b6000614421601083613bb1565b915061442c826143eb565b602082019050919050565b6000602082019050818103600083015261445081614414565b9050919050565b7f5061706572206e6f74207363686564756c656400000000000000000000000000600082015250565b600061448d601383613bb1565b915061449882614457565b602082019050919050565b600060208201905081810360008301526144bc81614480565b9050919050565b7f546f6f206561726c7920746f20756e6c6f636b00000000000000000000000000600082015250565b60006144f9601383613bb1565b9150614504826144c3565b602082019050919050565b60006020820190508181036000830152614528816144ec565b9050919050565b7f4578616d206e616d652072657175697265640000000000000000000000000000600082015250565b6000614565601283613bb1565b91506145708261452f565b602082019050919050565b6000602082019050818103600083015261459481614558565b9050919050565b7f4950465320434944732072657175697265640000000000000000000000000000600082015250565b60006145d1601283613bb1565b91506145dc8261459b565b602082019050919050565b60006020820190508181036000830152614600816145c4565b9050919050565b7f456e63727970746564204b312072657175697265640000000000000000000000600082015250565b600061463d601583613bb1565b915061464882614607565b602082019050919050565b6000602082019050818103600083015261466c81614630565b9050919050565b7f4e6f7420656e6f75676820736861726573000000000000000000000000000000600082015250565b60006146a9601183613bb1565b91506146b482614673565b602082019050919050565b600060208201905081810360008301526146d88161469c565b9050919050565b7f5468726573686f6c64206d757374206265206174206c65617374203200000000600082015250565b6000614715601c83613bb1565b9150614720826146df565b602082019050919050565b6000602082019050818103600083015261474481614708565b9050919050565b7f4e487b7100000000000000000000000000000000000000000000000000000000600052601160045260246000fd5b600061478582613064565b91507fffffffffffffffffffffffffffffffffffffffffffffffffffffffffffffffff82036147b7576147b661474b565b5b600182019050919050565b7f4e487b7100000000000000000000000000000000000000000000000000000000600052603260045260246000fd5b7f4e6f7420617574686f72697a6564000000000000000000000000000000000000600082015250565b6000614827600e83613bb1565b9150614832826147f1565b602082019050919050565b600060208201905081810360008301526148568161481a565b9050919050565b7f43656e746572732f436c617373726f6f6d73206d69736d617463680000000000600082015250565b6000614893601b83613bb1565b915061489e8261485d565b602082019050919050565b600060208201905081810360008301526148c281614886565b9050919050565b7f556e6c6f636b2074696d65206d75737420626520696e20667574757265000000600082015250565b60006148ff601d83613bb1565b915061490a826148c9565b602082019050919050565b6000602082019050818103600083015261492e816148f2565b9050919050565b7f506170657220616c7265616479207363686564756c6564000000000000000000600082015250565b600061496b601783613bb1565b915061497682614935565b602082019050919050565b6000602082019050818103600083015261499a8161495e565b9050919050565b7f43656e746572206e6f7420726567697374657265640000000000000000000000600082015250565b60006149d7601583613bb1565b91506149e2826149a1565b602082019050919050565b60006020820190508181036000830152614a06816149ca565b9050919050565b7f4e6f742061737369676e656420746f2074686973207061706572000000000000600082015250565b6000614a43601a83613bb1565b9150614a4e82614a0d565b602082019050919050565b60006020820190508181036000830152614a7281614a36565b9050919050565b7f5061706572206e6f7420756e6c6f636b65642079657400000000000000000000600082015250565b6000614aaf601683613bb1565b9150614aba82614a79565b602082019050919050565b60006020820190508181036000830152614ade81614aa2565b905091905056fea26469706673582212209ce766df0279b2a80be71bb3aa80a1445f9e295ae159703819cd199b69122baa64736f6c63430008140033","opcodes":"PUSH1 0x80 PUSH1 0x40 MSTORE CALLVALUE DUP1 ISZERO PUSH2 0x10 JUMPI PUSH1 0x0 DUP1 REVERT JUMPDEST POP PUSH2 0x4B1B DUP1 PUSH2 0x20 PUSH1 0x0 CODECOPY PUSH1 0x0 RETURN INVALID PUSH1 0x80 PUSH1 0x40 MSTORE CALLVALUE DUP1 ISZERO PUSH2 0x10 JUMPI PUSH1 0x0 DUP1 REVERT JUMPDEST POP PUSH1 0x4 CALLDATASIZE LT PUSH2 0x12B JUMPI PUSH1 0x0 CALLDATALOAD PUSH1 0xE0 SHR DUP1 PUSH4 0x93E9B6ED GT PUSH2 0xAD JUMPI DUP1 PUSH4 0xB69DAB68 GT PUSH2 0x71 JUMPI DUP1 PUSH4 0xB69DAB68 EQ PUSH2 0x39A JUMPI DUP1 PUSH4 0xBC7CF6DD EQ PUSH2 0x3CA JUMPI DUP1 PUSH4 0xC7A10BD6 EQ PUSH2 0x3FA JUMPI DUP1 PUSH4 0xDA0D83DE EQ PUSH2 0x42C JUMPI DUP1 PUSH4 0xFEDF2C56 EQ PUSH2 0x45C JUMPI PUSH2 0x12B JUMP JUMPDEST DUP1 PUSH4 0x93E9B6ED EQ PUSH2 0x2D0 JUMPI DUP1 PUSH4 0x9A0DD666 EQ PUSH2 0x300 JUMPI DUP1 PUSH4 0xA56C2CB9 EQ PUSH2 0x330 JUMPI DUP1 PUSH4 0xA930ECD7 EQ PUSH2 0x34E JUMPI DUP1 PUSH4 0xB5438F6D EQ PUSH2 0x36A JUMPI PUSH2 0x12B JUMP JUMPDEST DUP1 PUSH4 0x4CDF8093 GT PUSH2 0xF4 JUMPI DUP1 PUSH4 0x4CDF8093 EQ PUSH2 0x1F8 JUMPI DUP1 PUSH4 0x54A253DC EQ PUSH2 0x217 JUMPI DUP1 PUSH4 0x554A14AC EQ PUSH2 0x233 JUMPI DUP1 PUSH4 0x5E775A27 EQ PUSH2 0x265 JUMPI DUP1 PUSH4 0x91223D69 EQ PUSH2 0x29E JUMPI PUSH2 0x12B JUMP JUMPDEST DUP1 PUSH3 0xC172A2 EQ PUSH2 0x130 JUMPI DUP1 PUSH4 0x7993F04 EQ PUSH2 0x14C JUMPI DUP1 PUSH4 0x2460CF76 EQ PUSH2 0x17C JUMPI DUP1 PUSH4 0x36272BE1 EQ PUSH2 0x198 JUMPI DUP1 PUSH4 0x3B0AE1FD EQ PUSH2 0x1C8 JUMPI JUMPDEST PUSH1 0x0 DUP1 REVERT JUMPDEST PUSH2 0x14A PUSH1 0x4 DUP1 CALLDATASIZE SUB DUP2 ADD SWAP1 PUSH2 0x145 SWAP2 SWAP1 PUSH2 0x2FEC JUMP JUMPDEST PUSH2 0x47B JUMP JUMPDEST STOP JUMPDEST PUSH2 0x166 PUSH1 0x4 DUP1 CALLDATASIZE SUB DUP2 ADD SWAP1 PUSH2 0x161 SWAP2 SWAP1 PUSH2 0x309A JUMP JUMPDEST PUSH2 0x6B9 JUMP JUMPDEST PUSH1 0x40 MLOAD PUSH2 0x173 SWAP2 SWAP1 PUSH2 0x34C6 JUMP JUMPDEST PUSH1 0x40 MLOAD DUP1 SWAP2 SUB SWAP1 RETURN JUMPDEST PUSH2 0x196 PUSH1 0x4 DUP1 CALLDATASIZE SUB DUP2 ADD SWAP1 PUSH2 0x191 SWAP2 SWAP1 PUSH2 0x309A JUMP JUMPDEST PUSH2 0xBB4 JUMP JUMPDEST STOP JUMPDEST PUSH2 0x1B2 PUSH1 0x4 DUP1 CALLDATASIZE SUB DUP2 ADD SWAP1 PUSH2 0x1AD SWAP2 SWAP1 PUSH2 0x36DB JUMP JUMPDEST PUSH2 0xD0E JUMP JUMPDEST PUSH1 0x40 MLOAD PUSH2 0x1BF SWAP2 SWAP1 PUSH2 0x3803 JUMP JUMPDEST PUSH1 0x40 MLOAD DUP1 SWAP2 SUB SWAP1 RETURN JUMPDEST PUSH2 0x1E2 PUSH1 0x4 DUP1 CALLDATASIZE SUB DUP2 ADD SWAP1 PUSH2 0x1DD SWAP2 SWAP1 PUSH2 0x384A JUMP JUMPDEST PUSH2 0x1104 JUMP JUMPDEST PUSH1 0x40 MLOAD PUSH2 0x1EF SWAP2 SWAP1 PUSH2 0x38C1 JUMP JUMPDEST PUSH1 0x40 MLOAD DUP1 SWAP2 SUB SWAP1 RETURN JUMPDEST PUSH2 0x200 PUSH2 0x11D8 JUMP JUMPDEST PUSH1 0x40 MLOAD PUSH2 0x20E SWAP3 SWAP2 SWAP1 PUSH2 0x3A18 JUMP JUMPDEST PUSH1 0x40 MLOAD DUP1 SWAP2 SUB SWAP1 RETURN JUMPDEST PUSH2 0x231 PUSH1 0x4 DUP1 CALLDATASIZE SUB DUP2 ADD SWAP1 PUSH2 0x22C SWAP2 SWAP1 PUSH2 0x3B12 JUMP JUMPDEST PUSH2 0x1467 JUMP JUMPDEST STOP JUMPDEST PUSH2 0x24D PUSH1 0x4 DUP1 CALLDATASIZE SUB DUP2 ADD SWAP1 PUSH2 0x248 SWAP2 SWAP1 PUSH2 0x384A JUMP JUMPDEST PUSH2 0x192C JUMP JUMPDEST PUSH1 0x40 MLOAD PUSH2 0x25C SWAP4 SWAP3 SWAP2 SWAP1 PUSH2 0x3C0A JUMP JUMPDEST PUSH1 0x40 MLOAD DUP1 SWAP2 SUB SWAP1 RETURN JUMPDEST PUSH2 0x27F PUSH1 0x4 DUP1 CALLDATASIZE SUB DUP2 ADD SWAP1 PUSH2 0x27A SWAP2 SWAP1 PUSH2 0x309A JUMP JUMPDEST PUSH2 0x1A73 JUMP JUMPDEST PUSH1 0x40 MLOAD PUSH2 0x295 SWAP11 SWAP10 SWAP9 SWAP8 SWAP7 SWAP6 SWAP5 SWAP4 SWAP3 SWAP2 SWAP1 PUSH2 0x3C6D JUMP JUMPDEST PUSH1 0x40 MLOAD DUP1 SWAP2 SUB SWAP1 RETURN JUMPDEST PUSH2 0x2B8 PUSH1 0x4 DUP1 CALLDATASIZE SUB DUP2 ADD SWAP1 PUSH2 0x2B3 SWAP2 SWAP1 PUSH2 0x384A JUMP JUMPDEST PUSH2 0x1CC6 JUMP JUMPDEST PUSH1 0x40 MLOAD PUSH2 0x2C7 SWAP4 SWAP3 SWAP2 SWAP1 PUSH2 0x3D1E JUMP JUMPDEST PUSH1 0x40 MLOAD DUP1 SWAP2 SUB SWAP1 RETURN JUMPDEST PUSH2 0x2EA PUSH1 0x4 DUP1 CALLDATASIZE SUB DUP2 ADD SWAP1 PUSH2 0x2E5 SWAP2 SWAP1 PUSH2 0x3D5C JUMP JUMPDEST PUSH2 0x1D92 JUMP JUMPDEST PUSH1 0x40 MLOAD PUSH2 0x2F7 SWAP2 SWAP1 PUSH2 0x3D9C JUMP JUMPDEST PUSH1 0x40 MLOAD DUP1 SWAP2 SUB SWAP1 RETURN JUMPDEST PUSH2 0x31A PUSH1 0x4 DUP1 CALLDATASIZE SUB DUP2 ADD SWAP1 PUSH2 0x315 SWAP2 SWAP1 PUSH2 0x309A JUMP JUMPDEST PUSH2 0x1E4D JUMP JUMPDEST PUSH1 0x40 MLOAD PUSH2 0x327 SWAP2 SWAP1 PUSH2 0x3DB7 JUMP JUMPDEST PUSH1 0x40 MLOAD DUP1 SWAP2 SUB SWAP1 RETURN JUMPDEST PUSH2 0x338 PUSH2 0x1E8C JUMP JUMPDEST PUSH1 0x40 MLOAD PUSH2 0x345 SWAP2 SWAP1 PUSH2 0x3803 JUMP JUMPDEST PUSH1 0x40 MLOAD DUP1 SWAP2 SUB SWAP1 RETURN JUMPDEST PUSH2 0x368 PUSH1 0x4 DUP1 CALLDATASIZE SUB DUP2 ADD SWAP1 PUSH2 0x363 SWAP2 SWAP1 PUSH2 0x3DD2 JUMP JUMPDEST PUSH2 0x1E92 JUMP JUMPDEST STOP JUMPDEST PUSH2 0x384 PUSH1 0x4 DUP1 CALLDATASIZE SUB DUP2 ADD SWAP1 PUSH2 0x37F SWAP2 SWAP1 PUSH2 0x309A JUMP JUMPDEST PUSH2 0x2054 JUMP JUMPDEST PUSH1 0x40 MLOAD PUSH2 0x391 SWAP2 SWAP1 PUSH2 0x3E1B JUMP JUMPDEST PUSH1 0x40 MLOAD DUP1 SWAP2 SUB SWAP1 RETURN JUMPDEST PUSH2 0x3B4 PUSH1 0x4 DUP1 CALLDATASIZE SUB DUP2 ADD SWAP1 PUSH2 0x3AF SWAP2 SWAP1 PUSH2 0x309A JUMP JUMPDEST PUSH2 0x2226 JUMP JUMPDEST PUSH1 0x40 MLOAD PUSH2 0x3C1 SWAP2 SWAP1 PUSH2 0x3DB7 JUMP JUMPDEST PUSH1 0x40 MLOAD DUP1 SWAP2 SUB SWAP1 RETURN JUMPDEST PUSH2 0x3E4 PUSH1 0x4 DUP1 CALLDATASIZE SUB DUP2 ADD SWAP1 PUSH2 0x3DF SWAP2 SWAP1 PUSH2 0x3D5C JUMP JUMPDEST PUSH2 0x2265 JUMP JUMPDEST PUSH1 0x40 MLOAD PUSH2 0x3F1 SWAP2 SWAP1 PUSH2 0x3E1B JUMP JUMPDEST PUSH1 0x40 MLOAD DUP1 SWAP2 SUB SWAP1 RETURN JUMPDEST PUSH2 0x414 PUSH1 0x4 DUP1 CALLDATASIZE SUB DUP2 ADD SWAP1 PUSH2 0x40F SWAP2 SWAP1 PUSH2 0x309A JUMP JUMPDEST PUSH2 0x2312 JUMP JUMPDEST PUSH1 0x40 MLOAD PUSH2 0x423 SWAP4 SWAP3 SWAP2 SWAP1 PUSH2 0x3EC3 JUMP JUMPDEST PUSH1 0x40 MLOAD DUP1 SWAP2 SUB SWAP1 RETURN JUMPDEST PUSH2 0x446 PUSH1 0x4 DUP1 CALLDATASIZE SUB DUP2 ADD SWAP1 PUSH2 0x441 SWAP2 SWAP1 PUSH2 0x3D5C JUMP JUMPDEST PUSH2 0x2908 JUMP JUMPDEST PUSH1 0x40 MLOAD PUSH2 0x453 SWAP2 SWAP1 PUSH2 0x3D9C JUMP JUMPDEST PUSH1 0x40 MLOAD DUP1 SWAP2 SUB SWAP1 RETURN JUMPDEST PUSH2 0x464 PUSH2 0x2937 JUMP JUMPDEST PUSH1 0x40 MLOAD PUSH2 0x472 SWAP3 SWAP2 SWAP1 PUSH2 0x3A18 JUMP JUMPDEST PUSH1 0x40 MLOAD DUP1 SWAP2 SUB SWAP1 RETURN JUMPDEST PUSH1 0x0 DUP3 MLOAD GT PUSH2 0x4BF JUMPI PUSH1 0x40 MLOAD PUSH32 0x8C379A000000000000000000000000000000000000000000000000000000000 DUP2 MSTORE PUSH1 0x4 ADD PUSH2 0x4B6 SWAP1 PUSH2 0x3F54 JUMP JUMPDEST PUSH1 0x40 MLOAD DUP1 SWAP2 SUB SWAP1 REVERT JUMPDEST PUSH1 0x0 DUP2 MLOAD GT PUSH2 0x503 JUMPI PUSH1 0x40 MLOAD PUSH32 0x8C379A000000000000000000000000000000000000000000000000000000000 DUP2 MSTORE PUSH1 0x4 ADD PUSH2 0x4FA SWAP1 PUSH2 0x3FC0 JUMP JUMPDEST PUSH1 0x40 MLOAD DUP1 SWAP2 SUB SWAP1 REVERT JUMPDEST PUSH1 0x2 PUSH1 0x0 CALLER PUSH20 0xFFFFFFFFFFFFFFFFFFFFFFFFFFFFFFFFFFFFFFFF AND PUSH20 0xFFFFFFFFFFFFFFFFFFFFFFFFFFFFFFFFFFFFFFFF AND DUP2 MSTORE PUSH1 0x20 ADD SWAP1 DUP2 MSTORE PUSH1 0x20 ADD PUSH1 0x0 KECCAK256 PUSH1 0x2 ADD PUSH1 0x0 SWAP1 SLOAD SWAP1 PUSH2 0x100 EXP SWAP1 DIV PUSH1 0xFF AND PUSH2 0x5BB JUMPI PUSH1 0x3 CALLER SWAP1 DUP1 PUSH1 0x1 DUP2 SLOAD ADD DUP1 DUP3 SSTORE DUP1 SWAP2 POP POP PUSH1 0x1 SWAP1 SUB SWAP1 PUSH1 0x0 MSTORE PUSH1 0x20 PUSH1 0x0 KECCAK256 ADD PUSH1 0x0 SWAP1 SWAP2 SWAP1 SWAP2 SWAP1 SWAP2 PUSH2 0x100 EXP DUP2 SLOAD DUP2 PUSH20 0xFFFFFFFFFFFFFFFFFFFFFFFFFFFFFFFFFFFFFFFF MUL NOT AND SWAP1 DUP4 PUSH20 0xFFFFFFFFFFFFFFFFFFFFFFFFFFFFFFFFFFFFFFFF AND MUL OR SWAP1 SSTORE POP JUMPDEST PUSH1 0x40 MLOAD DUP1 PUSH1 0x60 ADD PUSH1 0x40 MSTORE DUP1 DUP4 DUP2 MSTORE PUSH1 0x20 ADD DUP3 DUP2 MSTORE PUSH1 0x20 ADD PUSH1 0x1 ISZERO ISZERO DUP2 MSTORE POP PUSH1 0x2 PUSH1 0x0 CALLER PUSH20 0xFFFFFFFFFFFFFFFFFFFFFFFFFFFFFFFFFFFFFFFF AND PUSH20 0xFFFFFFFFFFFFFFFFFFFFFFFFFFFFFFFFFFFFFFFF AND DUP2 MSTORE PUSH1 0x20 ADD SWAP1 DUP2 MSTORE PUSH1 0x20 ADD PUSH1 0x0 KECCAK256 PUSH1 0x0 DUP3 ADD MLOAD DUP2 PUSH1 0x0 ADD SWAP1 DUP2 PUSH2 0x62D SWAP2 SWAP1 PUSH2 0x41EC JUMP JUMPDEST POP PUSH1 0x20 DUP3 ADD MLOAD DUP2 PUSH1 0x1 ADD SWAP1 DUP2 PUSH2 0x643 SWAP2 SWAP1 PUSH2 0x4319 JUMP JUMPDEST POP PUSH1 0x40 DUP3 ADD MLOAD DUP2 PUSH1 0x2 ADD PUSH1 0x0 PUSH2 0x100 EXP DUP2 SLOAD DUP2 PUSH1 0xFF MUL NOT AND SWAP1 DUP4 ISZERO ISZERO MUL OR SWAP1 SSTORE POP SWAP1 POP POP CALLER PUSH20 0xFFFFFFFFFFFFFFFFFFFFFFFFFFFFFFFFFFFFFFFF AND PUSH32 0x1FFB27EB65CBBC9DFAA75D97C82C72D0F599317651D968E7E4EA93553E154C92 DUP4 PUSH1 0x40 MLOAD PUSH2 0x6AD SWAP2 SWAP1 PUSH2 0x3E1B JUMP JUMPDEST PUSH1 0x40 MLOAD DUP1 SWAP2 SUB SWAP1 LOG2 POP POP JUMP JUMPDEST PUSH2 0x6C1 PUSH2 0x2BC6 JUMP JUMPDEST DUP2 PUSH1 0x0 DUP2 GT DUP1 ISZERO PUSH2 0x6D4 JUMPI POP PUSH1 0x1 SLOAD DUP2 GT ISZERO JUMPDEST PUSH2 0x713 JUMPI PUSH1 0x40 MLOAD PUSH32 0x8C379A000000000000000000000000000000000000000000000000000000000 DUP2 MSTORE PUSH1 0x4 ADD PUSH2 0x70A SWAP1 PUSH2 0x4437 JUMP JUMPDEST PUSH1 0x40 MLOAD DUP1 SWAP2 SUB SWAP1 REVERT JUMPDEST PUSH1 0x0 DUP1 DUP5 DUP2 MSTORE PUSH1 0x20 ADD SWAP1 DUP2 MSTORE PUSH1 0x20 ADD PUSH1 0x0 KECCAK256 PUSH1 0x40 MLOAD DUP1 PUSH2 0x180 ADD PUSH1 0x40 MSTORE SWAP1 DUP2 PUSH1 0x0 DUP3 ADD DUP1 SLOAD PUSH2 0x741 SWAP1 PUSH2 0x400F JUMP JUMPDEST DUP1 PUSH1 0x1F ADD PUSH1 0x20 DUP1 SWAP2 DIV MUL PUSH1 0x20 ADD PUSH1 0x40 MLOAD SWAP1 DUP2 ADD PUSH1 0x40 MSTORE DUP1 SWAP3 SWAP2 SWAP1 DUP2 DUP2 MSTORE PUSH1 0x20 ADD DUP3 DUP1 SLOAD PUSH2 0x76D SWAP1 PUSH2 0x400F JUMP JUMPDEST DUP1 ISZERO PUSH2 0x7BA JUMPI DUP1 PUSH1 0x1F LT PUSH2 0x78F JUMPI PUSH2 0x100 DUP1 DUP4 SLOAD DIV MUL DUP4 MSTORE SWAP2 PUSH1 0x20 ADD SWAP2 PUSH2 0x7BA JUMP JUMPDEST DUP3 ADD SWAP2 SWAP1 PUSH1 0x0 MSTORE PUSH1 0x20 PUSH1 0x0 KECCAK256 SWAP1 JUMPDEST DUP2 SLOAD DUP2 MSTORE SWAP1 PUSH1 0x1 ADD SWAP1 PUSH1 0x20 ADD DUP1 DUP4 GT PUSH2 0x79D JUMPI DUP3 SWAP1 SUB PUSH1 0x1F AND DUP3 ADD SWAP2 JUMPDEST POP POP POP POP POP DUP2 MSTORE PUSH1 0x20 ADD PUSH1 0x1 DUP3 ADD DUP1 SLOAD PUSH2 0x7D3 SWAP1 PUSH2 0x400F JUMP JUMPDEST DUP1 PUSH1 0x1F ADD PUSH1 0x20 DUP1 SWAP2 DIV MUL PUSH1 0x20 ADD PUSH1 0x40 MLOAD SWAP1 DUP2 ADD PUSH1 0x40 MSTORE DUP1 SWAP3 SWAP2 SWAP1 DUP2 DUP2 MSTORE PUSH1 0x20 ADD DUP3 DUP1 SLOAD PUSH2 0x7FF SWAP1 PUSH2 0x400F JUMP JUMPDEST DUP1 ISZERO PUSH2 0x84C JUMPI DUP1 PUSH1 0x1F LT PUSH2 0x821 JUMPI PUSH2 0x100 DUP1 DUP4 SLOAD DIV MUL DUP4 MSTORE SWAP2 PUSH1 0x20 ADD SWAP2 PUSH2 0x84C JUMP JUMPDEST DUP3 ADD SWAP2 SWAP1 PUSH1 0x0 MSTORE PUSH1 0x20 PUSH1 0x0 KECCAK256 SWAP1 JUMPDEST DUP2 SLOAD DUP2 MSTORE SWAP1 PUSH1 0x1 ADD SWAP1 PUSH1 0x20 ADD DUP1 DUP4 GT PUSH2 0x82F JUMPI DUP3 SWAP1 SUB PUSH1 0x1F AND DUP3 ADD SWAP2 JUMPDEST POP POP POP POP POP DUP2 MSTORE PUSH1 0x20 ADD PUSH1 0x2 DUP3 ADD PUSH1 0x0 SWAP1 SLOAD SWAP1 PUSH2 0x100 EXP SWAP1 DIV PUSH20 0xFFFFFFFFFFFFFFFFFFFFFFFFFFFFFFFFFFFFFFFF AND PUSH20 0xFFFFFFFFFFFFFFFFFFFFFFFFFFFFFFFFFFFFFFFF AND PUSH20 0xFFFFFFFFFFFFFFFFFFFFFFFFFFFFFFFFFFFFFFFF AND DUP2 MSTORE PUSH1 0x20 ADD PUSH1 0x3 DUP3 ADD DUP1 SLOAD DUP1 PUSH1 0x20 MUL PUSH1 0x20 ADD PUSH1 0x40 MLOAD SWAP1 DUP2 ADD PUSH1 0x40 MSTORE DUP1 SWAP3 SWAP2 SWAP1 DUP2 DUP2 MSTORE PUSH1 0x20 ADD PUSH1 0x0 SWAP1 JUMPDEST DUP3 DUP3 LT ISZERO PUSH2 0x97C JUMPI DUP4 DUP3 SWAP1 PUSH1 0x0 MSTORE PUSH1 0x20 PUSH1 0x0 KECCAK256 ADD DUP1 SLOAD PUSH2 0x8EF SWAP1 PUSH2 0x400F JUMP JUMPDEST DUP1 PUSH1 0x1F ADD PUSH1 0x20 DUP1 SWAP2 DIV MUL PUSH1 0x20 ADD PUSH1 0x40 MLOAD SWAP1 DUP2 ADD PUSH1 0x40 MSTORE DUP1 SWAP3 SWAP2 SWAP1 DUP2 DUP2 MSTORE PUSH1 0x20 ADD DUP3 DUP1 SLOAD PUSH2 0x91B SWAP1 PUSH2 0x400F JUMP JUMPDEST DUP1 ISZERO PUSH2 0x968 JUMPI DUP1 PUSH1 0x1F LT PUSH2 0x93D JUMPI PUSH2 0x100 DUP1 DUP4 SLOAD DIV MUL DUP4 MSTORE SWAP2 PUSH1 0x20 ADD SWAP2 PUSH2 0x968 JUMP JUMPDEST DUP3 ADD SWAP2 SWAP1 PUSH1 0x0 MSTORE PUSH1 0x20 PUSH1 0x0 KECCAK256 SWAP1 JUMPDEST DUP2 SLOAD DUP2 MSTORE SWAP1 PUSH1 0x1 ADD SWAP1 PUSH1 0x20 ADD DUP1 DUP4 GT PUSH2 0x94B JUMPI DUP3 SWAP1 SUB PUSH1 0x1F AND DUP3 ADD SWAP2 JUMPDEST POP POP POP POP POP DUP2 MSTORE PUSH1 0x20 ADD SWAP1 PUSH1 0x1 ADD SWAP1 PUSH2 0x8D0 JUMP JUMPDEST POP POP POP POP DUP2 MSTORE PUSH1 0x20 ADD PUSH1 0x4 DUP3 ADD SLOAD DUP2 MSTORE PUSH1 0x20 ADD PUSH1 0x5 DUP3 ADD SLOAD DUP2 MSTORE PUSH1 0x20 ADD PUSH1 0x6 DUP3 ADD PUSH1 0x0 SWAP1 SLOAD SWAP1 PUSH2 0x100 EXP SWAP1 DIV PUSH1 0xFF AND ISZERO ISZERO ISZERO ISZERO DUP2 MSTORE PUSH1 0x20 ADD PUSH1 0x6 DUP3 ADD PUSH1 0x1 SWAP1 SLOAD SWAP1 PUSH2 0x100 EXP SWAP1 DIV PUSH1 0xFF AND ISZERO ISZERO ISZERO ISZERO DUP2 MSTORE PUSH1 0x20 ADD PUSH1 0x6 DUP3 ADD PUSH1 0x2 SWAP1 SLOAD SWAP1 PUSH2 0x100 EXP SWAP1 DIV PUSH20 0xFFFFFFFFFFFFFFFFFFFFFFFFFFFFFFFFFFFFFFFF AND PUSH20 0xFFFFFFFFFFFFFFFFFFFFFFFFFFFFFFFFFFFFFFFF AND PUSH20 0xFFFFFFFFFFFFFFFFFFFFFFFFFFFFFFFFFFFFFFFF AND DUP2 MSTORE PUSH1 0x20 ADD PUSH1 0x7 DUP3 ADD DUP1 SLOAD PUSH2 0xA34 SWAP1 PUSH2 0x400F JUMP JUMPDEST DUP1 PUSH1 0x1F ADD PUSH1 0x20 DUP1 SWAP2 DIV MUL PUSH1 0x20 ADD PUSH1 0x40 MLOAD SWAP1 DUP2 ADD PUSH1 0x40 MSTORE DUP1 SWAP3 SWAP2 SWAP1 DUP2 DUP2 MSTORE PUSH1 0x20 ADD DUP3 DUP1 SLOAD PUSH2 0xA60 SWAP1 PUSH2 0x400F JUMP JUMPDEST DUP1 ISZERO PUSH2 0xAAD JUMPI DUP1 PUSH1 0x1F LT PUSH2 0xA82 JUMPI PUSH2 0x100 DUP1 DUP4 SLOAD DIV MUL DUP4 MSTORE SWAP2 PUSH1 0x20 ADD SWAP2 PUSH2 0xAAD JUMP JUMPDEST DUP3 ADD SWAP2 SWAP1 PUSH1 0x0 MSTORE PUSH1 0x20 PUSH1 0x0 KECCAK256 SWAP1 JUMPDEST DUP2 SLOAD DUP2 MSTORE SWAP1 PUSH1 0x1 ADD SWAP1 PUSH1 0x20 ADD DUP1 DUP4 GT PUSH2 0xA90 JUMPI DUP3 SWAP1 SUB PUSH1 0x1F AND DUP3 ADD SWAP2 JUMPDEST POP POP POP POP POP DUP2 MSTORE PUSH1 0x20 ADD PUSH1 0x8 DUP3 ADD DUP1 SLOAD DUP1 PUSH1 0x20 MUL PUSH1 0x20 ADD PUSH1 0x40 MLOAD SWAP1 DUP2 ADD PUSH1 0x40 MSTORE DUP1 SWAP3 SWAP2 SWAP1 DUP2 DUP2 MSTORE PUSH1 0x20 ADD PUSH1 0x0 SWAP1 JUMPDEST DUP3 DUP3 LT ISZERO PUSH2 0xB87 JUMPI DUP4 DUP3 SWAP1 PUSH1 0x0 MSTORE PUSH1 0x20 PUSH1 0x0 KECCAK256 ADD DUP1 SLOAD PUSH2 0xAFA SWAP1 PUSH2 0x400F JUMP JUMPDEST DUP1 PUSH1 0x1F ADD PUSH1 0x20 DUP1 SWAP2 DIV MUL PUSH1 0x20 ADD PUSH1 0x40 MLOAD SWAP1 DUP2 ADD PUSH1 0x40 MSTORE DUP1 SWAP3 SWAP2 SWAP1 DUP2 DUP2 MSTORE PUSH1 0x20 ADD DUP3 DUP1 SLOAD PUSH2 0xB26 SWAP1 PUSH2 0x400F JUMP JUMPDEST DUP1 ISZERO PUSH2 0xB73 JUMPI DUP1 PUSH1 0x1F LT PUSH2 0xB48 JUMPI PUSH2 0x100 DUP1 DUP4 SLOAD DIV MUL DUP4 MSTORE SWAP2 PUSH1 0x20 ADD SWAP2 PUSH2 0xB73 JUMP JUMPDEST DUP3 ADD SWAP2 SWAP1 PUSH1 0x0 MSTORE PUSH1 0x20 PUSH1 0x0 KECCAK256 SWAP1 JUMPDEST DUP2 SLOAD DUP2 MSTORE SWAP1 PUSH1 0x1 ADD SWAP1 PUSH1 0x20 ADD DUP1 DUP4 GT PUSH2 0xB56 JUMPI DUP3 SWAP1 SUB PUSH1 0x1F AND DUP3 ADD SWAP2 JUMPDEST POP POP POP POP POP DUP2 MSTORE PUSH1 0x20 ADD SWAP1 PUSH1 0x1 ADD SWAP1 PUSH2 0xADB JUMP JUMPDEST POP POP POP POP DUP2 MSTORE PUSH1 0x20 ADD PUSH1 0x9 DUP3 ADD PUSH1 0x0 SWAP1 SLOAD SWAP1 PUSH2 0x100 EXP SWAP1 DIV PUSH1 0xFF AND PUSH1 0xFF AND PUSH1 0xFF AND DUP2 MSTORE POP POP SWAP2 POP POP SWAP2 SWAP1 POP JUMP JUMPDEST DUP1 PUSH1 0x0 DUP2 GT DUP1 ISZERO PUSH2 0xBC7 JUMPI POP PUSH1 0x1 SLOAD DUP2 GT ISZERO JUMPDEST PUSH2 0xC06 JUMPI PUSH1 0x40 MLOAD PUSH32 0x8C379A000000000000000000000000000000000000000000000000000000000 DUP2 MSTORE PUSH1 0x4 ADD PUSH2 0xBFD SWAP1 PUSH2 0x4437 JUMP JUMPDEST PUSH1 0x40 MLOAD DUP1 SWAP2 SUB SWAP1 REVERT JUMPDEST PUSH1 0x0 DUP1 PUSH1 0x0 DUP5 DUP2 MSTORE PUSH1 0x20 ADD SWAP1 DUP2 MSTORE PUSH1 0x20 ADD PUSH1 0x0 KECCAK256 SWAP1 POP DUP1 PUSH1 0x6 ADD PUSH1 0x0 SWAP1 SLOAD SWAP1 PUSH2 0x100 EXP SWAP1 DIV PUSH1 0xFF AND PUSH2 0xC6D JUMPI PUSH1 0x40 MLOAD PUSH32 0x8C379A000000000000000000000000000000000000000000000000000000000 DUP2 MSTORE PUSH1 0x4 ADD PUSH2 0xC64 SWAP1 PUSH2 0x44A3 JUMP JUMPDEST PUSH1 0x40 MLOAD DUP1 SWAP2 SUB SWAP1 REVERT JUMPDEST DUP1 PUSH1 0x5 ADD SLOAD TIMESTAMP LT ISZERO PUSH2 0xCB4 JUMPI PUSH1 0x40 MLOAD PUSH32 0x8C379A000000000000000000000000000000000000000000000000000000000 DUP2 MSTORE PUSH1 0x4 ADD PUSH2 0xCAB SWAP1 PUSH2 0x450F JUMP JUMPDEST PUSH1 0x40 MLOAD DUP1 SWAP2 SUB SWAP1 REVERT JUMPDEST PUSH1 0x1 DUP2 PUSH1 0x6 ADD PUSH1 0x1 PUSH2 0x100 EXP DUP2 SLOAD DUP2 PUSH1 0xFF MUL NOT AND SWAP1 DUP4 ISZERO ISZERO MUL OR SWAP1 SSTORE POP DUP3 PUSH32 0x79F7DE7AC9A8923C7CCC915FB4C5041920583F938A5406435331E490E06E0CF3 TIMESTAMP PUSH1 0x40 MLOAD PUSH2 0xD01 SWAP2 SWAP1 PUSH2 0x3803 JUMP JUMPDEST PUSH1 0x40 MLOAD DUP1 SWAP2 SUB SWAP1 LOG2 POP POP POP JUMP JUMPDEST PUSH1 0x0 DUP1 DUP8 MLOAD GT PUSH2 0xD53 JUMPI PUSH1 0x40 MLOAD PUSH32 0x8C379A000000000000000000000000000000000000000000000000000000000 DUP2 MSTORE PUSH1 0x4 ADD PUSH2 0xD4A SWAP1 PUSH2 0x457B JUMP JUMPDEST PUSH1 0x40 MLOAD DUP1 SWAP2 SUB SWAP1 REVERT JUMPDEST PUSH1 0x0 DUP6 MLOAD GT PUSH2 0xD97 JUMPI PUSH1 0x40 MLOAD PUSH32 0x8C379A000000000000000000000000000000000000000000000000000000000 DUP2 MSTORE PUSH1 0x4 ADD PUSH2 0xD8E SWAP1 PUSH2 0x45E7 JUMP JUMPDEST PUSH1 0x40 MLOAD DUP1 SWAP2 SUB SWAP1 REVERT JUMPDEST PUSH1 0x0 DUP5 MLOAD GT PUSH2 0xDDB JUMPI PUSH1 0x40 MLOAD PUSH32 0x8C379A000000000000000000000000000000000000000000000000000000000 DUP2 MSTORE PUSH1 0x4 ADD PUSH2 0xDD2 SWAP1 PUSH2 0x4653 JUMP JUMPDEST PUSH1 0x40 MLOAD DUP1 SWAP2 SUB SWAP1 REVERT JUMPDEST DUP2 PUSH1 0xFF AND DUP4 MLOAD LT ISZERO PUSH2 0xE22 JUMPI PUSH1 0x40 MLOAD PUSH32 0x8C379A000000000000000000000000000000000000000000000000000000000 DUP2 MSTORE PUSH1 0x4 ADD PUSH2 0xE19 SWAP1 PUSH2 0x46BF JUMP JUMPDEST PUSH1 0x40 MLOAD DUP1 SWAP2 SUB SWAP1 REVERT JUMPDEST PUSH1 0x2 DUP3 PUSH1 0xFF AND LT ISZERO PUSH2 0xE69 JUMPI PUSH1 0x40 MLOAD PUSH32 0x8C379A000000000000000000000000000000000000000000000000000000000 DUP2 MSTORE PUSH1 0x4 ADD PUSH2 0xE60 SWAP1 PUSH2 0x472B JUMP JUMPDEST PUSH1 0x40 MLOAD DUP1 SWAP2 SUB SWAP1 REVERT JUMPDEST PUSH1 0x1 PUSH1 0x0 DUP2 SLOAD DUP1 SWAP3 SWAP2 SWAP1 PUSH2 0xE7C SWAP1 PUSH2 0x477A JUMP JUMPDEST SWAP2 SWAP1 POP SSTORE POP PUSH1 0x40 MLOAD DUP1 PUSH2 0x180 ADD PUSH1 0x40 MSTORE DUP1 DUP9 DUP2 MSTORE PUSH1 0x20 ADD DUP8 DUP2 MSTORE PUSH1 0x20 ADD CALLER PUSH20 0xFFFFFFFFFFFFFFFFFFFFFFFFFFFFFFFFFFFFFFFF AND DUP2 MSTORE PUSH1 0x20 ADD DUP7 DUP2 MSTORE PUSH1 0x20 ADD TIMESTAMP DUP2 MSTORE PUSH1 0x20 ADD PUSH1 0x0 DUP2 MSTORE PUSH1 0x20 ADD PUSH1 0x0 ISZERO ISZERO DUP2 MSTORE PUSH1 0x20 ADD PUSH1 0x0 ISZERO ISZERO DUP2 MSTORE PUSH1 0x20 ADD PUSH1 0x0 PUSH20 0xFFFFFFFFFFFFFFFFFFFFFFFFFFFFFFFFFFFFFFFF AND DUP2 MSTORE PUSH1 0x20 ADD DUP6 DUP2 MSTORE PUSH1 0x20 ADD DUP5 DUP2 MSTORE PUSH1 0x20 ADD DUP4 PUSH1 0xFF AND DUP2 MSTORE POP PUSH1 0x0 DUP1 PUSH1 0x1 SLOAD DUP2 MSTORE PUSH1 0x20 ADD SWAP1 DUP2 MSTORE PUSH1 0x20 ADD PUSH1 0x0 KECCAK256 PUSH1 0x0 DUP3 ADD MLOAD DUP2 PUSH1 0x0 ADD SWAP1 DUP2 PUSH2 0xF33 SWAP2 SWAP1 PUSH2 0x41EC JUMP JUMPDEST POP PUSH1 0x20 DUP3 ADD MLOAD DUP2 PUSH1 0x1 ADD SWAP1 DUP2 PUSH2 0xF49 SWAP2 SWAP1 PUSH2 0x41EC JUMP JUMPDEST POP PUSH1 0x40 DUP3 ADD MLOAD DUP2 PUSH1 0x2 ADD PUSH1 0x0 PUSH2 0x100 EXP DUP2 SLOAD DUP2 PUSH20 0xFFFFFFFFFFFFFFFFFFFFFFFFFFFFFFFFFFFFFFFF MUL NOT AND SWAP1 DUP4 PUSH20 0xFFFFFFFFFFFFFFFFFFFFFFFFFFFFFFFFFFFFFFFF AND MUL OR SWAP1 SSTORE POP PUSH1 0x60 DUP3 ADD MLOAD DUP2 PUSH1 0x3 ADD SWAP1 DUP1 MLOAD SWAP1 PUSH1 0x20 ADD SWAP1 PUSH2 0xFAD SWAP3 SWAP2 SWAP1 PUSH2 0x2C5A JUMP JUMPDEST POP PUSH1 0x80 DUP3 ADD MLOAD DUP2 PUSH1 0x4 ADD SSTORE PUSH1 0xA0 DUP3 ADD MLOAD DUP2 PUSH1 0x5 ADD SSTORE PUSH1 0xC0 DUP3 ADD MLOAD DUP2 PUSH1 0x6 ADD PUSH1 0x0 PUSH2 0x100 EXP DUP2 SLOAD DUP2 PUSH1 0xFF MUL NOT AND SWAP1 DUP4 ISZERO ISZERO MUL OR SWAP1 SSTORE POP PUSH1 0xE0 DUP3 ADD MLOAD DUP2 PUSH1 0x6 ADD PUSH1 0x1 PUSH2 0x100 EXP DUP2 SLOAD DUP2 PUSH1 0xFF MUL NOT AND SWAP1 DUP4 ISZERO ISZERO MUL OR SWAP1 SSTORE POP PUSH2 0x100 DUP3 ADD MLOAD DUP2 PUSH1 0x6 ADD PUSH1 0x2 PUSH2 0x100 EXP DUP2 SLOAD DUP2 PUSH20 0xFFFFFFFFFFFFFFFFFFFFFFFFFFFFFFFFFFFFFFFF MUL NOT AND SWAP1 DUP4 PUSH20 0xFFFFFFFFFFFFFFFFFFFFFFFFFFFFFFFFFFFFFFFF AND MUL OR SWAP1 SSTORE POP PUSH2 0x120 DUP3 ADD MLOAD DUP2 PUSH1 0x7 ADD SWAP1 DUP2 PUSH2 0x1060 SWAP2 SWAP1 PUSH2 0x4319 JUMP JUMPDEST POP PUSH2 0x140 DUP3 ADD MLOAD DUP2 PUSH1 0x8 ADD SWAP1 DUP1 MLOAD SWAP1 PUSH1 0x20 ADD SWAP1 PUSH2 0x107E SWAP3 SWAP2 SWAP1 PUSH2 0x2CB3 JUMP JUMPDEST POP PUSH2 0x160 DUP3 ADD MLOAD DUP2 PUSH1 0x9 ADD PUSH1 0x0 PUSH2 0x100 EXP DUP2 SLOAD DUP2 PUSH1 0xFF MUL NOT AND SWAP1 DUP4 PUSH1 0xFF AND MUL OR SWAP1 SSTORE POP SWAP1 POP POP CALLER PUSH20 0xFFFFFFFFFFFFFFFFFFFFFFFFFFFFFFFFFFFFFFFF AND PUSH1 0x1 SLOAD PUSH32 0xF2ADDD0844BF6C683670BE19A71FE7603380BDC0B1A9ECDE0137F08B5E0D644A DUP10 PUSH1 0x40 MLOAD PUSH2 0x10ED SWAP2 SWAP1 PUSH2 0x3E1B JUMP JUMPDEST PUSH1 0x40 MLOAD DUP1 SWAP2 SUB SWAP1 LOG3 PUSH1 0x1 SLOAD SWAP1 POP SWAP7 SWAP6 POP POP POP POP POP POP JUMP JUMPDEST PUSH1 0x60 PUSH1 0x2 PUSH1 0x0 DUP4 PUSH20 0xFFFFFFFFFFFFFFFFFFFFFFFFFFFFFFFFFFFFFFFF AND PUSH20 0xFFFFFFFFFFFFFFFFFFFFFFFFFFFFFFFFFFFFFFFF AND DUP2 MSTORE PUSH1 0x20 ADD SWAP1 DUP2 MSTORE PUSH1 0x20 ADD PUSH1 0x0 KECCAK256 PUSH1 0x1 ADD DUP1 SLOAD PUSH2 0x1153 SWAP1 PUSH2 0x400F JUMP JUMPDEST DUP1 PUSH1 0x1F ADD PUSH1 0x20 DUP1 SWAP2 DIV MUL PUSH1 0x20 ADD PUSH1 0x40 MLOAD SWAP1 DUP2 ADD PUSH1 0x40 MSTORE DUP1 SWAP3 SWAP2 SWAP1 DUP2 DUP2 MSTORE PUSH1 0x20 ADD DUP3 DUP1 SLOAD PUSH2 0x117F SWAP1 PUSH2 0x400F JUMP JUMPDEST DUP1 ISZERO PUSH2 0x11CC JUMPI DUP1 PUSH1 0x1F LT PUSH2 0x11A1 JUMPI PUSH2 0x100 DUP1 DUP4 SLOAD DIV MUL DUP4 MSTORE SWAP2 PUSH1 0x20 ADD SWAP2 PUSH2 0x11CC JUMP JUMPDEST DUP3 ADD SWAP2 SWAP1 PUSH1 0x0 MSTORE PUSH1 0x20 PUSH1 0x0 KECCAK256 SWAP1 JUMPDEST DUP2 SLOAD DUP2 MSTORE SWAP1 PUSH1 0x1 ADD SWAP1 PUSH1 0x20 ADD DUP1 DUP4 GT PUSH2 0x11AF JUMPI DUP3 SWAP1 SUB PUSH1 0x1F AND DUP3 ADD SWAP2 JUMPDEST POP POP POP POP POP SWAP1 POP SWAP2 SWAP1 POP JUMP JUMPDEST PUSH1 0x60 DUP1 PUSH1 0x0 PUSH1 0x3 DUP1 SLOAD SWAP1 POP PUSH8 0xFFFFFFFFFFFFFFFF DUP2 GT ISZERO PUSH2 0x11FC JUMPI PUSH2 0x11FB PUSH2 0x2E20 JUMP JUMPDEST JUMPDEST PUSH1 0x40 MLOAD SWAP1 DUP1 DUP3 MSTORE DUP1 PUSH1 0x20 MUL PUSH1 0x20 ADD DUP3 ADD PUSH1 0x40 MSTORE DUP1 ISZERO PUSH2 0x122A JUMPI DUP2 PUSH1 0x20 ADD PUSH1 0x20 DUP3 MUL DUP1 CALLDATASIZE DUP4 CALLDATACOPY DUP1 DUP3 ADD SWAP2 POP POP SWAP1 POP JUMPDEST POP SWAP1 POP PUSH1 0x0 PUSH1 0x3 DUP1 SLOAD SWAP1 POP PUSH8 0xFFFFFFFFFFFFFFFF DUP2 GT ISZERO PUSH2 0x124E JUMPI PUSH2 0x124D PUSH2 0x2E20 JUMP JUMPDEST JUMPDEST PUSH1 0x40 MLOAD SWAP1 DUP1 DUP3 MSTORE DUP1 PUSH1 0x20 MUL PUSH1 0x20 ADD DUP3 ADD PUSH1 0x40 MSTORE DUP1 ISZERO PUSH2 0x1281 JUMPI DUP2 PUSH1 0x20 ADD JUMPDEST PUSH1 0x60 DUP2 MSTORE PUSH1 0x20 ADD SWAP1 PUSH1 0x1 SWAP1 SUB SWAP1 DUP2 PUSH2 0x126C JUMPI SWAP1 POP JUMPDEST POP SWAP1 POP PUSH1 0x0 JUMPDEST PUSH1 0x3 DUP1 SLOAD SWAP1 POP DUP2 LT ISZERO PUSH2 0x145A JUMPI PUSH1 0x3 DUP2 DUP2 SLOAD DUP2 LT PUSH2 0x12A8 JUMPI PUSH2 0x12A7 PUSH2 0x47C2 JUMP JUMPDEST JUMPDEST SWAP1 PUSH1 0x0 MSTORE PUSH1 0x20 PUSH1 0x0 KECCAK256 ADD PUSH1 0x0 SWAP1 SLOAD SWAP1 PUSH2 0x100 EXP SWAP1 DIV PUSH20 0xFFFFFFFFFFFFFFFFFFFFFFFFFFFFFFFFFFFFFFFF AND DUP4 DUP3 DUP2 MLOAD DUP2 LT PUSH2 0x12E6 JUMPI PUSH2 0x12E5 PUSH2 0x47C2 JUMP JUMPDEST JUMPDEST PUSH1 0x20 MUL PUSH1 0x20 ADD ADD SWAP1 PUSH20 0xFFFFFFFFFFFFFFFFFFFFFFFFFFFFFFFFFFFFFFFF AND SWAP1 DUP2 PUSH20 0xFFFFFFFFFFFFFFFFFFFFFFFFFFFFFFFFFFFFFFFF AND DUP2 MSTORE POP POP PUSH1 0x2 PUSH1 0x0 PUSH1 0x3 DUP4 DUP2 SLOAD DUP2 LT PUSH2 0x1338 JUMPI PUSH2 0x1337 PUSH2 0x47C2 JUMP JUMPDEST JUMPDEST SWAP1 PUSH1 0x0 MSTORE PUSH1 0x20 PUSH1 0x0 KECCAK256 ADD PUSH1 0x0 SWAP1 SLOAD SWAP1 PUSH2 0x100 EXP SWAP1 DIV PUSH20 0xFFFFFFFFFFFFFFFFFFFFFFFFFFFFFFFFFFFFFFFF AND PUSH20 0xFFFFFFFFFFFFFFFFFFFFFFFFFFFFFFFFFFFFFFFF AND PUSH20 0xFFFFFFFFFFFFFFFFFFFFFFFFFFFFFFFFFFFFFFFF AND DUP2 MSTORE PUSH1 0x20 ADD SWAP1 DUP2 MSTORE PUSH1 0x20 ADD PUSH1 0x0 KECCAK256 PUSH1 0x0 ADD DUP1 SLOAD PUSH2 0x13AB SWAP1 PUSH2 0x400F JUMP JUMPDEST DUP1 PUSH1 0x1F ADD PUSH1 0x20 DUP1 SWAP2 DIV MUL PUSH1 0x20 ADD PUSH1 0x40 MLOAD SWAP1 DUP2 ADD PUSH1 0x40 MSTORE DUP1 SWAP3 SWAP2 SWAP1 DUP2 DUP2 MSTORE PUSH1 0x20 ADD DUP3 DUP1 SLOAD PUSH2 0x13D7 SWAP1 PUSH2 0x400F JUMP JUMPDEST DUP1 ISZERO PUSH2 0x1424 JUMPI DUP1 PUSH1 0x1F LT PUSH2 0x13F9 JUMPI PUSH2 0x100 DUP1 DUP4 SLOAD DIV MUL DUP4 MSTORE SWAP2 PUSH1 0x20 ADD SWAP2 PUSH2 0x1424 JUMP JUMPDEST DUP3 ADD SWAP2 SWAP1 PUSH1 0x0 MSTORE PUSH1 0x20 PUSH1 0x0 KECCAK256 SWAP1 JUMPDEST DUP2 SLOAD DUP2 MSTORE SWAP1 PUSH1 0x1 ADD SWAP1 PUSH1 0x20 ADD DUP1 DUP4 GT PUSH2 0x1407 JUMPI DUP3 SWAP1 SUB PUSH1 0x1F AND DUP3 ADD SWAP2 JUMPDEST POP POP POP POP POP DUP3 DUP3 DUP2 MLOAD DUP2 LT PUSH2 0x143C JUMPI PUSH2 0x143B PUSH2 0x47C2 JUMP JUMPDEST JUMPDEST PUSH1 0x20 MUL PUSH1 0x20 ADD ADD DUP2 SWAP1 MSTORE POP DUP1 DUP1 PUSH2 0x1452 SWAP1 PUSH2 0x477A JUMP JUMPDEST SWAP2 POP POP PUSH2 0x1287 JUMP JUMPDEST POP DUP2 DUP2 SWAP4 POP SWAP4 POP POP POP SWAP1 SWAP2 JUMP JUMPDEST PUSH1 0x4 PUSH1 0x0 CALLER PUSH20 0xFFFFFFFFFFFFFFFFFFFFFFFFFFFFFFFFFFFFFFFF AND PUSH20 0xFFFFFFFFFFFFFFFFFFFFFFFFFFFFFFFFFFFFFFFF AND DUP2 MSTORE PUSH1 0x20 ADD SWAP1 DUP2 MSTORE PUSH1 0x20 ADD PUSH1 0x0 KECCAK256 PUSH1 0x1 ADD PUSH1 0x0 SWAP1 SLOAD SWAP1 PUSH2 0x100 EXP SWAP1 DIV PUSH1 0xFF AND DUP1 ISZERO PUSH2 0x150F JUMPI POP PUSH1 0x4 PUSH1 0x0 CALLER PUSH20 0xFFFFFFFFFFFFFFFFFFFFFFFFFFFFFFFFFFFFFFFF AND PUSH20 0xFFFFFFFFFFFFFFFFFFFFFFFFFFFFFFFFFFFFFFFF AND DUP2 MSTORE PUSH1 0x20 ADD SWAP1 DUP2 MSTORE PUSH1 0x20 ADD PUSH1 0x0 KECCAK256 PUSH1 0x1 ADD PUSH1 0x1 SWAP1 SLOAD SWAP1 PUSH2 0x100 EXP SWAP1 DIV PUSH1 0xFF AND JUMPDEST PUSH2 0x154E JUMPI PUSH1 0x40 MLOAD PUSH32 0x8C379A000000000000000000000000000000000000000000000000000000000 DUP2 MSTORE PUSH1 0x4 ADD PUSH2 0x1545 SWAP1 PUSH2 0x483D JUMP JUMPDEST PUSH1 0x40 MLOAD DUP1 SWAP2 SUB SWAP1 REVERT JUMPDEST DUP4 PUSH1 0x0 DUP2 GT DUP1 ISZERO PUSH2 0x1561 JUMPI POP PUSH1 0x1 SLOAD DUP2 GT ISZERO JUMPDEST PUSH2 0x15A0 JUMPI PUSH1 0x40 MLOAD PUSH32 0x8C379A000000000000000000000000000000000000000000000000000000000 DUP2 MSTORE PUSH1 0x4 ADD PUSH2 0x1597 SWAP1 PUSH2 0x4437 JUMP JUMPDEST PUSH1 0x40 MLOAD DUP1 SWAP2 SUB SWAP1 REVERT JUMPDEST DUP2 MLOAD DUP4 MLOAD EQ PUSH2 0x15E4 JUMPI PUSH1 0x40 MLOAD PUSH32 0x8C379A000000000000000000000000000000000000000000000000000000000 DUP2 MSTORE PUSH1 0x4 ADD PUSH2 0x15DB SWAP1 PUSH2 0x48A9 JUMP JUMPDEST PUSH1 0x40 MLOAD DUP1 SWAP2 SUB SWAP1 REVERT JUMPDEST TIMESTAMP DUP5 GT PUSH2 0x1626 JUMPI PUSH1 0x40 MLOAD PUSH32 0x8C379A000000000000000000000000000000000000000000000000000000000 DUP2 MSTORE PUSH1 0x4 ADD PUSH2 0x161D SWAP1 PUSH2 0x4915 JUMP JUMPDEST PUSH1 0x40 MLOAD DUP1 SWAP2 SUB SWAP1 REVERT JUMPDEST PUSH1 0x0 DUP1 PUSH1 0x0 DUP8 DUP2 MSTORE PUSH1 0x20 ADD SWAP1 DUP2 MSTORE PUSH1 0x20 ADD PUSH1 0x0 KECCAK256 SWAP1 POP DUP1 PUSH1 0x6 ADD PUSH1 0x0 SWAP1 SLOAD SWAP1 PUSH2 0x100 EXP SWAP1 DIV PUSH1 0xFF AND ISZERO PUSH2 0x168E JUMPI PUSH1 0x40 MLOAD PUSH32 0x8C379A000000000000000000000000000000000000000000000000000000000 DUP2 MSTORE PUSH1 0x4 ADD PUSH2 0x1685 SWAP1 PUSH2 0x4981 JUMP JUMPDEST PUSH1 0x40 MLOAD DUP1 SWAP2 SUB SWAP1 REVERT JUMPDEST PUSH1 0x0 JUMPDEST DUP5 MLOAD DUP2 LT ISZERO PUSH2 0x186B JUMPI PUSH1 0x2 PUSH1 0x0 DUP7 DUP4 DUP2 MLOAD DUP2 LT PUSH2 0x16B1 JUMPI PUSH2 0x16B0 PUSH2 0x47C2 JUMP JUMPDEST JUMPDEST PUSH1 0x20 MUL PUSH1 0x20 ADD ADD MLOAD PUSH20 0xFFFFFFFFFFFFFFFFFFFFFFFFFFFFFFFFFFFFFFFF AND PUSH20 0xFFFFFFFFFFFFFFFFFFFFFFFFFFFFFFFFFFFFFFFF AND DUP2 MSTORE PUSH1 0x20 ADD SWAP1 DUP2 MSTORE PUSH1 0x20 ADD PUSH1 0x0 KECCAK256 PUSH1 0x2 ADD PUSH1 0x0 SWAP1 SLOAD SWAP1 PUSH2 0x100 EXP SWAP1 DIV PUSH1 0xFF AND PUSH2 0x1743 JUMPI PUSH1 0x40 MLOAD PUSH32 0x8C379A000000000000000000000000000000000000000000000000000000000 DUP2 MSTORE PUSH1 0x4 ADD PUSH2 0x173A SWAP1 PUSH2 0x49ED JUMP JUMPDEST PUSH1 0x40 MLOAD DUP1 SWAP2 SUB SWAP1 REVERT JUMPDEST DUP4 DUP2 DUP2 MLOAD DUP2 LT PUSH2 0x1756 JUMPI PUSH2 0x1755 PUSH2 0x47C2 JUMP JUMPDEST JUMPDEST PUSH1 0x20 MUL PUSH1 0x20 ADD ADD MLOAD PUSH1 0x6 PUSH1 0x0 DUP10 DUP2 MSTORE PUSH1 0x20 ADD SWAP1 DUP2 MSTORE PUSH1 0x20 ADD PUSH1 0x0 KECCAK256 PUSH1 0x0 DUP8 DUP5 DUP2 MLOAD DUP2 LT PUSH2 0x1786 JUMPI PUSH2 0x1785 PUSH2 0x47C2 JUMP JUMPDEST JUMPDEST PUSH1 0x20 MUL PUSH1 0x20 ADD ADD MLOAD PUSH20 0xFFFFFFFFFFFFFFFFFFFFFFFFFFFFFFFFFFFFFFFF AND PUSH20 0xFFFFFFFFFFFFFFFFFFFFFFFFFFFFFFFFFFFFFFFF AND DUP2 MSTORE PUSH1 0x20 ADD SWAP1 DUP2 MSTORE PUSH1 0x20 ADD PUSH1 0x0 KECCAK256 SWAP1 DUP2 PUSH2 0x17D4 SWAP2 SWAP1 PUSH2 0x41EC JUMP JUMPDEST POP PUSH1 0x1 PUSH1 0x7 PUSH1 0x0 DUP10 DUP2 MSTORE PUSH1 0x20 ADD SWAP1 DUP2 MSTORE PUSH1 0x20 ADD PUSH1 0x0 KECCAK256 PUSH1 0x0 DUP8 DUP5 DUP2 MLOAD DUP2 LT PUSH2 0x17FF JUMPI PUSH2 0x17FE PUSH2 0x47C2 JUMP JUMPDEST JUMPDEST PUSH1 0x20 MUL PUSH1 0x20 ADD ADD MLOAD PUSH20 0xFFFFFFFFFFFFFFFFFFFFFFFFFFFFFFFFFFFFFFFF AND PUSH20 0xFFFFFFFFFFFFFFFFFFFFFFFFFFFFFFFFFFFFFFFF AND DUP2 MSTORE PUSH1 0x20 ADD SWAP1 DUP2 MSTORE PUSH1 0x20 ADD PUSH1 0x0 KECCAK256 PUSH1 0x0 PUSH2 0x100 EXP DUP2 SLOAD DUP2 PUSH1 0xFF MUL NOT AND SWAP1 DUP4 ISZERO ISZERO MUL OR SWAP1 SSTORE POP DUP1 DUP1 PUSH2 0x1863 SWAP1 PUSH2 0x477A JUMP JUMPDEST SWAP2 POP POP PUSH2 0x1691 JUMP JUMPDEST POP DUP5 DUP2 PUSH1 0x5 ADD DUP2 SWAP1 SSTORE POP PUSH1 0x1 DUP2 PUSH1 0x6 ADD PUSH1 0x0 PUSH2 0x100 EXP DUP2 SLOAD DUP2 PUSH1 0xFF MUL NOT AND SWAP1 DUP4 ISZERO ISZERO MUL OR SWAP1 SSTORE POP CALLER DUP2 PUSH1 0x6 ADD PUSH1 0x2 PUSH2 0x100 EXP DUP2 SLOAD DUP2 PUSH20 0xFFFFFFFFFFFFFFFFFFFFFFFFFFFFFFFFFFFFFFFF MUL NOT AND SWAP1 DUP4 PUSH20 0xFFFFFFFFFFFFFFFFFFFFFFFFFFFFFFFFFFFFFFFF AND MUL OR SWAP1 SSTORE POP CALLER PUSH20 0xFFFFFFFFFFFFFFFFFFFFFFFFFFFFFFFFFFFFFFFF AND DUP7 PUSH32 0x3D33224841A69211485D8E455A900B8E87A0CF87D2E1DF52F1EA56EBC485D700 DUP8 PUSH1 0x40 MLOAD PUSH2 0x191C SWAP2 SWAP1 PUSH2 0x3803 JUMP JUMPDEST PUSH1 0x40 MLOAD DUP1 SWAP2 SUB SWAP1 LOG3 POP POP POP POP POP POP JUMP JUMPDEST PUSH1 0x2 PUSH1 0x20 MSTORE DUP1 PUSH1 0x0 MSTORE PUSH1 0x40 PUSH1 0x0 KECCAK256 PUSH1 0x0 SWAP2 POP SWAP1 POP DUP1 PUSH1 0x0 ADD DUP1 SLOAD PUSH2 0x194F SWAP1 PUSH2 0x400F JUMP JUMPDEST DUP1 PUSH1 0x1F ADD PUSH1 0x20 DUP1 SWAP2 DIV MUL PUSH1 0x20 ADD PUSH1 0x40 MLOAD SWAP1 DUP2 ADD PUSH1 0x40 MSTORE DUP1 SWAP3 SWAP2 SWAP1 DUP2 DUP2 MSTORE PUSH1 0x20 ADD DUP3 DUP1 SLOAD PUSH2 0x197B SWAP1 PUSH2 0x400F JUMP JUMPDEST DUP1 ISZERO PUSH2 0x19C8 JUMPI DUP1 PUSH1 0x1F LT PUSH2 0x199D JUMPI PUSH2 0x100 DUP1 DUP4 SLOAD DIV MUL DUP4 MSTORE SWAP2 PUSH1 0x20 ADD SWAP2 PUSH2 0x19C8 JUMP JUMPDEST DUP3 ADD SWAP2 SWAP1 PUSH1 0x0 MSTORE PUSH1 0x20 PUSH1 0x0 KECCAK256 SWAP1 JUMPDEST DUP2 SLOAD DUP2 MSTORE SWAP1 PUSH1 0x1 ADD SWAP1 PUSH1 0x20 ADD DUP1 DUP4 GT PUSH2 0x19AB JUMPI DUP3 SWAP1 SUB PUSH1 0x1F AND DUP3 ADD SWAP2 JUMPDEST POP POP POP POP POP SWAP1 DUP1 PUSH1 0x1 ADD DUP1 SLOAD PUSH2 0x19DD SWAP1 PUSH2 0x400F JUMP JUMPDEST DUP1 PUSH1 0x1F ADD PUSH1 0x20 DUP1 SWAP2 DIV MUL PUSH1 0x20 ADD PUSH1 0x40 MLOAD SWAP1 DUP2 ADD PUSH1 0x40 MSTORE DUP1 SWAP3 SWAP2 SWAP1 DUP2 DUP2 MSTORE PUSH1 0x20 ADD DUP3 DUP1 SLOAD PUSH2 0x1A09 SWAP1 PUSH2 0x400F JUMP JUMPDEST DUP1 ISZERO PUSH2 0x1A56 JUMPI DUP1 PUSH1 0x1F LT PUSH2 0x1A2B JUMPI PUSH2 0x100 DUP1 DUP4 SLOAD DIV MUL DUP4 MSTORE SWAP2 PUSH1 0x20 ADD SWAP2 PUSH2 0x1A56 JUMP JUMPDEST DUP3 ADD SWAP2 SWAP1 PUSH1 0x0 MSTORE PUSH1 0x20 PUSH1 0x0 KECCAK256 SWAP1 JUMPDEST DUP2 SLOAD DUP2 MSTORE SWAP1 PUSH1 0x1 ADD SWAP1 PUSH1 0x20 ADD DUP1 DUP4 GT PUSH2 0x1A39 JUMPI DUP3 SWAP1 SUB PUSH1 0x1F AND DUP3 ADD SWAP2 JUMPDEST POP POP POP POP POP SWAP1 DUP1 PUSH1 0x2 ADD PUSH1 0x0 SWAP1 SLOAD SWAP1 PUSH2 0x100 EXP SWAP1 DIV PUSH1 0xFF AND SWAP1 POP DUP4 JUMP JUMPDEST PUSH1 0x0 PUSH1 0x20 MSTORE DUP1 PUSH1 0x0 MSTORE PUSH1 0x40 PUSH1 0x0 KECCAK256 PUSH1 0x0 SWAP2 POP SWAP1 POP DUP1 PUSH1 0x0 ADD DUP1 SLOAD PUSH2 0x1A96 SWAP1 PUSH2 0x400F JUMP JUMPDEST DUP1 PUSH1 0x1F ADD PUSH1 0x20 DUP1 SWAP2 DIV MUL PUSH1 0x20 ADD PUSH1 0x40 MLOAD SWAP1 DUP2 ADD PUSH1 0x40 MSTORE DUP1 SWAP3 SWAP2 SWAP1 DUP2 DUP2 MSTORE PUSH1 0x20 ADD DUP3 DUP1 SLOAD PUSH2 0x1AC2 SWAP1 PUSH2 0x400F JUMP JUMPDEST DUP1 ISZERO PUSH2 0x1B0F JUMPI DUP1 PUSH1 0x1F LT PUSH2 0x1AE4 JUMPI PUSH2 0x100 DUP1 DUP4 SLOAD DIV MUL DUP4 MSTORE SWAP2 PUSH1 0x20 ADD SWAP2 PUSH2 0x1B0F JUMP JUMPDEST DUP3 ADD SWAP2 SWAP1 PUSH1 0x0 MSTORE PUSH1 0x20 PUSH1 0x0 KECCAK256 SWAP1 JUMPDEST DUP2 SLOAD DUP2 MSTORE SWAP1 PUSH1 0x1 ADD SWAP1 PUSH1 0x20 ADD DUP1 DUP4 GT PUSH2 0x1AF2 JUMPI DUP3 SWAP1 SUB PUSH1 0x1F AND DUP3 ADD SWAP2 JUMPDEST POP POP POP POP POP SWAP1 DUP1 PUSH1 0x1 ADD DUP1 SLOAD PUSH2 0x1B24 SWAP1 PUSH2 0x400F JUMP JUMPDEST DUP1 PUSH1 0x1F ADD PUSH1 0x20 DUP1 SWAP2 DIV MUL PUSH1 0x20 ADD PUSH1 0x40 MLOAD SWAP1 DUP2 ADD PUSH1 0x40 MSTORE DUP1 SWAP3 SWAP2 SWAP1 DUP2 DUP2 MSTORE PUSH1 0x20 ADD DUP3 DUP1 SLOAD PUSH2 0x1B50 SWAP1 PUSH2 0x400F JUMP JUMPDEST DUP1 ISZERO PUSH2 0x1B9D JUMPI DUP1 PUSH1 0x1F LT PUSH2 0x1B72 JUMPI PUSH2 0x100 DUP1 DUP4 SLOAD DIV MUL DUP4 MSTORE SWAP2 PUSH1 0x20 ADD SWAP2 PUSH2 0x1B9D JUMP JUMPDEST DUP3 ADD SWAP2 SWAP1 PUSH1 0x0 MSTORE PUSH1 0x20 PUSH1 0x0 KECCAK256 SWAP1 JUMPDEST DUP2 SLOAD DUP2 MSTORE SWAP1 PUSH1 0x1 ADD SWAP1 PUSH1 0x20 ADD DUP1 DUP4 GT PUSH2 0x1B80 JUMPI DUP3 SWAP1 SUB PUSH1 0x1F AND DUP3 ADD SWAP2 JUMPDEST POP POP POP POP POP SWAP1 DUP1 PUSH1 0x2 ADD PUSH1 0x0 SWAP1 SLOAD SWAP1 PUSH2 0x100 EXP SWAP1 DIV PUSH20 0xFFFFFFFFFFFFFFFFFFFFFFFFFFFFFFFFFFFFFFFF AND SWAP1 DUP1 PUSH1 0x4 ADD SLOAD SWAP1 DUP1 PUSH1 0x5 ADD SLOAD SWAP1 DUP1 PUSH1 0x6 ADD PUSH1 0x0 SWAP1 SLOAD SWAP1 PUSH2 0x100 EXP SWAP1 DIV PUSH1 0xFF AND SWAP1 DUP1 PUSH1 0x6 ADD PUSH1 0x1 SWAP1 SLOAD SWAP1 PUSH2 0x100 EXP SWAP1 DIV PUSH1 0xFF AND SWAP1 DUP1 PUSH1 0x6 ADD PUSH1 0x2 SWAP1 SLOAD SWAP1 PUSH2 0x100 EXP SWAP1 DIV PUSH20 0xFFFFFFFFFFFFFFFFFFFFFFFFFFFFFFFFFFFFFFFF AND SWAP1 DUP1 PUSH1 0x7 ADD DUP1 SLOAD PUSH2 0x1C30 SWAP1 PUSH2 0x400F JUMP JUMPDEST DUP1 PUSH1 0x1F ADD PUSH1 0x20 DUP1 SWAP2 DIV MUL PUSH1 0x20 ADD PUSH1 0x40 MLOAD SWAP1 DUP2 ADD PUSH1 0x40 MSTORE DUP1 SWAP3 SWAP2 SWAP1 DUP2 DUP2 MSTORE PUSH1 0x20 ADD DUP3 DUP1 SLOAD PUSH2 0x1C5C SWAP1 PUSH2 0x400F JUMP JUMPDEST DUP1 ISZERO PUSH2 0x1CA9 JUMPI DUP1 PUSH1 0x1F LT PUSH2 0x1C7E JUMPI PUSH2 0x100 DUP1 DUP4 SLOAD DIV MUL DUP4 MSTORE SWAP2 PUSH1 0x20 ADD SWAP2 PUSH2 0x1CA9 JUMP JUMPDEST DUP3 ADD SWAP2 SWAP1 PUSH1 0x0 MSTORE PUSH1 0x20 PUSH1 0x0 KECCAK256 SWAP1 JUMPDEST DUP2 SLOAD DUP2 MSTORE SWAP1 PUSH1 0x1 ADD SWAP1 PUSH1 0x20 ADD DUP1 DUP4 GT PUSH2 0x1C8C JUMPI DUP3 SWAP1 SUB PUSH1 0x1F AND DUP3 ADD SWAP2 JUMPDEST POP POP POP POP POP SWAP1 DUP1 PUSH1 0x9 ADD PUSH1 0x0 SWAP1 SLOAD SWAP1 PUSH2 0x100 EXP SWAP1 DIV PUSH1 0xFF AND SWAP1 POP DUP11 JUMP JUMPDEST PUSH1 0x4 PUSH1 0x20 MSTORE DUP1 PUSH1 0x0 MSTORE PUSH1 0x40 PUSH1 0x0 KECCAK256 PUSH1 0x0 SWAP2 POP SWAP1 POP DUP1 PUSH1 0x0 ADD DUP1 SLOAD PUSH2 0x1CE9 SWAP1 PUSH2 0x400F JUMP JUMPDEST DUP1 PUSH1 0x1F ADD PUSH1 0x20 DUP1 SWAP2 DIV MUL PUSH1 0x20 ADD PUSH1 0x40 MLOAD SWAP1 DUP2 ADD PUSH1 0x40 MSTORE DUP1 SWAP3 SWAP2 SWAP1 DUP2 DUP2 MSTORE PUSH1 0x20 ADD DUP3 DUP1 SLOAD PUSH2 0x1D15 SWAP1 PUSH2 0x400F JUMP JUMPDEST DUP1 ISZERO PUSH2 0x1D62 JUMPI DUP1 PUSH1 0x1F LT PUSH2 0x1D37 JUMPI PUSH2 0x100 DUP1 DUP4 SLOAD DIV MUL DUP4 MSTORE SWAP2 PUSH1 0x20 ADD SWAP2 PUSH2 0x1D62 JUMP JUMPDEST DUP3 ADD SWAP2 SWAP1 PUSH1 0x0 MSTORE PUSH1 0x20 PUSH1 0x0 KECCAK256 SWAP1 JUMPDEST DUP2 SLOAD DUP2 MSTORE SWAP1 PUSH1 0x1 ADD SWAP1 PUSH1 0x20 ADD DUP1 DUP4 GT PUSH2 0x1D45 JUMPI DUP3 SWAP1 SUB PUSH1 0x1F AND DUP3 ADD SWAP2 JUMPDEST POP POP POP POP POP SWAP1 DUP1 PUSH1 0x1 ADD PUSH1 0x0 SWAP1 SLOAD SWAP1 PUSH2 0x100 EXP SWAP1 DIV PUSH1 0xFF AND SWAP1 DUP1 PUSH1 0x1 ADD PUSH1 0x1 SWAP1 SLOAD SWAP1 PUSH2 0x100 EXP SWAP1 DIV PUSH1 0xFF AND SWAP1 POP DUP4 JUMP JUMPDEST PUSH1 0x0 DUP3 PUSH1 0x0 DUP2 GT DUP1 ISZERO PUSH2 0x1DA7 JUMPI POP PUSH1 0x1 SLOAD DUP2 GT ISZERO JUMPDEST PUSH2 0x1DE6 JUMPI PUSH1 0x40 MLOAD PUSH32 0x8C379A000000000000000000000000000000000000000000000000000000000 DUP2 MSTORE PUSH1 0x4 ADD PUSH2 0x1DDD SWAP1 PUSH2 0x4437 JUMP JUMPDEST PUSH1 0x40 MLOAD DUP1 SWAP2 SUB SWAP1 REVERT JUMPDEST PUSH1 0x7 PUSH1 0x0 DUP6 DUP2 MSTORE PUSH1 0x20 ADD SWAP1 DUP2 MSTORE PUSH1 0x20 ADD PUSH1 0x0 KECCAK256 PUSH1 0x0 DUP5 PUSH20 0xFFFFFFFFFFFFFFFFFFFFFFFFFFFFFFFFFFFFFFFF AND PUSH20 0xFFFFFFFFFFFFFFFFFFFFFFFFFFFFFFFFFFFFFFFF AND DUP2 MSTORE PUSH1 0x20 ADD SWAP1 DUP2 MSTORE PUSH1 0x20 ADD PUSH1 0x0 KECCAK256 PUSH1 0x0 SWAP1 SLOAD SWAP1 PUSH2 0x100 EXP SWAP1 DIV PUSH1 0xFF AND SWAP2 POP POP SWAP3 SWAP2 POP POP JUMP JUMPDEST PUSH1 0x3 DUP2 DUP2 SLOAD DUP2 LT PUSH2 0x1E5D JUMPI PUSH1 0x0 DUP1 REVERT JUMPDEST SWAP1 PUSH1 0x0 MSTORE PUSH1 0x20 PUSH1 0x0 KECCAK256 ADD PUSH1 0x0 SWAP2 POP SLOAD SWAP1 PUSH2 0x100 EXP SWAP1 DIV PUSH20 0xFFFFFFFFFFFFFFFFFFFFFFFFFFFFFFFFFFFFFFFF AND DUP2 JUMP JUMPDEST PUSH1 0x1 SLOAD DUP2 JUMP JUMPDEST PUSH1 0x4 PUSH1 0x0 CALLER PUSH20 0xFFFFFFFFFFFFFFFFFFFFFFFFFFFFFFFFFFFFFFFF AND PUSH20 0xFFFFFFFFFFFFFFFFFFFFFFFFFFFFFFFFFFFFFFFF AND DUP2 MSTORE PUSH1 0x20 ADD SWAP1 DUP2 MSTORE PUSH1 0x20 ADD PUSH1 0x0 KECCAK256 PUSH1 0x1 ADD PUSH1 0x0 SWAP1 SLOAD SWAP1 PUSH2 0x100 EXP SWAP1 DIV PUSH1 0xFF AND PUSH2 0x1F4A JUMPI PUSH1 0x5 CALLER SWAP1 DUP1 PUSH1 0x1 DUP2 SLOAD ADD DUP1 DUP3 SSTORE DUP1 SWAP2 POP POP PUSH1 0x1 SWAP1 SUB SWAP1 PUSH1 0x0 MSTORE PUSH1 0x20 PUSH1 0x0 KECCAK256 ADD PUSH1 0x0 SWAP1 SWAP2 SWAP1 SWAP2 SWAP1 SWAP2 PUSH2 0x100 EXP DUP2 SLOAD DUP2 PUSH20 0xFFFFFFFFFFFFFFFFFFFFFFFFFFFFFFFFFFFFFFFF MUL NOT AND SWAP1 DUP4 PUSH20 0xFFFFFFFFFFFFFFFFFFFFFFFFFFFFFFFFFFFFFFFF AND MUL OR SWAP1 SSTORE POP JUMPDEST PUSH1 0x40 MLOAD DUP1 PUSH1 0x60 ADD PUSH1 0x40 MSTORE DUP1 DUP3 DUP2 MSTORE PUSH1 0x20 ADD PUSH1 0x1 ISZERO ISZERO DUP2 MSTORE PUSH1 0x20 ADD PUSH1 0x1 ISZERO ISZERO DUP2 MSTORE POP PUSH1 0x4 PUSH1 0x0 CALLER PUSH20 0xFFFFFFFFFFFFFFFFFFFFFFFFFFFFFFFFFFFFFFFF AND PUSH20 0xFFFFFFFFFFFFFFFFFFFFFFFFFFFFFFFFFFFFFFFF AND DUP2 MSTORE PUSH1 0x20 ADD SWAP1 DUP2 MSTORE PUSH1 0x20 ADD PUSH1 0x0 KECCAK256 PUSH1 0x0 DUP3 ADD MLOAD DUP2 PUSH1 0x0 ADD SWAP1 DUP2 PUSH2 0x1FBF SWAP2 SWAP1 PUSH2 0x41EC JUMP JUMPDEST POP PUSH1 0x20 DUP3 ADD MLOAD DUP2 PUSH1 0x1 ADD PUSH1 0x0 PUSH2 0x100 EXP DUP2 SLOAD DUP2 PUSH1 0xFF MUL NOT AND SWAP1 DUP4 ISZERO ISZERO MUL OR SWAP1 SSTORE POP PUSH1 0x40 DUP3 ADD MLOAD DUP2 PUSH1 0x1 ADD PUSH1 0x1 PUSH2 0x100 EXP DUP2 SLOAD DUP2 PUSH1 0xFF MUL NOT AND SWAP1 DUP4 ISZERO ISZERO MUL OR SWAP1 SSTORE POP SWAP1 POP POP CALLER PUSH20 0xFFFFFFFFFFFFFFFFFFFFFFFFFFFFFFFFFFFFFFFF AND PUSH32 0x8B3AB3AC57020B92E516B703BB37E5B4D0B12CC6C39D69288F9380BE3F19DCBE DUP3 PUSH1 0x40 MLOAD PUSH2 0x2049 SWAP2 SWAP1 PUSH2 0x3E1B JUMP JUMPDEST PUSH1 0x40 MLOAD DUP1 SWAP2 SUB SWAP1 LOG2 POP JUMP JUMPDEST PUSH1 0x60 DUP2 PUSH1 0x0 DUP2 GT DUP1 ISZERO PUSH2 0x2069 JUMPI POP PUSH1 0x1 SLOAD DUP2 GT ISZERO JUMPDEST PUSH2 0x20A8 JUMPI PUSH1 0x40 MLOAD PUSH32 0x8C379A000000000000000000000000000000000000000000000000000000000 DUP2 MSTORE PUSH1 0x4 ADD PUSH2 0x209F SWAP1 PUSH2 0x4437 JUMP JUMPDEST PUSH1 0x40 MLOAD DUP1 SWAP2 SUB SWAP1 REVERT JUMPDEST PUSH1 0x7 PUSH1 0x0 DUP5 DUP2 MSTORE PUSH1 0x20 ADD SWAP1 DUP2 MSTORE PUSH1 0x20 ADD PUSH1 0x0 KECCAK256 PUSH1 0x0 CALLER PUSH20 0xFFFFFFFFFFFFFFFFFFFFFFFFFFFFFFFFFFFFFFFF AND PUSH20 0xFFFFFFFFFFFFFFFFFFFFFFFFFFFFFFFFFFFFFFFF AND DUP2 MSTORE PUSH1 0x20 ADD SWAP1 DUP2 MSTORE PUSH1 0x20 ADD PUSH1 0x0 KECCAK256 PUSH1 0x0 SWAP1 SLOAD SWAP1 PUSH2 0x100 EXP SWAP1 DIV PUSH1 0xFF AND PUSH2 0x2145 JUMPI PUSH1 0x40 MLOAD PUSH32 0x8C379A000000000000000000000000000000000000000000000000000000000 DUP2 MSTORE PUSH1 0x4 ADD PUSH2 0x213C SWAP1 PUSH2 0x4A59 JUMP JUMPDEST PUSH1 0x40 MLOAD DUP1 SWAP2 SUB SWAP1 REVERT JUMPDEST PUSH1 0x6 PUSH1 0x0 DUP5 DUP2 MSTORE PUSH1 0x20 ADD SWAP1 DUP2 MSTORE PUSH1 0x20 ADD PUSH1 0x0 KECCAK256 PUSH1 0x0 CALLER PUSH20 0xFFFFFFFFFFFFFFFFFFFFFFFFFFFFFFFFFFFFFFFF AND PUSH20 0xFFFFFFFFFFFFFFFFFFFFFFFFFFFFFFFFFFFFFFFF AND DUP2 MSTORE PUSH1 0x20 ADD SWAP1 DUP2 MSTORE PUSH1 0x20 ADD PUSH1 0x0 KECCAK256 DUP1 SLOAD PUSH2 0x21A0 SWAP1 PUSH2 0x400F JUMP JUMPDEST DUP1 PUSH1 0x1F ADD PUSH1 0x20 DUP1 SWAP2 DIV MUL PUSH1 0x20 ADD PUSH1 0x40 MLOAD SWAP1 DUP2 ADD PUSH1 0x40 MSTORE DUP1 SWAP3 SWAP2 SWAP1 DUP2 DUP2 MSTORE PUSH1 0x20 ADD DUP3 DUP1 SLOAD PUSH2 0x21CC SWAP1 PUSH2 0x400F JUMP JUMPDEST DUP1 ISZERO PUSH2 0x2219 JUMPI DUP1 PUSH1 0x1F LT PUSH2 0x21EE JUMPI PUSH2 0x100 DUP1 DUP4 SLOAD DIV MUL DUP4 MSTORE SWAP2 PUSH1 0x20 ADD SWAP2 PUSH2 0x2219 JUMP JUMPDEST DUP3 ADD SWAP2 SWAP1 PUSH1 0x0 MSTORE PUSH1 0x20 PUSH1 0x0 KECCAK256 SWAP1 JUMPDEST DUP2 SLOAD DUP2 MSTORE SWAP1 PUSH1 0x1 ADD SWAP1 PUSH1 0x20 ADD DUP1 DUP4 GT PUSH2 0x21FC JUMPI DUP3 SWAP1 SUB PUSH1 0x1F AND DUP3 ADD SWAP2 JUMPDEST POP POP POP POP POP SWAP2 POP POP SWAP2 SWAP1 POP JUMP JUMPDEST PUSH1 0x5 DUP2 DUP2 SLOAD DUP2 LT PUSH2 0x2236 JUMPI PUSH1 0x0 DUP1 REVERT JUMPDEST SWAP1 PUSH1 0x0 MSTORE PUSH1 0x20 PUSH1 0x0 KECCAK256 ADD PUSH1 0x0 SWAP2 POP SLOAD SWAP1 PUSH2 0x100 EXP SWAP1 DIV PUSH20 0xFFFFFFFFFFFFFFFFFFFFFFFFFFFFFFFFFFFFFFFF AND DUP2 JUMP JUMPDEST PUSH1 0x6 PUSH1 0x20 MSTORE DUP2 PUSH1 0x0 MSTORE PUSH1 0x40 PUSH1 0x0 KECCAK256 PUSH1 0x20 MSTORE DUP1 PUSH1 0x0 MSTORE PUSH1 0x40 PUSH1 0x0 KECCAK256 PUSH1 0x0 SWAP2 POP SWAP2 POP POP DUP1 SLOAD PUSH2 0x2291 SWAP1 PUSH2 0x400F JUMP JUMPDEST DUP1 PUSH1 0x1F ADD PUSH1 0x20 DUP1 SWAP2 DIV MUL PUSH1 0x20 ADD PUSH1 0x40 MLOAD SWAP1 DUP2 ADD PUSH1 0x40 MSTORE DUP1 SWAP3 SWAP2 SWAP1 DUP2 DUP2 MSTORE PUSH1 0x20 ADD DUP3 DUP1 SLOAD PUSH2 0x22BD SWAP1 PUSH2 0x400F JUMP JUMPDEST DUP1 ISZERO PUSH2 0x230A JUMPI DUP1 PUSH1 0x1F LT PUSH2 0x22DF JUMPI PUSH2 0x100 DUP1 DUP4 SLOAD DIV MUL DUP4 MSTORE SWAP2 PUSH1 0x20 ADD SWAP2 PUSH2 0x230A JUMP JUMPDEST DUP3 ADD SWAP2 SWAP1 PUSH1 0x0 MSTORE PUSH1 0x20 PUSH1 0x0 KECCAK256 SWAP1 JUMPDEST DUP2 SLOAD DUP2 MSTORE SWAP1 PUSH1 0x1 ADD SWAP1 PUSH1 0x20 ADD DUP1 DUP4 GT PUSH2 0x22ED JUMPI DUP3 SWAP1 SUB PUSH1 0x1F AND DUP3 ADD SWAP2 JUMPDEST POP POP POP POP POP DUP2 JUMP JUMPDEST PUSH1 0x60 DUP1 PUSH1 0x0 DUP4 PUSH1 0x0 DUP2 GT DUP1 ISZERO PUSH2 0x232A JUMPI POP PUSH1 0x1 SLOAD DUP2 GT ISZERO JUMPDEST PUSH2 0x2369 JUMPI PUSH1 0x40 MLOAD PUSH32 0x8C379A000000000000000000000000000000000000000000000000000000000 DUP2 MSTORE PUSH1 0x4 ADD PUSH2 0x2360 SWAP1 PUSH2 0x4437 JUMP JUMPDEST PUSH1 0x40 MLOAD DUP1 SWAP2 SUB SWAP1 REVERT JUMPDEST PUSH1 0x0 DUP1 PUSH1 0x0 DUP8 DUP2 MSTORE PUSH1 0x20 ADD SWAP1 DUP2 MSTORE PUSH1 0x20 ADD PUSH1 0x0 KECCAK256 PUSH1 0x40 MLOAD DUP1 PUSH2 0x180 ADD PUSH1 0x40 MSTORE SWAP1 DUP2 PUSH1 0x0 DUP3 ADD DUP1 SLOAD PUSH2 0x2399 SWAP1 PUSH2 0x400F JUMP JUMPDEST DUP1 PUSH1 0x1F ADD PUSH1 0x20 DUP1 SWAP2 DIV MUL PUSH1 0x20 ADD PUSH1 0x40 MLOAD SWAP1 DUP2 ADD PUSH1 0x40 MSTORE DUP1 SWAP3 SWAP2 SWAP1 DUP2 DUP2 MSTORE PUSH1 0x20 ADD DUP3 DUP1 SLOAD PUSH2 0x23C5 SWAP1 PUSH2 0x400F JUMP JUMPDEST DUP1 ISZERO PUSH2 0x2412 JUMPI DUP1 PUSH1 0x1F LT PUSH2 0x23E7 JUMPI PUSH2 0x100 DUP1 DUP4 SLOAD DIV MUL DUP4 MSTORE SWAP2 PUSH1 0x20 ADD SWAP2 PUSH2 0x2412 JUMP JUMPDEST DUP3 ADD SWAP2 SWAP1 PUSH1 0x0 MSTORE PUSH1 0x20 PUSH1 0x0 KECCAK256 SWAP1 JUMPDEST DUP2 SLOAD DUP2 MSTORE SWAP1 PUSH1 0x1 ADD SWAP1 PUSH1 0x20 ADD DUP1 DUP4 GT PUSH2 0x23F5 JUMPI DUP3 SWAP1 SUB PUSH1 0x1F AND DUP3 ADD SWAP2 JUMPDEST POP POP POP POP POP DUP2 MSTORE PUSH1 0x20 ADD PUSH1 0x1 DUP3 ADD DUP1 SLOAD PUSH2 0x242B SWAP1 PUSH2 0x400F JUMP JUMPDEST DUP1 PUSH1 0x1F ADD PUSH1 0x20 DUP1 SWAP2 DIV MUL PUSH1 0x20 ADD PUSH1 0x40 MLOAD SWAP1 DUP2 ADD PUSH1 0x40 MSTORE DUP1 SWAP3 SWAP2 SWAP1 DUP2 DUP2 MSTORE PUSH1 0x20 ADD DUP3 DUP1 SLOAD PUSH2 0x2457 SWAP1 PUSH2 0x400F JUMP JUMPDEST DUP1 ISZERO PUSH2 0x24A4 JUMPI DUP1 PUSH1 0x1F LT PUSH2 0x2479 JUMPI PUSH2 0x100 DUP1 DUP4 SLOAD DIV MUL DUP4 MSTORE SWAP2 PUSH1 0x20 ADD SWAP2 PUSH2 0x24A4 JUMP JUMPDEST DUP3 ADD SWAP2 SWAP1 PUSH1 0x0 MSTORE PUSH1 0x20 PUSH1 0x0 KECCAK256 SWAP1 JUMPDEST DUP2 SLOAD DUP2 MSTORE SWAP1 PUSH1 0x1 ADD SWAP1 PUSH1 0x20 ADD DUP1 DUP4 GT PUSH2 0x2487 JUMPI DUP3 SWAP1 SUB PUSH1 0x1F AND DUP3 ADD SWAP2 JUMPDEST POP POP POP POP POP DUP2 MSTORE PUSH1 0x20 ADD PUSH1 0x2 DUP3 ADD PUSH1 0x0 SWAP1 SLOAD SWAP1 PUSH2 0x100 EXP SWAP1 DIV PUSH20 0xFFFFFFFFFFFFFFFFFFFFFFFFFFFFFFFFFFFFFFFF AND PUSH20 0xFFFFFFFFFFFFFFFFFFFFFFFFFFFFFFFFFFFFFFFF AND PUSH20 0xFFFFFFFFFFFFFFFFFFFFFFFFFFFFFFFFFFFFFFFF AND DUP2 MSTORE PUSH1 0x20 ADD PUSH1 0x3 DUP3 ADD DUP1 SLOAD DUP1 PUSH1 0x20 MUL PUSH1 0x20 ADD PUSH1 0x40 MLOAD SWAP1 DUP2 ADD PUSH1 0x40 MSTORE DUP1 SWAP3 SWAP2 SWAP1 DUP2 DUP2 MSTORE PUSH1 0x20 ADD PUSH1 0x0 SWAP1 JUMPDEST DUP3 DUP3 LT ISZERO PUSH2 0x25D4 JUMPI DUP4 DUP3 SWAP1 PUSH1 0x0 MSTORE PUSH1 0x20 PUSH1 0x0 KECCAK256 ADD DUP1 SLOAD PUSH2 0x2547 SWAP1 PUSH2 0x400F JUMP JUMPDEST DUP1 PUSH1 0x1F ADD PUSH1 0x20 DUP1 SWAP2 DIV MUL PUSH1 0x20 ADD PUSH1 0x40 MLOAD SWAP1 DUP2 ADD PUSH1 0x40 MSTORE DUP1 SWAP3 SWAP2 SWAP1 DUP2 DUP2 MSTORE PUSH1 0x20 ADD DUP3 DUP1 SLOAD PUSH2 0x2573 SWAP1 PUSH2 0x400F JUMP JUMPDEST DUP1 ISZERO PUSH2 0x25C0 JUMPI DUP1 PUSH1 0x1F LT PUSH2 0x2595 JUMPI PUSH2 0x100 DUP1 DUP4 SLOAD DIV MUL DUP4 MSTORE SWAP2 PUSH1 0x20 ADD SWAP2 PUSH2 0x25C0 JUMP JUMPDEST DUP3 ADD SWAP2 SWAP1 PUSH1 0x0 MSTORE PUSH1 0x20 PUSH1 0x0 KECCAK256 SWAP1 JUMPDEST DUP2 SLOAD DUP2 MSTORE SWAP1 PUSH1 0x1 ADD SWAP1 PUSH1 0x20 ADD DUP1 DUP4 GT PUSH2 0x25A3 JUMPI DUP3 SWAP1 SUB PUSH1 0x1F AND DUP3 ADD SWAP2 JUMPDEST POP POP POP POP POP DUP2 MSTORE PUSH1 0x20 ADD SWAP1 PUSH1 0x1 ADD SWAP1 PUSH2 0x2528 JUMP JUMPDEST POP POP POP POP DUP2 MSTORE PUSH1 0x20 ADD PUSH1 0x4 DUP3 ADD SLOAD DUP2 MSTORE PUSH1 0x20 ADD PUSH1 0x5 DUP3 ADD SLOAD DUP2 MSTORE PUSH1 0x20 ADD PUSH1 0x6 DUP3 ADD PUSH1 0x0 SWAP1 SLOAD SWAP1 PUSH2 0x100 EXP SWAP1 DIV PUSH1 0xFF AND ISZERO ISZERO ISZERO ISZERO DUP2 MSTORE PUSH1 0x20 ADD PUSH1 0x6 DUP3 ADD PUSH1 0x1 SWAP1 SLOAD SWAP1 PUSH2 0x100 EXP SWAP1 DIV PUSH1 0xFF AND ISZERO ISZERO ISZERO ISZERO DUP2 MSTORE PUSH1 0x20 ADD PUSH1 0x6 DUP3 ADD PUSH1 0x2 SWAP1 SLOAD SWAP1 PUSH2 0x100 EXP SWAP1 DIV PUSH20 0xFFFFFFFFFFFFFFFFFFFFFFFFFFFFFFFFFFFFFFFF AND PUSH20 0xFFFFFFFFFFFFFFFFFFFFFFFFFFFFFFFFFFFFFFFF AND PUSH20 0xFFFFFFFFFFFFFFFFFFFFFFFFFFFFFFFFFFFFFFFF AND DUP2 MSTORE PUSH1 0x20 ADD PUSH1 0x7 DUP3 ADD DUP1 SLOAD PUSH2 0x268C SWAP1 PUSH2 0x400F JUMP JUMPDEST DUP1 PUSH1 0x1F ADD PUSH1 0x20 DUP1 SWAP2 DIV MUL PUSH1 0x20 ADD PUSH1 0x40 MLOAD SWAP1 DUP2 ADD PUSH1 0x40 MSTORE DUP1 SWAP3 SWAP2 SWAP1 DUP2 DUP2 MSTORE PUSH1 0x20 ADD DUP3 DUP1 SLOAD PUSH2 0x26B8 SWAP1 PUSH2 0x400F JUMP JUMPDEST DUP1 ISZERO PUSH2 0x2705 JUMPI DUP1 PUSH1 0x1F LT PUSH2 0x26DA JUMPI PUSH2 0x100 DUP1 DUP4 SLOAD DIV MUL DUP4 MSTORE SWAP2 PUSH1 0x20 ADD SWAP2 PUSH2 0x2705 JUMP JUMPDEST DUP3 ADD SWAP2 SWAP1 PUSH1 0x0 MSTORE PUSH1 0x20 PUSH1 0x0 KECCAK256 SWAP1 JUMPDEST DUP2 SLOAD DUP2 MSTORE SWAP1 PUSH1 0x1 ADD SWAP1 PUSH1 0x20 ADD DUP1 DUP4 GT PUSH2 0x26E8 JUMPI DUP3 SWAP1 SUB PUSH1 0x1F AND DUP3 ADD SWAP2 JUMPDEST POP POP POP POP POP DUP2 MSTORE PUSH1 0x20 ADD PUSH1 0x8 DUP3 ADD DUP1 SLOAD DUP1 PUSH1 0x20 MUL PUSH1 0x20 ADD PUSH1 0x40 MLOAD SWAP1 DUP2 ADD PUSH1 0x40 MSTORE DUP1 SWAP3 SWAP2 SWAP1 DUP2 DUP2 MSTORE PUSH1 0x20 ADD PUSH1 0x0 SWAP1 JUMPDEST DUP3 DUP3 LT ISZERO PUSH2 0x27DF JUMPI DUP4 DUP3 SWAP1 PUSH1 0x0 MSTORE PUSH1 0x20 PUSH1 0x0 KECCAK256 ADD DUP1 SLOAD PUSH2 0x2752 SWAP1 PUSH2 0x400F JUMP JUMPDEST DUP1 PUSH1 0x1F ADD PUSH1 0x20 DUP1 SWAP2 DIV MUL PUSH1 0x20 ADD PUSH1 0x40 MLOAD SWAP1 DUP2 ADD PUSH1 0x40 MSTORE DUP1 SWAP3 SWAP2 SWAP1 DUP2 DUP2 MSTORE PUSH1 0x20 ADD DUP3 DUP1 SLOAD PUSH2 0x277E SWAP1 PUSH2 0x400F JUMP JUMPDEST DUP1 ISZERO PUSH2 0x27CB JUMPI DUP1 PUSH1 0x1F LT PUSH2 0x27A0 JUMPI PUSH2 0x100 DUP1 DUP4 SLOAD DIV MUL DUP4 MSTORE SWAP2 PUSH1 0x20 ADD SWAP2 PUSH2 0x27CB JUMP JUMPDEST DUP3 ADD SWAP2 SWAP1 PUSH1 0x0 MSTORE PUSH1 0x20 PUSH1 0x0 KECCAK256 SWAP1 JUMPDEST DUP2 SLOAD DUP2 MSTORE SWAP1 PUSH1 0x1 ADD SWAP1 PUSH1 0x20 ADD DUP1 DUP4 GT PUSH2 0x27AE JUMPI DUP3 SWAP1 SUB PUSH1 0x1F AND DUP3 ADD SWAP2 JUMPDEST POP POP POP POP POP DUP2 MSTORE PUSH1 0x20 ADD SWAP1 PUSH1 0x1 ADD SWAP1 PUSH2 0x2733 JUMP JUMPDEST POP POP POP POP DUP2 MSTORE PUSH1 0x20 ADD PUSH1 0x9 DUP3 ADD PUSH1 0x0 SWAP1 SLOAD SWAP1 PUSH2 0x100 EXP SWAP1 DIV PUSH1 0xFF AND PUSH1 0xFF AND PUSH1 0xFF AND DUP2 MSTORE POP POP SWAP1 POP DUP1 PUSH1 0xE0 ADD MLOAD PUSH2 0x284A JUMPI PUSH1 0x40 MLOAD PUSH32 0x8C379A000000000000000000000000000000000000000000000000000000000 DUP2 MSTORE PUSH1 0x4 ADD PUSH2 0x2841 SWAP1 PUSH2 0x4AC5 JUMP JUMPDEST PUSH1 0x40 MLOAD DUP1 SWAP2 SUB SWAP1 REVERT JUMPDEST PUSH1 0x7 PUSH1 0x0 DUP8 DUP2 MSTORE PUSH1 0x20 ADD SWAP1 DUP2 MSTORE PUSH1 0x20 ADD PUSH1 0x0 KECCAK256 PUSH1 0x0 CALLER PUSH20 0xFFFFFFFFFFFFFFFFFFFFFFFFFFFFFFFFFFFFFFFF AND PUSH20 0xFFFFFFFFFFFFFFFFFFFFFFFFFFFFFFFFFFFFFFFF AND DUP2 MSTORE PUSH1 0x20 ADD SWAP1 DUP2 MSTORE PUSH1 0x20 ADD PUSH1 0x0 KECCAK256 PUSH1 0x0 SWAP1 SLOAD SWAP1 PUSH2 0x100 EXP SWAP1 DIV PUSH1 0xFF AND PUSH2 0x28E7 JUMPI PUSH1 0x40 MLOAD PUSH32 0x8C379A000000000000000000000000000000000000000000000000000000000 DUP2 MSTORE PUSH1 0x4 ADD PUSH2 0x28DE SWAP1 PUSH2 0x4A59 JUMP JUMPDEST PUSH1 0x40 MLOAD DUP1 SWAP2 SUB SWAP1 REVERT JUMPDEST DUP1 PUSH2 0x120 ADD MLOAD DUP2 PUSH2 0x140 ADD MLOAD DUP3 PUSH2 0x160 ADD MLOAD SWAP5 POP SWAP5 POP SWAP5 POP POP POP SWAP2 SWAP4 SWAP1 SWAP3 POP JUMP JUMPDEST PUSH1 0x7 PUSH1 0x20 MSTORE DUP2 PUSH1 0x0 MSTORE PUSH1 0x40 PUSH1 0x0 KECCAK256 PUSH1 0x20 MSTORE DUP1 PUSH1 0x0 MSTORE PUSH1 0x40 PUSH1 0x0 KECCAK256 PUSH1 0x0 SWAP2 POP SWAP2 POP SWAP1 SLOAD SWAP1 PUSH2 0x100 EXP SWAP1 DIV PUSH1 0xFF AND DUP2 JUMP JUMPDEST PUSH1 0x60 DUP1 PUSH1 0x0 PUSH1 0x5 DUP1 SLOAD SWAP1 POP PUSH8 0xFFFFFFFFFFFFFFFF DUP2 GT ISZERO PUSH2 0x295B JUMPI PUSH2 0x295A PUSH2 0x2E20 JUMP JUMPDEST JUMPDEST PUSH1 0x40 MLOAD SWAP1 DUP1 DUP3 MSTORE DUP1 PUSH1 0x20 MUL PUSH1 0x20 ADD DUP3 ADD PUSH1 0x40 MSTORE DUP1 ISZERO PUSH2 0x2989 JUMPI DUP2 PUSH1 0x20 ADD PUSH1 0x20 DUP3 MUL DUP1 CALLDATASIZE DUP4 CALLDATACOPY DUP1 DUP3 ADD SWAP2 POP POP SWAP1 POP JUMPDEST POP SWAP1 POP PUSH1 0x0 PUSH1 0x5 DUP1 SLOAD SWAP1 POP PUSH8 0xFFFFFFFFFFFFFFFF DUP2 GT ISZERO PUSH2 0x29AD JUMPI PUSH2 0x29AC PUSH2 0x2E20 JUMP JUMPDEST JUMPDEST PUSH1 0x40 MLOAD SWAP1 DUP1 DUP3 MSTORE DUP1 PUSH1 0x20 MUL PUSH1 0x20 ADD DUP3 ADD PUSH1 0x40 MSTORE DUP1 ISZERO PUSH2 0x29E0 JUMPI DUP2 PUSH1 0x20 ADD JUMPDEST PUSH1 0x60 DUP2 MSTORE PUSH1 0x20 ADD SWAP1 PUSH1 0x1 SWAP1 SUB SWAP1 DUP2 PUSH2 0x29CB JUMPI SWAP1 POP JUMPDEST POP SWAP1 POP PUSH1 0x0 JUMPDEST PUSH1 0x5 DUP1 SLOAD SWAP1 POP DUP2 LT ISZERO PUSH2 0x2BB9 JUMPI PUSH1 0x5 DUP2 DUP2 SLOAD DUP2 LT PUSH2 0x2A07 JUMPI PUSH2 0x2A06 PUSH2 0x47C2 JUMP JUMPDEST JUMPDEST SWAP1 PUSH1 0x0 MSTORE PUSH1 0x20 PUSH1 0x0 KECCAK256 ADD PUSH1 0x0 SWAP1 SLOAD SWAP1 PUSH2 0x100 EXP SWAP1 DIV PUSH20 0xFFFFFFFFFFFFFFFFFFFFFFFFFFFFFFFFFFFFFFFF AND DUP4 DUP3 DUP2 MLOAD DUP2 LT PUSH2 0x2A45 JUMPI PUSH2 0x2A44 PUSH2 0x47C2 JUMP JUMPDEST JUMPDEST PUSH1 0x20 MUL PUSH1 0x20 ADD ADD SWAP1 PUSH20 0xFFFFFFFFFFFFFFFFFFFFFFFFFFFFFFFFFFFFFFFF AND SWAP1 DUP2 PUSH20 0xFFFFFFFFFFFFFFFFFFFFFFFFFFFFFFFFFFFFFFFF AND DUP2 MSTORE POP POP PUSH1 0x4 PUSH1 0x0 PUSH1 0x5 DUP4 DUP2 SLOAD DUP2 LT PUSH2 0x2A97 JUMPI PUSH2 0x2A96 PUSH2 0x47C2 JUMP JUMPDEST JUMPDEST SWAP1 PUSH1 0x0 MSTORE PUSH1 0x20 PUSH1 0x0 KECCAK256 ADD PUSH1 0x0 SWAP1 SLOAD SWAP1 PUSH2 0x100 EXP SWAP1 DIV PUSH20 0xFFFFFFFFFFFFFFFFFFFFFFFFFFFFFFFFFFFFFFFF AND PUSH20 0xFFFFFFFFFFFFFFFFFFFFFFFFFFFFFFFFFFFFFFFF AND PUSH20 0xFFFFFFFFFFFFFFFFFFFFFFFFFFFFFFFFFFFFFFFF AND DUP2 MSTORE PUSH1 0x20 ADD SWAP1 DUP2 MSTORE PUSH1 0x20 ADD PUSH1 0x0 KECCAK256 PUSH1 0x0 ADD DUP1 SLOAD PUSH2 0x2B0A SWAP1 PUSH2 0x400F JUMP JUMPDEST DUP1 PUSH1 0x1F ADD PUSH1 0x20 DUP1 SWAP2 DIV MUL PUSH1 0x20 ADD PUSH1 0x40 MLOAD SWAP1 DUP2 ADD PUSH1 0x40 MSTORE DUP1 SWAP3 SWAP2 SWAP1 DUP2 DUP2 MSTORE PUSH1 0x20 ADD DUP3 DUP1 SLOAD PUSH2 0x2B36 SWAP1 PUSH2 0x400F JUMP JUMPDEST DUP1 ISZERO PUSH2 0x2B83 JUMPI DUP1 PUSH1 0x1F LT PUSH2 0x2B58 JUMPI PUSH2 0x100 DUP1 DUP4 SLOAD DIV MUL DUP4 MSTORE SWAP2 PUSH1 0x20 ADD SWAP2 PUSH2 0x2B83 JUMP JUMPDEST DUP3 ADD SWAP2 SWAP1 PUSH1 0x0 MSTORE PUSH1 0x20 PUSH1 0x0 KECCAK256 SWAP1 JUMPDEST DUP2 SLOAD DUP2 MSTORE SWAP1 PUSH1 0x1 ADD SWAP1 PUSH1 0x20 ADD DUP1 DUP4 GT PUSH2 0x2B66 JUMPI DUP3 SWAP1 SUB PUSH1 0x1F AND DUP3 ADD SWAP2 JUMPDEST POP POP POP POP POP DUP3 DUP3 DUP2 MLOAD DUP2 LT PUSH2 0x2B9B JUMPI PUSH2 0x2B9A PUSH2 0x47C2 JUMP JUMPDEST JUMPDEST PUSH1 0x20 MUL PUSH1 0x20 ADD ADD DUP2 SWAP1 MSTORE POP DUP1 DUP1 PUSH2 0x2BB1 SWAP1 PUSH2 0x477A JUMP JUMPDEST SWAP2 POP POP PUSH2 0x29E6 JUMP JUMPDEST POP DUP2 DUP2 SWAP4 POP SWAP4 POP POP POP SWAP1 SWAP2 JUMP JUMPDEST PUSH1 0x40 MLOAD DUP1 PUSH2 0x180 ADD PUSH1 0x40 MSTORE DUP1 PUSH1 0x60 DUP2 MSTORE PUSH1 0x20 ADD PUSH1 0x60 DUP2 MSTORE PUSH1 0x20 ADD PUSH1 0x0 PUSH20 0xFFFFFFFFFFFFFFFFFFFFFFFFFFFFFFFFFFFFFFFF AND DUP2 MSTORE PUSH1 0x20 ADD PUSH1 0x60 DUP2 MSTORE PUSH1 0x20 ADD PUSH1 0x0 DUP2 MSTORE PUSH1 0x20 ADD PUSH1 0x0 DUP2 MSTORE PUSH1 0x20 ADD PUSH1 0x0 ISZERO ISZERO DUP2 MSTORE PUSH1 0x20 ADD PUSH1 0x0 ISZERO ISZERO DUP2 MSTORE PUSH1 0x20 ADD PUSH1 0x0 PUSH20 0xFFFFFFFFFFFFFFFFFFFFFFFFFFFFFFFFFFFFFFFF AND DUP2 MSTORE PUSH1 0x20 ADD PUSH1 0x60 DUP2 MSTORE PUSH1 0x20 ADD PUSH1 0x60 DUP2 MSTORE PUSH1 0x20 ADD PUSH1 0x0 PUSH1 0xFF AND DUP2 MSTORE POP SWAP1 JUMP JUMPDEST DUP3 DUP1 SLOAD DUP3 DUP3 SSTORE SWAP1 PUSH1 0x0 MSTORE PUSH1 0x20 PUSH1 0x0 KECCAK256 SWAP1 DUP2 ADD SWAP3 DUP3 ISZERO PUSH2 0x2CA2 JUMPI SWAP2 PUSH1 0x20 MUL DUP3 ADD JUMPDEST DUP3 DUP2 GT ISZERO PUSH2 0x2CA1 JUMPI DUP3 MLOAD DUP3 SWAP1 DUP2 PUSH2 0x2C91 SWAP2 SWAP1 PUSH2 0x41EC JUMP JUMPDEST POP SWAP2 PUSH1 0x20 ADD SWAP2 SWAP1 PUSH1 0x1 ADD SWAP1 PUSH2 0x2C7A JUMP JUMPDEST JUMPDEST POP SWAP1 POP PUSH2 0x2CAF SWAP2 SWAP1 PUSH2 0x2D0C JUMP JUMPDEST POP SWAP1 JUMP JUMPDEST DUP3 DUP1 SLOAD DUP3 DUP3 SSTORE SWAP1 PUSH1 0x0 MSTORE PUSH1 0x20 PUSH1 0x0 KECCAK256 SWAP1 DUP2 ADD SWAP3 DUP3 ISZERO PUSH2 0x2CFB JUMPI SWAP2 PUSH1 0x20 MUL DUP3 ADD JUMPDEST DUP3 DUP2 GT ISZERO PUSH2 0x2CFA JUMPI DUP3 MLOAD DUP3 SWAP1 DUP2 PUSH2 0x2CEA SWAP2 SWAP1 PUSH2 0x4319 JUMP JUMPDEST POP SWAP2 PUSH1 0x20 ADD SWAP2 SWAP1 PUSH1 0x1 ADD SWAP1 PUSH2 0x2CD3 JUMP JUMPDEST JUMPDEST POP SWAP1 POP PUSH2 0x2D08 SWAP2 SWAP1 PUSH2 0x2D30 JUMP JUMPDEST POP SWAP1 JUMP JUMPDEST JUMPDEST DUP1 DUP3 GT ISZERO PUSH2 0x2D2C JUMPI PUSH1 0x0 DUP2 DUP2 PUSH2 0x2D23 SWAP2 SWAP1 PUSH2 0x2D54 JUMP JUMPDEST POP PUSH1 0x1 ADD PUSH2 0x2D0D JUMP JUMPDEST POP SWAP1 JUMP JUMPDEST JUMPDEST DUP1 DUP3 GT ISZERO PUSH2 0x2D50 JUMPI PUSH1 0x0 DUP2 DUP2 PUSH2 0x2D47 SWAP2 SWAP1 PUSH2 0x2D94 JUMP JUMPDEST POP PUSH1 0x1 ADD PUSH2 0x2D31 JUMP JUMPDEST POP SWAP1 JUMP JUMPDEST POP DUP1 SLOAD PUSH2 0x2D60 SWAP1 PUSH2 0x400F JUMP JUMPDEST PUSH1 0x0 DUP3 SSTORE DUP1 PUSH1 0x1F LT PUSH2 0x2D72 JUMPI POP PUSH2 0x2D91 JUMP JUMPDEST PUSH1 0x1F ADD PUSH1 0x20 SWAP1 DIV SWAP1 PUSH1 0x0 MSTORE PUSH1 0x20 PUSH1 0x0 KECCAK256 SWAP1 DUP2 ADD SWAP1 PUSH2 0x2D90 SWAP2 SWAP1 PUSH2 0x2DD4 JUMP JUMPDEST JUMPDEST POP JUMP JUMPDEST POP DUP1 SLOAD PUSH2 0x2DA0 SWAP1 PUSH2 0x400F JUMP JUMPDEST PUSH1 0x0 DUP3 SSTORE DUP1 PUSH1 0x1F LT PUSH2 0x2DB2 JUMPI POP PUSH2 0x2DD1 JUMP JUMPDEST PUSH1 0x1F ADD PUSH1 0x20 SWAP1 DIV SWAP1 PUSH1 0x0 MSTORE PUSH1 0x20 PUSH1 0x0 KECCAK256 SWAP1 DUP2 ADD SWAP1 PUSH2 0x2DD0 SWAP2 SWAP1 PUSH2 0x2DD4 JUMP JUMPDEST JUMPDEST POP JUMP JUMPDEST JUMPDEST DUP1 DUP3 GT ISZERO PUSH2 0x2DED JUMPI PUSH1 0x0 DUP2 PUSH1 0x0 SWAP1 SSTORE POP PUSH1 0x1 ADD PUSH2 0x2DD5 JUMP JUMPDEST POP SWAP1 JUMP JUMPDEST PUSH1 0x0 PUSH1 0x40 MLOAD SWAP1 POP SWAP1 JUMP JUMPDEST PUSH1 0x0 DUP1 REVERT JUMPDEST PUSH1 0x0 DUP1 REVERT JUMPDEST PUSH1 0x0 DUP1 REVERT JUMPDEST PUSH1 0x0 DUP1 REVERT JUMPDEST PUSH1 0x0 PUSH1 0x1F NOT PUSH1 0x1F DUP4 ADD AND SWAP1 POP SWAP2 SWAP1 POP JUMP JUMPDEST PUSH32 0x4E487B7100000000000000000000000000000000000000000000000000000000 PUSH1 0x0 MSTORE PUSH1 0x41 PUSH1 0x4 MSTORE PUSH1 0x24 PUSH1 0x0 REVERT JUMPDEST PUSH2 0x2E58 DUP3 PUSH2 0x2E0F JUMP JUMPDEST DUP2 ADD DUP2 DUP2 LT PUSH8 0xFFFFFFFFFFFFFFFF DUP3 GT OR ISZERO PUSH2 0x2E77 JUMPI PUSH2 0x2E76 PUSH2 0x2E20 JUMP JUMPDEST JUMPDEST DUP1 PUSH1 0x40 MSTORE POP POP POP JUMP JUMPDEST PUSH1 0x0 PUSH2 0x2E8A PUSH2 0x2DF1 JUMP JUMPDEST SWAP1 POP PUSH2 0x2E96 DUP3 DUP3 PUSH2 0x2E4F JUMP JUMPDEST SWAP2 SWAP1 POP JUMP JUMPDEST PUSH1 0x0 PUSH8 0xFFFFFFFFFFFFFFFF DUP3 GT ISZERO PUSH2 0x2EB6 JUMPI PUSH2 0x2EB5 PUSH2 0x2E20 JUMP JUMPDEST JUMPDEST PUSH2 0x2EBF DUP3 PUSH2 0x2E0F JUMP JUMPDEST SWAP1 POP PUSH1 0x20 DUP2 ADD SWAP1 POP SWAP2 SWAP1 POP JUMP JUMPDEST DUP3 DUP2 DUP4 CALLDATACOPY PUSH1 0x0 DUP4 DUP4 ADD MSTORE POP POP POP JUMP JUMPDEST PUSH1 0x0 PUSH2 0x2EEE PUSH2 0x2EE9 DUP5 PUSH2 0x2E9B JUMP JUMPDEST PUSH2 0x2E80 JUMP JUMPDEST SWAP1 POP DUP3 DUP2 MSTORE PUSH1 0x20 DUP2 ADD DUP5 DUP5 DUP5 ADD GT ISZERO PUSH2 0x2F0A JUMPI PUSH2 0x2F09 PUSH2 0x2E0A JUMP JUMPDEST JUMPDEST PUSH2 0x2F15 DUP5 DUP3 DUP6 PUSH2 0x2ECC JUMP JUMPDEST POP SWAP4 SWAP3 POP POP POP JUMP JUMPDEST PUSH1 0x0 DUP3 PUSH1 0x1F DUP4 ADD SLT PUSH2 0x2F32 JUMPI PUSH2 0x2F31 PUSH2 0x2E05 JUMP JUMPDEST JUMPDEST DUP2 CALLDATALOAD PUSH2 0x2F42 DUP5 DUP3 PUSH1 0x20 DUP7 ADD PUSH2 0x2EDB JUMP JUMPDEST SWAP2 POP POP SWAP3 SWAP2 POP POP JUMP JUMPDEST PUSH1 0x0 PUSH8 0xFFFFFFFFFFFFFFFF DUP3 GT ISZERO PUSH2 0x2F66 JUMPI PUSH2 0x2F65 PUSH2 0x2E20 JUMP JUMPDEST JUMPDEST PUSH2 0x2F6F DUP3 PUSH2 0x2E0F JUMP JUMPDEST SWAP1 POP PUSH1 0x20 DUP2 ADD SWAP1 POP SWAP2 SWAP1 POP JUMP JUMPDEST PUSH1 0x0 PUSH2 0x2F8F PUSH2 0x2F8A DUP5 PUSH2 0x2F4B JUMP JUMPDEST PUSH2 0x2E80 JUMP JUMPDEST SWAP1 POP DUP3 DUP2 MSTORE PUSH1 0x20 DUP2 ADD DUP5 DUP5 DUP5 ADD GT ISZERO PUSH2 0x2FAB JUMPI PUSH2 0x2FAA PUSH2 0x2E0A JUMP JUMPDEST JUMPDEST PUSH2 0x2FB6 DUP5 DUP3 DUP6 PUSH2 0x2ECC JUMP JUMPDEST POP SWAP4 SWAP3 POP POP POP JUMP JUMPDEST PUSH1 0x0 DUP3 PUSH1 0x1F DUP4 ADD SLT PUSH2 0x2FD3 JUMPI PUSH2 0x2FD2 PUSH2 0x2E05 JUMP JUMPDEST JUMPDEST DUP2 CALLDATALOAD PUSH2 0x2FE3 DUP5 DUP3 PUSH1 0x20 DUP7 ADD PUSH2 0x2F7C JUMP JUMPDEST SWAP2 POP POP SWAP3 SWAP2 POP POP JUMP JUMPDEST PUSH1 0x0 DUP1 PUSH1 0x40 DUP4 DUP6 SUB SLT ISZERO PUSH2 0x3003 JUMPI PUSH2 0x3002 PUSH2 0x2DFB JUMP JUMPDEST JUMPDEST PUSH1 0x0 DUP4 ADD CALLDATALOAD PUSH8 0xFFFFFFFFFFFFFFFF DUP2 GT ISZERO PUSH2 0x3021 JUMPI PUSH2 0x3020 PUSH2 0x2E00 JUMP JUMPDEST JUMPDEST PUSH2 0x302D DUP6 DUP3 DUP7 ADD PUSH2 0x2F1D JUMP JUMPDEST SWAP3 POP POP PUSH1 0x20 DUP4 ADD CALLDATALOAD PUSH8 0xFFFFFFFFFFFFFFFF DUP2 GT ISZERO PUSH2 0x304E JUMPI PUSH2 0x304D PUSH2 0x2E00 JUMP JUMPDEST JUMPDEST PUSH2 0x305A DUP6 DUP3 DUP7 ADD PUSH2 0x2FBE JUMP JUMPDEST SWAP2 POP POP SWAP3 POP SWAP3 SWAP1 POP JUMP JUMPDEST PUSH1 0x0 DUP2 SWAP1 POP SWAP2 SWAP1 POP JUMP JUMPDEST PUSH2 0x3077 DUP2 PUSH2 0x3064 JUMP JUMPDEST DUP2 EQ PUSH2 0x3082 JUMPI PUSH1 0x0 DUP1 REVERT JUMPDEST POP JUMP JUMPDEST PUSH1 0x0 DUP2 CALLDATALOAD SWAP1 POP PUSH2 0x3094 DUP2 PUSH2 0x306E JUMP JUMPDEST SWAP3 SWAP2 POP POP JUMP JUMPDEST PUSH1 0x0 PUSH1 0x20 DUP3 DUP5 SUB SLT ISZERO PUSH2 0x30B0 JUMPI PUSH2 0x30AF PUSH2 0x2DFB JUMP JUMPDEST JUMPDEST PUSH1 0x0 PUSH2 0x30BE DUP5 DUP3 DUP6 ADD PUSH2 0x3085 JUMP JUMPDEST SWAP2 POP POP SWAP3 SWAP2 POP POP JUMP JUMPDEST PUSH1 0x0 DUP2 MLOAD SWAP1 POP SWAP2 SWAP1 POP JUMP JUMPDEST PUSH1 0x0 DUP3 DUP3 MSTORE PUSH1 0x20 DUP3 ADD SWAP1 POP SWAP3 SWAP2 POP POP JUMP JUMPDEST PUSH1 0x0 JUMPDEST DUP4 DUP2 LT ISZERO PUSH2 0x3101 JUMPI DUP1 DUP3 ADD MLOAD DUP2 DUP5 ADD MSTORE PUSH1 0x20 DUP2 ADD SWAP1 POP PUSH2 0x30E6 JUMP JUMPDEST PUSH1 0x0 DUP5 DUP5 ADD MSTORE POP POP POP POP JUMP JUMPDEST PUSH1 0x0 PUSH2 0x3118 DUP3 PUSH2 0x30C7 JUMP JUMPDEST PUSH2 0x3122 DUP2 DUP6 PUSH2 0x30D2 JUMP JUMPDEST SWAP4 POP PUSH2 0x3132 DUP2 DUP6 PUSH1 0x20 DUP7 ADD PUSH2 0x30E3 JUMP JUMPDEST PUSH2 0x313B DUP2 PUSH2 0x2E0F JUMP JUMPDEST DUP5 ADD SWAP2 POP POP SWAP3 SWAP2 POP POP JUMP JUMPDEST PUSH1 0x0 PUSH20 0xFFFFFFFFFFFFFFFFFFFFFFFFFFFFFFFFFFFFFFFF DUP3 AND SWAP1 POP SWAP2 SWAP1 POP JUMP JUMPDEST PUSH1 0x0 PUSH2 0x3171 DUP3 PUSH2 0x3146 JUMP JUMPDEST SWAP1 POP SWAP2 SWAP1 POP JUMP JUMPDEST PUSH2 0x3181 DUP2 PUSH2 0x3166 JUMP JUMPDEST DUP3 MSTORE POP POP JUMP JUMPDEST PUSH1 0x0 DUP2 MLOAD SWAP1 POP SWAP2 SWAP1 POP JUMP JUMPDEST PUSH1 0x0 DUP3 DUP3 MSTORE PUSH1 0x20 DUP3 ADD SWAP1 POP SWAP3 SWAP2 POP POP JUMP JUMPDEST PUSH1 0x0 DUP2 SWAP1 POP PUSH1 0x20 DUP3 ADD SWAP1 POP SWAP2 SWAP1 POP JUMP JUMPDEST PUSH1 0x0 PUSH2 0x31BF DUP4 DUP4 PUSH2 0x310D JUMP JUMPDEST SWAP1 POP SWAP3 SWAP2 POP POP JUMP JUMPDEST PUSH1 0x0 PUSH1 0x20 DUP3 ADD SWAP1 POP SWAP2 SWAP1 POP JUMP JUMPDEST PUSH1 0x0 PUSH2 0x31DF DUP3 PUSH2 0x3187 JUMP JUMPDEST PUSH2 0x31E9 DUP2 DUP6 PUSH2 0x3192 JUMP JUMPDEST SWAP4 POP DUP4 PUSH1 0x20 DUP3 MUL DUP6 ADD PUSH2 0x31FB DUP6 PUSH2 0x31A3 JUMP JUMPDEST DUP1 PUSH1 0x0 JUMPDEST DUP6 DUP2 LT ISZERO PUSH2 0x3237 JUMPI DUP5 DUP5 SUB DUP10 MSTORE DUP2 MLOAD PUSH2 0x3218 DUP6 DUP3 PUSH2 0x31B3 JUMP JUMPDEST SWAP5 POP PUSH2 0x3223 DUP4 PUSH2 0x31C7 JUMP JUMPDEST SWAP3 POP PUSH1 0x20 DUP11 ADD SWAP10 POP POP PUSH1 0x1 DUP2 ADD SWAP1 POP PUSH2 0x31FF JUMP JUMPDEST POP DUP3 SWAP8 POP DUP8 SWAP6 POP POP POP POP POP POP SWAP3 SWAP2 POP POP JUMP JUMPDEST PUSH2 0x3252 DUP2 PUSH2 0x3064 JUMP JUMPDEST DUP3 MSTORE POP POP JUMP JUMPDEST PUSH1 0x0 DUP2 ISZERO ISZERO SWAP1 POP SWAP2 SWAP1 POP JUMP JUMPDEST PUSH2 0x326D DUP2 PUSH2 0x3258 JUMP JUMPDEST DUP3 MSTORE POP POP JUMP JUMPDEST PUSH1 0x0 DUP2 MLOAD SWAP1 POP SWAP2 SWAP1 POP JUMP JUMPDEST PUSH1 0x0 DUP3 DUP3 MSTORE PUSH1 0x20 DUP3 ADD SWAP1 POP SWAP3 SWAP2 POP POP JUMP JUMPDEST PUSH1 0x0 PUSH2 0x329A DUP3 PUSH2 0x3273 JUMP JUMPDEST PUSH2 0x32A4 DUP2 DUP6 PUSH2 0x327E JUMP JUMPDEST SWAP4 POP PUSH2 0x32B4 DUP2 DUP6 PUSH1 0x20 DUP7 ADD PUSH2 0x30E3 JUMP JUMPDEST PUSH2 0x32BD DUP2 PUSH2 0x2E0F JUMP JUMPDEST DUP5 ADD SWAP2 POP POP SWAP3 SWAP2 POP POP JUMP JUMPDEST PUSH1 0x0 DUP2 MLOAD SWAP1 POP SWAP2 SWAP1 POP JUMP JUMPDEST PUSH1 0x0 DUP3 DUP3 MSTORE PUSH1 0x20 DUP3 ADD SWAP1 POP SWAP3 SWAP2 POP POP JUMP JUMPDEST PUSH1 0x0 DUP2 SWAP1 POP PUSH1 0x20 DUP3 ADD SWAP1 POP SWAP2 SWAP1 POP JUMP JUMPDEST PUSH1 0x0 PUSH2 0x3300 DUP4 DUP4 PUSH2 0x328F JUMP JUMPDEST SWAP1 POP SWAP3 SWAP2 POP POP JUMP JUMPDEST PUSH1 0x0 PUSH1 0x20 DUP3 ADD SWAP1 POP SWAP2 SWAP1 POP JUMP JUMPDEST PUSH1 0x0 PUSH2 0x3320 DUP3 PUSH2 0x32C8 JUMP JUMPDEST PUSH2 0x332A DUP2 DUP6 PUSH2 0x32D3 JUMP JUMPDEST SWAP4 POP DUP4 PUSH1 0x20 DUP3 MUL DUP6 ADD PUSH2 0x333C DUP6 PUSH2 0x32E4 JUMP JUMPDEST DUP1 PUSH1 0x0 JUMPDEST DUP6 DUP2 LT ISZERO PUSH2 0x3378 JUMPI DUP5 DUP5 SUB DUP10 MSTORE DUP2 MLOAD PUSH2 0x3359 DUP6 DUP3 PUSH2 0x32F4 JUMP JUMPDEST SWAP5 POP PUSH2 0x3364 DUP4 PUSH2 0x3308 JUMP JUMPDEST SWAP3 POP PUSH1 0x20 DUP11 ADD SWAP10 POP POP PUSH1 0x1 DUP2 ADD SWAP1 POP PUSH2 0x3340 JUMP JUMPDEST POP DUP3 SWAP8 POP DUP8 SWAP6 POP POP POP POP POP POP SWAP3 SWAP2 POP POP JUMP JUMPDEST PUSH1 0x0 PUSH1 0xFF DUP3 AND SWAP1 POP SWAP2 SWAP1 POP JUMP JUMPDEST PUSH2 0x33A0 DUP2 PUSH2 0x338A JUMP JUMPDEST DUP3 MSTORE POP POP JUMP JUMPDEST PUSH1 0x0 PUSH2 0x180 DUP4 ADD PUSH1 0x0 DUP4 ADD MLOAD DUP5 DUP3 SUB PUSH1 0x0 DUP7 ADD MSTORE PUSH2 0x33C4 DUP3 DUP3 PUSH2 0x310D JUMP JUMPDEST SWAP2 POP POP PUSH1 0x20 DUP4 ADD MLOAD DUP5 DUP3 SUB PUSH1 0x20 DUP7 ADD MSTORE PUSH2 0x33DE DUP3 DUP3 PUSH2 0x310D JUMP JUMPDEST SWAP2 POP POP PUSH1 0x40 DUP4 ADD MLOAD PUSH2 0x33F3 PUSH1 0x40 DUP7 ADD DUP3 PUSH2 0x3178 JUMP JUMPDEST POP PUSH1 0x60 DUP4 ADD MLOAD DUP5 DUP3 SUB PUSH1 0x60 DUP7 ADD MSTORE PUSH2 0x340B DUP3 DUP3 PUSH2 0x31D4 JUMP JUMPDEST SWAP2 POP POP PUSH1 0x80 DUP4 ADD MLOAD PUSH2 0x3420 PUSH1 0x80 DUP7 ADD DUP3 PUSH2 0x3249 JUMP JUMPDEST POP PUSH1 0xA0 DUP4 ADD MLOAD PUSH2 0x3433 PUSH1 0xA0 DUP7 ADD DUP3 PUSH2 0x3249 JUMP JUMPDEST POP PUSH1 0xC0 DUP4 ADD MLOAD PUSH2 0x3446 PUSH1 0xC0 DUP7 ADD DUP3 PUSH2 0x3264 JUMP JUMPDEST POP PUSH1 0xE0 DUP4 ADD MLOAD PUSH2 0x3459 PUSH1 0xE0 DUP7 ADD DUP3 PUSH2 0x3264 JUMP JUMPDEST POP PUSH2 0x100 DUP4 ADD MLOAD PUSH2 0x346E PUSH2 0x100 DUP7 ADD DUP3 PUSH2 0x3178 JUMP JUMPDEST POP PUSH2 0x120 DUP4 ADD MLOAD DUP5 DUP3 SUB PUSH2 0x120 DUP7 ADD MSTORE PUSH2 0x3488 DUP3 DUP3 PUSH2 0x328F JUMP JUMPDEST SWAP2 POP POP PUSH2 0x140 DUP4 ADD MLOAD DUP5 DUP3 SUB PUSH2 0x140 DUP7 ADD MSTORE PUSH2 0x34A4 DUP3 DUP3 PUSH2 0x3315 JUMP JUMPDEST SWAP2 POP POP PUSH2 0x160 DUP4 ADD MLOAD PUSH2 0x34BB PUSH2 0x160 DUP7 ADD DUP3 PUSH2 0x3397 JUMP JUMPDEST POP DUP1 SWAP2 POP POP SWAP3 SWAP2 POP POP JUMP JUMPDEST PUSH1 0x0 PUSH1 0x20 DUP3 ADD SWAP1 POP DUP2 DUP2 SUB PUSH1 0x0 DUP4 ADD MSTORE PUSH2 0x34E0 DUP2 DUP5 PUSH2 0x33A6 JUMP JUMPDEST SWAP1 POP SWAP3 SWAP2 POP POP JUMP JUMPDEST PUSH1 0x0 PUSH8 0xFFFFFFFFFFFFFFFF DUP3 GT ISZERO PUSH2 0x3503 JUMPI PUSH2 0x3502 PUSH2 0x2E20 JUMP JUMPDEST JUMPDEST PUSH1 0x20 DUP3 MUL SWAP1 POP PUSH1 0x20 DUP2 ADD SWAP1 POP SWAP2 SWAP1 POP JUMP JUMPDEST PUSH1 0x0 DUP1 REVERT JUMPDEST PUSH1 0x0 PUSH2 0x352C PUSH2 0x3527 DUP5 PUSH2 0x34E8 JUMP JUMPDEST PUSH2 0x2E80 JUMP JUMPDEST SWAP1 POP DUP1 DUP4 DUP3 MSTORE PUSH1 0x20 DUP3 ADD SWAP1 POP PUSH1 0x20 DUP5 MUL DUP4 ADD DUP6 DUP2 GT ISZERO PUSH2 0x354F JUMPI PUSH2 0x354E PUSH2 0x3514 JUMP JUMPDEST JUMPDEST DUP4 JUMPDEST DUP2 DUP2 LT ISZERO PUSH2 0x3596 JUMPI DUP1 CALLDATALOAD PUSH8 0xFFFFFFFFFFFFFFFF DUP2 GT ISZERO PUSH2 0x3574 JUMPI PUSH2 0x3573 PUSH2 0x2E05 JUMP JUMPDEST JUMPDEST DUP1 DUP7 ADD PUSH2 0x3581 DUP10 DUP3 PUSH2 0x2F1D JUMP JUMPDEST DUP6 MSTORE PUSH1 0x20 DUP6 ADD SWAP5 POP POP POP PUSH1 0x20 DUP2 ADD SWAP1 POP PUSH2 0x3551 JUMP JUMPDEST POP POP POP SWAP4 SWAP3 POP POP POP JUMP JUMPDEST PUSH1 0x0 DUP3 PUSH1 0x1F DUP4 ADD SLT PUSH2 0x35B5 JUMPI PUSH2 0x35B4 PUSH2 0x2E05 JUMP JUMPDEST JUMPDEST DUP2 CALLDATALOAD PUSH2 0x35C5 DUP5 DUP3 PUSH1 0x20 DUP7 ADD PUSH2 0x3519 JUMP JUMPDEST SWAP2 POP POP SWAP3 SWAP2 POP POP JUMP JUMPDEST PUSH1 0x0 PUSH8 0xFFFFFFFFFFFFFFFF DUP3 GT ISZERO PUSH2 0x35E9 JUMPI PUSH2 0x35E8 PUSH2 0x2E20 JUMP JUMPDEST JUMPDEST PUSH1 0x20 DUP3 MUL SWAP1 POP PUSH1 0x20 DUP2 ADD SWAP1 POP SWAP2 SWAP1 POP JUMP JUMPDEST PUSH1 0x0 PUSH2 0x360D PUSH2 0x3608 DUP5 PUSH2 0x35CE JUMP JUMPDEST PUSH2 0x2E80 JUMP JUMPDEST SWAP1 POP DUP1 DUP4 DUP3 MSTORE PUSH1 0x20 DUP3 ADD SWAP1 POP PUSH1 0x20 DUP5 MUL DUP4 ADD DUP6 DUP2 GT ISZERO PUSH2 0x3630 JUMPI PUSH2 0x362F PUSH2 0x3514 JUMP JUMPDEST JUMPDEST DUP4 JUMPDEST DUP2 DUP2 LT ISZERO PUSH2 0x3677 JUMPI DUP1 CALLDATALOAD PUSH8 0xFFFFFFFFFFFFFFFF DUP2 GT ISZERO PUSH2 0x3655 JUMPI PUSH2 0x3654 PUSH2 0x2E05 JUMP JUMPDEST JUMPDEST DUP1 DUP7 ADD PUSH2 0x3662 DUP10 DUP3 PUSH2 0x2FBE JUMP JUMPDEST DUP6 MSTORE PUSH1 0x20 DUP6 ADD SWAP5 POP POP POP PUSH1 0x20 DUP2 ADD SWAP1 POP PUSH2 0x3632 JUMP JUMPDEST POP POP POP SWAP4 SWAP3 POP POP POP JUMP JUMPDEST PUSH1 0x0 DUP3 PUSH1 0x1F DUP4 ADD SLT PUSH2 0x3696 JUMPI PUSH2 0x3695 PUSH2 0x2E05 JUMP JUMPDEST JUMPDEST DUP2 CALLDATALOAD PUSH2 0x36A6 DUP5 DUP3 PUSH1 0x20 DUP7 ADD PUSH2 0x35FA JUMP JUMPDEST SWAP2 POP POP SWAP3 SWAP2 POP POP JUMP JUMPDEST PUSH2 0x36B8 DUP2 PUSH2 0x338A JUMP JUMPDEST DUP2 EQ PUSH2 0x36C3 JUMPI PUSH1 0x0 DUP1 REVERT JUMPDEST POP JUMP JUMPDEST PUSH1 0x0 DUP2 CALLDATALOAD SWAP1 POP PUSH2 0x36D5 DUP2 PUSH2 0x36AF JUMP JUMPDEST SWAP3 SWAP2 POP POP JUMP JUMPDEST PUSH1 0x0 DUP1 PUSH1 0x0 DUP1 PUSH1 0x0 DUP1 PUSH1 0xC0 DUP8 DUP10 SUB SLT ISZERO PUSH2 0x36F8 JUMPI PUSH2 0x36F7 PUSH2 0x2DFB JUMP JUMPDEST JUMPDEST PUSH1 0x0 DUP8 ADD CALLDATALOAD PUSH8 0xFFFFFFFFFFFFFFFF DUP2 GT ISZERO PUSH2 0x3716 JUMPI PUSH2 0x3715 PUSH2 0x2E00 JUMP JUMPDEST JUMPDEST PUSH2 0x3722 DUP10 DUP3 DUP11 ADD PUSH2 0x2F1D JUMP JUMPDEST SWAP7 POP POP PUSH1 0x20 DUP8 ADD CALLDATALOAD PUSH8 0xFFFFFFFFFFFFFFFF DUP2 GT ISZERO PUSH2 0x3743 JUMPI PUSH2 0x3742 PUSH2 0x2E00 JUMP JUMPDEST JUMPDEST PUSH2 0x374F DUP10 DUP3 DUP11 ADD PUSH2 0x2F1D JUMP JUMPDEST SWAP6 POP POP PUSH1 0x40 DUP8 ADD CALLDATALOAD PUSH8 0xFFFFFFFFFFFFFFFF DUP2 GT ISZERO PUSH2 0x3770 JUMPI PUSH2 0x376F PUSH2 0x2E00 JUMP JUMPDEST JUMPDEST PUSH2 0x377C DUP10 DUP3 DUP11 ADD PUSH2 0x35A0 JUMP JUMPDEST SWAP5 POP POP PUSH1 0x60 DUP8 ADD CALLDATALOAD PUSH8 0xFFFFFFFFFFFFFFFF DUP2 GT ISZERO PUSH2 0x379D JUMPI PUSH2 0x379C PUSH2 0x2E00 JUMP JUMPDEST JUMPDEST PUSH2 0x37A9 DUP10 DUP3 DUP11 ADD PUSH2 0x2FBE JUMP JUMPDEST SWAP4 POP POP PUSH1 0x80 DUP8 ADD CALLDATALOAD PUSH8 0xFFFFFFFFFFFFFFFF DUP2 GT ISZERO PUSH2 0x37CA JUMPI PUSH2 0x37C9 PUSH2 0x2E00 JUMP JUMPDEST JUMPDEST PUSH2 0x37D6 DUP10 DUP3 DUP11 ADD PUSH2 0x3681 JUMP JUMPDEST SWAP3 POP POP PUSH1 0xA0 PUSH2 0x37E7 DUP10 DUP3 DUP11 ADD PUSH2 0x36C6 JUMP JUMPDEST SWAP2 POP POP SWAP3 SWAP6 POP SWAP3 SWAP6 POP SWAP3 SWAP6 JUMP JUMPDEST PUSH2 0x37FD DUP2 PUSH2 0x3064 JUMP JUMPDEST DUP3 MSTORE POP POP JUMP JUMPDEST PUSH1 0x0 PUSH1 0x20 DUP3 ADD SWAP1 POP PUSH2 0x3818 PUSH1 0x0 DUP4 ADD DUP5 PUSH2 0x37F4 JUMP JUMPDEST SWAP3 SWAP2 POP POP JUMP JUMPDEST PUSH2 0x3827 DUP2 PUSH2 0x3166 JUMP JUMPDEST DUP2 EQ PUSH2 0x3832 JUMPI PUSH1 0x0 DUP1 REVERT JUMPDEST POP JUMP JUMPDEST PUSH1 0x0 DUP2 CALLDATALOAD SWAP1 POP PUSH2 0x3844 DUP2 PUSH2 0x381E JUMP JUMPDEST SWAP3 SWAP2 POP POP JUMP JUMPDEST PUSH1 0x0 PUSH1 0x20 DUP3 DUP5 SUB SLT ISZERO PUSH2 0x3860 JUMPI PUSH2 0x385F PUSH2 0x2DFB JUMP JUMPDEST JUMPDEST PUSH1 0x0 PUSH2 0x386E DUP5 DUP3 DUP6 ADD PUSH2 0x3835 JUMP JUMPDEST SWAP2 POP POP SWAP3 SWAP2 POP POP JUMP JUMPDEST PUSH1 0x0 DUP3 DUP3 MSTORE PUSH1 0x20 DUP3 ADD SWAP1 POP SWAP3 SWAP2 POP POP JUMP JUMPDEST PUSH1 0x0 PUSH2 0x3893 DUP3 PUSH2 0x3273 JUMP JUMPDEST PUSH2 0x389D DUP2 DUP6 PUSH2 0x3877 JUMP JUMPDEST SWAP4 POP PUSH2 0x38AD DUP2 DUP6 PUSH1 0x20 DUP7 ADD PUSH2 0x30E3 JUMP JUMPDEST PUSH2 0x38B6 DUP2 PUSH2 0x2E0F JUMP JUMPDEST DUP5 ADD SWAP2 POP POP SWAP3 SWAP2 POP POP JUMP JUMPDEST PUSH1 0x0 PUSH1 0x20 DUP3 ADD SWAP1 POP DUP2 DUP2 SUB PUSH1 0x0 DUP4 ADD MSTORE PUSH2 0x38DB DUP2 DUP5 PUSH2 0x3888 JUMP JUMPDEST SWAP1 POP SWAP3 SWAP2 POP POP JUMP JUMPDEST PUSH1 0x0 DUP2 MLOAD SWAP1 POP SWAP2 SWAP1 POP JUMP JUMPDEST PUSH1 0x0 DUP3 DUP3 MSTORE PUSH1 0x20 DUP3 ADD SWAP1 POP SWAP3 SWAP2 POP POP JUMP JUMPDEST PUSH1 0x0 DUP2 SWAP1 POP PUSH1 0x20 DUP3 ADD SWAP1 POP SWAP2 SWAP1 POP JUMP JUMPDEST PUSH1 0x0 PUSH2 0x391B DUP4 DUP4 PUSH2 0x3178 JUMP JUMPDEST PUSH1 0x20 DUP4 ADD SWAP1 POP SWAP3 SWAP2 POP POP JUMP JUMPDEST PUSH1 0x0 PUSH1 0x20 DUP3 ADD SWAP1 POP SWAP2 SWAP1 POP JUMP JUMPDEST PUSH1 0x0 PUSH2 0x393F DUP3 PUSH2 0x38E3 JUMP JUMPDEST PUSH2 0x3949 DUP2 DUP6 PUSH2 0x38EE JUMP JUMPDEST SWAP4 POP PUSH2 0x3954 DUP4 PUSH2 0x38FF JUMP JUMPDEST DUP1 PUSH1 0x0 JUMPDEST DUP4 DUP2 LT ISZERO PUSH2 0x3985 JUMPI DUP2 MLOAD PUSH2 0x396C DUP9 DUP3 PUSH2 0x390F JUMP JUMPDEST SWAP8 POP PUSH2 0x3977 DUP4 PUSH2 0x3927 JUMP JUMPDEST SWAP3 POP POP PUSH1 0x1 DUP2 ADD SWAP1 POP PUSH2 0x3958 JUMP JUMPDEST POP DUP6 SWAP4 POP POP POP POP SWAP3 SWAP2 POP POP JUMP JUMPDEST PUSH1 0x0 DUP3 DUP3 MSTORE PUSH1 0x20 DUP3 ADD SWAP1 POP SWAP3 SWAP2 POP POP JUMP JUMPDEST PUSH1 0x0 PUSH2 0x39AE DUP3 PUSH2 0x3187 JUMP JUMPDEST PUSH2 0x39B8 DUP2 DUP6 PUSH2 0x3992 JUMP JUMPDEST SWAP4 POP DUP4 PUSH1 0x20 DUP3 MUL DUP6 ADD PUSH2 0x39CA DUP6 PUSH2 0x31A3 JUMP JUMPDEST DUP1 PUSH1 0x0 JUMPDEST DUP6 DUP2 LT ISZERO PUSH2 0x3A06 JUMPI DUP5 DUP5 SUB DUP10 MSTORE DUP2 MLOAD PUSH2 0x39E7 DUP6 DUP3 PUSH2 0x31B3 JUMP JUMPDEST SWAP5 POP PUSH2 0x39F2 DUP4 PUSH2 0x31C7 JUMP JUMPDEST SWAP3 POP PUSH1 0x20 DUP11 ADD SWAP10 POP POP PUSH1 0x1 DUP2 ADD SWAP1 POP PUSH2 0x39CE JUMP JUMPDEST POP DUP3 SWAP8 POP DUP8 SWAP6 POP POP POP POP POP POP SWAP3 SWAP2 POP POP JUMP JUMPDEST PUSH1 0x0 PUSH1 0x40 DUP3 ADD SWAP1 POP DUP2 DUP2 SUB PUSH1 0x0 DUP4 ADD MSTORE PUSH2 0x3A32 DUP2 DUP6 PUSH2 0x3934 JUMP JUMPDEST SWAP1 POP DUP2 DUP2 SUB PUSH1 0x20 DUP4 ADD MSTORE PUSH2 0x3A46 DUP2 DUP5 PUSH2 0x39A3 JUMP JUMPDEST SWAP1 POP SWAP4 SWAP3 POP POP POP JUMP JUMPDEST PUSH1 0x0 PUSH8 0xFFFFFFFFFFFFFFFF DUP3 GT ISZERO PUSH2 0x3A6A JUMPI PUSH2 0x3A69 PUSH2 0x2E20 JUMP JUMPDEST JUMPDEST PUSH1 0x20 DUP3 MUL SWAP1 POP PUSH1 0x20 DUP2 ADD SWAP1 POP SWAP2 SWAP1 POP JUMP JUMPDEST PUSH1 0x0 PUSH2 0x3A8E PUSH2 0x3A89 DUP5 PUSH2 0x3A4F JUMP JUMPDEST PUSH2 0x2E80 JUMP JUMPDEST SWAP1 POP DUP1 DUP4 DUP3 MSTORE PUSH1 0x20 DUP3 ADD SWAP1 POP PUSH1 0x20 DUP5 MUL DUP4 ADD DUP6 DUP2 GT ISZERO PUSH2 0x3AB1 JUMPI PUSH2 0x3AB0 PUSH2 0x3514 JUMP JUMPDEST JUMPDEST DUP4 JUMPDEST DUP2 DUP2 LT ISZERO PUSH2 0x3ADA JUMPI DUP1 PUSH2 0x3AC6 DUP9 DUP3 PUSH2 0x3835 JUMP JUMPDEST DUP5 MSTORE PUSH1 0x20 DUP5 ADD SWAP4 POP POP PUSH1 0x20 DUP2 ADD SWAP1 POP PUSH2 0x3AB3 JUMP JUMPDEST POP POP POP SWAP4 SWAP3 POP POP POP JUMP JUMPDEST PUSH1 0x0 DUP3 PUSH1 0x1F DUP4 ADD SLT PUSH2 0x3AF9 JUMPI PUSH2 0x3AF8 PUSH2 0x2E05 JUMP JUMPDEST JUMPDEST DUP2 CALLDATALOAD PUSH2 0x3B09 DUP5 DUP3 PUSH1 0x20 DUP7 ADD PUSH2 0x3A7B JUMP JUMPDEST SWAP2 POP POP SWAP3 SWAP2 POP POP JUMP JUMPDEST PUSH1 0x0 DUP1 PUSH1 0x0 DUP1 PUSH1 0x80 DUP6 DUP8 SUB SLT ISZERO PUSH2 0x3B2C JUMPI PUSH2 0x3B2B PUSH2 0x2DFB JUMP JUMPDEST JUMPDEST PUSH1 0x0 PUSH2 0x3B3A DUP8 DUP3 DUP9 ADD PUSH2 0x3085 JUMP JUMPDEST SWAP5 POP POP PUSH1 0x20 PUSH2 0x3B4B DUP8 DUP3 DUP9 ADD PUSH2 0x3085 JUMP JUMPDEST SWAP4 POP POP PUSH1 0x40 DUP6 ADD CALLDATALOAD PUSH8 0xFFFFFFFFFFFFFFFF DUP2 GT ISZERO PUSH2 0x3B6C JUMPI PUSH2 0x3B6B PUSH2 0x2E00 JUMP JUMPDEST JUMPDEST PUSH2 0x3B78 DUP8 DUP3 DUP9 ADD PUSH2 0x3AE4 JUMP JUMPDEST SWAP3 POP POP PUSH1 0x60 DUP6 ADD CALLDATALOAD PUSH8 0xFFFFFFFFFFFFFFFF DUP2 GT ISZERO PUSH2 0x3B99 JUMPI PUSH2 0x3B98 PUSH2 0x2E00 JUMP JUMPDEST JUMPDEST PUSH2 0x3BA5 DUP8 DUP3 DUP9 ADD PUSH2 0x35A0 JUMP JUMPDEST SWAP2 POP POP SWAP3 SWAP6 SWAP2 SWAP5 POP SWAP3 POP JUMP JUMPDEST PUSH1 0x0 DUP3 DUP3 MSTORE PUSH1 0x20 DUP3 ADD SWAP1 POP SWAP3 SWAP2 POP POP JUMP JUMPDEST PUSH1 0x0 PUSH2 0x3BCD DUP3 PUSH2 0x30C7 JUMP JUMPDEST PUSH2 0x3BD7 DUP2 DUP6 PUSH2 0x3BB1 JUMP JUMPDEST SWAP4 POP PUSH2 0x3BE7 DUP2 DUP6 PUSH1 0x20 DUP7 ADD PUSH2 0x30E3 JUMP JUMPDEST PUSH2 0x3BF0 DUP2 PUSH2 0x2E0F JUMP JUMPDEST DUP5 ADD SWAP2 POP POP SWAP3 SWAP2 POP POP JUMP JUMPDEST PUSH2 0x3C04 DUP2 PUSH2 0x3258 JUMP JUMPDEST DUP3 MSTORE POP POP JUMP JUMPDEST PUSH1 0x0 PUSH1 0x60 DUP3 ADD SWAP1 POP DUP2 DUP2 SUB PUSH1 0x0 DUP4 ADD MSTORE PUSH2 0x3C24 DUP2 DUP7 PUSH2 0x3BC2 JUMP JUMPDEST SWAP1 POP DUP2 DUP2 SUB PUSH1 0x20 DUP4 ADD MSTORE PUSH2 0x3C38 DUP2 DUP6 PUSH2 0x3888 JUMP JUMPDEST SWAP1 POP PUSH2 0x3C47 PUSH1 0x40 DUP4 ADD DUP5 PUSH2 0x3BFB JUMP JUMPDEST SWAP5 SWAP4 POP POP POP POP JUMP JUMPDEST PUSH2 0x3C58 DUP2 PUSH2 0x3166 JUMP JUMPDEST DUP3 MSTORE POP POP JUMP JUMPDEST PUSH2 0x3C67 DUP2 PUSH2 0x338A JUMP JUMPDEST DUP3 MSTORE POP POP JUMP JUMPDEST PUSH1 0x0 PUSH2 0x140 DUP3 ADD SWAP1 POP DUP2 DUP2 SUB PUSH1 0x0 DUP4 ADD MSTORE PUSH2 0x3C88 DUP2 DUP14 PUSH2 0x3BC2 JUMP JUMPDEST SWAP1 POP DUP2 DUP2 SUB PUSH1 0x20 DUP4 ADD MSTORE PUSH2 0x3C9C DUP2 DUP13 PUSH2 0x3BC2 JUMP JUMPDEST SWAP1 POP PUSH2 0x3CAB PUSH1 0x40 DUP4 ADD DUP12 PUSH2 0x3C4F JUMP JUMPDEST PUSH2 0x3CB8 PUSH1 0x60 DUP4 ADD DUP11 PUSH2 0x37F4 JUMP JUMPDEST PUSH2 0x3CC5 PUSH1 0x80 DUP4 ADD DUP10 PUSH2 0x37F4 JUMP JUMPDEST PUSH2 0x3CD2 PUSH1 0xA0 DUP4 ADD DUP9 PUSH2 0x3BFB JUMP JUMPDEST PUSH2 0x3CDF PUSH1 0xC0 DUP4 ADD DUP8 PUSH2 0x3BFB JUMP JUMPDEST PUSH2 0x3CEC PUSH1 0xE0 DUP4 ADD DUP7 PUSH2 0x3C4F JUMP JUMPDEST DUP2 DUP2 SUB PUSH2 0x100 DUP4 ADD MSTORE PUSH2 0x3CFF DUP2 DUP6 PUSH2 0x3888 JUMP JUMPDEST SWAP1 POP PUSH2 0x3D0F PUSH2 0x120 DUP4 ADD DUP5 PUSH2 0x3C5E JUMP JUMPDEST SWAP12 SWAP11 POP POP POP POP POP POP POP POP POP POP POP JUMP JUMPDEST PUSH1 0x0 PUSH1 0x60 DUP3 ADD SWAP1 POP DUP2 DUP2 SUB PUSH1 0x0 DUP4 ADD MSTORE PUSH2 0x3D38 DUP2 DUP7 PUSH2 0x3BC2 JUMP JUMPDEST SWAP1 POP PUSH2 0x3D47 PUSH1 0x20 DUP4 ADD DUP6 PUSH2 0x3BFB JUMP JUMPDEST PUSH2 0x3D54 PUSH1 0x40 DUP4 ADD DUP5 PUSH2 0x3BFB JUMP JUMPDEST SWAP5 SWAP4 POP POP POP POP JUMP JUMPDEST PUSH1 0x0 DUP1 PUSH1 0x40 DUP4 DUP6 SUB SLT ISZERO PUSH2 0x3D73 JUMPI PUSH2 0x3D72 PUSH2 0x2DFB JUMP JUMPDEST JUMPDEST PUSH1 0x0 PUSH2 0x3D81 DUP6 DUP3 DUP7 ADD PUSH2 0x3085 JUMP JUMPDEST SWAP3 POP POP PUSH1 0x20 PUSH2 0x3D92 DUP6 DUP3 DUP7 ADD PUSH2 0x3835 JUMP JUMPDEST SWAP2 POP POP SWAP3 POP SWAP3 SWAP1 POP JUMP JUMPDEST PUSH1 0x0 PUSH1 0x20 DUP3 ADD SWAP1 POP PUSH2 0x3DB1 PUSH1 0x0 DUP4 ADD DUP5 PUSH2 0x3BFB JUMP JUMPDEST SWAP3 SWAP2 POP POP JUMP JUMPDEST PUSH1 0x0 PUSH1 0x20 DUP3 ADD SWAP1 POP PUSH2 0x3DCC PUSH1 0x0 DUP4 ADD DUP5 PUSH2 0x3C4F JUMP JUMPDEST SWAP3 SWAP2 POP POP JUMP JUMPDEST PUSH1 0x0 PUSH1 0x20 DUP3 DUP5 SUB SLT ISZERO PUSH2 0x3DE8 JUMPI PUSH2 0x3DE7 PUSH2 0x2DFB JUMP JUMPDEST JUMPDEST PUSH1 0x0 DUP3 ADD CALLDATALOAD PUSH8 0xFFFFFFFFFFFFFFFF DUP2 GT ISZERO PUSH2 0x3E06 JUMPI PUSH2 0x3E05 PUSH2 0x2E00 JUMP JUMPDEST JUMPDEST PUSH2 0x3E12 DUP5 DUP3 DUP6 ADD PUSH2 0x2F1D JUMP JUMPDEST SWAP2 POP POP SWAP3 SWAP2 POP POP JUMP JUMPDEST PUSH1 0x0 PUSH1 0x20 DUP3 ADD SWAP1 POP DUP2 DUP2 SUB PUSH1 0x0 DUP4 ADD MSTORE PUSH2 0x3E35 DUP2 DUP5 PUSH2 0x3BC2 JUMP JUMPDEST SWAP1 POP SWAP3 SWAP2 POP POP JUMP JUMPDEST PUSH1 0x0 DUP3 DUP3 MSTORE PUSH1 0x20 DUP3 ADD SWAP1 POP SWAP3 SWAP2 POP POP JUMP JUMPDEST PUSH1 0x0 PUSH2 0x3E59 DUP3 PUSH2 0x32C8 JUMP JUMPDEST PUSH2 0x3E63 DUP2 DUP6 PUSH2 0x3E3D JUMP JUMPDEST SWAP4 POP DUP4 PUSH1 0x20 DUP3 MUL DUP6 ADD PUSH2 0x3E75 DUP6 PUSH2 0x32E4 JUMP JUMPDEST DUP1 PUSH1 0x0 JUMPDEST DUP6 DUP2 LT ISZERO PUSH2 0x3EB1 JUMPI DUP5 DUP5 SUB DUP10 MSTORE DUP2 MLOAD PUSH2 0x3E92 DUP6 DUP3 PUSH2 0x32F4 JUMP JUMPDEST SWAP5 POP PUSH2 0x3E9D DUP4 PUSH2 0x3308 JUMP JUMPDEST SWAP3 POP PUSH1 0x20 DUP11 ADD SWAP10 POP POP PUSH1 0x1 DUP2 ADD SWAP1 POP PUSH2 0x3E79 JUMP JUMPDEST POP DUP3 SWAP8 POP DUP8 SWAP6 POP POP POP POP POP POP SWAP3 SWAP2 POP POP JUMP JUMPDEST PUSH1 0x0 PUSH1 0x60 DUP3 ADD SWAP1 POP DUP2 DUP2 SUB PUSH1 0x0 DUP4 ADD MSTORE PUSH2 0x3EDD DUP2 DUP7 PUSH2 0x3888 JUMP JUMPDEST SWAP1 POP DUP2 DUP2 SUB PUSH1 0x20 DUP4 ADD MSTORE PUSH2 0x3EF1 DUP2 DUP6 PUSH2 0x3E4E JUMP JUMPDEST SWAP1 POP PUSH2 0x3F00 PUSH1 0x40 DUP4 ADD DUP5 PUSH2 0x3C5E JUMP JUMPDEST SWAP5 SWAP4 POP POP POP POP JUMP JUMPDEST PUSH32 0x4E616D6520726571756972656400000000000000000000000000000000000000 PUSH1 0x0 DUP3 ADD MSTORE POP JUMP JUMPDEST PUSH1 0x0 PUSH2 0x3F3E PUSH1 0xD DUP4 PUSH2 0x3BB1 JUMP JUMPDEST SWAP2 POP PUSH2 0x3F49 DUP3 PUSH2 0x3F08 JUMP JUMPDEST PUSH1 0x20 DUP3 ADD SWAP1 POP SWAP2 SWAP1 POP JUMP JUMPDEST PUSH1 0x0 PUSH1 0x20 DUP3 ADD SWAP1 POP DUP2 DUP2 SUB PUSH1 0x0 DUP4 ADD MSTORE PUSH2 0x3F6D DUP2 PUSH2 0x3F31 JUMP JUMPDEST SWAP1 POP SWAP2 SWAP1 POP JUMP JUMPDEST PUSH32 0x5075626C6963206B657920726571756972656400000000000000000000000000 PUSH1 0x0 DUP3 ADD MSTORE POP JUMP JUMPDEST PUSH1 0x0 PUSH2 0x3FAA PUSH1 0x13 DUP4 PUSH2 0x3BB1 JUMP JUMPDEST SWAP2 POP PUSH2 0x3FB5 DUP3 PUSH2 0x3F74 JUMP JUMPDEST PUSH1 0x20 DUP3 ADD SWAP1 POP SWAP2 SWAP1 POP JUMP JUMPDEST PUSH1 0x0 PUSH1 0x20 DUP3 ADD SWAP1 POP DUP2 DUP2 SUB PUSH1 0x0 DUP4 ADD MSTORE PUSH2 0x3FD9 DUP2 PUSH2 0x3F9D JUMP JUMPDEST SWAP1 POP SWAP2 SWAP1 POP JUMP JUMPDEST PUSH32 0x4E487B7100000000000000000000000000000000000000000000000000000000 PUSH1 0x0 MSTORE PUSH1 0x22 PUSH1 0x4 MSTORE PUSH1 0x24 PUSH1 0x0 REVERT JUMPDEST PUSH1 0x0 PUSH1 0x2 DUP3 DIV SWAP1 POP PUSH1 0x1 DUP3 AND DUP1 PUSH2 0x4027 JUMPI PUSH1 0x7F DUP3 AND SWAP2 POP JUMPDEST PUSH1 0x20 DUP3 LT DUP2 SUB PUSH2 0x403A JUMPI PUSH2 0x4039 PUSH2 0x3FE0 JUMP JUMPDEST JUMPDEST POP SWAP2 SWAP1 POP JUMP JUMPDEST PUSH1 0x0 DUP2 SWAP1 POP DUP2 PUSH1 0x0 MSTORE PUSH1 0x20 PUSH1 0x0 KECCAK256 SWAP1 POP SWAP2 SWAP1 POP JUMP JUMPDEST PUSH1 0x0 PUSH1 0x20 PUSH1 0x1F DUP4 ADD DIV SWAP1 POP SWAP2 SWAP1 POP JUMP JUMPDEST PUSH1 0x0 DUP3 DUP3 SHL SWAP1 POP SWAP3 SWAP2 POP POP JUMP JUMPDEST PUSH1 0x0 PUSH1 0x8 DUP4 MUL PUSH2 0x40A2 PUSH32 0xFFFFFFFFFFFFFFFFFFFFFFFFFFFFFFFFFFFFFFFFFFFFFFFFFFFFFFFFFFFFFFFF DUP3 PUSH2 0x4065 JUMP JUMPDEST PUSH2 0x40AC DUP7 DUP4 PUSH2 0x4065 JUMP JUMPDEST SWAP6 POP DUP1 NOT DUP5 AND SWAP4 POP DUP1 DUP7 AND DUP5 OR SWAP3 POP POP POP SWAP4 SWAP3 POP POP POP JUMP JUMPDEST PUSH1 0x0 DUP2 SWAP1 POP SWAP2 SWAP1 POP JUMP JUMPDEST PUSH1 0x0 PUSH2 0x40E9 PUSH2 0x40E4 PUSH2 0x40DF DUP5 PUSH2 0x3064 JUMP JUMPDEST PUSH2 0x40C4 JUMP JUMPDEST PUSH2 0x3064 JUMP JUMPDEST SWAP1 POP SWAP2 SWAP1 POP JUMP JUMPDEST PUSH1 0x0 DUP2 SWAP1 POP SWAP2 SWAP1 POP JUMP JUMPDEST PUSH2 0x4103 DUP4 PUSH2 0x40CE JUMP JUMPDEST PUSH2 0x4117 PUSH2 0x410F DUP3 PUSH2 0x40F0 JUMP JUMPDEST DUP5 DUP5 SLOAD PUSH2 0x4072 JUMP JUMPDEST DUP3 SSTORE POP POP POP POP JUMP JUMPDEST PUSH1 0x0 SWAP1 JUMP JUMPDEST PUSH2 0x412C PUSH2 0x411F JUMP JUMPDEST PUSH2 0x4137 DUP2 DUP5 DUP5 PUSH2 0x40FA JUMP JUMPDEST POP POP POP JUMP JUMPDEST JUMPDEST DUP2 DUP2 LT ISZERO PUSH2 0x415B JUMPI PUSH2 0x4150 PUSH1 0x0 DUP3 PUSH2 0x4124 JUMP JUMPDEST PUSH1 0x1 DUP2 ADD SWAP1 POP PUSH2 0x413D JUMP JUMPDEST POP POP JUMP JUMPDEST PUSH1 0x1F DUP3 GT ISZERO PUSH2 0x41A0 JUMPI PUSH2 0x4171 DUP2 PUSH2 0x4040 JUMP JUMPDEST PUSH2 0x417A DUP5 PUSH2 0x4055 JUMP JUMPDEST DUP2 ADD PUSH1 0x20 DUP6 LT ISZERO PUSH2 0x4189 JUMPI DUP2 SWAP1 POP JUMPDEST PUSH2 0x419D PUSH2 0x4195 DUP6 PUSH2 0x4055 JUMP JUMPDEST DUP4 ADD DUP3 PUSH2 0x413C JUMP JUMPDEST POP POP JUMPDEST POP POP POP JUMP JUMPDEST PUSH1 0x0 DUP3 DUP3 SHR SWAP1 POP SWAP3 SWAP2 POP POP JUMP JUMPDEST PUSH1 0x0 PUSH2 0x41C3 PUSH1 0x0 NOT DUP5 PUSH1 0x8 MUL PUSH2 0x41A5 JUMP JUMPDEST NOT DUP1 DUP4 AND SWAP2 POP POP SWAP3 SWAP2 POP POP JUMP JUMPDEST PUSH1 0x0 PUSH2 0x41DC DUP4 DUP4 PUSH2 0x41B2 JUMP JUMPDEST SWAP2 POP DUP3 PUSH1 0x2 MUL DUP3 OR SWAP1 POP SWAP3 SWAP2 POP POP JUMP JUMPDEST PUSH2 0x41F5 DUP3 PUSH2 0x30C7 JUMP JUMPDEST PUSH8 0xFFFFFFFFFFFFFFFF DUP2 GT ISZERO PUSH2 0x420E JUMPI PUSH2 0x420D PUSH2 0x2E20 JUMP JUMPDEST JUMPDEST PUSH2 0x4218 DUP3 SLOAD PUSH2 0x400F JUMP JUMPDEST PUSH2 0x4223 DUP3 DUP3 DUP6 PUSH2 0x415F JUMP JUMPDEST PUSH1 0x0 PUSH1 0x20 SWAP1 POP PUSH1 0x1F DUP4 GT PUSH1 0x1 DUP2 EQ PUSH2 0x4256 JUMPI PUSH1 0x0 DUP5 ISZERO PUSH2 0x4244 JUMPI DUP3 DUP8 ADD MLOAD SWAP1 POP JUMPDEST PUSH2 0x424E DUP6 DUP3 PUSH2 0x41D0 JUMP JUMPDEST DUP7 SSTORE POP PUSH2 0x42B6 JUMP JUMPDEST PUSH1 0x1F NOT DUP5 AND PUSH2 0x4264 DUP7 PUSH2 0x4040 JUMP JUMPDEST PUSH1 0x0 JUMPDEST DUP3 DUP2 LT ISZERO PUSH2 0x428C JUMPI DUP5 DUP10 ADD MLOAD DUP3 SSTORE PUSH1 0x1 DUP3 ADD SWAP2 POP PUSH1 0x20 DUP6 ADD SWAP5 POP PUSH1 0x20 DUP2 ADD SWAP1 POP PUSH2 0x4267 JUMP JUMPDEST DUP7 DUP4 LT ISZERO PUSH2 0x42A9 JUMPI DUP5 DUP10 ADD MLOAD PUSH2 0x42A5 PUSH1 0x1F DUP10 AND DUP3 PUSH2 0x41B2 JUMP JUMPDEST DUP4 SSTORE POP JUMPDEST PUSH1 0x1 PUSH1 0x2 DUP9 MUL ADD DUP9 SSTORE POP POP POP JUMPDEST POP POP POP POP POP POP JUMP JUMPDEST PUSH1 0x0 DUP2 SWAP1 POP DUP2 PUSH1 0x0 MSTORE PUSH1 0x20 PUSH1 0x0 KECCAK256 SWAP1 POP SWAP2 SWAP1 POP JUMP JUMPDEST PUSH1 0x1F DUP3 GT ISZERO PUSH2 0x4314 JUMPI PUSH2 0x42E5 DUP2 PUSH2 0x42BE JUMP JUMPDEST PUSH2 0x42EE DUP5 PUSH2 0x4055 JUMP JUMPDEST DUP2 ADD PUSH1 0x20 DUP6 LT ISZERO PUSH2 0x42FD JUMPI DUP2 SWAP1 POP JUMPDEST PUSH2 0x4311 PUSH2 0x4309 DUP6 PUSH2 0x4055 JUMP JUMPDEST DUP4 ADD DUP3 PUSH2 0x413C JUMP JUMPDEST POP POP JUMPDEST POP POP POP JUMP JUMPDEST PUSH2 0x4322 DUP3 PUSH2 0x3273 JUMP JUMPDEST PUSH8 0xFFFFFFFFFFFFFFFF DUP2 GT ISZERO PUSH2 0x433B JUMPI PUSH2 0x433A PUSH2 0x2E20 JUMP JUMPDEST JUMPDEST PUSH2 0x4345 DUP3 SLOAD PUSH2 0x400F JUMP JUMPDEST PUSH2 0x4350 DUP3 DUP3 DUP6 PUSH2 0x42D3 JUMP JUMPDEST PUSH1 0x0 PUSH1 0x20 SWAP1 POP PUSH1 0x1F DUP4 GT PUSH1 0x1 DUP2 EQ PUSH2 0x4383 JUMPI PUSH1 0x0 DUP5 ISZERO PUSH2 0x4371 JUMPI DUP3 DUP8 ADD MLOAD SWAP1 POP JUMPDEST PUSH2 0x437B DUP6 DUP3 PUSH2 0x41D0 JUMP JUMPDEST DUP7 SSTORE POP PUSH2 0x43E3 JUMP JUMPDEST PUSH1 0x1F NOT DUP5 AND PUSH2 0x4391 DUP7 PUSH2 0x42BE JUMP JUMPDEST PUSH1 0x0 JUMPDEST DUP3 DUP2 LT ISZERO PUSH2 0x43B9 JUMPI DUP5 DUP10 ADD MLOAD DUP3 SSTORE PUSH1 0x1 DUP3 ADD SWAP2 POP PUSH1 0x20 DUP6 ADD SWAP5 POP PUSH1 0x20 DUP2 ADD SWAP1 POP PUSH2 0x4394 JUMP JUMPDEST DUP7 DUP4 LT ISZERO PUSH2 0x43D6 JUMPI DUP5 DUP10 ADD MLOAD PUSH2 0x43D2 PUSH1 0x1F DUP10 AND DUP3 PUSH2 0x41B2 JUMP JUMPDEST DUP4 SSTORE POP JUMPDEST PUSH1 0x1 PUSH1 0x2 DUP9 MUL ADD DUP9 SSTORE POP POP POP JUMPDEST POP POP POP POP POP POP JUMP JUMPDEST PUSH32 0x496E76616C696420706170657220494400000000000000000000000000000000 PUSH1 0x0 DUP3 ADD MSTORE POP JUMP JUMPDEST PUSH1 0x0 PUSH2 0x4421 PUSH1 0x10 DUP4 PUSH2 0x3BB1 JUMP JUMPDEST SWAP2 POP PUSH2 0x442C DUP3 PUSH2 0x43EB JUMP JUMPDEST PUSH1 0x20 DUP3 ADD SWAP1 POP SWAP2 SWAP1 POP JUMP JUMPDEST PUSH1 0x0 PUSH1 0x20 DUP3 ADD SWAP1 POP DUP2 DUP2 SUB PUSH1 0x0 DUP4 ADD MSTORE PUSH2 0x4450 DUP2 PUSH2 0x4414 JUMP JUMPDEST SWAP1 POP SWAP2 SWAP1 POP JUMP JUMPDEST PUSH32 0x5061706572206E6F74207363686564756C656400000000000000000000000000 PUSH1 0x0 DUP3 ADD MSTORE POP JUMP JUMPDEST PUSH1 0x0 PUSH2 0x448D PUSH1 0x13 DUP4 PUSH2 0x3BB1 JUMP JUMPDEST SWAP2 POP PUSH2 0x4498 DUP3 PUSH2 0x4457 JUMP JUMPDEST PUSH1 0x20 DUP3 ADD SWAP1 POP SWAP2 SWAP1 POP JUMP JUMPDEST PUSH1 0x0 PUSH1 0x20 DUP3 ADD SWAP1 POP DUP2 DUP2 SUB PUSH1 0x0 DUP4 ADD MSTORE PUSH2 0x44BC DUP2 PUSH2 0x4480 JUMP JUMPDEST SWAP1 POP SWAP2 SWAP1 POP JUMP JUMPDEST PUSH32 0x546F6F206561726C7920746F20756E6C6F636B00000000000000000000000000 PUSH1 0x0 DUP3 ADD MSTORE POP JUMP JUMPDEST PUSH1 0x0 PUSH2 0x44F9 PUSH1 0x13 DUP4 PUSH2 0x3BB1 JUMP JUMPDEST SWAP2 POP PUSH2 0x4504 DUP3 PUSH2 0x44C3 JUMP JUMPDEST PUSH1 0x20 DUP3 ADD SWAP1 POP SWAP2 SWAP1 POP JUMP JUMPDEST PUSH1 0x0 PUSH1 0x20 DUP3 ADD SWAP1 POP DUP2 DUP2 SUB PUSH1 0x0 DUP4 ADD MSTORE PUSH2 0x4528 DUP2 PUSH2 0x44EC JUMP JUMPDEST SWAP1 POP SWAP2 SWAP1 POP JUMP JUMPDEST PUSH32 0x4578616D206E616D652072657175697265640000000000000000000000000000 PUSH1 0x0 DUP3 ADD MSTORE POP JUMP JUMPDEST PUSH1 0x0 PUSH2 0x4565 PUSH1 0x12 DUP4 PUSH2 0x3BB1 JUMP JUMPDEST SWAP2 POP PUSH2 0x4570 DUP3 PUSH2 0x452F JUMP JUMPDEST PUSH1 0x20 DUP3 ADD SWAP1 POP SWAP2 SWAP1 POP JUMP JUMPDEST PUSH1 0x0 PUSH1 0x20 DUP3 ADD SWAP1 POP DUP2 DUP2 SUB PUSH1 0x0 DUP4 ADD MSTORE PUSH2 0x4594 DUP2 PUSH2 0x4558 JUMP JUMPDEST SWAP1 POP SWAP2 SWAP1 POP JUMP JUMPDEST PUSH32 0x4950465320434944732072657175697265640000000000000000000000000000 PUSH1 0x0 DUP3 ADD MSTORE POP JUMP JUMPDEST PUSH1 0x0 PUSH2 0x45D1 PUSH1 0x12 DUP4 PUSH2 0x3BB1 JUMP JUMPDEST SWAP2 POP PUSH2 0x45DC DUP3 PUSH2 0x459B JUMP JUMPDEST PUSH1 0x20 DUP3 ADD SWAP1 POP SWAP2 SWAP1 POP JUMP JUMPDEST PUSH1 0x0 PUSH1 0x20 DUP3 ADD SWAP1 POP DUP2 DUP2 SUB PUSH1 0x0 DUP4 ADD MSTORE PUSH2 0x4600 DUP2 PUSH2 0x45C4 JUMP JUMPDEST SWAP1 POP SWAP2 SWAP1 POP JUMP JUMPDEST PUSH32 0x456E63727970746564204B312072657175697265640000000000000000000000 PUSH1 0x0 DUP3 ADD MSTORE POP JUMP JUMPDEST PUSH1 0x0 PUSH2 0x463D PUSH1 0x15 DUP4 PUSH2 0x3BB1 JUMP JUMPDEST SWAP2 POP PUSH2 0x4648 DUP3 PUSH2 0x4607 JUMP JUMPDEST PUSH1 0x20 DUP3 ADD SWAP1 POP SWAP2 SWAP1 POP JUMP JUMPDEST PUSH1 0x0 PUSH1 0x20 DUP3 ADD SWAP1 POP DUP2 DUP2 SUB PUSH1 0x0 DUP4 ADD MSTORE PUSH2 0x466C DUP2 PUSH2 0x4630 JUMP JUMPDEST SWAP1 POP SWAP2 SWAP1 POP JUMP JUMPDEST PUSH32 0x4E6F7420656E6F75676820736861726573000000000000000000000000000000 PUSH1 0x0 DUP3 ADD MSTORE POP JUMP JUMPDEST PUSH1 0x0 PUSH2 0x46A9 PUSH1 0x11 DUP4 PUSH2 0x3BB1 JUMP JUMPDEST SWAP2 POP PUSH2 0x46B4 DUP3 PUSH2 0x4673 JUMP JUMPDEST PUSH1 0x20 DUP3 ADD SWAP1 POP SWAP2 SWAP1 POP JUMP JUMPDEST PUSH1 0x0 PUSH1 0x20 DUP3 ADD SWAP1 POP DUP2 DUP2 SUB PUSH1 0x0 DUP4 ADD MSTORE PUSH2 0x46D8 DUP2 PUSH2 0x469C JUMP JUMPDEST SWAP1 POP SWAP2 SWAP1 POP JUMP JUMPDEST PUSH32 0x5468726573686F6C64206D757374206265206174206C65617374203200000000 PUSH1 0x0 DUP3 ADD MSTORE POP JUMP JUMPDEST PUSH1 0x0 PUSH2 0x4715 PUSH1 0x1C DUP4 PUSH2 0x3BB1 JUMP JUMPDEST SWAP2 POP PUSH2 0x4720 DUP3 PUSH2 0x46DF JUMP JUMPDEST PUSH1 0x20 DUP3 ADD SWAP1 POP SWAP2 SWAP1 POP JUMP JUMPDEST PUSH1 0x0 PUSH1 0x20 DUP3 ADD SWAP1 POP DUP2 DUP2 SUB PUSH1 0x0 DUP4 ADD MSTORE PUSH2 0x4744 DUP2 PUSH2 0x4708 JUMP JUMPDEST SWAP1 POP SWAP2 SWAP1 POP JUMP JUMPDEST PUSH32 0x4E487B7100000000000000000000000000000000000000000000000000000000 PUSH1 0x0 MSTORE PUSH1 0x11 PUSH1 0x4 MSTORE PUSH1 0x24 PUSH1 0x0 REVERT JUMPDEST PUSH1 0x0 PUSH2 0x4785 DUP3 PUSH2 0x3064 JUMP JUMPDEST SWAP2 POP PUSH32 0xFFFFFFFFFFFFFFFFFFFFFFFFFFFFFFFFFFFFFFFFFFFFFFFFFFFFFFFFFFFFFFFF DUP3 SUB PUSH2 0x47B7 JUMPI PUSH2 0x47B6 PUSH2 0x474B JUMP JUMPDEST JUMPDEST PUSH1 0x1 DUP3 ADD SWAP1 POP SWAP2 SWAP1 POP JUMP JUMPDEST PUSH32 0x4E487B7100000000000000000000000000000000000000000000000000000000 PUSH1 0x0 MSTORE PUSH1 0x32 PUSH1 0x4 MSTORE PUSH1 0x24 PUSH1 0x0 REVERT JUMPDEST PUSH32 0x4E6F7420617574686F72697A6564000000000000000000000000000000000000 PUSH1 0x0 DUP3 ADD MSTORE POP JUMP JUMPDEST PUSH1 0x0 PUSH2 0x4827 PUSH1 0xE DUP4 PUSH2 0x3BB1 JUMP JUMPDEST SWAP2 POP PUSH2 0x4832 DUP3 PUSH2 0x47F1 JUMP JUMPDEST PUSH1 0x20 DUP3 ADD SWAP1 POP SWAP2 SWAP1 POP JUMP JUMPDEST PUSH1 0x0 PUSH1 0x20 DUP3 ADD SWAP1 POP DUP2 DUP2 SUB PUSH1 0x0 DUP4 ADD MSTORE PUSH2 0x4856 DUP2 PUSH2 0x481A JUMP JUMPDEST SWAP1 POP SWAP2 SWAP1 POP JUMP JUMPDEST PUSH32 0x43656E746572732F436C617373726F6F6D73206D69736D617463680000000000 PUSH1 0x0 DUP3 ADD MSTORE POP JUMP JUMPDEST PUSH1 0x0 PUSH2 0x4893 PUSH1 0x1B DUP4 PUSH2 0x3BB1 JUMP JUMPDEST SWAP2 POP PUSH2 0x489E DUP3 PUSH2 0x485D JUMP JUMPDEST PUSH1 0x20 DUP3 ADD SWAP1 POP SWAP2 SWAP1 POP JUMP JUMPDEST PUSH1 0x0 PUSH1 0x20 DUP3 ADD SWAP1 POP DUP2 DUP2 SUB PUSH1 0x0 DUP4 ADD MSTORE PUSH2 0x48C2 DUP2 PUSH2 0x4886 JUMP JUMPDEST SWAP1 POP SWAP2 SWAP1 POP JUMP JUMPDEST PUSH32 0x556E6C6F636B2074696D65206D75737420626520696E20667574757265000000 PUSH1 0x0 DUP3 ADD MSTORE POP JUMP JUMPDEST PUSH1 0x0 PUSH2 0x48FF PUSH1 0x1D DUP4 PUSH2 0x3BB1 JUMP JUMPDEST SWAP2 POP PUSH2 0x490A DUP3 PUSH2 0x48C9 JUMP JUMPDEST PUSH1 0x20 DUP3 ADD SWAP1 POP SWAP2 SWAP1 POP JUMP JUMPDEST PUSH1 0x0 PUSH1 0x20 DUP3 ADD SWAP1 POP DUP2 DUP2 SUB PUSH1 0x0 DUP4 ADD MSTORE PUSH2 0x492E DUP2 PUSH2 0x48F2 JUMP JUMPDEST SWAP1 POP SWAP2 SWAP1 POP JUMP JUMPDEST PUSH32 0x506170657220616C7265616479207363686564756C6564000000000000000000 PUSH1 0x0 DUP3 ADD MSTORE POP JUMP JUMPDEST PUSH1 0x0 PUSH2 0x496B PUSH1 0x17 DUP4 PUSH2 0x3BB1 JUMP JUMPDEST SWAP2 POP PUSH2 0x4976 DUP3 PUSH2 0x4935 JUMP JUMPDEST PUSH1 0x20 DUP3 ADD SWAP1 POP SWAP2 SWAP1 POP JUMP JUMPDEST PUSH1 0x0 PUSH1 0x20 DUP3 ADD SWAP1 POP DUP2 DUP2 SUB PUSH1 0x0 DUP4 ADD MSTORE PUSH2 0x499A DUP2 PUSH2 0x495E JUMP JUMPDEST SWAP1 POP SWAP2 SWAP1 POP JUMP JUMPDEST PUSH32 0x43656E746572206E6F7420726567697374657265640000000000000000000000 PUSH1 0x0 DUP3 ADD MSTORE POP JUMP JUMPDEST PUSH1 0x0 PUSH2 0x49D7 PUSH1 0x15 DUP4 PUSH2 0x3BB1 JUMP JUMPDEST SWAP2 POP PUSH2 0x49E2 DUP3 PUSH2 0x49A1 JUMP JUMPDEST PUSH1 0x20 DUP3 ADD SWAP1 POP SWAP2 SWAP1 POP JUMP JUMPDEST PUSH1 0x0 PUSH1 0x20 DUP3 ADD SWAP1 POP DUP2 DUP2 SUB PUSH1 0x0 DUP4 ADD MSTORE PUSH2 0x4A06 DUP2 PUSH2 0x49CA JUMP JUMPDEST SWAP1 POP SWAP2 SWAP1 POP JUMP JUMPDEST PUSH32 0x4E6F742061737369676E656420746F2074686973207061706572000000000000 PUSH1 0x0 DUP3 ADD MSTORE POP JUMP JUMPDEST PUSH1 0x0 PUSH2 0x4A43 PUSH1 0x1A DUP4 PUSH2 0x3BB1 JUMP JUMPDEST SWAP2 POP PUSH2 0x4A4E DUP3 PUSH2 0x4A0D JUMP JUMPDEST PUSH1 0x20 DUP3 ADD SWAP1 POP SWAP2 SWAP1 POP JUMP JUMPDEST PUSH1 0x0 PUSH1 0x20 DUP3 ADD SWAP1 POP DUP2 DUP2 SUB PUSH1 0x0 DUP4 ADD MSTORE PUSH2 0x4A72 DUP2 PUSH2 0x4A36 JUMP JUMPDEST SWAP1 POP SWAP2 SWAP1 POP JUMP JUMPDEST PUSH32 0x5061706572206E6F7420756E6C6F636B65642079657400000000000000000000 PUSH1 0x0 DUP3 ADD MSTORE POP JUMP JUMPDEST PUSH1 0x0 PUSH2 0x4AAF PUSH1 0x16 DUP4 PUSH2 0x3BB1 JUMP JUMPDEST SWAP2 POP PUSH2 0x4ABA DUP3 PUSH2 0x4A79 JUMP JUMPDEST PUSH1 0x20 DUP3 ADD SWAP1 POP SWAP2 SWAP1 POP JUMP JUMPDEST PUSH1 0x0 PUSH1 0x20 DUP3 ADD SWAP1 POP DUP2 DUP2 SUB PUSH1 0x0 DUP4 ADD MSTORE PUSH2 0x4ADE DUP2 PUSH2 0x4AA2 JUMP JUMPDEST SWAP1 POP SWAP2 SWAP1 POP JUMP INVALID LOG2 PUSH5 0x6970667358 0x22 SLT KECCAK256 SWAP13 0xE7 PUSH7 0xDF0279B2A80BE7 SHL 0xB3 0xAA DUP1 LOG1 PREVRANDAO PUSH0 SWAP15 0x29 GAS 0xE1 MSIZE PUSH17 0x3819CD199B69122BAA64736F6C63430008 EQ STOP CALLER "},"methodIdentifiers":{"authorities(address)":"91223d69","authorityAddresses(uint256)":"b69dab68","centerAddresses(uint256)":"9a0dd666","centers(address)":"554a14ac","getAllAuthorities()":"fedf2c56","getAllCenters()":"4cdf8093","getCenterPublicKey(address)":"3b0ae1fd","getDecryptionShares(uint256)":"c7a10bd6","getMyClassroom(uint256)":"b5438f6d","getPaper(uint256)":"07993f04","isAssignedToCenter(uint256,address)":"93e9b6ed","paperAssignments(uint256,address)":"da0d83de","paperClassrooms(uint256,address)":"bc7cf6dd","paperCount()":"a56c2cb9","papers(uint256)":"5e775a27","registerAuthority(string)":"a930ecd7","registerExamCenter(string,bytes)":"00c172a2","scheduleExam(uint256,uint256,address[],string[])":"54a253dc","unlockPaper(uint256)":"2460cf76","uploadPaper(string,string,string[],bytes,bytes[],uint8)":"36272be1"}}}}}