{"contracts/ExamRegistry.sol":{"ExamRegistry":{"abi":[{"anonymous":false,"inputs":[{"indexed":true,"internalType":"address","name":"authority","type":"address"},{"indexed":false,"internalType":"string","name":"name","type":"string"}],"name":"AuthorityRegistered","type":"event"},{"anonymous":false,"inputs":[{"indexed":true,"internalType":"address","name":"centerAddress","type":"address"},{"indexed":false,"internalType":"string","name":"name","type":"string"}],"name":"CenterRegistered","type":"event"},{"anonymous":false,"inputs":[{"indexed":true,"internalType":"uint256","name":"paperId","type":"uint256"},{"indexed":false,"internalType":"uint256","name":"unlockTimestamp","type":"uint256"},{"indexed":true,"internalType":"address","name":"authority","type":"address"}],"name":"PaperScheduled","type":"event"},{"anonymous":false,"inputs":[{"indexed":true,"internalType":"uint256","name":"paperId","type":"uint256"},{"indexed":false,"internalType":"uint256","name":"timestamp","type":"uint256"}],"name":"PaperUnlocked","type":"event"},{"anonymous":false,"inputs":[{"indexed":true,"internalType":"uint256","name":"paperId","type":"uint256"},{"indexed":false,"internalType":"string","name":"examName","type":"string"},{"indexed":true,"internalType":"address","name":"teacher","type":"address"}],"name":"PaperUploaded","type":"event"},{"inputs":[{"internalType":"address","name":"","type":"address"}],"name":"authorities","outputs":[{"internalType":"string","name":"name","type":"string"},{"internalType":"bool","name":"isRegistered","type":"bool"},{"internalType":"bool","name":"isActive","type":"bool"}],"stateMutability":"view","type":"function"},{"inputs":[{"internalType":"uint256","name":"","type":"uint256"}],"name":"authorityAddresses","outputs":[{"internalType":"address","name":"","type":"address"}],"stateMutability":"view","type":"function"},{"inputs":[{"internalType":"uint256","name":"","type":"uint256"}],"name":"centerAddresses","outputs":[{"internalType":"address","name":"","type":"address"}],"stateMutability":"view","type":"function"},{"inputs":[{"internalType":"address","name":"","type":"address"}],"name":"centers","outputs":[{"internalType":"string","name":"name","type":"string"},{"internalType":"bytes","name":"publicKey","type":"bytes"},{"internalType":"bool","name":"isRegistered","type":"bool"}],"stateMutability":"view","type":"function"},{"inputs":[],"name":"getAllAuthorities","outputs":[{"internalType":"address[]","name":"","type":"address[]"},{"internalType":"string[]","name":"","type":"string[]"}],"stateMutability":"view","type":"function"},{"inputs":[],"name":"getAllCenters","outputs":[{"internalType":"address[]","name":"","type":"address[]"},{"internalType":"string[]","name":"","type":"string[]"}],"stateMutability":"view","type":"function"},{"inputs":[{"internalType":"address","name":"_center","type":"address"}],"name":"getCenterPublicKey","outputs":[{"internalType":"bytes","name":"","type":"bytes"}],"stateMutability":"view","type":"function"},{"inputs":[{"internalType":"uint256","name":"_paperId","type":"uint256"}],"name":"getMyClassroom","outputs":[{"internalType":"string","name":"","type":"string"}],"stateMutability":"view","type":"function"},{"inputs":[{"internalType":"uint256","name":"_paperId","type":"uint256"}],"name":"getPaper","outputs":[{"components":[{"internalType":"string","name":"examName","type":"string"},{"internalType":"string","name":"subject","type":"string"},{"internalType":"address","name":"teacher","type":"address"},{"internalType":"string[]","name":"ipfsCIDs","type":"string[]"},{"internalType":"uint256","name":"uploadTimestamp","type":"uint256"},{"internalType":"uint256","name":"unlockTimestamp","type":"uint256"},{"internalType":"bool","name":"isScheduled","type":"bool"},{"internalType":"bool","name":"isUnlocked","type":"bool"},{"internalType":"address","name":"authority","type":"address"},{"internalType":"bytes","name":"timeLockedKey","type":"bytes"},{"internalType":"string","name":"keyDerivationSalt","type":"string"}],"internalType":"struct ExamRegistry.Paper","name":"","type":"tuple"}],"stateMutability":"view","type":"function"},{"inputs":[{"internalType":"uint256","name":"_paperId","type":"uint256"}],"name":"getTimeLockedKey","outputs":[{"internalType":"bytes","name":"","type":"bytes"},{"internalType":"string","name":"","type":"string"}],"stateMutability":"view","type":"function"},{"inputs":[{"internalType":"uint256","name":"_paperId","type":"uint256"},{"internalType":"address","name":"_center","type":"address"}],"name":"isAssignedToCenter","outputs":[{"internalType":"bool","name":"","type":"bool"}],"stateMutability":"view","type":"function"},{"inputs":[{"internalType":"uint256","name":"","type":"uint256"},{"internalType":"address","name":"","type":"address"}],"name":"paperAssignments","outputs":[{"internalType":"bool","name":"","type":"bool"}],"stateMutability":"view","type":"function"},{"inputs":[{"internalType":"uint256","name":"","type":"uint256"},{"internalType":"address","name":"","type":"address"}],"name":"paperClassrooms","outputs":[{"internalType":"string","name":"","type":"string"}],"stateMutability":"view","type":"function"},{"inputs":[],"name":"paperCount","outputs":[{"internalType":"uint256","name":"","type":"uint256"}],"stateMutability":"view","type":"function"},{"inputs":[{"internalType":"uint256","name":"","type":"uint256"}],"name":"papers","outputs":[{"internalType":"string","name":"examName","type":"string"},{"internalType":"string","name":"subject","type":"string"},{"internalType":"address","name":"teacher","type":"address"},{"internalType":"uint256","name":"uploadTimestamp","type":"uint256"},{"internalType":"uint256","name":"unlockTimestamp","type":"uint256"},{"internalType":"bool","name":"isScheduled","type":"bool"},{"internalType":"bool","name":"isUnlocked","type":"bool"},{"internalType":"address","name":"authority","type":"address"},{"internalType":"bytes","name":"timeLockedKey","type":"bytes"},{"internalType":"string","name":"keyDerivationSalt","type":"string"}],"stateMutability":"view","type":"function"},{"inputs":[{"internalType":"string","name":"_name","type":"string"}],"name":"registerAuthority","outputs":[],"stateMutability":"nonpayable","type":"function"},{"inputs":[{"internalType":"string","name":"_name","type":"string"},{"internalType":"bytes","name":"_publicKey","type":"bytes"}],"name":"registerExamCenter","outputs":[],"stateMutability":"nonpayable","type":"function"},{"inputs":[{"internalType":"uint256","name":"_paperId","type":"uint256"},{"internalType":"uint256","name":"_unlockTimestamp","type":"uint256"},{"internalType":"address[]","name":"_centers","type":"address[]"},{"internalType":"string[]","name":"_classrooms","type":"string[]"},{"internalType":"bytes","name":"_newTimeLockedKey","type":"bytes"},{"internalType":"string","name":"_newSalt","type":"string"}],"name":"scheduleExam","outputs":[],"stateMutability":"nonpayable","type":"function"},{"inputs":[{"internalType":"uint256","name":"_paperId","type":"uint256"}],"name":"unlockPaper","outputs":[],"stateMutability":"nonpayable","type":"function"},{"inputs":[{"internalType":"string","name":"_examName","type":"string"},{"internalType":"string","name":"_subject","type":"string"},{"internalType":"string[]","name":"_ipfsCIDs","type":"string[]"},{"internalType":"bytes","name":"_timeLockedKey","type":"bytes"},{"internalType":"string","name":"_keyDerivationSalt","type":"string"}],"name":"uploadPaper","outputs":[{"internalType":"uint256","name":"","type":"uint256"}],"stateMutability":"nonpayable","type":"function"}],"evm":{"bytecode":{"linkReferences":{},"object":"608060405234801561001057600080fd5b506146e7806100206000396000f3fe608060405234801561001057600080fd5b506004361061012b5760003560e01c80639a0dd666116100ad578063b69dab6811610071578063b69dab68146103af578063bc7cf6dd146103df578063c3a4d3f81461040f578063da0d83de1461042b578063fedf2c561461045b5761012b565b80639a0dd666146102e5578063a56c2cb914610315578063a6470ba014610333578063a930ecd714610363578063b5438f6d1461037f5761012b565b8063554a14ac116100f4578063554a14ac146101e75780635e775a2714610219578063665fbc441461025257806391223d691461028357806393e9b6ed146102b55761012b565b8062c172a21461013057806307993f041461014c5780632460cf761461017c5780633b0ae1fd146101985780634cdf8093146101c8575b600080fd5b61014a60048036038101906101459190612e74565b61047a565b005b61016660048036038101906101619190612f22565b6106b8565b604051610173919061325b565b60405180910390f35b61019660048036038101906101919190612f22565b610b4f565b005b6101b260048036038101906101ad91906132a9565b610ca9565b6040516101bf9190613320565b60405180910390f35b6101d0610d7d565b6040516101de929190613477565b60405180910390f35b61020160048036038101906101fc91906132a9565b61100c565b60405161021093929190613507565b60405180910390f35b610233600480360381019061022e9190612f22565b611153565b6040516102499a9998979695949392919061356a565b60405180910390f35b61026c60048036038101906102679190612f22565b611421565b60405161027a929190613622565b60405180910390f35b61029d600480360381019061029891906132a9565b6119a7565b6040516102ac93929190613659565b60405180910390f35b6102cf60048036038101906102ca9190613697565b611a73565b6040516102dc91906136d7565b60405180910390f35b6102ff60048036038101906102fa9190612f22565b611b2e565b60405161030c91906136f2565b60405180910390f35b61031d611b6d565b60405161032a919061370d565b60405180910390f35b61034d6004803603810190610348919061380e565b611b73565b60405161035a919061370d565b60405180910390f35b61037d60048036038101906103789190613915565b611eec565b005b61039960048036038101906103949190612f22565b6120ae565b6040516103a6919061395e565b60405180910390f35b6103c960048036038101906103c49190612f22565b612280565b6040516103d691906136f2565b60405180910390f35b6103f960048036038101906103f49190613697565b6122bf565b604051610406919061395e565b60405180910390f35b61042960048036038101906104249190613a43565b61236c565b005b61044560048036038101906104409190613697565b612857565b60405161045291906136d7565b60405180910390f35b610463612886565b604051610471929190613477565b60405180910390f35b60008251116104be576040517f08c379a00000000000000000000000000000000000000000000000000000000081526004016104b590613b8c565b60405180910390fd5b6000815111610502576040517f08c379a00000000000000000000000000000000000000000000000000000000081526004016104f990613bf8565b60405180910390fd5b600260003373ffffffffffffffffffffffffffffffffffffffff1673ffffffffffffffffffffffffffffffffffffffff16815260200190815260200160002060020160009054906101000a900460ff166105ba576003339080600181540180825580915050600190039060005260206000200160009091909190916101000a81548173ffffffffffffffffffffffffffffffffffffffff021916908373ffffffffffffffffffffffffffffffffffffffff1602179055505b604051806060016040528083815260200182815260200160011515815250600260003373ffffffffffffffffffffffffffffffffffffffff1673ffffffffffffffffffffffffffffffffffffffff168152602001908152602001600020600082015181600001908161062c9190613e24565b5060208201518160010190816106429190613f51565b5060408201518160020160006101000a81548160ff0219169083151502179055509050503373ffffffffffffffffffffffffffffffffffffffff167f1ffb27eb65cbbc9dfaa75d97c82c72d0f599317651d968e7e4ea93553e154c92836040516106ac919061395e565b60405180910390a25050565b6106c0612b15565b816000811180156106d357506001548111155b610712576040517f08c379a00000000000000000000000000000000000000000000000000000000081526004016107099061406f565b60405180910390fd5b6000808481526020019081526020016000206040518061016001604052908160008201805461074090613c47565b80601f016020809104026020016040519081016040528092919081815260200182805461076c90613c47565b80156107b95780601f1061078e576101008083540402835291602001916107b9565b820191906000526020600020905b81548152906001019060200180831161079c57829003601f168201915b505050505081526020016001820180546107d290613c47565b80601f01602080910402602001604051908101604052809291908181526020018280546107fe90613c47565b801561084b5780601f106108205761010080835404028352916020019161084b565b820191906000526020600020905b81548152906001019060200180831161082e57829003601f168201915b505050505081526020016002820160009054906101000a900473ffffffffffffffffffffffffffffffffffffffff1673ffffffffffffffffffffffffffffffffffffffff1673ffffffffffffffffffffffffffffffffffffffff16815260200160038201805480602002602001604051908101604052809291908181526020016000905b8282101561097b5783829060005260206000200180546108ee90613c47565b80601f016020809104026020016040519081016040528092919081815260200182805461091a90613c47565b80156109675780601f1061093c57610100808354040283529160200191610967565b820191906000526020600020905b81548152906001019060200180831161094a57829003601f168201915b5050505050815260200190600101906108cf565b50505050815260200160048201548152602001600582015481526020016006820160009054906101000a900460ff161515151581526020016006820160019054906101000a900460ff161515151581526020016006820160029054906101000a900473ffffffffffffffffffffffffffffffffffffffff1673ffffffffffffffffffffffffffffffffffffffff1673ffffffffffffffffffffffffffffffffffffffff168152602001600782018054610a3390613c47565b80601f0160208091040260200160405190810160405280929190818152602001828054610a5f90613c47565b8015610aac5780601f10610a8157610100808354040283529160200191610aac565b820191906000526020600020905b815481529060010190602001808311610a8f57829003601f168201915b50505050508152602001600882018054610ac590613c47565b80601f0160208091040260200160405190810160405280929190818152602001828054610af190613c47565b8015610b3e5780601f10610b1357610100808354040283529160200191610b3e565b820191906000526020600020905b815481529060010190602001808311610b2157829003601f168201915b505050505081525050915050919050565b80600081118015610b6257506001548111155b610ba1576040517f08c379a0000000000000000000000000000000000000000000000000000000008152600401610b989061406f565b60405180910390fd5b600080600084815260200190815260200160002090508060060160009054906101000a900460ff16610c08576040517f08c379a0000000000000000000000000000000000000000000000000000000008152600401610bff906140db565b60405180910390fd5b8060050154421015610c4f576040517f08c379a0000000000000000000000000000000000000000000000000000000008152600401610c4690614147565b60405180910390fd5b60018160060160016101000a81548160ff021916908315150217905550827f79f7de7ac9a8923c7ccc915fb4c5041920583f938a5406435331e490e06e0cf342604051610c9c919061370d565b60405180910390a2505050565b6060600260008373ffffffffffffffffffffffffffffffffffffffff1673ffffffffffffffffffffffffffffffffffffffff1681526020019081526020016000206001018054610cf890613c47565b80601f0160208091040260200160405190810160405280929190818152602001828054610d2490613c47565b8015610d715780601f10610d4657610100808354040283529160200191610d71565b820191906000526020600020905b815481529060010190602001808311610d5457829003601f168201915b50505050509050919050565b606080600060038054905067ffffffffffffffff811115610da157610da0612ca8565b5b604051908082528060200260200182016040528015610dcf5781602001602082028036833780820191505090505b509050600060038054905067ffffffffffffffff811115610df357610df2612ca8565b5b604051908082528060200260200182016040528015610e2657816020015b6060815260200190600190039081610e115790505b50905060005b600380549050811015610fff5760038181548110610e4d57610e4c614167565b5b9060005260206000200160009054906101000a900473ffffffffffffffffffffffffffffffffffffffff16838281518110610e8b57610e8a614167565b5b602002602001019073ffffffffffffffffffffffffffffffffffffffff16908173ffffffffffffffffffffffffffffffffffffffff16815250506002600060038381548110610edd57610edc614167565b5b9060005260206000200160009054906101000a900473ffffffffffffffffffffffffffffffffffffffff1673ffffffffffffffffffffffffffffffffffffffff1673ffffffffffffffffffffffffffffffffffffffff1681526020019081526020016000206000018054610f5090613c47565b80601f0160208091040260200160405190810160405280929190818152602001828054610f7c90613c47565b8015610fc95780601f10610f9e57610100808354040283529160200191610fc9565b820191906000526020600020905b815481529060010190602001808311610fac57829003601f168201915b5050505050828281518110610fe157610fe0614167565b5b60200260200101819052508080610ff7906141c5565b915050610e2c565b5081819350935050509091565b600260205280600052604060002060009150905080600001805461102f90613c47565b80601f016020809104026020016040519081016040528092919081815260200182805461105b90613c47565b80156110a85780601f1061107d576101008083540402835291602001916110a8565b820191906000526020600020905b81548152906001019060200180831161108b57829003601f168201915b5050505050908060010180546110bd90613c47565b80601f01602080910402602001604051908101604052809291908181526020018280546110e990613c47565b80156111365780601f1061110b57610100808354040283529160200191611136565b820191906000526020600020905b81548152906001019060200180831161111957829003601f168201915b5050505050908060020160009054906101000a900460ff16905083565b600060205280600052604060002060009150905080600001805461117690613c47565b80601f01602080910402602001604051908101604052809291908181526020018280546111a290613c47565b80156111ef5780601f106111c4576101008083540402835291602001916111ef565b820191906000526020600020905b8154815290600101906020018083116111d257829003601f168201915b50505050509080600101805461120490613c47565b80601f016020809104026020016040519081016040528092919081815260200182805461123090613c47565b801561127d5780601f106112525761010080835404028352916020019161127d565b820191906000526020600020905b81548152906001019060200180831161126057829003601f168201915b5050505050908060020160009054906101000a900473ffffffffffffffffffffffffffffffffffffffff16908060040154908060050154908060060160009054906101000a900460ff16908060060160019054906101000a900460ff16908060060160029054906101000a900473ffffffffffffffffffffffffffffffffffffffff169080600701805461131090613c47565b80601f016020809104026020016040519081016040528092919081815260200182805461133c90613c47565b80156113895780601f1061135e57610100808354040283529160200191611389565b820191906000526020600020905b81548152906001019060200180831161136c57829003601f168201915b50505050509080600801805461139e90613c47565b80601f01602080910402602001604051908101604052809291908181526020018280546113ca90613c47565b80156114175780601f106113ec57610100808354040283529160200191611417565b820191906000526020600020905b8154815290600101906020018083116113fa57829003601f168201915b505050505090508a565b6060808260008111801561143757506001548111155b611476576040517f08c379a000000000000000000000000000000000000000000000000000000000815260040161146d9061406f565b60405180910390fd5b6000806000868152602001908152602001600020604051806101600160405290816000820180546114a690613c47565b80601f01602080910402602001604051908101604052809291908181526020018280546114d290613c47565b801561151f5780601f106114f45761010080835404028352916020019161151f565b820191906000526020600020905b81548152906001019060200180831161150257829003601f168201915b5050505050815260200160018201805461153890613c47565b80601f016020809104026020016040519081016040528092919081815260200182805461156490613c47565b80156115b15780601f10611586576101008083540402835291602001916115b1565b820191906000526020600020905b81548152906001019060200180831161159457829003601f168201915b505050505081526020016002820160009054906101000a900473ffffffffffffffffffffffffffffffffffffffff1673ffffffffffffffffffffffffffffffffffffffff1673ffffffffffffffffffffffffffffffffffffffff16815260200160038201805480602002602001604051908101604052809291908181526020016000905b828210156116e157838290600052602060002001805461165490613c47565b80601f016020809104026020016040519081016040528092919081815260200182805461168090613c47565b80156116cd5780601f106116a2576101008083540402835291602001916116cd565b820191906000526020600020905b8154815290600101906020018083116116b057829003601f168201915b505050505081526020019060010190611635565b50505050815260200160048201548152602001600582015481526020016006820160009054906101000a900460ff161515151581526020016006820160019054906101000a900460ff161515151581526020016006820160029054906101000a900473ffffffffffffffffffffffffffffffffffffffff1673ffffffffffffffffffffffffffffffffffffffff1673ffffffffffffffffffffffffffffffffffffffff16815260200160078201805461179990613c47565b80601f01602080910402602001604051908101604052809291908181526020018280546117c590613c47565b80156118125780601f106117e757610100808354040283529160200191611812565b820191906000526020600020905b8154815290600101906020018083116117f557829003601f168201915b5050505050815260200160088201805461182b90613c47565b80601f016020809104026020016040519081016040528092919081815260200182805461185790613c47565b80156118a45780601f10611879576101008083540402835291602001916118a4565b820191906000526020600020905b81548152906001019060200180831161188757829003601f168201915b50505050508152505090508060e001516118f3576040517f08c379a00000000000000000000000000000000000000000000000000000000081526004016118ea90614259565b60405180910390fd5b6007600086815260200190815260200160002060003373ffffffffffffffffffffffffffffffffffffffff1673ffffffffffffffffffffffffffffffffffffffff16815260200190815260200160002060009054906101000a900460ff16611990576040517f08c379a0000000000000000000000000000000000000000000000000000000008152600401611987906142c5565b60405180910390fd5b806101200151816101400151935093505050915091565b60046020528060005260406000206000915090508060000180546119ca90613c47565b80601f01602080910402602001604051908101604052809291908181526020018280546119f690613c47565b8015611a435780601f10611a1857610100808354040283529160200191611a43565b820191906000526020600020905b815481529060010190602001808311611a2657829003601f168201915b5050505050908060010160009054906101000a900460ff16908060010160019054906101000a900460ff16905083565b600082600081118015611a8857506001548111155b611ac7576040517f08c379a0000000000000000000000000000000000000000000000000000000008152600401611abe9061406f565b60405180910390fd5b6007600085815260200190815260200160002060008473ffffffffffffffffffffffffffffffffffffffff1673ffffffffffffffffffffffffffffffffffffffff16815260200190815260200160002060009054906101000a900460ff1691505092915050565b60038181548110611b3e57600080fd5b906000526020600020016000915054906101000a900473ffffffffffffffffffffffffffffffffffffffff1681565b60015481565b600080865111611bb8576040517f08c379a0000000000000000000000000000000000000000000000000000000008152600401611baf90614331565b60405180910390fd5b6000845111611bfc576040517f08c379a0000000000000000000000000000000000000000000000000000000008152600401611bf39061439d565b60405180910390fd5b6000835111611c40576040517f08c379a0000000000000000000000000000000000000000000000000000000008152600401611c3790614409565b60405180910390fd5b6000825111611c84576040517f08c379a0000000000000000000000000000000000000000000000000000000008152600401611c7b90614475565b60405180910390fd5b60016000815480929190611c97906141c5565b91905055506040518061016001604052808781526020018681526020013373ffffffffffffffffffffffffffffffffffffffff16815260200185815260200142815260200160008152602001600015158152602001600015158152602001600073ffffffffffffffffffffffffffffffffffffffff1681526020018481526020018381525060008060015481526020019081526020016000206000820151816000019081611d459190613e24565b506020820151816001019081611d5b9190613e24565b5060408201518160020160006101000a81548173ffffffffffffffffffffffffffffffffffffffff021916908373ffffffffffffffffffffffffffffffffffffffff1602179055506060820151816003019080519060200190611dbf929190612b9f565b506080820151816004015560a0820151816005015560c08201518160060160006101000a81548160ff02191690831515021790555060e08201518160060160016101000a81548160ff0219169083151502179055506101008201518160060160026101000a81548173ffffffffffffffffffffffffffffffffffffffff021916908373ffffffffffffffffffffffffffffffffffffffff160217905550610120820151816007019081611e729190613f51565b50610140820151816008019081611e899190613e24565b509050503373ffffffffffffffffffffffffffffffffffffffff166001547ff2addd0844bf6c683670be19a71fe7603380bdc0b1a9ecde0137f08b5e0d644a88604051611ed6919061395e565b60405180910390a3600154905095945050505050565b600460003373ffffffffffffffffffffffffffffffffffffffff1673ffffffffffffffffffffffffffffffffffffffff16815260200190815260200160002060010160009054906101000a900460ff16611fa4576005339080600181540180825580915050600190039060005260206000200160009091909190916101000a81548173ffffffffffffffffffffffffffffffffffffffff021916908373ffffffffffffffffffffffffffffffffffffffff1602179055505b604051806060016040528082815260200160011515815260200160011515815250600460003373ffffffffffffffffffffffffffffffffffffffff1673ffffffffffffffffffffffffffffffffffffffff16815260200190815260200160002060008201518160000190816120199190613e24565b5060208201518160010160006101000a81548160ff02191690831515021790555060408201518160010160016101000a81548160ff0219169083151502179055509050503373ffffffffffffffffffffffffffffffffffffffff167f8b3ab3ac57020b92e516b703bb37e5b4d0b12cc6c39d69288f9380be3f19dcbe826040516120a3919061395e565b60405180910390a250565b6060816000811180156120c357506001548111155b612102576040517f08c379a00000000000000000000000000000000000000000000000000000000081526004016120f99061406f565b60405180910390fd5b6007600084815260200190815260200160002060003373ffffffffffffffffffffffffffffffffffffffff1673ffffffffffffffffffffffffffffffffffffffff16815260200190815260200160002060009054906101000a900460ff1661219f576040517f08c379a0000000000000000000000000000000000000000000000000000000008152600401612196906142c5565b60405180910390fd5b6006600084815260200190815260200160002060003373ffffffffffffffffffffffffffffffffffffffff1673ffffffffffffffffffffffffffffffffffffffff16815260200190815260200160002080546121fa90613c47565b80601f016020809104026020016040519081016040528092919081815260200182805461222690613c47565b80156122735780601f1061224857610100808354040283529160200191612273565b820191906000526020600020905b81548152906001019060200180831161225657829003601f168201915b5050505050915050919050565b6005818154811061229057600080fd5b906000526020600020016000915054906101000a900473ffffffffffffffffffffffffffffffffffffffff1681565b60066020528160005260406000206020528060005260406000206000915091505080546122eb90613c47565b80601f016020809104026020016040519081016040528092919081815260200182805461231790613c47565b80156123645780601f1061233957610100808354040283529160200191612364565b820191906000526020600020905b81548152906001019060200180831161234757829003601f168201915b505050505081565b600460003373ffffffffffffffffffffffffffffffffffffffff1673ffffffffffffffffffffffffffffffffffffffff16815260200190815260200160002060010160009054906101000a900460ff1680156124145750600460003373ffffffffffffffffffffffffffffffffffffffff1673ffffffffffffffffffffffffffffffffffffffff16815260200190815260200160002060010160019054906101000a900460ff165b612453576040517f08c379a000000000000000000000000000000000000000000000000000000000815260040161244a906144e1565b60405180910390fd5b8560008111801561246657506001548111155b6124a5576040517f08c379a000000000000000000000000000000000000000000000000000000000815260040161249c9061406f565b60405180910390fd5b83518551146124e9576040517f08c379a00000000000000000000000000000000000000000000000000000000081526004016124e09061454d565b60405180910390fd5b42861161252b576040517f08c379a0000000000000000000000000000000000000000000000000000000008152600401612522906145b9565b60405180910390fd5b600080600089815260200190815260200160002090508060060160009054906101000a900460ff1615612593576040517f08c379a000000000000000000000000000000000000000000000000000000000815260040161258a90614625565b60405180910390fd5b60005b865181101561277057600260008883815181106125b6576125b5614167565b5b602002602001015173ffffffffffffffffffffffffffffffffffffffff1673ffffffffffffffffffffffffffffffffffffffff16815260200190815260200160002060020160009054906101000a900460ff16612648576040517f08c379a000000000000000000000000000000000000000000000000000000000815260040161263f90614691565b60405180910390fd5b85818151811061265b5761265a614167565b5b6020026020010151600660008b8152602001908152602001600020600089848151811061268b5761268a614167565b5b602002602001015173ffffffffffffffffffffffffffffffffffffffff1673ffffffffffffffffffffffffffffffffffffffff16815260200190815260200160002090816126d99190613e24565b506001600760008b8152602001908152602001600020600089848151811061270457612703614167565b5b602002602001015173ffffffffffffffffffffffffffffffffffffffff1673ffffffffffffffffffffffffffffffffffffffff16815260200190815260200160002060006101000a81548160ff0219169083151502179055508080612768906141c5565b915050612596565b50838160070190816127829190613f51565b50828160080190816127949190613e24565b5086816005018190555060018160060160006101000a81548160ff021916908315150217905550338160060160026101000a81548173ffffffffffffffffffffffffffffffffffffffff021916908373ffffffffffffffffffffffffffffffffffffffff1602179055503373ffffffffffffffffffffffffffffffffffffffff16887f3d33224841a69211485d8e455a900b8e87a0cf87d2e1df52f1ea56ebc485d70089604051612845919061370d565b60405180910390a35050505050505050565b60076020528160005260406000206020528060005260406000206000915091509054906101000a900460ff1681565b606080600060058054905067ffffffffffffffff8111156128aa576128a9612ca8565b5b6040519080825280602002602001820160405280156128d85781602001602082028036833780820191505090505b509050600060058054905067ffffffffffffffff8111156128fc576128fb612ca8565b5b60405190808252806020026020018201604052801561292f57816020015b606081526020019060019003908161291a5790505b50905060005b600580549050811015612b08576005818154811061295657612955614167565b5b9060005260206000200160009054906101000a900473ffffffffffffffffffffffffffffffffffffffff1683828151811061299457612993614167565b5b602002602001019073ffffffffffffffffffffffffffffffffffffffff16908173ffffffffffffffffffffffffffffffffffffffff168152505060046000600583815481106129e6576129e5614167565b5b9060005260206000200160009054906101000a900473ffffffffffffffffffffffffffffffffffffffff1673ffffffffffffffffffffffffffffffffffffffff1673ffffffffffffffffffffffffffffffffffffffff1681526020019081526020016000206000018054612a5990613c47565b80601f0160208091040260200160405190810160405280929190818152602001828054612a8590613c47565b8015612ad25780601f10612aa757610100808354040283529160200191612ad2565b820191906000526020600020905b815481529060010190602001808311612ab557829003601f168201915b5050505050828281518110612aea57612ae9614167565b5b60200260200101819052508080612b00906141c5565b915050612935565b5081819350935050509091565b6040518061016001604052806060815260200160608152602001600073ffffffffffffffffffffffffffffffffffffffff168152602001606081526020016000815260200160008152602001600015158152602001600015158152602001600073ffffffffffffffffffffffffffffffffffffffff16815260200160608152602001606081525090565b828054828255906000526020600020908101928215612be7579160200282015b82811115612be6578251829081612bd69190613e24565b5091602001919060010190612bbf565b5b509050612bf49190612bf8565b5090565b5b80821115612c185760008181612c0f9190612c1c565b50600101612bf9565b5090565b508054612c2890613c47565b6000825580601f10612c3a5750612c59565b601f016020900490600052602060002090810190612c589190612c5c565b5b50565b5b80821115612c75576000816000905550600101612c5d565b5090565b6000604051905090565b600080fd5b600080fd5b600080fd5b600080fd5b6000601f19601f8301169050919050565b7f4e487b7100000000000000000000000000000000000000000000000000000000600052604160045260246000fd5b612ce082612c97565b810181811067ffffffffffffffff82111715612cff57612cfe612ca8565b5b80604052505050565b6000612d12612c79565b9050612d1e8282612cd7565b919050565b600067ffffffffffffffff821115612d3e57612d3d612ca8565b5b612d4782612c97565b9050602081019050919050565b82818337600083830152505050565b6000612d76612d7184612d23565b612d08565b905082815260208101848484011115612d9257612d91612c92565b5b612d9d848285612d54565b509392505050565b600082601f830112612dba57612db9612c8d565b5b8135612dca848260208601612d63565b91505092915050565b600067ffffffffffffffff821115612dee57612ded612ca8565b5b612df782612c97565b9050602081019050919050565b6000612e17612e1284612dd3565b612d08565b905082815260208101848484011115612e3357612e32612c92565b5b612e3e848285612d54565b509392505050565b600082601f830112612e5b57612e5a612c8d565b5b8135612e6b848260208601612e04565b91505092915050565b60008060408385031215612e8b57612e8a612c83565b5b600083013567ffffffffffffffff811115612ea957612ea8612c88565b5b612eb585828601612da5565b925050602083013567ffffffffffffffff811115612ed657612ed5612c88565b5b612ee285828601612e46565b9150509250929050565b6000819050919050565b612eff81612eec565b8114612f0a57600080fd5b50565b600081359050612f1c81612ef6565b92915050565b600060208284031215612f3857612f37612c83565b5b6000612f4684828501612f0d565b91505092915050565b600081519050919050565b600082825260208201905092915050565b60005b83811015612f89578082015181840152602081019050612f6e565b60008484015250505050565b6000612fa082612f4f565b612faa8185612f5a565b9350612fba818560208601612f6b565b612fc381612c97565b840191505092915050565b600073ffffffffffffffffffffffffffffffffffffffff82169050919050565b6000612ff982612fce565b9050919050565b61300981612fee565b82525050565b600081519050919050565b600082825260208201905092915050565b6000819050602082019050919050565b60006130478383612f95565b905092915050565b6000602082019050919050565b60006130678261300f565b613071818561301a565b9350836020820285016130838561302b565b8060005b858110156130bf57848403895281516130a0858261303b565b94506130ab8361304f565b925060208a01995050600181019050613087565b50829750879550505050505092915050565b6130da81612eec565b82525050565b60008115159050919050565b6130f5816130e0565b82525050565b600081519050919050565b600082825260208201905092915050565b6000613122826130fb565b61312c8185613106565b935061313c818560208601612f6b565b61314581612c97565b840191505092915050565b600061016083016000830151848203600086015261316e8282612f95565b915050602083015184820360208601526131888282612f95565b915050604083015161319d6040860182613000565b50606083015184820360608601526131b5828261305c565b91505060808301516131ca60808601826130d1565b5060a08301516131dd60a08601826130d1565b5060c08301516131f060c08601826130ec565b5060e083015161320360e08601826130ec565b50610100830151613218610100860182613000565b506101208301518482036101208601526132328282613117565b91505061014083015184820361014086015261324e8282612f95565b9150508091505092915050565b600060208201905081810360008301526132758184613150565b905092915050565b61328681612fee565b811461329157600080fd5b50565b6000813590506132a38161327d565b92915050565b6000602082840312156132bf576132be612c83565b5b60006132cd84828501613294565b91505092915050565b600082825260208201905092915050565b60006132f2826130fb565b6132fc81856132d6565b935061330c818560208601612f6b565b61331581612c97565b840191505092915050565b6000602082019050818103600083015261333a81846132e7565b905092915050565b600081519050919050565b600082825260208201905092915050565b6000819050602082019050919050565b600061337a8383613000565b60208301905092915050565b6000602082019050919050565b600061339e82613342565b6133a8818561334d565b93506133b38361335e565b8060005b838110156133e45781516133cb888261336e565b97506133d683613386565b9250506001810190506133b7565b5085935050505092915050565b600082825260208201905092915050565b600061340d8261300f565b61341781856133f1565b9350836020820285016134298561302b565b8060005b858110156134655784840389528151613446858261303b565b94506134518361304f565b925060208a0199505060018101905061342d565b50829750879550505050505092915050565b600060408201905081810360008301526134918185613393565b905081810360208301526134a58184613402565b90509392505050565b600082825260208201905092915050565b60006134ca82612f4f565b6134d481856134ae565b93506134e4818560208601612f6b565b6134ed81612c97565b840191505092915050565b613501816130e0565b82525050565b6000606082019050818103600083015261352181866134bf565b9050818103602083015261353581856132e7565b905061354460408301846134f8565b949350505050565b61355581612fee565b82525050565b61356481612eec565b82525050565b6000610140820190508181036000830152613585818d6134bf565b90508181036020830152613599818c6134bf565b90506135a8604083018b61354c565b6135b5606083018a61355b565b6135c2608083018961355b565b6135cf60a08301886134f8565b6135dc60c08301876134f8565b6135e960e083018661354c565b8181036101008301526135fc81856132e7565b905081810361012083015261361181846134bf565b90509b9a5050505050505050505050565b6000604082019050818103600083015261363c81856132e7565b9050818103602083015261365081846134bf565b90509392505050565b6000606082019050818103600083015261367381866134bf565b905061368260208301856134f8565b61368f60408301846134f8565b949350505050565b600080604083850312156136ae576136ad612c83565b5b60006136bc85828601612f0d565b92505060206136cd85828601613294565b9150509250929050565b60006020820190506136ec60008301846134f8565b92915050565b6000602082019050613707600083018461354c565b92915050565b6000602082019050613722600083018461355b565b92915050565b600067ffffffffffffffff82111561374357613742612ca8565b5b602082029050602081019050919050565b600080fd5b600061376c61376784613728565b612d08565b9050808382526020820190506020840283018581111561378f5761378e613754565b5b835b818110156137d657803567ffffffffffffffff8111156137b4576137b3612c8d565b5b8086016137c18982612da5565b85526020850194505050602081019050613791565b5050509392505050565b600082601f8301126137f5576137f4612c8d565b5b8135613805848260208601613759565b91505092915050565b600080600080600060a0868803121561382a57613829612c83565b5b600086013567ffffffffffffffff81111561384857613847612c88565b5b61385488828901612da5565b955050602086013567ffffffffffffffff81111561387557613874612c88565b5b61388188828901612da5565b945050604086013567ffffffffffffffff8111156138a2576138a1612c88565b5b6138ae888289016137e0565b935050606086013567ffffffffffffffff8111156138cf576138ce612c88565b5b6138db88828901612e46565b925050608086013567ffffffffffffffff8111156138fc576138fb612c88565b5b61390888828901612da5565b9150509295509295909350565b60006020828403121561392b5761392a612c83565b5b600082013567ffffffffffffffff81111561394957613948612c88565b5b61395584828501612da5565b91505092915050565b6000602082019050818103600083015261397881846134bf565b905092915050565b600067ffffffffffffffff82111561399b5761399a612ca8565b5b602082029050602081019050919050565b60006139bf6139ba84613980565b612d08565b905080838252602082019050602084028301858111156139e2576139e1613754565b5b835b81811015613a0b57806139f78882613294565b8452602084019350506020810190506139e4565b5050509392505050565b600082601f830112613a2a57613a29612c8d565b5b8135613a3a8482602086016139ac565b91505092915050565b60008060008060008060c08789031215613a6057613a5f612c83565b5b6000613a6e89828a01612f0d565b9650506020613a7f89828a01612f0d565b955050604087013567ffffffffffffffff811115613aa057613a9f612c88565b5b613aac89828a01613a15565b945050606087013567ffffffffffffffff811115613acd57613acc612c88565b5b613ad989828a016137e0565b935050608087013567ffffffffffffffff811115613afa57613af9612c88565b5b613b0689828a01612e46565b92505060a087013567ffffffffffffffff811115613b2757613b26612c88565b5b613b3389828a01612da5565b9150509295509295509295565b7f4e616d6520726571756972656400000000000000000000000000000000000000600082015250565b6000613b76600d836134ae565b9150613b8182613b40565b602082019050919050565b60006020820190508181036000830152613ba581613b69565b9050919050565b7f5075626c6963206b657920726571756972656400000000000000000000000000600082015250565b6000613be26013836134ae565b9150613bed82613bac565b602082019050919050565b60006020820190508181036000830152613c1181613bd5565b9050919050565b7f4e487b7100000000000000000000000000000000000000000000000000000000600052602260045260246000fd5b60006002820490506001821680613c5f57607f821691505b602082108103613c7257613c71613c18565b5b50919050565b60008190508160005260206000209050919050565b60006020601f8301049050919050565b600082821b905092915050565b600060088302613cda7fffffffffffffffffffffffffffffffffffffffffffffffffffffffffffffffff82613c9d565b613ce48683613c9d565b95508019841693508086168417925050509392505050565b6000819050919050565b6000613d21613d1c613d1784612eec565b613cfc565b612eec565b9050919050565b6000819050919050565b613d3b83613d06565b613d4f613d4782613d28565b848454613caa565b825550505050565b600090565b613d64613d57565b613d6f818484613d32565b505050565b5b81811015613d9357613d88600082613d5c565b600181019050613d75565b5050565b601f821115613dd857613da981613c78565b613db284613c8d565b81016020851015613dc1578190505b613dd5613dcd85613c8d565b830182613d74565b50505b505050565b600082821c905092915050565b6000613dfb60001984600802613ddd565b1980831691505092915050565b6000613e148383613dea565b9150826002028217905092915050565b613e2d82612f4f565b67ffffffffffffffff811115613e4657613e45612ca8565b5b613e508254613c47565b613e5b828285613d97565b600060209050601f831160018114613e8e5760008415613e7c578287015190505b613e868582613e08565b865550613eee565b601f198416613e9c86613c78565b60005b82811015613ec457848901518255600182019150602085019450602081019050613e9f565b86831015613ee15784890151613edd601f891682613dea565b8355505b6001600288020188555050505b505050505050565b60008190508160005260206000209050919050565b601f821115613f4c57613f1d81613ef6565b613f2684613c8d565b81016020851015613f35578190505b613f49613f4185613c8d565b830182613d74565b50505b505050565b613f5a826130fb565b67ffffffffffffffff811115613f7357613f72612ca8565b5b613f7d8254613c47565b613f88828285613f0b565b600060209050601f831160018114613fbb5760008415613fa9578287015190505b613fb38582613e08565b86555061401b565b601f198416613fc986613ef6565b60005b82811015613ff157848901518255600182019150602085019450602081019050613fcc565b8683101561400e578489015161400a601f891682613dea565b8355505b6001600288020188555050505b505050505050565b7f496e76616c696420706170657220494400000000000000000000000000000000600082015250565b60006140596010836134ae565b915061406482614023565b602082019050919050565b600060208201905081810360008301526140888161404c565b9050919050565b7f5061706572206e6f74207363686564756c656400000000000000000000000000600082015250565b60006140c56013836134ae565b91506140d08261408f565b602082019050919050565b600060208201905081810360008301526140f4816140b8565b9050919050565b7f546f6f206561726c7920746f20756e6c6f636b00000000000000000000000000600082015250565b60006141316013836134ae565b915061413c826140fb565b602082019050919050565b6000602082019050818103600083015261416081614124565b9050919050565b7f4e487b7100000000000000000000000000000000000000000000000000000000600052603260045260246000fd5b7f4e487b7100000000000000000000000000000000000000000000000000000000600052601160045260246000fd5b60006141d082612eec565b91507fffffffffffffffffffffffffffffffffffffffffffffffffffffffffffffffff820361420257614201614196565b5b600182019050919050565b7f5061706572206e6f7420756e6c6f636b65642079657400000000000000000000600082015250565b60006142436016836134ae565b915061424e8261420d565b602082019050919050565b6000602082019050818103600083015261427281614236565b9050919050565b7f4e6f742061737369676e656420746f2074686973207061706572000000000000600082015250565b60006142af601a836134ae565b91506142ba82614279565b602082019050919050565b600060208201905081810360008301526142de816142a2565b9050919050565b7f4578616d206e616d652072657175697265640000000000000000000000000000600082015250565b600061431b6012836134ae565b9150614326826142e5565b602082019050919050565b6000602082019050818103600083015261434a8161430e565b9050919050565b7f4950465320434944732072657175697265640000000000000000000000000000600082015250565b60006143876012836134ae565b915061439282614351565b602082019050919050565b600060208201905081810360008301526143b68161437a565b9050919050565b7f54696d652d6c6f636b6564206b65792072657175697265640000000000000000600082015250565b60006143f36018836134ae565b91506143fe826143bd565b602082019050919050565b60006020820190508181036000830152614422816143e6565b9050919050565b7f4b65792064657269766174696f6e2073616c7420726571756972656400000000600082015250565b600061445f601c836134ae565b915061446a82614429565b602082019050919050565b6000602082019050818103600083015261448e81614452565b9050919050565b7f4e6f7420617574686f72697a6564000000000000000000000000000000000000600082015250565b60006144cb600e836134ae565b91506144d682614495565b602082019050919050565b600060208201905081810360008301526144fa816144be565b9050919050565b7f43656e746572732f436c617373726f6f6d73206d69736d617463680000000000600082015250565b6000614537601b836134ae565b915061454282614501565b602082019050919050565b600060208201905081810360008301526145668161452a565b9050919050565b7f556e6c6f636b2074696d65206d75737420626520696e20667574757265000000600082015250565b60006145a3601d836134ae565b91506145ae8261456d565b602082019050919050565b600060208201905081810360008301526145d281614596565b9050919050565b7f506170657220616c7265616479207363686564756c6564000000000000000000600082015250565b600061460f6017836134ae565b915061461a826145d9565b602082019050919050565b6000602082019050818103600083015261463e81614602565b9050919050565b7f43656e746572206e6f7420726567697374657265640000000000000000000000600082015250565b600061467b6015836134ae565b915061468682614645565b602082019050919050565b600060208201905081810360008301526146aa8161466e565b905091905056fea2646970667358221220e22ac2163719e6c61fc21c3bcd71c7482e31b52937709fe838246391f43fb6e664736f6c63430008140033","opcodes":"PUSH1 0x80 PUSH1 0x40 MSTORE CALLVALUE DUP1 ISZERO PUSH2 0x10 JUMPI PUSH1 0x0 DUP1 REVERT JUMPDEST POP PUSH2 0x46E7 DUP1 PUSH2 0x20 PUSH1 0x0 CODECOPY PUSH1 0x0 RETURN INVALID PUSH1 0x80 PUSH1 0x40 MSTORE CALLVALUE DUP1 ISZERO PUSH2 0x10 JUMPI PUSH1 0x0 DUP1 REVERT JUMPDEST POP PUSH1 0x4 CALLDATASIZE LT PUSH2 0x12B JUMPI PUSH1 0x0 CALLDATALOAD PUSH1 0xE0 SHR DUP1 PUSH4 0x9A0DD666 GT PUSH2 0xAD JUMPI DUP1 PUSH4 0xB69DAB68 GT PUSH2 0x71 JUMPI DUP1 PUSH4 0xB69DAB68 EQ PUSH2 0x3AF JUMPI DUP1 PUSH4 0xBC7CF6DD EQ PUSH2 0x3DF JUMPI DUP1 PUSH4 0xC3A4D3F8 EQ PUSH2 0x40F JUMPI DUP1 PUSH4 0xDA0D83DE EQ PUSH2 0x42B JUMPI DUP1 PUSH4 0xFEDF2C56 EQ PUSH2 0x45B JUMPI PUSH2 0x12B JUMP JUMPDEST DUP1 PUSH4 0x9A0DD666 EQ PUSH2 0x2E5 JUMPI DUP1 PUSH4 0xA56C2CB9 EQ PUSH2 0x315 JUMPI DUP1 PUSH4 0xA6470BA0 EQ PUSH2 0x333 JUMPI DUP1 PUSH4 0xA930ECD7 EQ PUSH2 0x363 JUMPI DUP1 PUSH4 0xB5438F6D EQ PUSH2 0x37F JUMPI PUSH2 0x12B JUMP JUMPDEST DUP1 PUSH4 0x554A14AC GT PUSH2 0xF4 JUMPI DUP1 PUSH4 0x554A14AC EQ PUSH2 0x1E7 JUMPI DUP1 PUSH4 0x5E775A27 EQ PUSH2 0x219 JUMPI DUP1 PUSH4 0x665FBC44 EQ PUSH2 0x252 JUMPI DUP1 PUSH4 0x91223D69 EQ PUSH2 0x283 JUMPI DUP1 PUSH4 0x93E9B6ED EQ PUSH2 0x2B5 JUMPI PUSH2 0x12B JUMP JUMPDEST DUP1 PUSH3 0xC172A2 EQ PUSH2 0x130 JUMPI DUP1 PUSH4 0x7993F04 EQ PUSH2 0x14C JUMPI DUP1 PUSH4 0x2460CF76 EQ PUSH2 0x17C JUMPI DUP1 PUSH4 0x3B0AE1FD EQ PUSH2 0x198 JUMPI DUP1 PUSH4 0x4CDF8093 EQ PUSH2 0x1C8 JUMPI JUMPDEST PUSH1 0x0 DUP1 REVERT JUMPDEST PUSH2 0x14A PUSH1 0x4 DUP1 CALLDATASIZE SUB DUP2 ADD SWAP1 PUSH2 0x145 SWAP2 SWAP1 PUSH2 0x2E74 JUMP JUMPDEST PUSH2 0x47A JUMP JUMPDEST STOP JUMPDEST PUSH2 0x166 PUSH1 0x4 DUP1 CALLDATASIZE SUB DUP2 ADD SWAP1 PUSH2 0x161 SWAP2 SWAP1 PUSH2 0x2F22 JUMP JUMPDEST PUSH2 0x6B8 JUMP JUMPDEST PUSH1 0x40 MLOAD PUSH2 0x173 SWAP2 SWAP1 PUSH2 0x325B JUMP JUMPDEST PUSH1 0x40 MLOAD DUP1 SWAP2 SUB SWAP1 RETURN JUMPDEST PUSH2 0x196 PUSH1 0x4 DUP1 CALLDATASIZE SUB DUP2 ADD SWAP1 PUSH2 0x191 SWAP2 SWAP1 PUSH2 0x2F22 JUMP JUMPDEST PUSH2 0xB4F JUMP JUMPDEST STOP JUMPDEST PUSH2 0x1B2 PUSH1 0x4 DUP1 CALLDATASIZE SUB DUP2 ADD SWAP1 PUSH2 0x1AD SWAP2 SWAP1 PUSH2 0x32A9 JUMP JUMPDEST PUSH2 0xCA9 JUMP JUMPDEST PUSH1 0x40 MLOAD PUSH2 0x1BF SWAP2 SWAP1 PUSH2 0x3320 JUMP JUMPDEST PUSH1 0x40 MLOAD DUP1 SWAP2 SUB SWAP1 RETURN JUMPDEST PUSH2 0x1D0 PUSH2 0xD7D JUMP JUMPDEST PUSH1 0x40 MLOAD PUSH2 0x1DE SWAP3 SWAP2 SWAP1 PUSH2 0x3477 JUMP JUMPDEST PUSH1 0x40 MLOAD DUP1 SWAP2 SUB SWAP1 RETURN JUMPDEST PUSH2 0x201 PUSH1 0x4 DUP1 CALLDATASIZE SUB DUP2 ADD SWAP1 PUSH2 0x1FC SWAP2 SWAP1 PUSH2 0x32A9 JUMP JUMPDEST PUSH2 0x100C JUMP JUMPDEST PUSH1 0x40 MLOAD PUSH2 0x210 SWAP4 SWAP3 SWAP2 SWAP1 PUSH2 0x3507 JUMP JUMPDEST PUSH1 0x40 MLOAD DUP1 SWAP2 SUB SWAP1 RETURN JUMPDEST PUSH2 0x233 PUSH1 0x4 DUP1 CALLDATASIZE SUB DUP2 ADD SWAP1 PUSH2 0x22E SWAP2 SWAP1 PUSH2 0x2F22 JUMP JUMPDEST PUSH2 0x1153 JUMP JUMPDEST PUSH1 0x40 MLOAD PUSH2 0x249 SWAP11 SWAP10 SWAP9 SWAP8 SWAP7 SWAP6 SWAP5 SWAP4 SWAP3 SWAP2 SWAP1 PUSH2 0x356A JUMP JUMPDEST PUSH1 0x40 MLOAD DUP1 SWAP2 SUB SWAP1 RETURN JUMPDEST PUSH2 0x26C PUSH1 0x4 DUP1 CALLDATASIZE SUB DUP2 ADD SWAP1 PUSH2 0x267 SWAP2 SWAP1 PUSH2 0x2F22 JUMP JUMPDEST PUSH2 0x1421 JUMP JUMPDEST PUSH1 0x40 MLOAD PUSH2 0x27A SWAP3 SWAP2 SWAP1 PUSH2 0x3622 JUMP JUMPDEST PUSH1 0x40 MLOAD DUP1 SWAP2 SUB SWAP1 RETURN JUMPDEST PUSH2 0x29D PUSH1 0x4 DUP1 CALLDATASIZE SUB DUP2 ADD SWAP1 PUSH2 0x298 SWAP2 SWAP1 PUSH2 0x32A9 JUMP JUMPDEST PUSH2 0x19A7 JUMP JUMPDEST PUSH1 0x40 MLOAD PUSH2 0x2AC SWAP4 SWAP3 SWAP2 SWAP1 PUSH2 0x3659 JUMP JUMPDEST PUSH1 0x40 MLOAD DUP1 SWAP2 SUB SWAP1 RETURN JUMPDEST PUSH2 0x2CF PUSH1 0x4 DUP1 CALLDATASIZE SUB DUP2 ADD SWAP1 PUSH2 0x2CA SWAP2 SWAP1 PUSH2 0x3697 JUMP JUMPDEST PUSH2 0x1A73 JUMP JUMPDEST PUSH1 0x40 MLOAD PUSH2 0x2DC SWAP2 SWAP1 PUSH2 0x36D7 JUMP JUMPDEST PUSH1 0x40 MLOAD DUP1 SWAP2 SUB SWAP1 RETURN JUMPDEST PUSH2 0x2FF PUSH1 0x4 DUP1 CALLDATASIZE SUB DUP2 ADD SWAP1 PUSH2 0x2FA SWAP2 SWAP1 PUSH2 0x2F22 JUMP JUMPDEST PUSH2 0x1B2E JUMP JUMPDEST PUSH1 0x40 MLOAD PUSH2 0x30C SWAP2 SWAP1 PUSH2 0x36F2 JUMP JUMPDEST PUSH1 0x40 MLOAD DUP1 SWAP2 SUB SWAP1 RETURN JUMPDEST PUSH2 0x31D PUSH2 0x1B6D JUMP JUMPDEST PUSH1 0x40 MLOAD PUSH2 0x32A SWAP2 SWAP1 PUSH2 0x370D JUMP JUMPDEST PUSH1 0x40 MLOAD DUP1 SWAP2 SUB SWAP1 RETURN JUMPDEST PUSH2 0x34D PUSH1 0x4 DUP1 CALLDATASIZE SUB DUP2 ADD SWAP1 PUSH2 0x348 SWAP2 SWAP1 PUSH2 0x380E JUMP JUMPDEST PUSH2 0x1B73 JUMP JUMPDEST PUSH1 0x40 MLOAD PUSH2 0x35A SWAP2 SWAP1 PUSH2 0x370D JUMP JUMPDEST PUSH1 0x40 MLOAD DUP1 SWAP2 SUB SWAP1 RETURN JUMPDEST PUSH2 0x37D PUSH1 0x4 DUP1 CALLDATASIZE SUB DUP2 ADD SWAP1 PUSH2 0x378 SWAP2 SWAP1 PUSH2 0x3915 JUMP JUMPDEST PUSH2 0x1EEC JUMP JUMPDEST STOP JUMPDEST PUSH2 0x399 PUSH1 0x4 DUP1 CALLDATASIZE SUB DUP2 ADD SWAP1 PUSH2 0x394 SWAP2 SWAP1 PUSH2 0x2F22 JUMP JUMPDEST PUSH2 0x20AE JUMP JUMPDEST PUSH1 0x40 MLOAD PUSH2 0x3A6 SWAP2 SWAP1 PUSH2 0x395E JUMP JUMPDEST PUSH1 0x40 MLOAD DUP1 SWAP2 SUB SWAP1 RETURN JUMPDEST PUSH2 0x3C9 PUSH1 0x4 DUP1 CALLDATASIZE SUB DUP2 ADD SWAP1 PUSH2 0x3C4 SWAP2 SWAP1 PUSH2 0x2F22 JUMP JUMPDEST PUSH2 0x2280 JUMP JUMPDEST PUSH1 0x40 MLOAD PUSH2 0x3D6 SWAP2 SWAP1 PUSH2 0x36F2 JUMP JUMPDEST PUSH1 0x40 MLOAD DUP1 SWAP2 SUB SWAP1 RETURN JUMPDEST PUSH2 0x3F9 PUSH1 0x4 DUP1 CALLDATASIZE SUB DUP2 ADD SWAP1 PUSH2 0x3F4 SWAP2 SWAP1 PUSH2 0x3697 JUMP JUMPDEST PUSH2 0x22BF JUMP JUMPDEST PUSH1 0x40 MLOAD PUSH2 0x406 SWAP2 SWAP1 PUSH2 0x395E JUMP JUMPDEST PUSH1 0x40 MLOAD DUP1 SWAP2 SUB SWAP1 RETURN JUMPDEST PUSH2 0x429 PUSH1 0x4 DUP1 CALLDATASIZE SUB DUP2 ADD SWAP1 PUSH2 0x424 SWAP2 SWAP1 PUSH2 0x3A43 JUMP JUMPDEST PUSH2 0x236C JUMP JUMPDEST STOP JUMPDEST PUSH2 0x445 PUSH1 0x4 DUP1 CALLDATASIZE SUB DUP2 ADD SWAP1 PUSH2 0x440 SWAP2 SWAP1 PUSH2 0x3697 JUMP JUMPDEST PUSH2 0x2857 JUMP JUMPDEST PUSH1 0x40 MLOAD PUSH2 0x452 SWAP2 SWAP1 PUSH2 0x36D7 JUMP JUMPDEST PUSH1 0x40 MLOAD DUP1 SWAP2 SUB SWAP1 RETURN JUMPDEST PUSH2 0x463 PUSH2 0x2886 JUMP JUMPDEST PUSH1 0x40 MLOAD PUSH2 0x471 SWAP3 SWAP2 SWAP1 PUSH2 0x3477 JUMP JUMPDEST PUSH1 0x40 MLOAD DUP1 SWAP2 SUB SWAP1 RETURN JUMPDEST PUSH1 0x0 DUP3 MLOAD GT PUSH2 0x4BE JUMPI PUSH1 0x40 MLOAD PUSH32 0x8C379A000000000000000000000000000000000000000000000000000000000 DUP2 MSTORE PUSH1 0x4 ADD PUSH2 0x4B5 SWAP1 PUSH2 0x3B8C JUMP JUMPDEST PUSH1 0x40 MLOAD DUP1 SWAP2 SUB SWAP1 REVERT JUMPDEST PUSH1 0x0 DUP2 MLOAD GT PUSH2 0x502 JUMPI PUSH1 0x40 MLOAD PUSH32 0x8C379A000000000000000000000000000000000000000000000000000000000 DUP2 MSTORE PUSH1 0x4 ADD PUSH2 0x4F9 SWAP1 PUSH2 0x3BF8 JUMP JUMPDEST PUSH1 0x40 MLOAD DUP1 SWAP2 SUB SWAP1 REVERT JUMPDEST PUSH1 0x2 PUSH1 0x0 CALLER PUSH20 0xFFFFFFFFFFFFFFFFFFFFFFFFFFFFFFFFFFFFFFFF AND PUSH20 0xFFFFFFFFFFFFFFFFFFFFFFFFFFFFFFFFFFFFFFFF AND DUP2 MSTORE PUSH1 0x20 ADD SWAP1 DUP2 MSTORE PUSH1 0x20 ADD PUSH1 0x0 KECCAK256 PUSH1 0x2 ADD PUSH1 0x0 SWAP1 SLOAD SWAP1 PUSH2 0x100 EXP SWAP1 DIV PUSH1 0xFF AND PUSH2 0x5BA JUMPI PUSH1 0x3 CALLER SWAP1 DUP1 PUSH1 0x1 DUP2 SLOAD ADD DUP1 DUP3 SSTORE DUP1 SWAP2 POP POP PUSH1 0x1 SWAP1 SUB SWAP1 PUSH1 0x0 MSTORE PUSH1 0x20 PUSH1 0x0 KECCAK256 ADD PUSH1 0x0 SWAP1 SWAP2 SWAP1 SWAP2 SWAP1 SWAP2 PUSH2 0x100 EXP DUP2 SLOAD DUP2 PUSH20 0xFFFFFFFFFFFFFFFFFFFFFFFFFFFFFFFFFFFFFFFF MUL NOT AND SWAP1 DUP4 PUSH20 0xFFFFFFFFFFFFFFFFFFFFFFFFFFFFFFFFFFFFFFFF AND MUL OR SWAP1 SSTORE POP JUMPDEST PUSH1 0x40 MLOAD DUP1 PUSH1 0x60 ADD PUSH1 0x40 MSTORE DUP1 DUP4 DUP2 MSTORE PUSH1 0x20 ADD DUP3 DUP2 MSTORE PUSH1 0x20 ADD PUSH1 0x1 ISZERO ISZERO DUP2 MSTORE POP PUSH1 0x2 PUSH1 0x0 CALLER PUSH20 0xFFFFFFFFFFFFFFFFFFFFFFFFFFFFFFFFFFFFFFFF AND PUSH20 0xFFFFFFFFFFFFFFFFFFFFFFFFFFFFFFFFFFFFFFFF AND DUP2 MSTORE PUSH1 0x20 ADD SWAP1 DUP2 MSTORE PUSH1 0x20 ADD PUSH1 0x0 KECCAK256 PUSH1 0x0 DUP3 ADD MLOAD DUP2 PUSH1 0x0 ADD SWAP1 DUP2 PUSH2 0x62C SWAP2 SWAP1 PUSH2 0x3E24 JUMP JUMPDEST POP PUSH1 0x20 DUP3 ADD MLOAD DUP2 PUSH1 0x1 ADD SWAP1 DUP2 PUSH2 0x642 SWAP2 SWAP1 PUSH2 0x3F51 JUMP JUMPDEST POP PUSH1 0x40 DUP3 ADD MLOAD DUP2 PUSH1 0x2 ADD PUSH1 0x0 PUSH2 0x100 EXP DUP2 SLOAD DUP2 PUSH1 0xFF MUL NOT AND SWAP1 DUP4 ISZERO ISZERO MUL OR SWAP1 SSTORE POP SWAP1 POP POP CALLER PUSH20 0xFFFFFFFFFFFFFFFFFFFFFFFFFFFFFFFFFFFFFFFF AND PUSH32 0x1FFB27EB65CBBC9DFAA75D97C82C72D0F599317651D968E7E4EA93553E154C92 DUP4 PUSH1 0x40 MLOAD PUSH2 0x6AC SWAP2 SWAP1 PUSH2 0x395E JUMP JUMPDEST PUSH1 0x40 MLOAD DUP1 SWAP2 SUB SWAP1 LOG2 POP POP JUMP JUMPDEST PUSH2 0x6C0 PUSH2 0x2B15 JUMP JUMPDEST DUP2 PUSH1 0x0 DUP2 GT DUP1 ISZERO PUSH2 0x6D3 JUMPI POP PUSH1 0x1 SLOAD DUP2 GT ISZERO JUMPDEST PUSH2 0x712 JUMPI PUSH1 0x40 MLOAD PUSH32 0x8C379A000000000000000000000000000000000000000000000000000000000 DUP2 MSTORE PUSH1 0x4 ADD PUSH2 0x709 SWAP1 PUSH2 0x406F JUMP JUMPDEST PUSH1 0x40 MLOAD DUP1 SWAP2 SUB SWAP1 REVERT JUMPDEST PUSH1 0x0 DUP1 DUP5 DUP2 MSTORE PUSH1 0x20 ADD SWAP1 DUP2 MSTORE PUSH1 0x20 ADD PUSH1 0x0 KECCAK256 PUSH1 0x40 MLOAD DUP1 PUSH2 0x160 ADD PUSH1 0x40 MSTORE SWAP1 DUP2 PUSH1 0x0 DUP3 ADD DUP1 SLOAD PUSH2 0x740 SWAP1 PUSH2 0x3C47 JUMP JUMPDEST DUP1 PUSH1 0x1F ADD PUSH1 0x20 DUP1 SWAP2 DIV MUL PUSH1 0x20 ADD PUSH1 0x40 MLOAD SWAP1 DUP2 ADD PUSH1 0x40 MSTORE DUP1 SWAP3 SWAP2 SWAP1 DUP2 DUP2 MSTORE PUSH1 0x20 ADD DUP3 DUP1 SLOAD PUSH2 0x76C SWAP1 PUSH2 0x3C47 JUMP JUMPDEST DUP1 ISZERO PUSH2 0x7B9 JUMPI DUP1 PUSH1 0x1F LT PUSH2 0x78E JUMPI PUSH2 0x100 DUP1 DUP4 SLOAD DIV MUL DUP4 MSTORE SWAP2 PUSH1 0x20 ADD SWAP2 PUSH2 0x7B9 JUMP JUMPDEST DUP3 ADD SWAP2 SWAP1 PUSH1 0x0 MSTORE PUSH1 0x20 PUSH1 0x0 KECCAK256 SWAP1 JUMPDEST DUP2 SLOAD DUP2 MSTORE SWAP1 PUSH1 0x1 ADD SWAP1 PUSH1 0x20 ADD DUP1 DUP4 GT PUSH2 0x79C JUMPI DUP3 SWAP1 SUB PUSH1 0x1F AND DUP3 ADD SWAP2 JUMPDEST POP POP POP POP POP DUP2 MSTORE PUSH1 0x20 ADD PUSH1 0x1 DUP3 ADD DUP1 SLOAD PUSH2 0x7D2 SWAP1 PUSH2 0x3C47 JUMP JUMPDEST DUP1 PUSH1 0x1F ADD PUSH1 0x20 DUP1 SWAP2 DIV MUL PUSH1 0x20 ADD PUSH1 0x40 MLOAD SWAP1 DUP2 ADD PUSH1 0x40 MSTORE DUP1 SWAP3 SWAP2 SWAP1 DUP2 DUP2 MSTORE PUSH1 0x20 ADD DUP3 DUP1 SLOAD PUSH2 0x7FE SWAP1 PUSH2 0x3C47 JUMP JUMPDEST DUP1 ISZERO PUSH2 0x84B JUMPI DUP1 PUSH1 0x1F LT PUSH2 0x820 JUMPI PUSH2 0x100 DUP1 DUP4 SLOAD DIV MUL DUP4 MSTORE SWAP2 PUSH1 0x20 ADD SWAP2 PUSH2 0x84B JUMP JUMPDEST DUP3 ADD SWAP2 SWAP1 PUSH1 0x0 MSTORE PUSH1 0x20 PUSH1 0x0 KECCAK256 SWAP1 JUMPDEST DUP2 SLOAD DUP2 MSTORE SWAP1 PUSH1 0x1 ADD SWAP1 PUSH1 0x20 ADD DUP1 DUP4 GT PUSH2 0x82E JUMPI DUP3 SWAP1 SUB PUSH1 0x1F AND DUP3 ADD SWAP2 JUMPDEST POP POP POP POP POP DUP2 MSTORE PUSH1 0x20 ADD PUSH1 0x2 DUP3 ADD PUSH1 0x0 SWAP1 SLOAD SWAP1 PUSH2 0x100 EXP SWAP1 DIV PUSH20 0xFFFFFFFFFFFFFFFFFFFFFFFFFFFFFFFFFFFFFFFF AND PUSH20 0xFFFFFFFFFFFFFFFFFFFFFFFFFFFFFFFFFFFFFFFF AND PUSH20 0xFFFFFFFFFFFFFFFFFFFFFFFFFFFFFFFFFFFFFFFF AND DUP2 MSTORE PUSH1 0x20 ADD PUSH1 0x3 DUP3 ADD DUP1 SLOAD DUP1 PUSH1 0x20 MUL PUSH1 0x20 ADD PUSH1 0x40 MLOAD SWAP1 DUP2 ADD PUSH1 0x40 MSTORE DUP1 SWAP3 SWAP2 SWAP1 DUP2 DUP2 MSTORE PUSH1 0x20 ADD PUSH1 0x0 SWAP1 JUMPDEST DUP3 DUP3 LT ISZERO PUSH2 0x97B JUMPI DUP4 DUP3 SWAP1 PUSH1 0x0 MSTORE PUSH1 0x20 PUSH1 0x0 KECCAK256 ADD DUP1 SLOAD PUSH2 0x8EE SWAP1 PUSH2 0x3C47 JUMP JUMPDEST DUP1 PUSH1 0x1F ADD PUSH1 0x20 DUP1 SWAP2 DIV MUL PUSH1 0x20 ADD PUSH1 0x40 MLOAD SWAP1 DUP2 ADD PUSH1 0x40 MSTORE DUP1 SWAP3 SWAP2 SWAP1 DUP2 DUP2 MSTORE PUSH1 0x20 ADD DUP3 DUP1 SLOAD PUSH2 0x91A SWAP1 PUSH2 0x3C47 JUMP JUMPDEST DUP1 ISZERO PUSH2 0x967 JUMPI DUP1 PUSH1 0x1F LT PUSH2 0x93C JUMPI PUSH2 0x100 DUP1 DUP4 SLOAD DIV MUL DUP4 MSTORE SWAP2 PUSH1 0x20 ADD SWAP2 PUSH2 0x967 JUMP JUMPDEST DUP3 ADD SWAP2 SWAP1 PUSH1 0x0 MSTORE PUSH1 0x20 PUSH1 0x0 KECCAK256 SWAP1 JUMPDEST DUP2 SLOAD DUP2 MSTORE SWAP1 PUSH1 0x1 ADD SWAP1 PUSH1 0x20 ADD DUP1 DUP4 GT PUSH2 0x94A JUMPI DUP3 SWAP1 SUB PUSH1 0x1F AND DUP3 ADD SWAP2 JUMPDEST POP POP POP POP POP DUP2 MSTORE PUSH1 0x20 ADD SWAP1 PUSH1 0x1 ADD SWAP1 PUSH2 0x8CF JUMP JUMPDEST POP POP POP POP DUP2 MSTORE PUSH1 0x20 ADD PUSH1 0x4 DUP3 ADD SLOAD DUP2 MSTORE PUSH1 0x20 ADD PUSH1 0x5 DUP3 ADD SLOAD DUP2 MSTORE PUSH1 0x20 ADD PUSH1 0x6 DUP3 ADD PUSH1 0x0 SWAP1 SLOAD SWAP1 PUSH2 0x100 EXP SWAP1 DIV PUSH1 0xFF AND ISZERO ISZERO ISZERO ISZERO DUP2 MSTORE PUSH1 0x20 ADD PUSH1 0x6 DUP3 ADD PUSH1 0x1 SWAP1 SLOAD SWAP1 PUSH2 0x100 EXP SWAP1 DIV PUSH1 0xFF AND ISZERO ISZERO ISZERO ISZERO DUP2 MSTORE PUSH1 0x20 ADD PUSH1 0x6 DUP3 ADD PUSH1 0x2 SWAP1 SLOAD SWAP1 PUSH2 0x100 EXP SWAP1 DIV PUSH20 0xFFFFFFFFFFFFFFFFFFFFFFFFFFFFFFFFFFFFFFFF AND PUSH20 0xFFFFFFFFFFFFFFFFFFFFFFFFFFFFFFFFFFFFFFFF AND PUSH20 0xFFFFFFFFFFFFFFFFFFFFFFFFFFFFFFFFFFFFFFFF AND DUP2 MSTORE PUSH1 0x20 ADD PUSH1 0x7 DUP3 ADD DUP1 SLOAD PUSH2 0xA33 SWAP1 PUSH2 0x3C47 JUMP JUMPDEST DUP1 PUSH1 0x1F ADD PUSH1 0x20 DUP1 SWAP2 DIV MUL PUSH1 0x20 ADD PUSH1 0x40 MLOAD SWAP1 DUP2 ADD PUSH1 0x40 MSTORE DUP1 SWAP3 SWAP2 SWAP1 DUP2 DUP2 MSTORE PUSH1 0x20 ADD DUP3 DUP1 SLOAD PUSH2 0xA5F SWAP1 PUSH2 0x3C47 JUMP JUMPDEST DUP1 ISZERO PUSH2 0xAAC JUMPI DUP1 PUSH1 0x1F LT PUSH2 0xA81 JUMPI PUSH2 0x100 DUP1 DUP4 SLOAD DIV MUL DUP4 MSTORE SWAP2 PUSH1 0x20 ADD SWAP2 PUSH2 0xAAC JUMP JUMPDEST DUP3 ADD SWAP2 SWAP1 PUSH1 0x0 MSTORE PUSH1 0x20 PUSH1 0x0 KECCAK256 SWAP1 JUMPDEST DUP2 SLOAD DUP2 MSTORE SWAP1 PUSH1 0x1 ADD SWAP1 PUSH1 0x20 ADD DUP1 DUP4 GT PUSH2 0xA8F JUMPI DUP3 SWAP1 SUB PUSH1 0x1F AND DUP3 ADD SWAP2 JUMPDEST POP POP POP POP POP DUP2 MSTORE PUSH1 0x20 ADD PUSH1 0x8 DUP3 ADD DUP1 SLOAD PUSH2 0xAC5 SWAP1 PUSH2 0x3C47 JUMP JUMPDEST DUP1 PUSH1 0x1F ADD PUSH1 0x20 DUP1 SWAP2 DIV MUL PUSH1 0x20 ADD PUSH1 0x40 MLOAD SWAP1 DUP2 ADD PUSH1 0x40 MSTORE DUP1 SWAP3 SWAP2 SWAP1 DUP2 DUP2 MSTORE PUSH1 0x20 ADD DUP3 DUP1 SLOAD PUSH2 0xAF1 SWAP1 PUSH2 0x3C47 JUMP JUMPDEST DUP1 ISZERO PUSH2 0xB3E JUMPI DUP1 PUSH1 0x1F LT PUSH2 0xB13 JUMPI PUSH2 0x100 DUP1 DUP4 SLOAD DIV MUL DUP4 MSTORE SWAP2 PUSH1 0x20 ADD SWAP2 PUSH2 0xB3E JUMP JUMPDEST DUP3 ADD SWAP2 SWAP1 PUSH1 0x0 MSTORE PUSH1 0x20 PUSH1 0x0 KECCAK256 SWAP1 JUMPDEST DUP2 SLOAD DUP2 MSTORE SWAP1 PUSH1 0x1 ADD SWAP1 PUSH1 0x20 ADD DUP1 DUP4 GT PUSH2 0xB21 JUMPI DUP3 SWAP1 SUB PUSH1 0x1F AND DUP3 ADD SWAP2 JUMPDEST POP POP POP POP POP DUP2 MSTORE POP POP SWAP2 POP POP SWAP2 SWAP1 POP JUMP JUMPDEST DUP1 PUSH1 0x0 DUP2 GT DUP1 ISZERO PUSH2 0xB62 JUMPI POP PUSH1 0x1 SLOAD DUP2 GT ISZERO JUMPDEST PUSH2 0xBA1 JUMPI PUSH1 0x40 MLOAD PUSH32 0x8C379A000000000000000000000000000000000000000000000000000000000 DUP2 MSTORE PUSH1 0x4 ADD PUSH2 0xB98 SWAP1 PUSH2 0x406F JUMP JUMPDEST PUSH1 0x40 MLOAD DUP1 SWAP2 SUB SWAP1 REVERT JUMPDEST PUSH1 0x0 DUP1 PUSH1 0x0 DUP5 DUP2 MSTORE PUSH1 0x20 ADD SWAP1 DUP2 MSTORE PUSH1 0x20 ADD PUSH1 0x0 KECCAK256 SWAP1 POP DUP1 PUSH1 0x6 ADD PUSH1 0x0 SWAP1 SLOAD SWAP1 PUSH2 0x100 EXP SWAP1 DIV PUSH1 0xFF AND PUSH2 0xC08 JUMPI PUSH1 0x40 MLOAD PUSH32 0x8C379A000000000000000000000000000000000000000000000000000000000 DUP2 MSTORE PUSH1 0x4 ADD PUSH2 0xBFF SWAP1 PUSH2 0x40DB JUMP JUMPDEST PUSH1 0x40 MLOAD DUP1 SWAP2 SUB SWAP1 REVERT JUMPDEST DUP1 PUSH1 0x5 ADD SLOAD TIMESTAMP LT ISZERO PUSH2 0xC4F JUMPI PUSH1 0x40 MLOAD PUSH32 0x8C379A000000000000000000000000000000000000000000000000000000000 DUP2 MSTORE PUSH1 0x4 ADD PUSH2 0xC46 SWAP1 PUSH2 0x4147 JUMP JUMPDEST PUSH1 0x40 MLOAD DUP1 SWAP2 SUB SWAP1 REVERT JUMPDEST PUSH1 0x1 DUP2 PUSH1 0x6 ADD PUSH1 0x1 PUSH2 0x100 EXP DUP2 SLOAD DUP2 PUSH1 0xFF MUL NOT AND SWAP1 DUP4 ISZERO ISZERO MUL OR SWAP1 SSTORE POP DUP3 PUSH32 0x79F7DE7AC9A8923C7CCC915FB4C5041920583F938A5406435331E490E06E0CF3 TIMESTAMP PUSH1 0x40 MLOAD PUSH2 0xC9C SWAP2 SWAP1 PUSH2 0x370D JUMP JUMPDEST PUSH1 0x40 MLOAD DUP1 SWAP2 SUB SWAP1 LOG2 POP POP POP JUMP JUMPDEST PUSH1 0x60 PUSH1 0x2 PUSH1 0x0 DUP4 PUSH20 0xFFFFFFFFFFFFFFFFFFFFFFFFFFFFFFFFFFFFFFFF AND PUSH20 0xFFFFFFFFFFFFFFFFFFFFFFFFFFFFFFFFFFFFFFFF AND DUP2 MSTORE PUSH1 0x20 ADD SWAP1 DUP2 MSTORE PUSH1 0x20 ADD PUSH1 0x0 KECCAK256 PUSH1 0x1 ADD DUP1 SLOAD PUSH2 0xCF8 SWAP1 PUSH2 0x3C47 JUMP JUMPDEST DUP1 PUSH1 0x1F ADD PUSH1 0x20 DUP1 SWAP2 DIV MUL PUSH1 0x20 ADD PUSH1 0x40 MLOAD SWAP1 DUP2 ADD PUSH1 0x40 MSTORE DUP1 SWAP3 SWAP2 SWAP1 DUP2 DUP2 MSTORE PUSH1 0x20 ADD DUP3 DUP1 SLOAD PUSH2 0xD24 SWAP1 PUSH2 0x3C47 JUMP JUMPDEST DUP1 ISZERO PUSH2 0xD71 JUMPI DUP1 PUSH1 0x1F LT PUSH2 0xD46 JUMPI PUSH2 0x100 DUP1 DUP4 SLOAD DIV MUL DUP4 MSTORE SWAP2 PUSH1 0x20 ADD SWAP2 PUSH2 0xD71 JUMP JUMPDEST DUP3 ADD SWAP2 SWAP1 PUSH1 0x0 MSTORE PUSH1 0x20 PUSH1 0x0 KECCAK256 SWAP1 JUMPDEST DUP2 SLOAD DUP2 MSTORE SWAP1 PUSH1 0x1 ADD SWAP1 PUSH1 0x20 ADD DUP1 DUP4 GT PUSH2 0xD54 JUMPI DUP3 SWAP1 SUB PUSH1 0x1F AND DUP3 ADD SWAP2 JUMPDEST POP POP POP POP POP SWAP1 POP SWAP2 SWAP1 POP JUMP JUMPDEST PUSH1 0x60 DUP1 PUSH1 0x0 PUSH1 0x3 DUP1 SLOAD SWAP1 POP PUSH8 0xFFFFFFFFFFFFFFFF DUP2 GT ISZERO PUSH2 0xDA1 JUMPI PUSH2 0xDA0 PUSH2 0x2CA8 JUMP JUMPDEST JUMPDEST PUSH1 0x40 MLOAD SWAP1 DUP1 DUP3 MSTORE DUP1 PUSH1 0x20 MUL PUSH1 0x20 ADD DUP3 ADD PUSH1 0x40 MSTORE DUP1 ISZERO PUSH2 0xDCF JUMPI DUP2 PUSH1 0x20 ADD PUSH1 0x20 DUP3 MUL DUP1 CALLDATASIZE DUP4 CALLDATACOPY DUP1 DUP3 ADD SWAP2 POP POP SWAP1 POP JUMPDEST POP SWAP1 POP PUSH1 0x0 PUSH1 0x3 DUP1 SLOAD SWAP1 POP PUSH8 0xFFFFFFFFFFFFFFFF DUP2 GT ISZERO PUSH2 0xDF3 JUMPI PUSH2 0xDF2 PUSH2 0x2CA8 JUMP JUMPDEST JUMPDEST PUSH1 0x40 MLOAD SWAP1 DUP1 DUP3 MSTORE DUP1 PUSH1 0x20 MUL PUSH1 0x20 ADD DUP3 ADD PUSH1 0x40 MSTORE DUP1 ISZERO PUSH2 0xE26 JUMPI DUP2 PUSH1 0x20 ADD JUMPDEST PUSH1 0x60 DUP2 MSTORE PUSH1 0x20 ADD SWAP1 PUSH1 0x1 SWAP1 SUB SWAP1 DUP2 PUSH2 0xE11 JUMPI SWAP1 POP JUMPDEST POP SWAP1 POP PUSH1 0x0 JUMPDEST PUSH1 0x3 DUP1 SLOAD SWAP1 POP DUP2 LT ISZERO PUSH2 0xFFF JUMPI PUSH1 0x3 DUP2 DUP2 SLOAD DUP2 LT PUSH2 0xE4D JUMPI PUSH2 0xE4C PUSH2 0x4167 JUMP JUMPDEST JUMPDEST SWAP1 PUSH1 0x0 MSTORE PUSH1 0x20 PUSH1 0x0 KECCAK256 ADD PUSH1 0x0 SWAP1 SLOAD SWAP1 PUSH2 0x100 EXP SWAP1 DIV PUSH20 0xFFFFFFFFFFFFFFFFFFFFFFFFFFFFFFFFFFFFFFFF AND DUP4 DUP3 DUP2 MLOAD DUP2 LT PUSH2 0xE8B JUMPI PUSH2 0xE8A PUSH2 0x4167 JUMP JUMPDEST JUMPDEST PUSH1 0x20 MUL PUSH1 0x20 ADD ADD SWAP1 PUSH20 0xFFFFFFFFFFFFFFFFFFFFFFFFFFFFFFFFFFFFFFFF AND SWAP1 DUP2 PUSH20 0xFFFFFFFFFFFFFFFFFFFFFFFFFFFFFFFFFFFFFFFF AND DUP2 MSTORE POP POP PUSH1 0x2 PUSH1 0x0 PUSH1 0x3 DUP4 DUP2 SLOAD DUP2 LT PUSH2 0xEDD JUMPI PUSH2 0xEDC PUSH2 0x4167 JUMP JUMPDEST JUMPDEST SWAP1 PUSH1 0x0 MSTORE PUSH1 0x20 PUSH1 0x0 KECCAK256 ADD PUSH1 0x0 SWAP1 SLOAD SWAP1 PUSH2 0x100 EXP SWAP1 DIV PUSH20 0xFFFFFFFFFFFFFFFFFFFFFFFFFFFFFFFFFFFFFFFF AND PUSH20 0xFFFFFFFFFFFFFFFFFFFFFFFFFFFFFFFFFFFFFFFF AND PUSH20 0xFFFFFFFFFFFFFFFFFFFFFFFFFFFFFFFFFFFFFFFF AND DUP2 MSTORE PUSH1 0x20 ADD SWAP1 DUP2 MSTORE PUSH1 0x20 ADD PUSH1 0x0 KECCAK256 PUSH1 0x0 ADD DUP1 SLOAD PUSH2 0xF50 SWAP1 PUSH2 0x3C47 JUMP JUMPDEST DUP1 PUSH1 0x1F ADD PUSH1 0x20 DUP1 SWAP2 DIV MUL PUSH1 0x20 ADD PUSH1 0x40 MLOAD SWAP1 DUP2 ADD PUSH1 0x40 MSTORE DUP1 SWAP3 SWAP2 SWAP1 DUP2 DUP2 MSTORE PUSH1 0x20 ADD DUP3 DUP1 SLOAD PUSH2 0xF7C SWAP1 PUSH2 0x3C47 JUMP JUMPDEST DUP1 ISZERO PUSH2 0xFC9 JUMPI DUP1 PUSH1 0x1F LT PUSH2 0xF9E JUMPI PUSH2 0x100 DUP1 DUP4 SLOAD DIV MUL DUP4 MSTORE SWAP2 PUSH1 0x20 ADD SWAP2 PUSH2 0xFC9 JUMP JUMPDEST DUP3 ADD SWAP2 SWAP1 PUSH1 0x0 MSTORE PUSH1 0x20 PUSH1 0x0 KECCAK256 SWAP1 JUMPDEST DUP2 SLOAD DUP2 MSTORE SWAP1 PUSH1 0x1 ADD SWAP1 PUSH1 0x20 ADD DUP1 DUP4 GT PUSH2 0xFAC JUMPI DUP3 SWAP1 SUB PUSH1 0x1F AND DUP3 ADD SWAP2 JUMPDEST POP POP POP POP POP DUP3 DUP3 DUP2 MLOAD DUP2 LT PUSH2 0xFE1 JUMPI PUSH2 0xFE0 PUSH2 0x4167 JUMP JUMPDEST JUMPDEST PUSH1 0x20 MUL PUSH1 0x20 ADD ADD DUP2 SWAP1 MSTORE POP DUP1 DUP1 PUSH2 0xFF7 SWAP1 PUSH2 0x41C5 JUMP JUMPDEST SWAP2 POP POP PUSH2 0xE2C JUMP JUMPDEST POP DUP2 DUP2 SWAP4 POP SWAP4 POP POP POP SWAP1 SWAP2 JUMP JUMPDEST PUSH1 0x2 PUSH1 0x20 MSTORE DUP1 PUSH1 0x0 MSTORE PUSH1 0x40 PUSH1 0x0 KECCAK256 PUSH1 0x0 SWAP2 POP SWAP1 POP DUP1 PUSH1 0x0 ADD DUP1 SLOAD PUSH2 0x102F SWAP1 PUSH2 0x3C47 JUMP JUMPDEST DUP1 PUSH1 0x1F ADD PUSH1 0x20 DUP1 SWAP2 DIV MUL PUSH1 0x20 ADD PUSH1 0x40 MLOAD SWAP1 DUP2 ADD PUSH1 0x40 MSTORE DUP1 SWAP3 SWAP2 SWAP1 DUP2 DUP2 MSTORE PUSH1 0x20 ADD DUP3 DUP1 SLOAD PUSH2 0x105B SWAP1 PUSH2 0x3C47 JUMP JUMPDEST DUP1 ISZERO PUSH2 0x10A8 JUMPI DUP1 PUSH1 0x1F LT PUSH2 0x107D JUMPI PUSH2 0x100 DUP1 DUP4 SLOAD DIV MUL DUP4 MSTORE SWAP2 PUSH1 0x20 ADD SWAP2 PUSH2 0x10A8 JUMP JUMPDEST DUP3 ADD SWAP2 SWAP1 PUSH1 0x0 MSTORE PUSH1 0x20 PUSH1 0x0 KECCAK256 SWAP1 JUMPDEST DUP2 SLOAD DUP2 MSTORE SWAP1 PUSH1 0x1 ADD SWAP1 PUSH1 0x20 ADD DUP1 DUP4 GT PUSH2 0x108B JUMPI DUP3 SWAP1 SUB PUSH1 0x1F AND DUP3 ADD SWAP2 JUMPDEST POP POP POP POP POP SWAP1 DUP1 PUSH1 0x1 ADD DUP1 SLOAD PUSH2 0x10BD SWAP1 PUSH2 0x3C47 JUMP JUMPDEST DUP1 PUSH1 0x1F ADD PUSH1 0x20 DUP1 SWAP2 DIV MUL PUSH1 0x20 ADD PUSH1 0x40 MLOAD SWAP1 DUP2 ADD PUSH1 0x40 MSTORE DUP1 SWAP3 SWAP2 SWAP1 DUP2 DUP2 MSTORE PUSH1 0x20 ADD DUP3 DUP1 SLOAD PUSH2 0x10E9 SWAP1 PUSH2 0x3C47 JUMP JUMPDEST DUP1 ISZERO PUSH2 0x1136 JUMPI DUP1 PUSH1 0x1F LT PUSH2 0x110B JUMPI PUSH2 0x100 DUP1 DUP4 SLOAD DIV MUL DUP4 MSTORE SWAP2 PUSH1 0x20 ADD SWAP2 PUSH2 0x1136 JUMP JUMPDEST DUP3 ADD SWAP2 SWAP1 PUSH1 0x0 MSTORE PUSH1 0x20 PUSH1 0x0 KECCAK256 SWAP1 JUMPDEST DUP2 SLOAD DUP2 MSTORE SWAP1 PUSH1 0x1 ADD SWAP1 PUSH1 0x20 ADD DUP1 DUP4 GT PUSH2 0x1119 JUMPI DUP3 SWAP1 SUB PUSH1 0x1F AND DUP3 ADD SWAP2 JUMPDEST POP POP POP POP POP SWAP1 DUP1 PUSH1 0x2 ADD PUSH1 0x0 SWAP1 SLOAD SWAP1 PUSH2 0x100 EXP SWAP1 DIV PUSH1 0xFF AND SWAP1 POP DUP4 JUMP JUMPDEST PUSH1 0x0 PUSH1 0x20 MSTORE DUP1 PUSH1 0x0 MSTORE PUSH1 0x40 PUSH1 0x0 KECCAK256 PUSH1 0x0 SWAP2 POP SWAP1 POP DUP1 PUSH1 0x0 ADD DUP1 SLOAD PUSH2 0x1176 SWAP1 PUSH2 0x3C47 JUMP JUMPDEST DUP1 PUSH1 0x1F ADD PUSH1 0x20 DUP1 SWAP2 DIV MUL PUSH1 0x20 ADD PUSH1 0x40 MLOAD SWAP1 DUP2 ADD PUSH1 0x40 MSTORE DUP1 SWAP3 SWAP2 SWAP1 DUP2 DUP2 MSTORE PUSH1 0x20 ADD DUP3 DUP1 SLOAD PUSH2 0x11A2 SWAP1 PUSH2 0x3C47 JUMP JUMPDEST DUP1 ISZERO PUSH2 0x11EF JUMPI DUP1 PUSH1 0x1F LT PUSH2 0x11C4 JUMPI PUSH2 0x100 DUP1 DUP4 SLOAD DIV MUL DUP4 MSTORE SWAP2 PUSH1 0x20 ADD SWAP2 PUSH2 0x11EF JUMP JUMPDEST DUP3 ADD SWAP2 SWAP1 PUSH1 0x0 MSTORE PUSH1 0x20 PUSH1 0x0 KECCAK256 SWAP1 JUMPDEST DUP2 SLOAD DUP2 MSTORE SWAP1 PUSH1 0x1 ADD SWAP1 PUSH1 0x20 ADD DUP1 DUP4 GT PUSH2 0x11D2 JUMPI DUP3 SWAP1 SUB PUSH1 0x1F AND DUP3 ADD SWAP2 JUMPDEST POP POP POP POP POP SWAP1 DUP1 PUSH1 0x1 ADD DUP1 SLOAD PUSH2 0x1204 SWAP1 PUSH2 0x3C47 JUMP JUMPDEST DUP1 PUSH1 0x1F ADD PUSH1 0x20 DUP1 SWAP2 DIV MUL PUSH1 0x20 ADD PUSH1 0x40 MLOAD SWAP1 DUP2 ADD PUSH1 0x40 MSTORE DUP1 SWAP3 SWAP2 SWAP1 DUP2 DUP2 MSTORE PUSH1 0x20 ADD DUP3 DUP1 SLOAD PUSH2 0x1230 SWAP1 PUSH2 0x3C47 JUMP JUMPDEST DUP1 ISZERO PUSH2 0x127D JUMPI DUP1 PUSH1 0x1F LT PUSH2 0x1252 JUMPI PUSH2 0x100 DUP1 DUP4 SLOAD DIV MUL DUP4 MSTORE SWAP2 PUSH1 0x20 ADD SWAP2 PUSH2 0x127D JUMP JUMPDEST DUP3 ADD SWAP2 SWAP1 PUSH1 0x0 MSTORE PUSH1 0x20 PUSH1 0x0 KECCAK256 SWAP1 JUMPDEST DUP2 SLOAD DUP2 MSTORE SWAP1 PUSH1 0x1 ADD SWAP1 PUSH1 0x20 ADD DUP1 DUP4 GT PUSH2 0x1260 JUMPI DUP3 SWAP1 SUB PUSH1 0x1F AND DUP3 ADD SWAP2 JUMPDEST POP POP POP POP POP SWAP1 DUP1 PUSH1 0x2 ADD PUSH1 0x0 SWAP1 SLOAD SWAP1 PUSH2 0x100 EXP SWAP1 DIV PUSH20 0xFFFFFFFFFFFFFFFFFFFFFFFFFFFFFFFFFFFFFFFF AND SWAP1 DUP1 PUSH1 0x4 ADD SLOAD SWAP1 DUP1 PUSH1 0x5 ADD SLOAD SWAP1 DUP1 PUSH1 0x6 ADD PUSH1 0x0 SWAP1 SLOAD SWAP1 PUSH2 0x100 EXP SWAP1 DIV PUSH1 0xFF AND SWAP1 DUP1 PUSH1 0x6 ADD PUSH1 0x1 SWAP1 SLOAD SWAP1 PUSH2 0x100 EXP SWAP1 DIV PUSH1 0xFF AND SWAP1 DUP1 PUSH1 0x6 ADD PUSH1 0x2 SWAP1 SLOAD SWAP1 PUSH2 0x100 EXP SWAP1 DIV PUSH20 0xFFFFFFFFFFFFFFFFFFFFFFFFFFFFFFFFFFFFFFFF AND SWAP1 DUP1 PUSH1 0x7 ADD DUP1 SLOAD PUSH2 0x1310 SWAP1 PUSH2 0x3C47 JUMP JUMPDEST DUP1 PUSH1 0x1F ADD PUSH1 0x20 DUP1 SWAP2 DIV MUL PUSH1 0x20 ADD PUSH1 0x40 MLOAD SWAP1 DUP2 ADD PUSH1 0x40 MSTORE DUP1 SWAP3 SWAP2 SWAP1 DUP2 DUP2 MSTORE PUSH1 0x20 ADD DUP3 DUP1 SLOAD PUSH2 0x133C SWAP1 PUSH2 0x3C47 JUMP JUMPDEST DUP1 ISZERO PUSH2 0x1389 JUMPI DUP1 PUSH1 0x1F LT PUSH2 0x135E JUMPI PUSH2 0x100 DUP1 DUP4 SLOAD DIV MUL DUP4 MSTORE SWAP2 PUSH1 0x20 ADD SWAP2 PUSH2 0x1389 JUMP JUMPDEST DUP3 ADD SWAP2 SWAP1 PUSH1 0x0 MSTORE PUSH1 0x20 PUSH1 0x0 KECCAK256 SWAP1 JUMPDEST DUP2 SLOAD DUP2 MSTORE SWAP1 PUSH1 0x1 ADD SWAP1 PUSH1 0x20 ADD DUP1 DUP4 GT PUSH2 0x136C JUMPI DUP3 SWAP1 SUB PUSH1 0x1F AND DUP3 ADD SWAP2 JUMPDEST POP POP POP POP POP SWAP1 DUP1 PUSH1 0x8 ADD DUP1 SLOAD PUSH2 0x139E SWAP1 PUSH2 0x3C47 JUMP JUMPDEST DUP1 PUSH1 0x1F ADD PUSH1 0x20 DUP1 SWAP2 DIV MUL PUSH1 0x20 ADD PUSH1 0x40 MLOAD SWAP1 DUP2 ADD PUSH1 0x40 MSTORE DUP1 SWAP3 SWAP2 SWAP1 DUP2 DUP2 MSTORE PUSH1 0x20 ADD DUP3 DUP1 SLOAD PUSH2 0x13CA SWAP1 PUSH2 0x3C47 JUMP JUMPDEST DUP1 ISZERO PUSH2 0x1417 JUMPI DUP1 PUSH1 0x1F LT PUSH2 0x13EC JUMPI PUSH2 0x100 DUP1 DUP4 SLOAD DIV MUL DUP4 MSTORE SWAP2 PUSH1 0x20 ADD SWAP2 PUSH2 0x1417 JUMP JUMPDEST DUP3 ADD SWAP2 SWAP1 PUSH1 0x0 MSTORE PUSH1 0x20 PUSH1 0x0 KECCAK256 SWAP1 JUMPDEST DUP2 SLOAD DUP2 MSTORE SWAP1 PUSH1 0x1 ADD SWAP1 PUSH1 0x20 ADD DUP1 DUP4 GT PUSH2 0x13FA JUMPI DUP3 SWAP1 SUB PUSH1 0x1F AND DUP3 ADD SWAP2 JUMPDEST POP POP POP POP POP SWAP1 POP DUP11 JUMP JUMPDEST PUSH1 0x60 DUP1 DUP3 PUSH1 0x0 DUP2 GT DUP1 ISZERO PUSH2 0x1437 JUMPI POP PUSH1 0x1 SLOAD DUP2 GT ISZERO JUMPDEST PUSH2 0x1476 JUMPI PUSH1 0x40 MLOAD PUSH32 0x8C379A000000000000000000000000000000000000000000000000000000000 DUP2 MSTORE PUSH1 0x4 ADD PUSH2 0x146D SWAP1 PUSH2 0x406F JUMP JUMPDEST PUSH1 0x40 MLOAD DUP1 SWAP2 SUB SWAP1 REVERT JUMPDEST PUSH1 0x0 DUP1 PUSH1 0x0 DUP7 DUP2 MSTORE PUSH1 0x20 ADD SWAP1 DUP2 MSTORE PUSH1 0x20 ADD PUSH1 0x0 KECCAK256 PUSH1 0x40 MLOAD DUP1 PUSH2 0x160 ADD PUSH1 0x40 MSTORE SWAP1 DUP2 PUSH1 0x0 DUP3 ADD DUP1 SLOAD PUSH2 0x14A6 SWAP1 PUSH2 0x3C47 JUMP JUMPDEST DUP1 PUSH1 0x1F ADD PUSH1 0x20 DUP1 SWAP2 DIV MUL PUSH1 0x20 ADD PUSH1 0x40 MLOAD SWAP1 DUP2 ADD PUSH1 0x40 MSTORE DUP1 SWAP3 SWAP2 SWAP1 DUP2 DUP2 MSTORE PUSH1 0x20 ADD DUP3 DUP1 SLOAD PUSH2 0x14D2 SWAP1 PUSH2 0x3C47 JUMP JUMPDEST DUP1 ISZERO PUSH2 0x151F JUMPI DUP1 PUSH1 0x1F LT PUSH2 0x14F4 JUMPI PUSH2 0x100 DUP1 DUP4 SLOAD DIV MUL DUP4 MSTORE SWAP2 PUSH1 0x20 ADD SWAP2 PUSH2 0x151F JUMP JUMPDEST DUP3 ADD SWAP2 SWAP1 PUSH1 0x0 MSTORE PUSH1 0x20 PUSH1 0x0 KECCAK256 SWAP1 JUMPDEST DUP2 SLOAD DUP2 MSTORE SWAP1 PUSH1 0x1 ADD SWAP1 PUSH1 0x20 ADD DUP1 DUP4 GT PUSH2 0x1502 JUMPI DUP3 SWAP1 SUB PUSH1 0x1F AND DUP3 ADD SWAP2 JUMPDEST POP POP POP POP POP DUP2 MSTORE PUSH1 0x20 ADD PUSH1 0x1 DUP3 ADD DUP1 SLOAD PUSH2 0x1538 SWAP1 PUSH2 0x3C47 JUMP JUMPDEST DUP1 PUSH1 0x1F ADD PUSH1 0x20 DUP1 SWAP2 DIV MUL PUSH1 0x20 ADD PUSH1 0x40 MLOAD SWAP1 DUP2 ADD PUSH1 0x40 MSTORE DUP1 SWAP3 SWAP2 SWAP1 DUP2 DUP2 MSTORE PUSH1 0x20 ADD DUP3 DUP1 SLOAD PUSH2 0x1564 SWAP1 PUSH2 0x3C47 JUMP JUMPDEST DUP1 ISZERO PUSH2 0x15B1 JUMPI DUP1 PUSH1 0x1F LT PUSH2 0x1586 JUMPI PUSH2 0x100 DUP1 DUP4 SLOAD DIV MUL DUP4 MSTORE SWAP2 PUSH1 0x20 ADD SWAP2 PUSH2 0x15B1 JUMP JUMPDEST DUP3 ADD SWAP2 SWAP1 PUSH1 0x0 MSTORE PUSH1 0x20 PUSH1 0x0 KECCAK256 SWAP1 JUMPDEST DUP2 SLOAD DUP2 MSTORE SWAP1 PUSH1 0x1 ADD SWAP1 PUSH1 0x20 ADD DUP1 DUP4 GT PUSH2 0x1594 JUMPI DUP3 SWAP1 SUB PUSH1 0x1F AND DUP3 ADD SWAP2 JUMPDEST POP POP POP POP POP DUP2 MSTORE PUSH1 0x20 ADD PUSH1 0x2 DUP3 ADD PUSH1 0x0 SWAP1 SLOAD SWAP1 PUSH2 0x100 EXP SWAP1 DIV PUSH20 0xFFFFFFFFFFFFFFFFFFFFFFFFFFFFFFFFFFFFFFFF AND PUSH20 0xFFFFFFFFFFFFFFFFFFFFFFFFFFFFFFFFFFFFFFFF AND PUSH20 0xFFFFFFFFFFFFFFFFFFFFFFFFFFFFFFFFFFFFFFFF AND DUP2 MSTORE PUSH1 0x20 ADD PUSH1 0x3 DUP3 ADD DUP1 SLOAD DUP1 PUSH1 0x20 MUL PUSH1 0x20 ADD PUSH1 0x40 MLOAD SWAP1 DUP2 ADD PUSH1 0x40 MSTORE DUP1 SWAP3 SWAP2 SWAP1 DUP2 DUP2 MSTORE PUSH1 0x20 ADD PUSH1 0x0 SWAP1 JUMPDEST DUP3 DUP3 LT ISZERO PUSH2 0x16E1 JUMPI DUP4 DUP3 SWAP1 PUSH1 0x0 MSTORE PUSH1 0x20 PUSH1 0x0 KECCAK256 ADD DUP1 SLOAD PUSH2 0x1654 SWAP1 PUSH2 0x3C47 JUMP JUMPDEST DUP1 PUSH1 0x1F ADD PUSH1 0x20 DUP1 SWAP2 DIV MUL PUSH1 0x20 ADD PUSH1 0x40 MLOAD SWAP1 DUP2 ADD PUSH1 0x40 MSTORE DUP1 SWAP3 SWAP2 SWAP1 DUP2 DUP2 MSTORE PUSH1 0x20 ADD DUP3 DUP1 SLOAD PUSH2 0x1680 SWAP1 PUSH2 0x3C47 JUMP JUMPDEST DUP1 ISZERO PUSH2 0x16CD JUMPI DUP1 PUSH1 0x1F LT PUSH2 0x16A2 JUMPI PUSH2 0x100 DUP1 DUP4 SLOAD DIV MUL DUP4 MSTORE SWAP2 PUSH1 0x20 ADD SWAP2 PUSH2 0x16CD JUMP JUMPDEST DUP3 ADD SWAP2 SWAP1 PUSH1 0x0 MSTORE PUSH1 0x20 PUSH1 0x0 KECCAK256 SWAP1 JUMPDEST DUP2 SLOAD DUP2 MSTORE SWAP1 PUSH1 0x1 ADD SWAP1 PUSH1 0x20 ADD DUP1 DUP4 GT PUSH2 0x16B0 JUMPI DUP3 SWAP1 SUB PUSH1 0x1F AND DUP3 ADD SWAP2 JUMPDEST POP POP POP POP POP DUP2 MSTORE PUSH1 0x20 ADD SWAP1 PUSH1 0x1 ADD SWAP1 PUSH2 0x1635 JUMP JUMPDEST POP POP POP POP DUP2 MSTORE PUSH1 0x20 ADD PUSH1 0x4 DUP3 ADD SLOAD DUP2 MSTORE PUSH1 0x20 ADD PUSH1 0x5 DUP3 ADD SLOAD DUP2 MSTORE PUSH1 0x20 ADD PUSH1 0x6 DUP3 ADD PUSH1 0x0 SWAP1 SLOAD SWAP1 PUSH2 0x100 EXP SWAP1 DIV PUSH1 0xFF AND ISZERO ISZERO ISZERO ISZERO DUP2 MSTORE PUSH1 0x20 ADD PUSH1 0x6 DUP3 ADD PUSH1 0x1 SWAP1 SLOAD SWAP1 PUSH2 0x100 EXP SWAP1 DIV PUSH1 0xFF AND ISZERO ISZERO ISZERO ISZERO DUP2 MSTORE PUSH1 0x20 ADD PUSH1 0x6 DUP3 ADD PUSH1 0x2 SWAP1 SLOAD SWAP1 PUSH2 0x100 EXP SWAP1 DIV PUSH20 0xFFFFFFFFFFFFFFFFFFFFFFFFFFFFFFFFFFFFFFFF AND PUSH20 0xFFFFFFFFFFFFFFFFFFFFFFFFFFFFFFFFFFFFFFFF AND PUSH20 0xFFFFFFFFFFFFFFFFFFFFFFFFFFFFFFFFFFFFFFFF AND DUP2 MSTORE PUSH1 0x20 ADD PUSH1 0x7 DUP3 ADD DUP1 SLOAD PUSH2 0x1799 SWAP1 PUSH2 0x3C47 JUMP JUMPDEST DUP1 PUSH1 0x1F ADD PUSH1 0x20 DUP1 SWAP2 DIV MUL PUSH1 0x20 ADD PUSH1 0x40 MLOAD SWAP1 DUP2 ADD PUSH1 0x40 MSTORE DUP1 SWAP3 SWAP2 SWAP1 DUP2 DUP2 MSTORE PUSH1 0x20 ADD DUP3 DUP1 SLOAD PUSH2 0x17C5 SWAP1 PUSH2 0x3C47 JUMP JUMPDEST DUP1 ISZERO PUSH2 0x1812 JUMPI DUP1 PUSH1 0x1F LT PUSH2 0x17E7 JUMPI PUSH2 0x100 DUP1 DUP4 SLOAD DIV MUL DUP4 MSTORE SWAP2 PUSH1 0x20 ADD SWAP2 PUSH2 0x1812 JUMP JUMPDEST DUP3 ADD SWAP2 SWAP1 PUSH1 0x0 MSTORE PUSH1 0x20 PUSH1 0x0 KECCAK256 SWAP1 JUMPDEST DUP2 SLOAD DUP2 MSTORE SWAP1 PUSH1 0x1 ADD SWAP1 PUSH1 0x20 ADD DUP1 DUP4 GT PUSH2 0x17F5 JUMPI DUP3 SWAP1 SUB PUSH1 0x1F AND DUP3 ADD SWAP2 JUMPDEST POP POP POP POP POP DUP2 MSTORE PUSH1 0x20 ADD PUSH1 0x8 DUP3 ADD DUP1 SLOAD PUSH2 0x182B SWAP1 PUSH2 0x3C47 JUMP JUMPDEST DUP1 PUSH1 0x1F ADD PUSH1 0x20 DUP1 SWAP2 DIV MUL PUSH1 0x20 ADD PUSH1 0x40 MLOAD SWAP1 DUP2 ADD PUSH1 0x40 MSTORE DUP1 SWAP3 SWAP2 SWAP1 DUP2 DUP2 MSTORE PUSH1 0x20 ADD DUP3 DUP1 SLOAD PUSH2 0x1857 SWAP1 PUSH2 0x3C47 JUMP JUMPDEST DUP1 ISZERO PUSH2 0x18A4 JUMPI DUP1 PUSH1 0x1F LT PUSH2 0x1879 JUMPI PUSH2 0x100 DUP1 DUP4 SLOAD DIV MUL DUP4 MSTORE SWAP2 PUSH1 0x20 ADD SWAP2 PUSH2 0x18A4 JUMP JUMPDEST DUP3 ADD SWAP2 SWAP1 PUSH1 0x0 MSTORE PUSH1 0x20 PUSH1 0x0 KECCAK256 SWAP1 JUMPDEST DUP2 SLOAD DUP2 MSTORE SWAP1 PUSH1 0x1 ADD SWAP1 PUSH1 0x20 ADD DUP1 DUP4 GT PUSH2 0x1887 JUMPI DUP3 SWAP1 SUB PUSH1 0x1F AND DUP3 ADD SWAP2 JUMPDEST POP POP POP POP POP DUP2 MSTORE POP POP SWAP1 POP DUP1 PUSH1 0xE0 ADD MLOAD PUSH2 0x18F3 JUMPI PUSH1 0x40 MLOAD PUSH32 0x8C379A000000000000000000000000000000000000000000000000000000000 DUP2 MSTORE PUSH1 0x4 ADD PUSH2 0x18EA SWAP1 PUSH2 0x4259 JUMP JUMPDEST PUSH1 0x40 MLOAD DUP1 SWAP2 SUB SWAP1 REVERT JUMPDEST PUSH1 0x7 PUSH1 0x0 DUP7 DUP2 MSTORE PUSH1 0x20 ADD SWAP1 DUP2 MSTORE PUSH1 0x20 ADD PUSH1 0x0 KECCAK256 PUSH1 0x0 CALLER PUSH20 0xFFFFFFFFFFFFFFFFFFFFFFFFFFFFFFFFFFFFFFFF AND PUSH20 0xFFFFFFFFFFFFFFFFFFFFFFFFFFFFFFFFFFFFFFFF AND DUP2 MSTORE PUSH1 0x20 ADD SWAP1 DUP2 MSTORE PUSH1 0x20 ADD PUSH1 0x0 KECCAK256 PUSH1 0x0 SWAP1 SLOAD SWAP1 PUSH2 0x100 EXP SWAP1 DIV PUSH1 0xFF AND PUSH2 0x1990 JUMPI PUSH1 0x40 MLOAD PUSH32 0x8C379A000000000000000000000000000000000000000000000000000000000 DUP2 MSTORE PUSH1 0x4 ADD PUSH2 0x1987 SWAP1 PUSH2 0x42C5 JUMP JUMPDEST PUSH1 0x40 MLOAD DUP1 SWAP2 SUB SWAP1 REVERT JUMPDEST DUP1 PUSH2 0x120 ADD MLOAD DUP2 PUSH2 0x140 ADD MLOAD SWAP4 POP SWAP4 POP POP POP SWAP2 POP SWAP2 JUMP JUMPDEST PUSH1 0x4 PUSH1 0x20 MSTORE DUP1 PUSH1 0x0 MSTORE PUSH1 0x40 PUSH1 0x0 KECCAK256 PUSH1 0x0 SWAP2 POP SWAP1 POP DUP1 PUSH1 0x0 ADD DUP1 SLOAD PUSH2 0x19CA SWAP1 PUSH2 0x3C47 JUMP JUMPDEST DUP1 PUSH1 0x1F ADD PUSH1 0x20 DUP1 SWAP2 DIV MUL PUSH1 0x20 ADD PUSH1 0x40 MLOAD SWAP1 DUP2 ADD PUSH1 0x40 MSTORE DUP1 SWAP3 SWAP2 SWAP1 DUP2 DUP2 MSTORE PUSH1 0x20 ADD DUP3 DUP1 SLOAD PUSH2 0x19F6 SWAP1 PUSH2 0x3C47 JUMP JUMPDEST DUP1 ISZERO PUSH2 0x1A43 JUMPI DUP1 PUSH1 0x1F LT PUSH2 0x1A18 JUMPI PUSH2 0x100 DUP1 DUP4 SLOAD DIV MUL DUP4 MSTORE SWAP2 PUSH1 0x20 ADD SWAP2 PUSH2 0x1A43 JUMP JUMPDEST DUP3 ADD SWAP2 SWAP1 PUSH1 0x0 MSTORE PUSH1 0x20 PUSH1 0x0 KECCAK256 SWAP1 JUMPDEST DUP2 SLOAD DUP2 MSTORE SWAP1 PUSH1 0x1 ADD SWAP1 PUSH1 0x20 ADD DUP1 DUP4 GT PUSH2 0x1A26 JUMPI DUP3 SWAP1 SUB PUSH1 0x1F AND DUP3 ADD SWAP2 JUMPDEST POP POP POP POP POP SWAP1 DUP1 PUSH1 0x1 ADD PUSH1 0x0 SWAP1 SLOAD SWAP1 PUSH2 0x100 EXP SWAP1 DIV PUSH1 0xFF AND SWAP1 DUP1 PUSH1 0x1 ADD PUSH1 0x1 SWAP1 SLOAD SWAP1 PUSH2 0x100 EXP SWAP1 DIV PUSH1 0xFF AND SWAP1 POP DUP4 JUMP JUMPDEST PUSH1 0x0 DUP3 PUSH1 0x0 DUP2 GT DUP1 ISZERO PUSH2 0x1A88 JUMPI POP PUSH1 0x1 SLOAD DUP2 GT ISZERO JUMPDEST PUSH2 0x1AC7 JUMPI PUSH1 0x40 MLOAD PUSH32 0x8C379A000000000000000000000000000000000000000000000000000000000 DUP2 MSTORE PUSH1 0x4 ADD PUSH2 0x1ABE SWAP1 PUSH2 0x406F JUMP JUMPDEST PUSH1 0x40 MLOAD DUP1 SWAP2 SUB SWAP1 REVERT JUMPDEST PUSH1 0x7 PUSH1 0x0 DUP6 DUP2 MSTORE PUSH1 0x20 ADD SWAP1 DUP2 MSTORE PUSH1 0x20 ADD PUSH1 0x0 KECCAK256 PUSH1 0x0 DUP5 PUSH20 0xFFFFFFFFFFFFFFFFFFFFFFFFFFFFFFFFFFFFFFFF AND PUSH20 0xFFFFFFFFFFFFFFFFFFFFFFFFFFFFFFFFFFFFFFFF AND DUP2 MSTORE PUSH1 0x20 ADD SWAP1 DUP2 MSTORE PUSH1 0x20 ADD PUSH1 0x0 KECCAK256 PUSH1 0x0 SWAP1 SLOAD SWAP1 PUSH2 0x100 EXP SWAP1 DIV PUSH1 0xFF AND SWAP2 POP POP SWAP3 SWAP2 POP POP JUMP JUMPDEST PUSH1 0x3 DUP2 DUP2 SLOAD DUP2 LT PUSH2 0x1B3E JUMPI PUSH1 0x0 DUP1 REVERT JUMPDEST SWAP1 PUSH1 0x0 MSTORE PUSH1 0x20 PUSH1 0x0 KECCAK256 ADD PUSH1 0x0 SWAP2 POP SLOAD SWAP1 PUSH2 0x100 EXP SWAP1 DIV PUSH20 0xFFFFFFFFFFFFFFFFFFFFFFFFFFFFFFFFFFFFFFFF AND DUP2 JUMP JUMPDEST PUSH1 0x1 SLOAD DUP2 JUMP JUMPDEST PUSH1 0x0 DUP1 DUP7 MLOAD GT PUSH2 0x1BB8 JUMPI PUSH1 0x40 MLOAD PUSH32 0x8C379A000000000000000000000000000000000000000000000000000000000 DUP2 MSTORE PUSH1 0x4 ADD PUSH2 0x1BAF SWAP1 PUSH2 0x4331 JUMP JUMPDEST PUSH1 0x40 MLOAD DUP1 SWAP2 SUB SWAP1 REVERT JUMPDEST PUSH1 0x0 DUP5 MLOAD GT PUSH2 0x1BFC JUMPI PUSH1 0x40 MLOAD PUSH32 0x8C379A000000000000000000000000000000000000000000000000000000000 DUP2 MSTORE PUSH1 0x4 ADD PUSH2 0x1BF3 SWAP1 PUSH2 0x439D JUMP JUMPDEST PUSH1 0x40 MLOAD DUP1 SWAP2 SUB SWAP1 REVERT JUMPDEST PUSH1 0x0 DUP4 MLOAD GT PUSH2 0x1C40 JUMPI PUSH1 0x40 MLOAD PUSH32 0x8C379A000000000000000000000000000000000000000000000000000000000 DUP2 MSTORE PUSH1 0x4 ADD PUSH2 0x1C37 SWAP1 PUSH2 0x4409 JUMP JUMPDEST PUSH1 0x40 MLOAD DUP1 SWAP2 SUB SWAP1 REVERT JUMPDEST PUSH1 0x0 DUP3 MLOAD GT PUSH2 0x1C84 JUMPI PUSH1 0x40 MLOAD PUSH32 0x8C379A000000000000000000000000000000000000000000000000000000000 DUP2 MSTORE PUSH1 0x4 ADD PUSH2 0x1C7B SWAP1 PUSH2 0x4475 JUMP JUMPDEST PUSH1 0x40 MLOAD DUP1 SWAP2 SUB SWAP1 REVERT JUMPDEST PUSH1 0x1 PUSH1 0x0 DUP2 SLOAD DUP1 SWAP3 SWAP2 SWAP1 PUSH2 0x1C97 SWAP1 PUSH2 0x41C5 JUMP JUMPDEST SWAP2 SWAP1 POP SSTORE POP PUSH1 0x40 MLOAD DUP1 PUSH2 0x160 ADD PUSH1 0x40 MSTORE DUP1 DUP8 DUP2 MSTORE PUSH1 0x20 ADD DUP7 DUP2 MSTORE PUSH1 0x20 ADD CALLER PUSH20 0xFFFFFFFFFFFFFFFFFFFFFFFFFFFFFFFFFFFFFFFF AND DUP2 MSTORE PUSH1 0x20 ADD DUP6 DUP2 MSTORE PUSH1 0x20 ADD TIMESTAMP DUP2 MSTORE PUSH1 0x20 ADD PUSH1 0x0 DUP2 MSTORE PUSH1 0x20 ADD PUSH1 0x0 ISZERO ISZERO DUP2 MSTORE PUSH1 0x20 ADD PUSH1 0x0 ISZERO ISZERO DUP2 MSTORE PUSH1 0x20 ADD PUSH1 0x0 PUSH20 0xFFFFFFFFFFFFFFFFFFFFFFFFFFFFFFFFFFFFFFFF AND DUP2 MSTORE PUSH1 0x20 ADD DUP5 DUP2 MSTORE PUSH1 0x20 ADD DUP4 DUP2 MSTORE POP PUSH1 0x0 DUP1 PUSH1 0x1 SLOAD DUP2 MSTORE PUSH1 0x20 ADD SWAP1 DUP2 MSTORE PUSH1 0x20 ADD PUSH1 0x0 KECCAK256 PUSH1 0x0 DUP3 ADD MLOAD DUP2 PUSH1 0x0 ADD SWAP1 DUP2 PUSH2 0x1D45 SWAP2 SWAP1 PUSH2 0x3E24 JUMP JUMPDEST POP PUSH1 0x20 DUP3 ADD MLOAD DUP2 PUSH1 0x1 ADD SWAP1 DUP2 PUSH2 0x1D5B SWAP2 SWAP1 PUSH2 0x3E24 JUMP JUMPDEST POP PUSH1 0x40 DUP3 ADD MLOAD DUP2 PUSH1 0x2 ADD PUSH1 0x0 PUSH2 0x100 EXP DUP2 SLOAD DUP2 PUSH20 0xFFFFFFFFFFFFFFFFFFFFFFFFFFFFFFFFFFFFFFFF MUL NOT AND SWAP1 DUP4 PUSH20 0xFFFFFFFFFFFFFFFFFFFFFFFFFFFFFFFFFFFFFFFF AND MUL OR SWAP1 SSTORE POP PUSH1 0x60 DUP3 ADD MLOAD DUP2 PUSH1 0x3 ADD SWAP1 DUP1 MLOAD SWAP1 PUSH1 0x20 ADD SWAP1 PUSH2 0x1DBF SWAP3 SWAP2 SWAP1 PUSH2 0x2B9F JUMP JUMPDEST POP PUSH1 0x80 DUP3 ADD MLOAD DUP2 PUSH1 0x4 ADD SSTORE PUSH1 0xA0 DUP3 ADD MLOAD DUP2 PUSH1 0x5 ADD SSTORE PUSH1 0xC0 DUP3 ADD MLOAD DUP2 PUSH1 0x6 ADD PUSH1 0x0 PUSH2 0x100 EXP DUP2 SLOAD DUP2 PUSH1 0xFF MUL NOT AND SWAP1 DUP4 ISZERO ISZERO MUL OR SWAP1 SSTORE POP PUSH1 0xE0 DUP3 ADD MLOAD DUP2 PUSH1 0x6 ADD PUSH1 0x1 PUSH2 0x100 EXP DUP2 SLOAD DUP2 PUSH1 0xFF MUL NOT AND SWAP1 DUP4 ISZERO ISZERO MUL OR SWAP1 SSTORE POP PUSH2 0x100 DUP3 ADD MLOAD DUP2 PUSH1 0x6 ADD PUSH1 0x2 PUSH2 0x100 EXP DUP2 SLOAD DUP2 PUSH20 0xFFFFFFFFFFFFFFFFFFFFFFFFFFFFFFFFFFFFFFFF MUL NOT AND SWAP1 DUP4 PUSH20 0xFFFFFFFFFFFFFFFFFFFFFFFFFFFFFFFFFFFFFFFF AND MUL OR SWAP1 SSTORE POP PUSH2 0x120 DUP3 ADD MLOAD DUP2 PUSH1 0x7 ADD SWAP1 DUP2 PUSH2 0x1E72 SWAP2 SWAP1 PUSH2 0x3F51 JUMP JUMPDEST POP PUSH2 0x140 DUP3 ADD MLOAD DUP2 PUSH1 0x8 ADD SWAP1 DUP2 PUSH2 0x1E89 SWAP2 SWAP1 PUSH2 0x3E24 JUMP JUMPDEST POP SWAP1 POP POP CALLER PUSH20 0xFFFFFFFFFFFFFFFFFFFFFFFFFFFFFFFFFFFFFFFF AND PUSH1 0x1 SLOAD PUSH32 0xF2ADDD0844BF6C683670BE19A71FE7603380BDC0B1A9ECDE0137F08B5E0D644A DUP9 PUSH1 0x40 MLOAD PUSH2 0x1ED6 SWAP2 SWAP1 PUSH2 0x395E JUMP JUMPDEST PUSH1 0x40 MLOAD DUP1 SWAP2 SUB SWAP1 LOG3 PUSH1 0x1 SLOAD SWAP1 POP SWAP6 SWAP5 POP POP POP POP POP JUMP JUMPDEST PUSH1 0x4 PUSH1 0x0 CALLER PUSH20 0xFFFFFFFFFFFFFFFFFFFFFFFFFFFFFFFFFFFFFFFF AND PUSH20 0xFFFFFFFFFFFFFFFFFFFFFFFFFFFFFFFFFFFFFFFF AND DUP2 MSTORE PUSH1 0x20 ADD SWAP1 DUP2 MSTORE PUSH1 0x20 ADD PUSH1 0x0 KECCAK256 PUSH1 0x1 ADD PUSH1 0x0 SWAP1 SLOAD SWAP1 PUSH2 0x100 EXP SWAP1 DIV PUSH1 0xFF AND PUSH2 0x1FA4 JUMPI PUSH1 0x5 CALLER SWAP1 DUP1 PUSH1 0x1 DUP2 SLOAD ADD DUP1 DUP3 SSTORE DUP1 SWAP2 POP POP PUSH1 0x1 SWAP1 SUB SWAP1 PUSH1 0x0 MSTORE PUSH1 0x20 PUSH1 0x0 KECCAK256 ADD PUSH1 0x0 SWAP1 SWAP2 SWAP1 SWAP2 SWAP1 SWAP2 PUSH2 0x100 EXP DUP2 SLOAD DUP2 PUSH20 0xFFFFFFFFFFFFFFFFFFFFFFFFFFFFFFFFFFFFFFFF MUL NOT AND SWAP1 DUP4 PUSH20 0xFFFFFFFFFFFFFFFFFFFFFFFFFFFFFFFFFFFFFFFF AND MUL OR SWAP1 SSTORE POP JUMPDEST PUSH1 0x40 MLOAD DUP1 PUSH1 0x60 ADD PUSH1 0x40 MSTORE DUP1 DUP3 DUP2 MSTORE PUSH1 0x20 ADD PUSH1 0x1 ISZERO ISZERO DUP2 MSTORE PUSH1 0x20 ADD PUSH1 0x1 ISZERO ISZERO DUP2 MSTORE POP PUSH1 0x4 PUSH1 0x0 CALLER PUSH20 0xFFFFFFFFFFFFFFFFFFFFFFFFFFFFFFFFFFFFFFFF AND PUSH20 0xFFFFFFFFFFFFFFFFFFFFFFFFFFFFFFFFFFFFFFFF AND DUP2 MSTORE PUSH1 0x20 ADD SWAP1 DUP2 MSTORE PUSH1 0x20 ADD PUSH1 0x0 KECCAK256 PUSH1 0x0 DUP3 ADD MLOAD DUP2 PUSH1 0x0 ADD SWAP1 DUP2 PUSH2 0x2019 SWAP2 SWAP1 PUSH2 0x3E24 JUMP JUMPDEST POP PUSH1 0x20 DUP3 ADD MLOAD DUP2 PUSH1 0x1 ADD PUSH1 0x0 PUSH2 0x100 EXP DUP2 SLOAD DUP2 PUSH1 0xFF MUL NOT AND SWAP1 DUP4 ISZERO ISZERO MUL OR SWAP1 SSTORE POP PUSH1 0x40 DUP3 ADD MLOAD DUP2 PUSH1 0x1 ADD PUSH1 0x1 PUSH2 0x100 EXP DUP2 SLOAD DUP2 PUSH1 0xFF MUL NOT AND SWAP1 DUP4 ISZERO ISZERO MUL OR SWAP1 SSTORE POP SWAP1 POP POP CALLER PUSH20 0xFFFFFFFFFFFFFFFFFFFFFFFFFFFFFFFFFFFFFFFF AND PUSH32 0x8B3AB3AC57020B92E516B703BB37E5B4D0B12CC6C39D69288F9380BE3F19DCBE DUP3 PUSH1 0x40 MLOAD PUSH2 0x20A3 SWAP2 SWAP1 PUSH2 0x395E JUMP JUMPDEST PUSH1 0x40 MLOAD DUP1 SWAP2 SUB SWAP1 LOG2 POP JUMP JUMPDEST PUSH1 0x60 DUP2 PUSH1 0x0 DUP2 GT DUP1 ISZERO PUSH2 0x20C3 JUMPI POP PUSH1 0x1 SLOAD DUP2 GT ISZERO JUMPDEST PUSH2 0x2102 JUMPI PUSH1 0x40 MLOAD PUSH32 0x8C379A000000000000000000000000000000000000000000000000000000000 DUP2 MSTORE PUSH1 0x4 ADD PUSH2 0x20F9 SWAP1 PUSH2 0x406F JUMP JUMPDEST PUSH1 0x40 MLOAD DUP1 SWAP2 SUB SWAP1 REVERT JUMPDEST PUSH1 0x7 PUSH1 0x0 DUP5 DUP2 MSTORE PUSH1 0x20 ADD SWAP1 DUP2 MSTORE PUSH1 0x20 ADD PUSH1 0x0 KECCAK256 PUSH1 0x0 CALLER PUSH20 0xFFFFFFFFFFFFFFFFFFFFFFFFFFFFFFFFFFFFFFFF AND PUSH20 0xFFFFFFFFFFFFFFFFFFFFFFFFFFFFFFFFFFFFFFFF AND DUP2 MSTORE PUSH1 0x20 ADD SWAP1 DUP2 MSTORE PUSH1 0x20 ADD PUSH1 0x0 KECCAK256 PUSH1 0x0 SWAP1 SLOAD SWAP1 PUSH2 0x100 EXP SWAP1 DIV PUSH1 0xFF AND PUSH2 0x219F JUMPI PUSH1 0x40 MLOAD PUSH32 0x8C379A000000000000000000000000000000000000000000000000000000000 DUP2 MSTORE PUSH1 0x4 ADD PUSH2 0x2196 SWAP1 PUSH2 0x42C5 JUMP JUMPDEST PUSH1 0x40 MLOAD DUP1 SWAP2 SUB SWAP1 REVERT JUMPDEST PUSH1 0x6 PUSH1 0x0 DUP5 DUP2 MSTORE PUSH1 0x20 ADD SWAP1 DUP2 MSTORE PUSH1 0x20 ADD PUSH1 0x0 KECCAK256 PUSH1 0x0 CALLER PUSH20 0xFFFFFFFFFFFFFFFFFFFFFFFFFFFFFFFFFFFFFFFF AND PUSH20 0xFFFFFFFFFFFFFFFFFFFFFFFFFFFFFFFFFFFFFFFF AND DUP2 MSTORE PUSH1 0x20 ADD SWAP1 DUP2 MSTORE PUSH1 0x20 ADD PUSH1 0x0 KECCAK256 DUP1 SLOAD PUSH2 0x21FA SWAP1 PUSH2 0x3C47 JUMP JUMPDEST DUP1 PUSH1 0x1F ADD PUSH1 0x20 DUP1 SWAP2 DIV MUL PUSH1 0x20 ADD PUSH1 0x40 MLOAD SWAP1 DUP2 ADD PUSH1 0x40 MSTORE DUP1 SWAP3 SWAP2 SWAP1 DUP2 DUP2 MSTORE PUSH1 0x20 ADD DUP3 DUP1 SLOAD PUSH2 0x2226 SWAP1 PUSH2 0x3C47 JUMP JUMPDEST DUP1 ISZERO PUSH2 0x2273 JUMPI DUP1 PUSH1 0x1F LT PUSH2 0x2248 JUMPI PUSH2 0x100 DUP1 DUP4 SLOAD DIV MUL DUP4 MSTORE SWAP2 PUSH1 0x20 ADD SWAP2 PUSH2 0x2273 JUMP JUMPDEST DUP3 ADD SWAP2 SWAP1 PUSH1 0x0 MSTORE PUSH1 0x20 PUSH1 0x0 KECCAK256 SWAP1 JUMPDEST DUP2 SLOAD DUP2 MSTORE SWAP1 PUSH1 0x1 ADD SWAP1 PUSH1 0x20 ADD DUP1 DUP4 GT PUSH2 0x2256 JUMPI DUP3 SWAP1 SUB PUSH1 0x1F AND DUP3 ADD SWAP2 JUMPDEST POP POP POP POP POP SWAP2 POP POP SWAP2 SWAP1 POP JUMP JUMPDEST PUSH1 0x5 DUP2 DUP2 SLOAD DUP2 LT PUSH2 0x2290 JUMPI PUSH1 0x0 DUP1 REVERT JUMPDEST SWAP1 PUSH1 0x0 MSTORE PUSH1 0x20 PUSH1 0x0 KECCAK256 ADD PUSH1 0x0 SWAP2 POP SLOAD SWAP1 PUSH2 0x100 EXP SWAP1 DIV PUSH20 0xFFFFFFFFFFFFFFFFFFFFFFFFFFFFFFFFFFFFFFFF AND DUP2 JUMP JUMPDEST PUSH1 0x6 PUSH1 0x20 MSTORE DUP2 PUSH1 0x0 MSTORE PUSH1 0x40 PUSH1 0x0 KECCAK256 PUSH1 0x20 MSTORE DUP1 PUSH1 0x0 MSTORE PUSH1 0x40 PUSH1 0x0 KECCAK256 PUSH1 0x0 SWAP2 POP SWAP2 POP POP DUP1 SLOAD PUSH2 0x22EB SWAP1 PUSH2 0x3C47 JUMP JUMPDEST DUP1 PUSH1 0x1F ADD PUSH1 0x20 DUP1 SWAP2 DIV MUL PUSH1 0x20 ADD PUSH1 0x40 MLOAD SWAP1 DUP2 ADD PUSH1 0x40 MSTORE DUP1 SWAP3 SWAP2 SWAP1 DUP2 DUP2 MSTORE PUSH1 0x20 ADD DUP3 DUP1 SLOAD PUSH2 0x2317 SWAP1 PUSH2 0x3C47 JUMP JUMPDEST DUP1 ISZERO PUSH2 0x2364 JUMPI DUP1 PUSH1 0x1F LT PUSH2 0x2339 JUMPI PUSH2 0x100 DUP1 DUP4 SLOAD DIV MUL DUP4 MSTORE SWAP2 PUSH1 0x20 ADD SWAP2 PUSH2 0x2364 JUMP JUMPDEST DUP3 ADD SWAP2 SWAP1 PUSH1 0x0 MSTORE PUSH1 0x20 PUSH1 0x0 KECCAK256 SWAP1 JUMPDEST DUP2 SLOAD DUP2 MSTORE SWAP1 PUSH1 0x1 ADD SWAP1 PUSH1 0x20 ADD DUP1 DUP4 GT PUSH2 0x2347 JUMPI DUP3 SWAP1 SUB PUSH1 0x1F AND DUP3 ADD SWAP2 JUMPDEST POP POP POP POP POP DUP2 JUMP JUMPDEST PUSH1 0x4 PUSH1 0x0 CALLER PUSH20 0xFFFFFFFFFFFFFFFFFFFFFFFFFFFFFFFFFFFFFFFF AND PUSH20 0xFFFFFFFFFFFFFFFFFFFFFFFFFFFFFFFFFFFFFFFF AND DUP2 MSTORE PUSH1 0x20 ADD SWAP1 DUP2 MSTORE PUSH1 0x20 ADD PUSH1 0x0 KECCAK256 PUSH1 0x1 ADD PUSH1 0x0 SWAP1 SLOAD SWAP1 PUSH2 0x100 EXP SWAP1 DIV PUSH1 0xFF AND DUP1 ISZERO PUSH2 0x2414 JUMPI POP PUSH1 0x4 PUSH1 0x0 CALLER PUSH20 0xFFFFFFFFFFFFFFFFFFFFFFFFFFFFFFFFFFFFFFFF AND PUSH20 0xFFFFFFFFFFFFFFFFFFFFFFFFFFFFFFFFFFFFFFFF AND DUP2 MSTORE PUSH1 0x20 ADD SWAP1 DUP2 MSTORE PUSH1 0x20 ADD PUSH1 0x0 KECCAK256 PUSH1 0x1 ADD PUSH1 0x1 SWAP1 SLOAD SWAP1 PUSH2 0x100 EXP SWAP1 DIV PUSH1 0xFF AND JUMPDEST PUSH2 0x2453 JUMPI PUSH1 0x40 MLOAD PUSH32 0x8C379A000000000000000000000000000000000000000000000000000000000 DUP2 MSTORE PUSH1 0x4 ADD PUSH2 0x244A SWAP1 PUSH2 0x44E1 JUMP JUMPDEST PUSH1 0x40 MLOAD DUP1 SWAP2 SUB SWAP1 REVERT JUMPDEST DUP6 PUSH1 0x0 DUP2 GT DUP1 ISZERO PUSH2 0x2466 JUMPI POP PUSH1 0x1 SLOAD DUP2 GT ISZERO JUMPDEST PUSH2 0x24A5 JUMPI PUSH1 0x40 MLOAD PUSH32 0x8C379A000000000000000000000000000000000000000000000000000000000 DUP2 MSTORE PUSH1 0x4 ADD PUSH2 0x249C SWAP1 PUSH2 0x406F JUMP JUMPDEST PUSH1 0x40 MLOAD DUP1 SWAP2 SUB SWAP1 REVERT JUMPDEST DUP4 MLOAD DUP6 MLOAD EQ PUSH2 0x24E9 JUMPI PUSH1 0x40 MLOAD PUSH32 0x8C379A000000000000000000000000000000000000000000000000000000000 DUP2 MSTORE PUSH1 0x4 ADD PUSH2 0x24E0 SWAP1 PUSH2 0x454D JUMP JUMPDEST PUSH1 0x40 MLOAD DUP1 SWAP2 SUB SWAP1 REVERT JUMPDEST TIMESTAMP DUP7 GT PUSH2 0x252B JUMPI PUSH1 0x40 MLOAD PUSH32 0x8C379A000000000000000000000000000000000000000000000000000000000 DUP2 MSTORE PUSH1 0x4 ADD PUSH2 0x2522 SWAP1 PUSH2 0x45B9 JUMP JUMPDEST PUSH1 0x40 MLOAD DUP1 SWAP2 SUB SWAP1 REVERT JUMPDEST PUSH1 0x0 DUP1 PUSH1 0x0 DUP10 DUP2 MSTORE PUSH1 0x20 ADD SWAP1 DUP2 MSTORE PUSH1 0x20 ADD PUSH1 0x0 KECCAK256 SWAP1 POP DUP1 PUSH1 0x6 ADD PUSH1 0x0 SWAP1 SLOAD SWAP1 PUSH2 0x100 EXP SWAP1 DIV PUSH1 0xFF AND ISZERO PUSH2 0x2593 JUMPI PUSH1 0x40 MLOAD PUSH32 0x8C379A000000000000000000000000000000000000000000000000000000000 DUP2 MSTORE PUSH1 0x4 ADD PUSH2 0x258A SWAP1 PUSH2 0x4625 JUMP JUMPDEST PUSH1 0x40 MLOAD DUP1 SWAP2 SUB SWAP1 REVERT JUMPDEST PUSH1 0x0 JUMPDEST DUP7 MLOAD DUP2 LT ISZERO PUSH2 0x2770 JUMPI PUSH1 0x2 PUSH1 0x0 DUP9 DUP4 DUP2 MLOAD DUP2 LT PUSH2 0x25B6 JUMPI PUSH2 0x25B5 PUSH2 0x4167 JUMP JUMPDEST JUMPDEST PUSH1 0x20 MUL PUSH1 0x20 ADD ADD MLOAD PUSH20 0xFFFFFFFFFFFFFFFFFFFFFFFFFFFFFFFFFFFFFFFF AND PUSH20 0xFFFFFFFFFFFFFFFFFFFFFFFFFFFFFFFFFFFFFFFF AND DUP2 MSTORE PUSH1 0x20 ADD SWAP1 DUP2 MSTORE PUSH1 0x20 ADD PUSH1 0x0 KECCAK256 PUSH1 0x2 ADD PUSH1 0x0 SWAP1 SLOAD SWAP1 PUSH2 0x100 EXP SWAP1 DIV PUSH1 0xFF AND PUSH2 0x2648 JUMPI PUSH1 0x40 MLOAD PUSH32 0x8C379A000000000000000000000000000000000000000000000000000000000 DUP2 MSTORE PUSH1 0x4 ADD PUSH2 0x263F SWAP1 PUSH2 0x4691 JUMP JUMPDEST PUSH1 0x40 MLOAD DUP1 SWAP2 SUB SWAP1 REVERT JUMPDEST DUP6 DUP2 DUP2 MLOAD DUP2 LT PUSH2 0x265B JUMPI PUSH2 0x265A PUSH2 0x4167 JUMP JUMPDEST JUMPDEST PUSH1 0x20 MUL PUSH1 0x20 ADD ADD MLOAD PUSH1 0x6 PUSH1 0x0 DUP12 DUP2 MSTORE PUSH1 0x20 ADD SWAP1 DUP2 MSTORE PUSH1 0x20 ADD PUSH1 0x0 KECCAK256 PUSH1 0x0 DUP10 DUP5 DUP2 MLOAD DUP2 LT PUSH2 0x268B JUMPI PUSH2 0x268A PUSH2 0x4167 JUMP JUMPDEST JUMPDEST PUSH1 0x20 MUL PUSH1 0x20 ADD ADD MLOAD PUSH20 0xFFFFFFFFFFFFFFFFFFFFFFFFFFFFFFFFFFFFFFFF AND PUSH20 0xFFFFFFFFFFFFFFFFFFFFFFFFFFFFFFFFFFFFFFFF AND DUP2 MSTORE PUSH1 0x20 ADD SWAP1 DUP2 MSTORE PUSH1 0x20 ADD PUSH1 0x0 KECCAK256 SWAP1 DUP2 PUSH2 0x26D9 SWAP2 SWAP1 PUSH2 0x3E24 JUMP JUMPDEST POP PUSH1 0x1 PUSH1 0x7 PUSH1 0x0 DUP12 DUP2 MSTORE PUSH1 0x20 ADD SWAP1 DUP2 MSTORE PUSH1 0x20 ADD PUSH1 0x0 KECCAK256 PUSH1 0x0 DUP10 DUP5 DUP2 MLOAD DUP2 LT PUSH2 0x2704 JUMPI PUSH2 0x2703 PUSH2 0x4167 JUMP JUMPDEST JUMPDEST PUSH1 0x20 MUL PUSH1 0x20 ADD ADD MLOAD PUSH20 0xFFFFFFFFFFFFFFFFFFFFFFFFFFFFFFFFFFFFFFFF AND PUSH20 0xFFFFFFFFFFFFFFFFFFFFFFFFFFFFFFFFFFFFFFFF AND DUP2 MSTORE PUSH1 0x20 ADD SWAP1 DUP2 MSTORE PUSH1 0x20 ADD PUSH1 0x0 KECCAK256 PUSH1 0x0 PUSH2 0x100 EXP DUP2 SLOAD DUP2 PUSH1 0xFF MUL NOT AND SWAP1 DUP4 ISZERO ISZERO MUL OR SWAP1 SSTORE POP DUP1 DUP1 PUSH2 0x2768 SWAP1 PUSH2 0x41C5 JUMP JUMPDEST SWAP2 POP POP PUSH2 0x2596 JUMP JUMPDEST POP DUP4 DUP2 PUSH1 0x7 ADD SWAP1 DUP2 PUSH2 0x2782 SWAP2 SWAP1 PUSH2 0x3F51 JUMP JUMPDEST POP DUP3 DUP2 PUSH1 0x8 ADD SWAP1 DUP2 PUSH2 0x2794 SWAP2 SWAP1 PUSH2 0x3E24 JUMP JUMPDEST POP DUP7 DUP2 PUSH1 0x5 ADD DUP2 SWAP1 SSTORE POP PUSH1 0x1 DUP2 PUSH1 0x6 ADD PUSH1 0x0 PUSH2 0x100 EXP DUP2 SLOAD DUP2 PUSH1 0xFF MUL NOT AND SWAP1 DUP4 ISZERO ISZERO MUL OR SWAP1 SSTORE POP CALLER DUP2 PUSH1 0x6 ADD PUSH1 0x2 PUSH2 0x100 EXP DUP2 SLOAD DUP2 PUSH20 0xFFFFFFFFFFFFFFFFFFFFFFFFFFFFFFFFFFFFFFFF MUL NOT AND SWAP1 DUP4 PUSH20 0xFFFFFFFFFFFFFFFFFFFFFFFFFFFFFFFFFFFFFFFF AND MUL OR SWAP1 SSTORE POP CALLER PUSH20 0xFFFFFFFFFFFFFFFFFFFFFFFFFFFFFFFFFFFFFFFF AND DUP9 PUSH32 0x3D33224841A69211485D8E455A900B8E87A0CF87D2E1DF52F1EA56EBC485D700 DUP10 PUSH1 0x40 MLOAD PUSH2 0x2845 SWAP2 SWAP1 PUSH2 0x370D JUMP JUMPDEST PUSH1 0x40 MLOAD DUP1 SWAP2 SUB SWAP1 LOG3 POP POP POP POP POP POP POP POP JUMP JUMPDEST PUSH1 0x7 PUSH1 0x20 MSTORE DUP2 PUSH1 0x0 MSTORE PUSH1 0x40 PUSH1 0x0 KECCAK256 PUSH1 0x20 MSTORE DUP1 PUSH1 0x0 MSTORE PUSH1 0x40 PUSH1 0x0 KECCAK256 PUSH1 0x0 SWAP2 POP SWAP2 POP SWAP1 SLOAD SWAP1 PUSH2 0x100 EXP SWAP1 DIV PUSH1 0xFF AND DUP2 JUMP JUMPDEST PUSH1 0x60 DUP1 PUSH1 0x0 PUSH1 0x5 DUP1 SLOAD SWAP1 POP PUSH8 0xFFFFFFFFFFFFFFFF DUP2 GT ISZERO PUSH2 0x28AA JUMPI PUSH2 0x28A9 PUSH2 0x2CA8 JUMP JUMPDEST JUMPDEST PUSH1 0x40 MLOAD SWAP1 DUP1 DUP3 MSTORE DUP1 PUSH1 0x20 MUL PUSH1 0x20 ADD DUP3 ADD PUSH1 0x40 MSTORE DUP1 ISZERO PUSH2 0x28D8 JUMPI DUP2 PUSH1 0x20 ADD PUSH1 0x20 DUP3 MUL DUP1 CALLDATASIZE DUP4 CALLDATACOPY DUP1 DUP3 ADD SWAP2 POP POP SWAP1 POP JUMPDEST POP SWAP1 POP PUSH1 0x0 PUSH1 0x5 DUP1 SLOAD SWAP1 POP PUSH8 0xFFFFFFFFFFFFFFFF DUP2 GT ISZERO PUSH2 0x28FC JUMPI PUSH2 0x28FB PUSH2 0x2CA8 JUMP JUMPDEST JUMPDEST PUSH1 0x40 MLOAD SWAP1 DUP1 DUP3 MSTORE DUP1 PUSH1 0x20 MUL PUSH1 0x20 ADD DUP3 ADD PUSH1 0x40 MSTORE DUP1 ISZERO PUSH2 0x292F JUMPI DUP2 PUSH1 0x20 ADD JUMPDEST PUSH1 0x60 DUP2 MSTORE PUSH1 0x20 ADD SWAP1 PUSH1 0x1 SWAP1 SUB SWAP1 DUP2 PUSH2 0x291A JUMPI SWAP1 POP JUMPDEST POP SWAP1 POP PUSH1 0x0 JUMPDEST PUSH1 0x5 DUP1 SLOAD SWAP1 POP DUP2 LT ISZERO PUSH2 0x2B08 JUMPI PUSH1 0x5 DUP2 DUP2 SLOAD DUP2 LT PUSH2 0x2956 JUMPI PUSH2 0x2955 PUSH2 0x4167 JUMP JUMPDEST JUMPDEST SWAP1 PUSH1 0x0 MSTORE PUSH1 0x20 PUSH1 0x0 KECCAK256 ADD PUSH1 0x0 SWAP1 SLOAD SWAP1 PUSH2 0x100 EXP SWAP1 DIV PUSH20 0xFFFFFFFFFFFFFFFFFFFFFFFFFFFFFFFFFFFFFFFF AND DUP4 DUP3 DUP2 MLOAD DUP2 LT PUSH2 0x2994 JUMPI PUSH2 0x2993 PUSH2 0x4167 JUMP JUMPDEST JUMPDEST PUSH1 0x20 MUL PUSH1 0x20 ADD ADD SWAP1 PUSH20 0xFFFFFFFFFFFFFFFFFFFFFFFFFFFFFFFFFFFFFFFF AND SWAP1 DUP2 PUSH20 0xFFFFFFFFFFFFFFFFFFFFFFFFFFFFFFFFFFFFFFFF AND DUP2 MSTORE POP POP PUSH1 0x4 PUSH1 0x0 PUSH1 0x5 DUP4 DUP2 SLOAD DUP2 LT PUSH2 0x29E6 JUMPI PUSH2 0x29E5 PUSH2 0x4167 JUMP JUMPDEST JUMPDEST SWAP1 PUSH1 0x0 MSTORE PUSH1 0x20 PUSH1 0x0 KECCAK256 ADD PUSH1 0x0 SWAP1 SLOAD SWAP1 PUSH2 0x100 EXP SWAP1 DIV PUSH20 0xFFFFFFFFFFFFFFFFFFFFFFFFFFFFFFFFFFFFFFFF AND PUSH20 0xFFFFFFFFFFFFFFFFFFFFFFFFFFFFFFFFFFFFFFFF AND PUSH20 0xFFFFFFFFFFFFFFFFFFFFFFFFFFFFFFFFFFFFFFFF AND DUP2 MSTORE PUSH1 0x20 ADD SWAP1 DUP2 MSTORE PUSH1 0x20 ADD PUSH1 0x0 KECCAK256 PUSH1 0x0 ADD DUP1 SLOAD PUSH2 0x2A59 SWAP1 PUSH2 0x3C47 JUMP JUMPDEST DUP1 PUSH1 0x1F ADD PUSH1 0x20 DUP1 SWAP2 DIV MUL PUSH1 0x20 ADD PUSH1 0x40 MLOAD SWAP1 DUP2 ADD PUSH1 0x40 MSTORE DUP1 SWAP3 SWAP2 SWAP1 DUP2 DUP2 MSTORE PUSH1 0x20 ADD DUP3 DUP1 SLOAD PUSH2 0x2A85 SWAP1 PUSH2 0x3C47 JUMP JUMPDEST DUP1 ISZERO PUSH2 0x2AD2 JUMPI DUP1 PUSH1 0x1F LT PUSH2 0x2AA7 JUMPI PUSH2 0x100 DUP1 DUP4 SLOAD DIV MUL DUP4 MSTORE SWAP2 PUSH1 0x20 ADD SWAP2 PUSH2 0x2AD2 JUMP JUMPDEST DUP3 ADD SWAP2 SWAP1 PUSH1 0x0 MSTORE PUSH1 0x20 PUSH1 0x0 KECCAK256 SWAP1 JUMPDEST DUP2 SLOAD DUP2 MSTORE SWAP1 PUSH1 0x1 ADD SWAP1 PUSH1 0x20 ADD DUP1 DUP4 GT PUSH2 0x2AB5 JUMPI DUP3 SWAP1 SUB PUSH1 0x1F AND DUP3 ADD SWAP2 JUMPDEST POP POP POP POP POP DUP3 DUP3 DUP2 MLOAD DUP2 LT PUSH2 0x2AEA JUMPI PUSH2 0x2AE9 PUSH2 0x4167 JUMP JUMPDEST JUMPDEST PUSH1 0x20 MUL PUSH1 0x20 ADD ADD DUP2 SWAP1 MSTORE POP DUP1 DUP1 PUSH2 0x2B00 SWAP1 PUSH2 0x41C5 JUMP JUMPDEST SWAP2 POP POP PUSH2 0x2935 JUMP JUMPDEST POP DUP2 DUP2 SWAP4 POP SWAP4 POP POP POP SWAP1 SWAP2 JUMP JUMPDEST PUSH1 0x40 MLOAD DUP1 PUSH2 0x160 ADD PUSH1 0x40 MSTORE DUP1 PUSH1 0x60 DUP2 MSTORE PUSH1 0x20 ADD PUSH1 0x60 DUP2 MSTORE PUSH1 0x20 ADD PUSH1 0x0 PUSH20 0xFFFFFFFFFFFFFFFFFFFFFFFFFFFFFFFFFFFFFFFF AND DUP2 MSTORE PUSH1 0x20 ADD PUSH1 0x60 DUP2 MSTORE PUSH1 0x20 ADD PUSH1 0x0 DUP2 MSTORE PUSH1 0x20 ADD PUSH1 0x0 DUP2 MSTORE PUSH1 0x20 ADD PUSH1 0x0 ISZERO ISZERO DUP2 MSTORE PUSH1 0x20 ADD PUSH1 0x0 ISZERO ISZERO DUP2 MSTORE PUSH1 0x20 ADD PUSH1 0x0 PUSH20 0xFFFFFFFFFFFFFFFFFFFFFFFFFFFFFFFFFFFFFFFF AND DUP2 MSTORE PUSH1 0x20 ADD PUSH1 0x60 DUP2 MSTORE PUSH1 0x20 ADD PUSH1 0x60 DUP2 MSTORE POP SWAP1 JUMP JUMPDEST DUP3 DUP1 SLOAD DUP3 DUP3 SSTORE SWAP1 PUSH1 0x0 MSTORE PUSH1 0x20 PUSH1 0x0 KECCAK256 SWAP1 DUP2 ADD SWAP3 DUP3 ISZERO PUSH2 0x2BE7 JUMPI SWAP2 PUSH1 0x20 MUL DUP3 ADD JUMPDEST DUP3 DUP2 GT ISZERO PUSH2 0x2BE6 JUMPI DUP3 MLOAD DUP3 SWAP1 DUP2 PUSH2 0x2BD6 SWAP2 SWAP1 PUSH2 0x3E24 JUMP JUMPDEST POP SWAP2 PUSH1 0x20 ADD SWAP2 SWAP1 PUSH1 0x1 ADD SWAP1 PUSH2 0x2BBF JUMP JUMPDEST JUMPDEST POP SWAP1 POP PUSH2 0x2BF4 SWAP2 SWAP1 PUSH2 0x2BF8 JUMP JUMPDEST POP SWAP1 JUMP JUMPDEST JUMPDEST DUP1 DUP3 GT ISZERO PUSH2 0x2C18 JUMPI PUSH1 0x0 DUP2 DUP2 PUSH2 0x2C0F SWAP2 SWAP1 PUSH2 0x2C1C JUMP JUMPDEST POP PUSH1 0x1 ADD PUSH2 0x2BF9 JUMP JUMPDEST POP SWAP1 JUMP JUMPDEST POP DUP1 SLOAD PUSH2 0x2C28 SWAP1 PUSH2 0x3C47 JUMP JUMPDEST PUSH1 0x0 DUP3 SSTORE DUP1 PUSH1 0x1F LT PUSH2 0x2C3A JUMPI POP PUSH2 0x2C59 JUMP JUMPDEST PUSH1 0x1F ADD PUSH1 0x20 SWAP1 DIV SWAP1 PUSH1 0x0 MSTORE PUSH1 0x20 PUSH1 0x0 KECCAK256 SWAP1 DUP2 ADD SWAP1 PUSH2 0x2C58 SWAP2 SWAP1 PUSH2 0x2C5C JUMP JUMPDEST JUMPDEST POP JUMP JUMPDEST JUMPDEST DUP1 DUP3 GT ISZERO PUSH2 0x2C75 JUMPI PUSH1 0x0 DUP2 PUSH1 0x0 SWAP1 SSTORE POP PUSH1 0x1 ADD PUSH2 0x2C5D JUMP JUMPDEST POP SWAP1 JUMP JUMPDEST PUSH1 0x0 PUSH1 0x40 MLOAD SWAP1 POP SWAP1 JUMP JUMPDEST PUSH1 0x0 DUP1 REVERT JUMPDEST PUSH1 0x0 DUP1 REVERT JUMPDEST PUSH1 0x0 DUP1 REVERT JUMPDEST PUSH1 0x0 DUP1 REVERT JUMPDEST PUSH1 0x0 PUSH1 0x1F NOT PUSH1 0x1F DUP4 ADD AND SWAP1 POP SWAP2 SWAP1 POP JUMP JUMPDEST PUSH32 0x4E487B7100000000000000000000000000000000000000000000000000000000 PUSH1 0x0 MSTORE PUSH1 0x41 PUSH1 0x4 MSTORE PUSH1 0x24 PUSH1 0x0 REVERT JUMPDEST PUSH2 0x2CE0 DUP3 PUSH2 0x2C97 JUMP JUMPDEST DUP2 ADD DUP2 DUP2 LT PUSH8 0xFFFFFFFFFFFFFFFF DUP3 GT OR ISZERO PUSH2 0x2CFF JUMPI PUSH2 0x2CFE PUSH2 0x2CA8 JUMP JUMPDEST JUMPDEST DUP1 PUSH1 0x40 MSTORE POP POP POP JUMP JUMPDEST PUSH1 0x0 PUSH2 0x2D12 PUSH2 0x2C79 JUMP JUMPDEST SWAP1 POP PUSH2 0x2D1E DUP3 DUP3 PUSH2 0x2CD7 JUMP JUMPDEST SWAP2 SWAP1 POP JUMP JUMPDEST PUSH1 0x0 PUSH8 0xFFFFFFFFFFFFFFFF DUP3 GT ISZERO PUSH2 0x2D3E JUMPI PUSH2 0x2D3D PUSH2 0x2CA8 JUMP JUMPDEST JUMPDEST PUSH2 0x2D47 DUP3 PUSH2 0x2C97 JUMP JUMPDEST SWAP1 POP PUSH1 0x20 DUP2 ADD SWAP1 POP SWAP2 SWAP1 POP JUMP JUMPDEST DUP3 DUP2 DUP4 CALLDATACOPY PUSH1 0x0 DUP4 DUP4 ADD MSTORE POP POP POP JUMP JUMPDEST PUSH1 0x0 PUSH2 0x2D76 PUSH2 0x2D71 DUP5 PUSH2 0x2D23 JUMP JUMPDEST PUSH2 0x2D08 JUMP JUMPDEST SWAP1 POP DUP3 DUP2 MSTORE PUSH1 0x20 DUP2 ADD DUP5 DUP5 DUP5 ADD GT ISZERO PUSH2 0x2D92 JUMPI PUSH2 0x2D91 PUSH2 0x2C92 JUMP JUMPDEST JUMPDEST PUSH2 0x2D9D DUP5 DUP3 DUP6 PUSH2 0x2D54 JUMP JUMPDEST POP SWAP4 SWAP3 POP POP POP JUMP JUMPDEST PUSH1 0x0 DUP3 PUSH1 0x1F DUP4 ADD SLT PUSH2 0x2DBA JUMPI PUSH2 0x2DB9 PUSH2 0x2C8D JUMP JUMPDEST JUMPDEST DUP2 CALLDATALOAD PUSH2 0x2DCA DUP5 DUP3 PUSH1 0x20 DUP7 ADD PUSH2 0x2D63 JUMP JUMPDEST SWAP2 POP POP SWAP3 SWAP2 POP POP JUMP JUMPDEST PUSH1 0x0 PUSH8 0xFFFFFFFFFFFFFFFF DUP3 GT ISZERO PUSH2 0x2DEE JUMPI PUSH2 0x2DED PUSH2 0x2CA8 JUMP JUMPDEST JUMPDEST PUSH2 0x2DF7 DUP3 PUSH2 0x2C97 JUMP JUMPDEST SWAP1 POP PUSH1 0x20 DUP2 ADD SWAP1 POP SWAP2 SWAP1 POP JUMP JUMPDEST PUSH1 0x0 PUSH2 0x2E17 PUSH2 0x2E12 DUP5 PUSH2 0x2DD3 JUMP JUMPDEST PUSH2 0x2D08 JUMP JUMPDEST SWAP1 POP DUP3 DUP2 MSTORE PUSH1 0x20 DUP2 ADD DUP5 DUP5 DUP5 ADD GT ISZERO PUSH2 0x2E33 JUMPI PUSH2 0x2E32 PUSH2 0x2C92 JUMP JUMPDEST JUMPDEST PUSH2 0x2E3E DUP5 DUP3 DUP6 PUSH2 0x2D54 JUMP JUMPDEST POP SWAP4 SWAP3 POP POP POP JUMP JUMPDEST PUSH1 0x0 DUP3 PUSH1 0x1F DUP4 ADD SLT PUSH2 0x2E5B JUMPI PUSH2 0x2E5A PUSH2 0x2C8D JUMP JUMPDEST JUMPDEST DUP2 CALLDATALOAD PUSH2 0x2E6B DUP5 DUP3 PUSH1 0x20 DUP7 ADD PUSH2 0x2E04 JUMP JUMPDEST SWAP2 POP POP SWAP3 SWAP2 POP POP JUMP JUMPDEST PUSH1 0x0 DUP1 PUSH1 0x40 DUP4 DUP6 SUB SLT ISZERO PUSH2 0x2E8B JUMPI PUSH2 0x2E8A PUSH2 0x2C83 JUMP JUMPDEST JUMPDEST PUSH1 0x0 DUP4 ADD CALLDATALOAD PUSH8 0xFFFFFFFFFFFFFFFF DUP2 GT ISZERO PUSH2 0x2EA9 JUMPI PUSH2 0x2EA8 PUSH2 0x2C88 JUMP JUMPDEST JUMPDEST PUSH2 0x2EB5 DUP6 DUP3 DUP7 ADD PUSH2 0x2DA5 JUMP JUMPDEST SWAP3 POP POP PUSH1 0x20 DUP4 ADD CALLDATALOAD PUSH8 0xFFFFFFFFFFFFFFFF DUP2 GT ISZERO PUSH2 0x2ED6 JUMPI PUSH2 0x2ED5 PUSH2 0x2C88 JUMP JUMPDEST JUMPDEST PUSH2 0x2EE2 DUP6 DUP3 DUP7 ADD PUSH2 0x2E46 JUMP JUMPDEST SWAP2 POP POP SWAP3 POP SWAP3 SWAP1 POP JUMP JUMPDEST PUSH1 0x0 DUP2 SWAP1 POP SWAP2 SWAP1 POP JUMP JUMPDEST PUSH2 0x2EFF DUP2 PUSH2 0x2EEC JUMP JUMPDEST DUP2 EQ PUSH2 0x2F0A JUMPI PUSH1 0x0 DUP1 REVERT JUMPDEST POP JUMP JUMPDEST PUSH1 0x0 DUP2 CALLDATALOAD SWAP1 POP PUSH2 0x2F1C DUP2 PUSH2 0x2EF6 JUMP JUMPDEST SWAP3 SWAP2 POP POP JUMP JUMPDEST PUSH1 0x0 PUSH1 0x20 DUP3 DUP5 SUB SLT ISZERO PUSH2 0x2F38 JUMPI PUSH2 0x2F37 PUSH2 0x2C83 JUMP JUMPDEST JUMPDEST PUSH1 0x0 PUSH2 0x2F46 DUP5 DUP3 DUP6 ADD PUSH2 0x2F0D JUMP JUMPDEST SWAP2 POP POP SWAP3 SWAP2 POP POP JUMP JUMPDEST PUSH1 0x0 DUP2 MLOAD SWAP1 POP SWAP2 SWAP1 POP JUMP JUMPDEST PUSH1 0x0 DUP3 DUP3 MSTORE PUSH1 0x20 DUP3 ADD SWAP1 POP SWAP3 SWAP2 POP POP JUMP JUMPDEST PUSH1 0x0 JUMPDEST DUP4 DUP2 LT ISZERO PUSH2 0x2F89 JUMPI DUP1 DUP3 ADD MLOAD DUP2 DUP5 ADD MSTORE PUSH1 0x20 DUP2 ADD SWAP1 POP PUSH2 0x2F6E JUMP JUMPDEST PUSH1 0x0 DUP5 DUP5 ADD MSTORE POP POP POP POP JUMP JUMPDEST PUSH1 0x0 PUSH2 0x2FA0 DUP3 PUSH2 0x2F4F JUMP JUMPDEST PUSH2 0x2FAA DUP2 DUP6 PUSH2 0x2F5A JUMP JUMPDEST SWAP4 POP PUSH2 0x2FBA DUP2 DUP6 PUSH1 0x20 DUP7 ADD PUSH2 0x2F6B JUMP JUMPDEST PUSH2 0x2FC3 DUP2 PUSH2 0x2C97 JUMP JUMPDEST DUP5 ADD SWAP2 POP POP SWAP3 SWAP2 POP POP JUMP JUMPDEST PUSH1 0x0 PUSH20 0xFFFFFFFFFFFFFFFFFFFFFFFFFFFFFFFFFFFFFFFF DUP3 AND SWAP1 POP SWAP2 SWAP1 POP JUMP JUMPDEST PUSH1 0x0 PUSH2 0x2FF9 DUP3 PUSH2 0x2FCE JUMP JUMPDEST SWAP1 POP SWAP2 SWAP1 POP JUMP JUMPDEST PUSH2 0x3009 DUP2 PUSH2 0x2FEE JUMP JUMPDEST DUP3 MSTORE POP POP JUMP JUMPDEST PUSH1 0x0 DUP2 MLOAD SWAP1 POP SWAP2 SWAP1 POP JUMP JUMPDEST PUSH1 0x0 DUP3 DUP3 MSTORE PUSH1 0x20 DUP3 ADD SWAP1 POP SWAP3 SWAP2 POP POP JUMP JUMPDEST PUSH1 0x0 DUP2 SWAP1 POP PUSH1 0x20 DUP3 ADD SWAP1 POP SWAP2 SWAP1 POP JUMP JUMPDEST PUSH1 0x0 PUSH2 0x3047 DUP4 DUP4 PUSH2 0x2F95 JUMP JUMPDEST SWAP1 POP SWAP3 SWAP2 POP POP JUMP JUMPDEST PUSH1 0x0 PUSH1 0x20 DUP3 ADD SWAP1 POP SWAP2 SWAP1 POP JUMP JUMPDEST PUSH1 0x0 PUSH2 0x3067 DUP3 PUSH2 0x300F JUMP JUMPDEST PUSH2 0x3071 DUP2 DUP6 PUSH2 0x301A JUMP JUMPDEST SWAP4 POP DUP4 PUSH1 0x20 DUP3 MUL DUP6 ADD PUSH2 0x3083 DUP6 PUSH2 0x302B JUMP JUMPDEST DUP1 PUSH1 0x0 JUMPDEST DUP6 DUP2 LT ISZERO PUSH2 0x30BF JUMPI DUP5 DUP5 SUB DUP10 MSTORE DUP2 MLOAD PUSH2 0x30A0 DUP6 DUP3 PUSH2 0x303B JUMP JUMPDEST SWAP5 POP PUSH2 0x30AB DUP4 PUSH2 0x304F JUMP JUMPDEST SWAP3 POP PUSH1 0x20 DUP11 ADD SWAP10 POP POP PUSH1 0x1 DUP2 ADD SWAP1 POP PUSH2 0x3087 JUMP JUMPDEST POP DUP3 SWAP8 POP DUP8 SWAP6 POP POP POP POP POP POP SWAP3 SWAP2 POP POP JUMP JUMPDEST PUSH2 0x30DA DUP2 PUSH2 0x2EEC JUMP JUMPDEST DUP3 MSTORE POP POP JUMP JUMPDEST PUSH1 0x0 DUP2 ISZERO ISZERO SWAP1 POP SWAP2 SWAP1 POP JUMP JUMPDEST PUSH2 0x30F5 DUP2 PUSH2 0x30E0 JUMP JUMPDEST DUP3 MSTORE POP POP JUMP JUMPDEST PUSH1 0x0 DUP2 MLOAD SWAP1 POP SWAP2 SWAP1 POP JUMP JUMPDEST PUSH1 0x0 DUP3 DUP3 MSTORE PUSH1 0x20 DUP3 ADD SWAP1 POP SWAP3 SWAP2 POP POP JUMP JUMPDEST PUSH1 0x0 PUSH2 0x3122 DUP3 PUSH2 0x30FB JUMP JUMPDEST PUSH2 0x312C DUP2 DUP6 PUSH2 0x3106 JUMP JUMPDEST SWAP4 POP PUSH2 0x313C DUP2 DUP6 PUSH1 0x20 DUP7 ADD PUSH2 0x2F6B JUMP JUMPDEST PUSH2 0x3145 DUP2 PUSH2 0x2C97 JUMP JUMPDEST DUP5 ADD SWAP2 POP POP SWAP3 SWAP2 POP POP JUMP JUMPDEST PUSH1 0x0 PUSH2 0x160 DUP4 ADD PUSH1 0x0 DUP4 ADD MLOAD DUP5 DUP3 SUB PUSH1 0x0 DUP7 ADD MSTORE PUSH2 0x316E DUP3 DUP3 PUSH2 0x2F95 JUMP JUMPDEST SWAP2 POP POP PUSH1 0x20 DUP4 ADD MLOAD DUP5 DUP3 SUB PUSH1 0x20 DUP7 ADD MSTORE PUSH2 0x3188 DUP3 DUP3 PUSH2 0x2F95 JUMP JUMPDEST SWAP2 POP POP PUSH1 0x40 DUP4 ADD MLOAD PUSH2 0x319D PUSH1 0x40 DUP7 ADD DUP3 PUSH2 0x3000 JUMP JUMPDEST POP PUSH1 0x60 DUP4 ADD MLOAD DUP5 DUP3 SUB PUSH1 0x60 DUP7 ADD MSTORE PUSH2 0x31B5 DUP3 DUP3 PUSH2 0x305C JUMP JUMPDEST SWAP2 POP POP PUSH1 0x80 DUP4 ADD MLOAD PUSH2 0x31CA PUSH1 0x80 DUP7 ADD DUP3 PUSH2 0x30D1 JUMP JUMPDEST POP PUSH1 0xA0 DUP4 ADD MLOAD PUSH2 0x31DD PUSH1 0xA0 DUP7 ADD DUP3 PUSH2 0x30D1 JUMP JUMPDEST POP PUSH1 0xC0 DUP4 ADD MLOAD PUSH2 0x31F0 PUSH1 0xC0 DUP7 ADD DUP3 PUSH2 0x30EC JUMP JUMPDEST POP PUSH1 0xE0 DUP4 ADD MLOAD PUSH2 0x3203 PUSH1 0xE0 DUP7 ADD DUP3 PUSH2 0x30EC JUMP JUMPDEST POP PUSH2 0x100 DUP4 ADD MLOAD PUSH2 0x3218 PUSH2 0x100 DUP7 ADD DUP3 PUSH2 0x3000 JUMP JUMPDEST POP PUSH2 0x120 DUP4 ADD MLOAD DUP5 DUP3 SUB PUSH2 0x120 DUP7 ADD MSTORE PUSH2 0x3232 DUP3 DUP3 PUSH2 0x3117 JUMP JUMPDEST SWAP2 POP POP PUSH2 0x140 DUP4 ADD MLOAD DUP5 DUP3 SUB PUSH2 0x140 DUP7 ADD MSTORE PUSH2 0x324E DUP3 DUP3 PUSH2 0x2F95 JUMP JUMPDEST SWAP2 POP POP DUP1 SWAP2 POP POP SWAP3 SWAP2 POP POP JUMP JUMPDEST PUSH1 0x0 PUSH1 0x20 DUP3 ADD SWAP1 POP DUP2 DUP2 SUB PUSH1 0x0 DUP4 ADD MSTORE PUSH2 0x3275 DUP2 DUP5 PUSH2 0x3150 JUMP JUMPDEST SWAP1 POP SWAP3 SWAP2 POP POP JUMP JUMPDEST PUSH2 0x3286 DUP2 PUSH2 0x2FEE JUMP JUMPDEST DUP2 EQ PUSH2 0x3291 JUMPI PUSH1 0x0 DUP1 REVERT JUMPDEST POP JUMP JUMPDEST PUSH1 0x0 DUP2 CALLDATALOAD SWAP1 POP PUSH2 0x32A3 DUP2 PUSH2 0x327D JUMP JUMPDEST SWAP3 SWAP2 POP POP JUMP JUMPDEST PUSH1 0x0 PUSH1 0x20 DUP3 DUP5 SUB SLT ISZERO PUSH2 0x32BF JUMPI PUSH2 0x32BE PUSH2 0x2C83 JUMP JUMPDEST JUMPDEST PUSH1 0x0 PUSH2 0x32CD DUP5 DUP3 DUP6 ADD PUSH2 0x3294 JUMP JUMPDEST SWAP2 POP POP SWAP3 SWAP2 POP POP JUMP JUMPDEST PUSH1 0x0 DUP3 DUP3 MSTORE PUSH1 0x20 DUP3 ADD SWAP1 POP SWAP3 SWAP2 POP POP JUMP JUMPDEST PUSH1 0x0 PUSH2 0x32F2 DUP3 PUSH2 0x30FB JUMP JUMPDEST PUSH2 0x32FC DUP2 DUP6 PUSH2 0x32D6 JUMP JUMPDEST SWAP4 POP PUSH2 0x330C DUP2 DUP6 PUSH1 0x20 DUP7 ADD PUSH2 0x2F6B JUMP JUMPDEST PUSH2 0x3315 DUP2 PUSH2 0x2C97 JUMP JUMPDEST DUP5 ADD SWAP2 POP POP SWAP3 SWAP2 POP POP JUMP JUMPDEST PUSH1 0x0 PUSH1 0x20 DUP3 ADD SWAP1 POP DUP2 DUP2 SUB PUSH1 0x0 DUP4 ADD MSTORE PUSH2 0x333A DUP2 DUP5 PUSH2 0x32E7 JUMP JUMPDEST SWAP1 POP SWAP3 SWAP2 POP POP JUMP JUMPDEST PUSH1 0x0 DUP2 MLOAD SWAP1 POP SWAP2 SWAP1 POP JUMP JUMPDEST PUSH1 0x0 DUP3 DUP3 MSTORE PUSH1 0x20 DUP3 ADD SWAP1 POP SWAP3 SWAP2 POP POP JUMP JUMPDEST PUSH1 0x0 DUP2 SWAP1 POP PUSH1 0x20 DUP3 ADD SWAP1 POP SWAP2 SWAP1 POP JUMP JUMPDEST PUSH1 0x0 PUSH2 0x337A DUP4 DUP4 PUSH2 0x3000 JUMP JUMPDEST PUSH1 0x20 DUP4 ADD SWAP1 POP SWAP3 SWAP2 POP POP JUMP JUMPDEST PUSH1 0x0 PUSH1 0x20 DUP3 ADD SWAP1 POP SWAP2 SWAP1 POP JUMP JUMPDEST PUSH1 0x0 PUSH2 0x339E DUP3 PUSH2 0x3342 JUMP JUMPDEST PUSH2 0x33A8 DUP2 DUP6 PUSH2 0x334D JUMP JUMPDEST SWAP4 POP PUSH2 0x33B3 DUP4 PUSH2 0x335E JUMP JUMPDEST DUP1 PUSH1 0x0 JUMPDEST DUP4 DUP2 LT ISZERO PUSH2 0x33E4 JUMPI DUP2 MLOAD PUSH2 0x33CB DUP9 DUP3 PUSH2 0x336E JUMP JUMPDEST SWAP8 POP PUSH2 0x33D6 DUP4 PUSH2 0x3386 JUMP JUMPDEST SWAP3 POP POP PUSH1 0x1 DUP2 ADD SWAP1 POP PUSH2 0x33B7 JUMP JUMPDEST POP DUP6 SWAP4 POP POP POP POP SWAP3 SWAP2 POP POP JUMP JUMPDEST PUSH1 0x0 DUP3 DUP3 MSTORE PUSH1 0x20 DUP3 ADD SWAP1 POP SWAP3 SWAP2 POP POP JUMP JUMPDEST PUSH1 0x0 PUSH2 0x340D DUP3 PUSH2 0x300F JUMP JUMPDEST PUSH2 0x3417 DUP2 DUP6 PUSH2 0x33F1 JUMP JUMPDEST SWAP4 POP DUP4 PUSH1 0x20 DUP3 MUL DUP6 ADD PUSH2 0x3429 DUP6 PUSH2 0x302B JUMP JUMPDEST DUP1 PUSH1 0x0 JUMPDEST DUP6 DUP2 LT ISZERO PUSH2 0x3465 JUMPI DUP5 DUP5 SUB DUP10 MSTORE DUP2 MLOAD PUSH2 0x3446 DUP6 DUP3 PUSH2 0x303B JUMP JUMPDEST SWAP5 POP PUSH2 0x3451 DUP4 PUSH2 0x304F JUMP JUMPDEST SWAP3 POP PUSH1 0x20 DUP11 ADD SWAP10 POP POP PUSH1 0x1 DUP2 ADD SWAP1 POP PUSH2 0x342D JUMP JUMPDEST POP DUP3 SWAP8 POP DUP8 SWAP6 POP POP POP POP POP POP SWAP3 SWAP2 POP POP JUMP JUMPDEST PUSH1 0x0 PUSH1 0x40 DUP3 ADD SWAP1 POP DUP2 DUP2 SUB PUSH1 0x0 DUP4 ADD MSTORE PUSH2 0x3491 DUP2 DUP6 PUSH2 0x3393 JUMP JUMPDEST SWAP1 POP DUP2 DUP2 SUB PUSH1 0x20 DUP4 ADD MSTORE PUSH2 0x34A5 DUP2 DUP5 PUSH2 0x3402 JUMP JUMPDEST SWAP1 POP SWAP4 SWAP3 POP POP POP JUMP JUMPDEST PUSH1 0x0 DUP3 DUP3 MSTORE PUSH1 0x20 DUP3 ADD SWAP1 POP SWAP3 SWAP2 POP POP JUMP JUMPDEST PUSH1 0x0 PUSH2 0x34CA DUP3 PUSH2 0x2F4F JUMP JUMPDEST PUSH2 0x34D4 DUP2 DUP6 PUSH2 0x34AE JUMP JUMPDEST SWAP4 POP PUSH2 0x34E4 DUP2 DUP6 PUSH1 0x20 DUP7 ADD PUSH2 0x2F6B JUMP JUMPDEST PUSH2 0x34ED DUP2 PUSH2 0x2C97 JUMP JUMPDEST DUP5 ADD SWAP2 POP POP SWAP3 SWAP2 POP POP JUMP JUMPDEST PUSH2 0x3501 DUP2 PUSH2 0x30E0 JUMP JUMPDEST DUP3 MSTORE POP POP JUMP JUMPDEST PUSH1 0x0 PUSH1 0x60 DUP3 ADD SWAP1 POP DUP2 DUP2 SUB PUSH1 0x0 DUP4 ADD MSTORE PUSH2 0x3521 DUP2 DUP7 PUSH2 0x34BF JUMP JUMPDEST SWAP1 POP DUP2 DUP2 SUB PUSH1 0x20 DUP4 ADD MSTORE PUSH2 0x3535 DUP2 DUP6 PUSH2 0x32E7 JUMP JUMPDEST SWAP1 POP PUSH2 0x3544 PUSH1 0x40 DUP4 ADD DUP5 PUSH2 0x34F8 JUMP JUMPDEST SWAP5 SWAP4 POP POP POP POP JUMP JUMPDEST PUSH2 0x3555 DUP2 PUSH2 0x2FEE JUMP JUMPDEST DUP3 MSTORE POP POP JUMP JUMPDEST PUSH2 0x3564 DUP2 PUSH2 0x2EEC JUMP JUMPDEST DUP3 MSTORE POP POP JUMP JUMPDEST PUSH1 0x0 PUSH2 0x140 DUP3 ADD SWAP1 POP DUP2 DUP2 SUB PUSH1 0x0 DUP4 ADD MSTORE PUSH2 0x3585 DUP2 DUP14 PUSH2 0x34BF JUMP JUMPDEST SWAP1 POP DUP2 DUP2 SUB PUSH1 0x20 DUP4 ADD MSTORE PUSH2 0x3599 DUP2 DUP13 PUSH2 0x34BF JUMP JUMPDEST SWAP1 POP PUSH2 0x35A8 PUSH1 0x40 DUP4 ADD DUP12 PUSH2 0x354C JUMP JUMPDEST PUSH2 0x35B5 PUSH1 0x60 DUP4 ADD DUP11 PUSH2 0x355B JUMP JUMPDEST PUSH2 0x35C2 PUSH1 0x80 DUP4 ADD DUP10 PUSH2 0x355B JUMP JUMPDEST PUSH2 0x35CF PUSH1 0xA0 DUP4 ADD DUP9 PUSH2 0x34F8 JUMP JUMPDEST PUSH2 0x35DC PUSH1 0xC0 DUP4 ADD DUP8 PUSH2 0x34F8 JUMP JUMPDEST PUSH2 0x35E9 PUSH1 0xE0 DUP4 ADD DUP7 PUSH2 0x354C JUMP JUMPDEST DUP2 DUP2 SUB PUSH2 0x100 DUP4 ADD MSTORE PUSH2 0x35FC DUP2 DUP6 PUSH2 0x32E7 JUMP JUMPDEST SWAP1 POP DUP2 DUP2 SUB PUSH2 0x120 DUP4 ADD MSTORE PUSH2 0x3611 DUP2 DUP5 PUSH2 0x34BF JUMP JUMPDEST SWAP1 POP SWAP12 SWAP11 POP POP POP POP POP POP POP POP POP POP POP JUMP JUMPDEST PUSH1 0x0 PUSH1 0x40 DUP3 ADD SWAP1 POP DUP2 DUP2 SUB PUSH1 0x0 DUP4 ADD MSTORE PUSH2 0x363C DUP2 DUP6 PUSH2 0x32E7 JUMP JUMPDEST SWAP1 POP DUP2 DUP2 SUB PUSH1 0x20 DUP4 ADD MSTORE PUSH2 0x3650 DUP2 DUP5 PUSH2 0x34BF JUMP JUMPDEST SWAP1 POP SWAP4 SWAP3 POP POP POP JUMP JUMPDEST PUSH1 0x0 PUSH1 0x60 DUP3 ADD SWAP1 POP DUP2 DUP2 SUB PUSH1 0x0 DUP4 ADD MSTORE PUSH2 0x3673 DUP2 DUP7 PUSH2 0x34BF JUMP JUMPDEST SWAP1 POP PUSH2 0x3682 PUSH1 0x20 DUP4 ADD DUP6 PUSH2 0x34F8 JUMP JUMPDEST PUSH2 0x368F PUSH1 0x40 DUP4 ADD DUP5 PUSH2 0x34F8 JUMP JUMPDEST SWAP5 SWAP4 POP POP POP POP JUMP JUMPDEST PUSH1 0x0 DUP1 PUSH1 0x40 DUP4 DUP6 SUB SLT ISZERO PUSH2 0x36AE JUMPI PUSH2 0x36AD PUSH2 0x2C83 JUMP JUMPDEST JUMPDEST PUSH1 0x0 PUSH2 0x36BC DUP6 DUP3 DUP7 ADD PUSH2 0x2F0D JUMP JUMPDEST SWAP3 POP POP PUSH1 0x20 PUSH2 0x36CD DUP6 DUP3 DUP7 ADD PUSH2 0x3294 JUMP JUMPDEST SWAP2 POP POP SWAP3 POP SWAP3 SWAP1 POP JUMP JUMPDEST PUSH1 0x0 PUSH1 0x20 DUP3 ADD SWAP1 POP PUSH2 0x36EC PUSH1 0x0 DUP4 ADD DUP5 PUSH2 0x34F8 JUMP JUMPDEST SWAP3 SWAP2 POP POP JUMP JUMPDEST PUSH1 0x0 PUSH1 0x20 DUP3 ADD SWAP1 POP PUSH2 0x3707 PUSH1 0x0 DUP4 ADD DUP5 PUSH2 0x354C JUMP JUMPDEST SWAP3 SWAP2 POP POP JUMP JUMPDEST PUSH1 0x0 PUSH1 0x20 DUP3 ADD SWAP1 POP PUSH2 0x3722 PUSH1 0x0 DUP4 ADD DUP5 PUSH2 0x355B JUMP JUMPDEST SWAP3 SWAP2 POP POP JUMP JUMPDEST PUSH1 0x0 PUSH8 0xFFFFFFFFFFFFFFFF DUP3 GT ISZERO PUSH2 0x3743 JUMPI PUSH2 0x3742 PUSH2 0x2CA8 JUMP JUMPDEST JUMPDEST PUSH1 0x20 DUP3 MUL SWAP1 POP PUSH1 0x20 DUP2 ADD SWAP1 POP SWAP2 SWAP1 POP JUMP JUMPDEST PUSH1 0x0 DUP1 REVERT JUMPDEST PUSH1 0x0 PUSH2 0x376C PUSH2 0x3767 DUP5 PUSH2 0x3728 JUMP JUMPDEST PUSH2 0x2D08 JUMP JUMPDEST SWAP1 POP DUP1 DUP4 DUP3 MSTORE PUSH1 0x20 DUP3 ADD SWAP1 POP PUSH1 0x20 DUP5 MUL DUP4 ADD DUP6 DUP2 GT ISZERO PUSH2 0x378F JUMPI PUSH2 0x378E PUSH2 0x3754 JUMP JUMPDEST JUMPDEST DUP4 JUMPDEST DUP2 DUP2 LT ISZERO PUSH2 0x37D6 JUMPI DUP1 CALLDATALOAD PUSH8 0xFFFFFFFFFFFFFFFF DUP2 GT ISZERO PUSH2 0x37B4 JUMPI PUSH2 0x37B3 PUSH2 0x2C8D JUMP JUMPDEST JUMPDEST DUP1 DUP7 ADD PUSH2 0x37C1 DUP10 DUP3 PUSH2 0x2DA5 JUMP JUMPDEST DUP6 MSTORE PUSH1 0x20 DUP6 ADD SWAP5 POP POP POP PUSH1 0x20 DUP2 ADD SWAP1 POP PUSH2 0x3791 JUMP JUMPDEST POP POP POP SWAP4 SWAP3 POP POP POP JUMP JUMPDEST PUSH1 0x0 DUP3 PUSH1 0x1F DUP4 ADD SLT PUSH2 0x37F5 JUMPI PUSH2 0x37F4 PUSH2 0x2C8D JUMP JUMPDEST JUMPDEST DUP2 CALLDATALOAD PUSH2 0x3805 DUP5 DUP3 PUSH1 0x20 DUP7 ADD PUSH2 0x3759 JUMP JUMPDEST SWAP2 POP POP SWAP3 SWAP2 POP POP JUMP JUMPDEST PUSH1 0x0 DUP1 PUSH1 0x0 DUP1 PUSH1 0x0 PUSH1 0xA0 DUP7 DUP9 SUB SLT ISZERO PUSH2 0x382A JUMPI PUSH2 0x3829 PUSH2 0x2C83 JUMP JUMPDEST JUMPDEST PUSH1 0x0 DUP7 ADD CALLDATALOAD PUSH8 0xFFFFFFFFFFFFFFFF DUP2 GT ISZERO PUSH2 0x3848 JUMPI PUSH2 0x3847 PUSH2 0x2C88 JUMP JUMPDEST JUMPDEST PUSH2 0x3854 DUP9 DUP3 DUP10 ADD PUSH2 0x2DA5 JUMP JUMPDEST SWAP6 POP POP PUSH1 0x20 DUP7 ADD CALLDATALOAD PUSH8 0xFFFFFFFFFFFFFFFF DUP2 GT ISZERO PUSH2 0x3875 JUMPI PUSH2 0x3874 PUSH2 0x2C88 JUMP JUMPDEST JUMPDEST PUSH2 0x3881 DUP9 DUP3 DUP10 ADD PUSH2 0x2DA5 JUMP JUMPDEST SWAP5 POP POP PUSH1 0x40 DUP7 ADD CALLDATALOAD PUSH8 0xFFFFFFFFFFFFFFFF DUP2 GT ISZERO PUSH2 0x38A2 JUMPI PUSH2 0x38A1 PUSH2 0x2C88 JUMP JUMPDEST JUMPDEST PUSH2 0x38AE DUP9 DUP3 DUP10 ADD PUSH2 0x37E0 JUMP JUMPDEST SWAP4 POP POP PUSH1 0x60 DUP7 ADD CALLDATALOAD PUSH8 0xFFFFFFFFFFFFFFFF DUP2 GT ISZERO PUSH2 0x38CF JUMPI PUSH2 0x38CE PUSH2 0x2C88 JUMP JUMPDEST JUMPDEST PUSH2 0x38DB DUP9 DUP3 DUP10 ADD PUSH2 0x2E46 JUMP JUMPDEST SWAP3 POP POP PUSH1 0x80 DUP7 ADD CALLDATALOAD PUSH8 0xFFFFFFFFFFFFFFFF DUP2 GT ISZERO PUSH2 0x38FC JUMPI PUSH2 0x38FB PUSH2 0x2C88 JUMP JUMPDEST JUMPDEST PUSH2 0x3908 DUP9 DUP3 DUP10 ADD PUSH2 0x2DA5 JUMP JUMPDEST SWAP2 POP POP SWAP3 SWAP6 POP SWAP3 SWAP6 SWAP1 SWAP4 POP JUMP JUMPDEST PUSH1 0x0 PUSH1 0x20 DUP3 DUP5 SUB SLT ISZERO PUSH2 0x392B JUMPI PUSH2 0x392A PUSH2 0x2C83 JUMP JUMPDEST JUMPDEST PUSH1 0x0 DUP3 ADD CALLDATALOAD PUSH8 0xFFFFFFFFFFFFFFFF DUP2 GT ISZERO PUSH2 0x3949 JUMPI PUSH2 0x3948 PUSH2 0x2C88 JUMP JUMPDEST JUMPDEST PUSH2 0x3955 DUP5 DUP3 DUP6 ADD PUSH2 0x2DA5 JUMP JUMPDEST SWAP2 POP POP SWAP3 SWAP2 POP POP JUMP JUMPDEST PUSH1 0x0 PUSH1 0x20 DUP3 ADD SWAP1 POP DUP2 DUP2 SUB PUSH1 0x0 DUP4 ADD MSTORE PUSH2 0x3978 DUP2 DUP5 PUSH2 0x34BF JUMP JUMPDEST SWAP1 POP SWAP3 SWAP2 POP POP JUMP JUMPDEST PUSH1 0x0 PUSH8 0xFFFFFFFFFFFFFFFF DUP3 GT ISZERO PUSH2 0x399B JUMPI PUSH2 0x399A PUSH2 0x2CA8 JUMP JUMPDEST JUMPDEST PUSH1 0x20 DUP3 MUL SWAP1 POP PUSH1 0x20 DUP2 ADD SWAP1 POP SWAP2 SWAP1 POP JUMP JUMPDEST PUSH1 0x0 PUSH2 0x39BF PUSH2 0x39BA DUP5 PUSH2 0x3980 JUMP JUMPDEST PUSH2 0x2D08 JUMP JUMPDEST SWAP1 POP DUP1 DUP4 DUP3 MSTORE PUSH1 0x20 DUP3 ADD SWAP1 POP PUSH1 0x20 DUP5 MUL DUP4 ADD DUP6 DUP2 GT ISZERO PUSH2 0x39E2 JUMPI PUSH2 0x39E1 PUSH2 0x3754 JUMP JUMPDEST JUMPDEST DUP4 JUMPDEST DUP2 DUP2 LT ISZERO PUSH2 0x3A0B JUMPI DUP1 PUSH2 0x39F7 DUP9 DUP3 PUSH2 0x3294 JUMP JUMPDEST DUP5 MSTORE PUSH1 0x20 DUP5 ADD SWAP4 POP POP PUSH1 0x20 DUP2 ADD SWAP1 POP PUSH2 0x39E4 JUMP JUMPDEST POP POP POP SWAP4 SWAP3 POP POP POP JUMP JUMPDEST PUSH1 0x0 DUP3 PUSH1 0x1F DUP4 ADD SLT PUSH2 0x3A2A JUMPI PUSH2 0x3A29 PUSH2 0x2C8D JUMP JUMPDEST JUMPDEST DUP2 CALLDATALOAD PUSH2 0x3A3A DUP5 DUP3 PUSH1 0x20 DUP7 ADD PUSH2 0x39AC JUMP JUMPDEST SWAP2 POP POP SWAP3 SWAP2 POP POP JUMP JUMPDEST PUSH1 0x0 DUP1 PUSH1 0x0 DUP1 PUSH1 0x0 DUP1 PUSH1 0xC0 DUP8 DUP10 SUB SLT ISZERO PUSH2 0x3A60 JUMPI PUSH2 0x3A5F PUSH2 0x2C83 JUMP JUMPDEST JUMPDEST PUSH1 0x0 PUSH2 0x3A6E DUP10 DUP3 DUP11 ADD PUSH2 0x2F0D JUMP JUMPDEST SWAP7 POP POP PUSH1 0x20 PUSH2 0x3A7F DUP10 DUP3 DUP11 ADD PUSH2 0x2F0D JUMP JUMPDEST SWAP6 POP POP PUSH1 0x40 DUP8 ADD CALLDATALOAD PUSH8 0xFFFFFFFFFFFFFFFF DUP2 GT ISZERO PUSH2 0x3AA0 JUMPI PUSH2 0x3A9F PUSH2 0x2C88 JUMP JUMPDEST JUMPDEST PUSH2 0x3AAC DUP10 DUP3 DUP11 ADD PUSH2 0x3A15 JUMP JUMPDEST SWAP5 POP POP PUSH1 0x60 DUP8 ADD CALLDATALOAD PUSH8 0xFFFFFFFFFFFFFFFF DUP2 GT ISZERO PUSH2 0x3ACD JUMPI PUSH2 0x3ACC PUSH2 0x2C88 JUMP JUMPDEST JUMPDEST PUSH2 0x3AD9 DUP10 DUP3 DUP11 ADD PUSH2 0x37E0 JUMP JUMPDEST SWAP4 POP POP PUSH1 0x80 DUP8 ADD CALLDATALOAD PUSH8 0xFFFFFFFFFFFFFFFF DUP2 GT ISZERO PUSH2 0x3AFA JUMPI PUSH2 0x3AF9 PUSH2 0x2C88 JUMP JUMPDEST JUMPDEST PUSH2 0x3B06 DUP10 DUP3 DUP11 ADD PUSH2 0x2E46 JUMP JUMPDEST SWAP3 POP POP PUSH1 0xA0 DUP8 ADD CALLDATALOAD PUSH8 0xFFFFFFFFFFFFFFFF DUP2 GT ISZERO PUSH2 0x3B27 JUMPI PUSH2 0x3B26 PUSH2 0x2C88 JUMP JUMPDEST JUMPDEST PUSH2 0x3B33 DUP10 DUP3 DUP11 ADD PUSH2 0x2DA5 JUMP JUMPDEST SWAP2 POP POP SWAP3 SWAP6 POP SWAP3 SWAP6 POP SWAP3 SWAP6 JUMP JUMPDEST PUSH32 0x4E616D6520726571756972656400000000000000000000000000000000000000 PUSH1 0x0 DUP3 ADD MSTORE POP JUMP JUMPDEST PUSH1 0x0 PUSH2 0x3B76 PUSH1 0xD DUP4 PUSH2 0x34AE JUMP JUMPDEST SWAP2 POP PUSH2 0x3B81 DUP3 PUSH2 0x3B40 JUMP JUMPDEST PUSH1 0x20 DUP3 ADD SWAP1 POP SWAP2 SWAP1 POP JUMP JUMPDEST PUSH1 0x0 PUSH1 0x20 DUP3 ADD SWAP1 POP DUP2 DUP2 SUB PUSH1 0x0 DUP4 ADD MSTORE PUSH2 0x3BA5 DUP2 PUSH2 0x3B69 JUMP JUMPDEST SWAP1 POP SWAP2 SWAP1 POP JUMP JUMPDEST PUSH32 0x5075626C6963206B657920726571756972656400000000000000000000000000 PUSH1 0x0 DUP3 ADD MSTORE POP JUMP JUMPDEST PUSH1 0x0 PUSH2 0x3BE2 PUSH1 0x13 DUP4 PUSH2 0x34AE JUMP JUMPDEST SWAP2 POP PUSH2 0x3BED DUP3 PUSH2 0x3BAC JUMP JUMPDEST PUSH1 0x20 DUP3 ADD SWAP1 POP SWAP2 SWAP1 POP JUMP JUMPDEST PUSH1 0x0 PUSH1 0x20 DUP3 ADD SWAP1 POP DUP2 DUP2 SUB PUSH1 0x0 DUP4 ADD MSTORE PUSH2 0x3C11 DUP2 PUSH2 0x3BD5 JUMP JUMPDEST SWAP1 POP SWAP2 SWAP1 POP JUMP JUMPDEST PUSH32 0x4E487B7100000000000000000000000000000000000000000000000000000000 PUSH1 0x0 MSTORE PUSH1 0x22 PUSH1 0x4 MSTORE PUSH1 0x24 PUSH1 0x0 REVERT JUMPDEST PUSH1 0x0 PUSH1 0x2 DUP3 DIV SWAP1 POP PUSH1 0x1 DUP3 AND DUP1 PUSH2 0x3C5F JUMPI PUSH1 0x7F DUP3 AND SWAP2 POP JUMPDEST PUSH1 0x20 DUP3 LT DUP2 SUB PUSH2 0x3C72 JUMPI PUSH2 0x3C71 PUSH2 0x3C18 JUMP JUMPDEST JUMPDEST POP SWAP2 SWAP1 POP JUMP JUMPDEST PUSH1 0x0 DUP2 SWAP1 POP DUP2 PUSH1 0x0 MSTORE PUSH1 0x20 PUSH1 0x0 KECCAK256 SWAP1 POP SWAP2 SWAP1 POP JUMP JUMPDEST PUSH1 0x0 PUSH1 0x20 PUSH1 0x1F DUP4 ADD DIV SWAP1 POP SWAP2 SWAP1 POP JUMP JUMPDEST PUSH1 0x0 DUP3 DUP3 SHL SWAP1 POP SWAP3 SWAP2 POP POP JUMP JUMPDEST PUSH1 0x0 PUSH1 0x8 DUP4 MUL PUSH2 0x3CDA PUSH32 0xFFFFFFFFFFFFFFFFFFFFFFFFFFFFFFFFFFFFFFFFFFFFFFFFFFFFFFFFFFFFFFFF DUP3 PUSH2 0x3C9D JUMP JUMPDEST PUSH2 0x3CE4 DUP7 DUP4 PUSH2 0x3C9D JUMP JUMPDEST SWAP6 POP DUP1 NOT DUP5 AND SWAP4 POP DUP1 DUP7 AND DUP5 OR SWAP3 POP POP POP SWAP4 SWAP3 POP POP POP JUMP JUMPDEST PUSH1 0x0 DUP2 SWAP1 POP SWAP2 SWAP1 POP JUMP JUMPDEST PUSH1 0x0 PUSH2 0x3D21 PUSH2 0x3D1C PUSH2 0x3D17 DUP5 PUSH2 0x2EEC JUMP JUMPDEST PUSH2 0x3CFC JUMP JUMPDEST PUSH2 0x2EEC JUMP JUMPDEST SWAP1 POP SWAP2 SWAP1 POP JUMP JUMPDEST PUSH1 0x0 DUP2 SWAP1 POP SWAP2 SWAP1 POP JUMP JUMPDEST PUSH2 0x3D3B DUP4 PUSH2 0x3D06 JUMP JUMPDEST PUSH2 0x3D4F PUSH2 0x3D47 DUP3 PUSH2 0x3D28 JUMP JUMPDEST DUP5 DUP5 SLOAD PUSH2 0x3CAA JUMP JUMPDEST DUP3 SSTORE POP POP POP POP JUMP JUMPDEST PUSH1 0x0 SWAP1 JUMP JUMPDEST PUSH2 0x3D64 PUSH2 0x3D57 JUMP JUMPDEST PUSH2 0x3D6F DUP2 DUP5 DUP5 PUSH2 0x3D32 JUMP JUMPDEST POP POP POP JUMP JUMPDEST JUMPDEST DUP2 DUP2 LT ISZERO PUSH2 0x3D93 JUMPI PUSH2 0x3D88 PUSH1 0x0 DUP3 PUSH2 0x3D5C JUMP JUMPDEST PUSH1 0x1 DUP2 ADD SWAP1 POP PUSH2 0x3D75 JUMP JUMPDEST POP POP JUMP JUMPDEST PUSH1 0x1F DUP3 GT ISZERO PUSH2 0x3DD8 JUMPI PUSH2 0x3DA9 DUP2 PUSH2 0x3C78 JUMP JUMPDEST PUSH2 0x3DB2 DUP5 PUSH2 0x3C8D JUMP JUMPDEST DUP2 ADD PUSH1 0x20 DUP6 LT ISZERO PUSH2 0x3DC1 JUMPI DUP2 SWAP1 POP JUMPDEST PUSH2 0x3DD5 PUSH2 0x3DCD DUP6 PUSH2 0x3C8D JUMP JUMPDEST DUP4 ADD DUP3 PUSH2 0x3D74 JUMP JUMPDEST POP POP JUMPDEST POP POP POP JUMP JUMPDEST PUSH1 0x0 DUP3 DUP3 SHR SWAP1 POP SWAP3 SWAP2 POP POP JUMP JUMPDEST PUSH1 0x0 PUSH2 0x3DFB PUSH1 0x0 NOT DUP5 PUSH1 0x8 MUL PUSH2 0x3DDD JUMP JUMPDEST NOT DUP1 DUP4 AND SWAP2 POP POP SWAP3 SWAP2 POP POP JUMP JUMPDEST PUSH1 0x0 PUSH2 0x3E14 DUP4 DUP4 PUSH2 0x3DEA JUMP JUMPDEST SWAP2 POP DUP3 PUSH1 0x2 MUL DUP3 OR SWAP1 POP SWAP3 SWAP2 POP POP JUMP JUMPDEST PUSH2 0x3E2D DUP3 PUSH2 0x2F4F JUMP JUMPDEST PUSH8 0xFFFFFFFFFFFFFFFF DUP2 GT ISZERO PUSH2 0x3E46 JUMPI PUSH2 0x3E45 PUSH2 0x2CA8 JUMP JUMPDEST JUMPDEST PUSH2 0x3E50 DUP3 SLOAD PUSH2 0x3C47 JUMP JUMPDEST PUSH2 0x3E5B DUP3 DUP3 DUP6 PUSH2 0x3D97 JUMP JUMPDEST PUSH1 0x0 PUSH1 0x20 SWAP1 POP PUSH1 0x1F DUP4 GT PUSH1 0x1 DUP2 EQ PUSH2 0x3E8E JUMPI PUSH1 0x0 DUP5 ISZERO PUSH2 0x3E7C JUMPI DUP3 DUP8 ADD MLOAD SWAP1 POP JUMPDEST PUSH2 0x3E86 DUP6 DUP3 PUSH2 0x3E08 JUMP JUMPDEST DUP7 SSTORE POP PUSH2 0x3EEE JUMP JUMPDEST PUSH1 0x1F NOT DUP5 AND PUSH2 0x3E9C DUP7 PUSH2 0x3C78 JUMP JUMPDEST PUSH1 0x0 JUMPDEST DUP3 DUP2 LT ISZERO PUSH2 0x3EC4 JUMPI DUP5 DUP10 ADD MLOAD DUP3 SSTORE PUSH1 0x1 DUP3 ADD SWAP2 POP PUSH1 0x20 DUP6 ADD SWAP5 POP PUSH1 0x20 DUP2 ADD SWAP1 POP PUSH2 0x3E9F JUMP JUMPDEST DUP7 DUP4 LT ISZERO PUSH2 0x3EE1 JUMPI DUP5 DUP10 ADD MLOAD PUSH2 0x3EDD PUSH1 0x1F DUP10 AND DUP3 PUSH2 0x3DEA JUMP JUMPDEST DUP4 SSTORE POP JUMPDEST PUSH1 0x1 PUSH1 0x2 DUP9 MUL ADD DUP9 SSTORE POP POP POP JUMPDEST POP POP POP POP POP POP JUMP JUMPDEST PUSH1 0x0 DUP2 SWAP1 POP DUP2 PUSH1 0x0 MSTORE PUSH1 0x20 PUSH1 0x0 KECCAK256 SWAP1 POP SWAP2 SWAP1 POP JUMP JUMPDEST PUSH1 0x1F DUP3 GT ISZERO PUSH2 0x3F4C JUMPI PUSH2 0x3F1D DUP2 PUSH2 0x3EF6 JUMP JUMPDEST PUSH2 0x3F26 DUP5 PUSH2 0x3C8D JUMP JUMPDEST DUP2 ADD PUSH1 0x20 DUP6 LT ISZERO PUSH2 0x3F35 JUMPI DUP2 SWAP1 POP JUMPDEST PUSH2 0x3F49 PUSH2 0x3F41 DUP6 PUSH2 0x3C8D JUMP JUMPDEST DUP4 ADD DUP3 PUSH2 0x3D74 JUMP JUMPDEST POP POP JUMPDEST POP POP POP JUMP JUMPDEST PUSH2 0x3F5A DUP3 PUSH2 0x30FB JUMP JUMPDEST PUSH8 0xFFFFFFFFFFFFFFFF DUP2 GT ISZERO PUSH2 0x3F73 JUMPI PUSH2 0x3F72 PUSH2 0x2CA8 JUMP JUMPDEST JUMPDEST PUSH2 0x3F7D DUP3 SLOAD PUSH2 0x3C47 JUMP JUMPDEST PUSH2 0x3F88 DUP3 DUP3 DUP6 PUSH2 0x3F0B JUMP JUMPDEST PUSH1 0x0 PUSH1 0x20 SWAP1 POP PUSH1 0x1F DUP4 GT PUSH1 0x1 DUP2 EQ PUSH2 0x3FBB JUMPI PUSH1 0x0 DUP5 ISZERO PUSH2 0x3FA9 JUMPI DUP3 DUP8 ADD MLOAD SWAP1 POP JUMPDEST PUSH2 0x3FB3 DUP6 DUP3 PUSH2 0x3E08 JUMP JUMPDEST DUP7 SSTORE POP PUSH2 0x401B JUMP JUMPDEST PUSH1 0x1F NOT DUP5 AND PUSH2 0x3FC9 DUP7 PUSH2 0x3EF6 JUMP JUMPDEST PUSH1 0x0 JUMPDEST DUP3 DUP2 LT ISZERO PUSH2 0x3FF1 JUMPI DUP5 DUP10 ADD MLOAD DUP3 SSTORE PUSH1 0x1 DUP3 ADD SWAP2 POP PUSH1 0x20 DUP6 ADD SWAP5 POP PUSH1 0x20 DUP2 ADD SWAP1 POP PUSH2 0x3FCC JUMP JUMPDEST DUP7 DUP4 LT ISZERO PUSH2 0x400E JUMPI DUP5 DUP10 ADD MLOAD PUSH2 0x400A PUSH1 0x1F DUP10 AND DUP3 PUSH2 0x3DEA JUMP JUMPDEST DUP4 SSTORE POP JUMPDEST PUSH1 0x1 PUSH1 0x2 DUP9 MUL ADD DUP9 SSTORE POP POP POP JUMPDEST POP POP POP POP POP POP JUMP JUMPDEST PUSH32 0x496E76616C696420706170657220494400000000000000000000000000000000 PUSH1 0x0 DUP3 ADD MSTORE POP JUMP JUMPDEST PUSH1 0x0 PUSH2 0x4059 PUSH1 0x10 DUP4 PUSH2 0x34AE JUMP JUMPDEST SWAP2 POP PUSH2 0x4064 DUP3 PUSH2 0x4023 JUMP JUMPDEST PUSH1 0x20 DUP3 ADD SWAP1 POP SWAP2 SWAP1 POP JUMP JUMPDEST PUSH1 0x0 PUSH1 0x20 DUP3 ADD SWAP1 POP DUP2 DUP2 SUB PUSH1 0x0 DUP4 ADD MSTORE PUSH2 0x4088 DUP2 PUSH2 0x404C JUMP JUMPDEST SWAP1 POP SWAP2 SWAP1 POP JUMP JUMPDEST PUSH32 0x5061706572206E6F74207363686564756C656400000000000000000000000000 PUSH1 0x0 DUP3 ADD MSTORE POP JUMP JUMPDEST PUSH1 0x0 PUSH2 0x40C5 PUSH1 0x13 DUP4 PUSH2 0x34AE JUMP JUMPDEST SWAP2 POP PUSH2 0x40D0 DUP3 PUSH2 0x408F JUMP JUMPDEST PUSH1 0x20 DUP3 ADD SWAP1 POP SWAP2 SWAP1 POP JUMP JUMPDEST PUSH1 0x0 PUSH1 0x20 DUP3 ADD SWAP1 POP DUP2 DUP2 SUB PUSH1 0x0 DUP4 ADD MSTORE PUSH2 0x40F4 DUP2 PUSH2 0x40B8 JUMP JUMPDEST SWAP1 POP SWAP2 SWAP1 POP JUMP JUMPDEST PUSH32 0x546F6F206561726C7920746F20756E6C6F636B00000000000000000000000000 PUSH1 0x0 DUP3 ADD MSTORE POP JUMP JUMPDEST PUSH1 0x0 PUSH2 0x4131 PUSH1 0x13 DUP4 PUSH2 0x34AE JUMP JUMPDEST SWAP2 POP PUSH2 0x413C DUP3 PUSH2 0x40FB JUMP JUMPDEST PUSH1 0x20 DUP3 ADD SWAP1 POP SWAP2 SWAP1 POP JUMP JUMPDEST PUSH1 0x0 PUSH1 0x20 DUP3 ADD SWAP1 POP DUP2 DUP2 SUB PUSH1 0x0 DUP4 ADD MSTORE PUSH2 0x4160 DUP2 PUSH2 0x4124 JUMP JUMPDEST SWAP1 POP SWAP2 SWAP1 POP JUMP JUMPDEST PUSH32 0x4E487B7100000000000000000000000000000000000000000000000000000000 PUSH1 0x0 MSTORE PUSH1 0x32 PUSH1 0x4 MSTORE PUSH1 0x24 PUSH1 0x0 REVERT JUMPDEST PUSH32 0x4E487B7100000000000000000000000000000000000000000000000000000000 PUSH1 0x0 MSTORE PUSH1 0x11 PUSH1 0x4 MSTORE PUSH1 0x24 PUSH1 0x0 REVERT JUMPDEST PUSH1 0x0 PUSH2 0x41D0 DUP3 PUSH2 0x2EEC JUMP JUMPDEST SWAP2 POP PUSH32 0xFFFFFFFFFFFFFFFFFFFFFFFFFFFFFFFFFFFFFFFFFFFFFFFFFFFFFFFFFFFFFFFF DUP3 SUB PUSH2 0x4202 JUMPI PUSH2 0x4201 PUSH2 0x4196 JUMP JUMPDEST JUMPDEST PUSH1 0x1 DUP3 ADD SWAP1 POP SWAP2 SWAP1 POP JUMP JUMPDEST PUSH32 0x5061706572206E6F7420756E6C6F636B65642079657400000000000000000000 PUSH1 0x0 DUP3 ADD MSTORE POP JUMP JUMPDEST PUSH1 0x0 PUSH2 0x4243 PUSH1 0x16 DUP4 PUSH2 0x34AE JUMP JUMPDEST SWAP2 POP PUSH2 0x424E DUP3 PUSH2 0x420D JUMP JUMPDEST PUSH1 0x20 DUP3 ADD SWAP1 POP SWAP2 SWAP1 POP JUMP JUMPDEST PUSH1 0x0 PUSH1 0x20 DUP3 ADD SWAP1 POP DUP2 DUP2 SUB PUSH1 0x0 DUP4 ADD MSTORE PUSH2 0x4272 DUP2 PUSH2 0x4236 JUMP JUMPDEST SWAP1 POP SWAP2 SWAP1 POP JUMP JUMPDEST PUSH32 0x4E6F742061737369676E656420746F2074686973207061706572000000000000 PUSH1 0x0 DUP3 ADD MSTORE POP JUMP JUMPDEST PUSH1 0x0 PUSH2 0x42AF PUSH1 0x1A DUP4 PUSH2 0x34AE JUMP JUMPDEST SWAP2 POP PUSH2 0x42BA DUP3 PUSH2 0x4279 JUMP JUMPDEST PUSH1 0x20 DUP3 ADD SWAP1 POP SWAP2 SWAP1 POP JUMP JUMPDEST PUSH1 0x0 PUSH1 0x20 DUP3 ADD SWAP1 POP DUP2 DUP2 SUB PUSH1 0x0 DUP4 ADD MSTORE PUSH2 0x42DE DUP2 PUSH2 0x42A2 JUMP JUMPDEST SWAP1 POP SWAP2 SWAP1 POP JUMP JUMPDEST PUSH32 0x4578616D206E616D652072657175697265640000000000000000000000000000 PUSH1 0x0 DUP3 ADD MSTORE POP JUMP JUMPDEST PUSH1 0x0 PUSH2 0x431B PUSH1 0x12 DUP4 PUSH2 0x34AE JUMP JUMPDEST SWAP2 POP PUSH2 0x4326 DUP3 PUSH2 0x42E5 JUMP JUMPDEST PUSH1 0x20 DUP3 ADD SWAP1 POP SWAP2 SWAP1 POP JUMP JUMPDEST PUSH1 0x0 PUSH1 0x20 DUP3 ADD SWAP1 POP DUP2 DUP2 SUB PUSH1 0x0 DUP4 ADD MSTORE PUSH2 0x434A DUP2 PUSH2 0x430E JUMP JUMPDEST SWAP1 POP SWAP2 SWAP1 POP JUMP JUMPDEST PUSH32 0x4950465320434944732072657175697265640000000000000000000000000000 PUSH1 0x0 DUP3 ADD MSTORE POP JUMP JUMPDEST PUSH1 0x0 PUSH2 0x4387 PUSH1 0x12 DUP4 PUSH2 0x34AE JUMP JUMPDEST SWAP2 POP PUSH2 0x4392 DUP3 PUSH2 0x4351 JUMP JUMPDEST PUSH1 0x20 DUP3 ADD SWAP1 POP SWAP2 SWAP1 POP JUMP JUMPDEST PUSH1 0x0 PUSH1 0x20 DUP3 ADD SWAP1 POP DUP2 DUP2 SUB PUSH1 0x0 DUP4 ADD MSTORE PUSH2 0x43B6 DUP2 PUSH2 0x437A JUMP JUMPDEST SWAP1 POP SWAP2 SWAP1 POP JUMP JUMPDEST PUSH32 0x54696D652D6C6F636B6564206B65792072657175697265640000000000000000 PUSH1 0x0 DUP3 ADD MSTORE POP JUMP JUMPDEST PUSH1 0x0 PUSH2 0x43F3 PUSH1 0x18 DUP4 PUSH2 0x34AE JUMP JUMPDEST SWAP2 POP PUSH2 0x43FE DUP3 PUSH2 0x43BD JUMP JUMPDEST PUSH1 0x20 DUP3 ADD SWAP1 POP SWAP2 SWAP1 POP JUMP JUMPDEST PUSH1 0x0 PUSH1 0x20 DUP3 ADD SWAP1 POP DUP2 DUP2 SUB PUSH1 0x0 DUP4 ADD MSTORE PUSH2 0x4422 DUP2 PUSH2 0x43E6 JUMP JUMPDEST SWAP1 POP SWAP2 SWAP1 POP JUMP JUMPDEST PUSH32 0x4B65792064657269766174696F6E2073616C7420726571756972656400000000 PUSH1 0x0 DUP3 ADD MSTORE POP JUMP JUMPDEST PUSH1 0x0 PUSH2 0x445F PUSH1 0x1C DUP4 PUSH2 0x34AE JUMP JUMPDEST SWAP2 POP PUSH2 0x446A DUP3 PUSH2 0x4429 JUMP JUMPDEST PUSH1 0x20 DUP3 ADD SWAP1 POP SWAP2 SWAP1 POP JUMP JUMPDEST PUSH1 0x0 PUSH1 0x20 DUP3 ADD SWAP1 POP DUP2 DUP2 SUB PUSH1 0x0 DUP4 ADD MSTORE PUSH2 0x448E DUP2 PUSH2 0x4452 JUMP JUMPDEST SWAP1 POP SWAP2 SWAP1 POP JUMP JUMPDEST PUSH32 0x4E6F7420617574686F72697A6564000000000000000000000000000000000000 PUSH1 0x0 DUP3 ADD MSTORE POP JUMP JUMPDEST PUSH1 0x0 PUSH2 0x44CB PUSH1 0xE DUP4 PUSH2 0x34AE JUMP JUMPDEST SWAP2 POP PUSH2 0x44D6 DUP3 PUSH2 0x4495 JUMP JUMPDEST PUSH1 0x20 DUP3 ADD SWAP1 POP SWAP2 SWAP1 POP JUMP JUMPDEST PUSH1 0x0 PUSH1 0x20 DUP3 ADD SWAP1 POP DUP2 DUP2 SUB PUSH1 0x0 DUP4 ADD MSTORE PUSH2 0x44FA DUP2 PUSH2 0x44BE JUMP JUMPDEST SWAP1 POP SWAP2 SWAP1 POP JUMP JUMPDEST PUSH32 0x43656E746572732F436C617373726F6F6D73206D69736D617463680000000000 PUSH1 0x0 DUP3 ADD MSTORE POP JUMP JUMPDEST PUSH1 0x0 PUSH2 0x4537 PUSH1 0x1B DUP4 PUSH2 0x34AE JUMP JUMPDEST SWAP2 POP PUSH2 0x4542 DUP3 PUSH2 0x4501 JUMP JUMPDEST PUSH1 0x20 DUP3 ADD SWAP1 POP SWAP2 SWAP1 POP JUMP JUMPDEST PUSH1 0x0 PUSH1 0x20 DUP3 ADD SWAP1 POP DUP2 DUP2 SUB PUSH1 0x0 DUP4 ADD MSTORE PUSH2 0x4566 DUP2 PUSH2 0x452A JUMP JUMPDEST SWAP1 POP SWAP2 SWAP1 POP JUMP JUMPDEST PUSH32 0x556E6C6F636B2074696D65206D75737420626520696E20667574757265000000 PUSH1 0x0 DUP3 ADD MSTORE POP JUMP JUMPDEST PUSH1 0x0 PUSH2 0x45A3 PUSH1 0x1D DUP4 PUSH2 0x34AE JUMP JUMPDEST SWAP2 POP PUSH2 0x45AE DUP3 PUSH2 0x456D JUMP JUMPDEST PUSH1 0x20 DUP3 ADD SWAP1 POP SWAP2 SWAP1 POP JUMP JUMPDEST PUSH1 0x0 PUSH1 0x20 DUP3 ADD SWAP1 POP DUP2 DUP2 SUB PUSH1 0x0 DUP4 ADD MSTORE PUSH2 0x45D2 DUP2 PUSH2 0x4596 JUMP JUMPDEST SWAP1 POP SWAP2 SWAP1 POP JUMP JUMPDEST PUSH32 0x506170657220616C7265616479207363686564756C6564000000000000000000 PUSH1 0x0 DUP3 ADD MSTORE POP JUMP JUMPDEST PUSH1 0x0 PUSH2 0x460F PUSH1 0x17 DUP4 PUSH2 0x34AE JUMP JUMPDEST SWAP2 POP PUSH2 0x461A DUP3 PUSH2 0x45D9 JUMP JUMPDEST PUSH1 0x20 DUP3 ADD SWAP1 POP SWAP2 SWAP1 POP JUMP JUMPDEST PUSH1 0x0 PUSH1 0x20 DUP3 ADD SWAP1 POP DUP2 DUP2 SUB PUSH1 0x0 DUP4 ADD MSTORE PUSH2 0x463E DUP2 PUSH2 0x4602 JUMP JUMPDEST SWAP1 POP SWAP2 SWAP1 POP JUMP JUMPDEST PUSH32 0x43656E746572206E6F7420726567697374657265640000000000000000000000 PUSH1 0x0 DUP3 ADD MSTORE POP JUMP JUMPDEST PUSH1 0x0 PUSH2 0x467B PUSH1 0x15 DUP4 PUSH2 0x34AE JUMP JUMPDEST SWAP2 POP PUSH2 0x4686 DUP3 PUSH2 0x4645 JUMP JUMPDEST PUSH1 0x20 DUP3 ADD SWAP1 POP SWAP2 SWAP1 POP JUMP JUMPDEST PUSH1 0x0 PUSH1 0x20 DUP3 ADD SWAP1 POP DUP2 DUP2 SUB PUSH1 0x0 DUP4 ADD MSTORE PUSH2 0x46AA DUP2 PUSH2 0x466E JUMP JUMPDEST SWAP1 POP SWAP2 SWAP1 POP JUMP INVALID LOG2 PUSH5 0x6970667358 0x22 SLT KECCAK256 0xE2 0x2A 0xC2 AND CALLDATACOPY NOT 0xE6 0xC6 0x1F 0xC2 SHR EXTCODESIZE 0xCD PUSH18 0xC7482E31B52937709FE838246391F43FB6E6 PUSH5 0x736F6C6343 STOP ADDMOD EQ STOP CALLER "},"methodIdentifiers":{"authorities(address)":"91223d69","authorityAddresses(uint256)":"b69dab68","centerAddresses(uint256)":"9a0dd666","centers(address)":"554a14ac","getAllAuthorities()":"fedf2c56","getAllCenters()":"4cdf8093","getCenterPublicKey(address)":"3b0ae1fd","getMyClassroom(uint256)":"b5438f6d","getPaper(uint256)":"07993f04","getTimeLockedKey(uint256)":"665fbc44","isAssignedToCenter(uint256,address)":"93e9b6ed","paperAssignments(uint256,address)":"da0d83de","paperClassrooms(uint256,address)":"bc7cf6dd","paperCount()":"a56c2cb9","papers(uint256)":"5e775a27","registerAuthority(string)":"a930ecd7","registerExamCenter(string,bytes)":"00c172a2","scheduleExam(uint256,uint256,address[],string[],bytes,string)":"c3a4d3f8","unlockPaper(uint256)":"2460cf76","uploadPaper(string,string,string[],bytes,string)":"a6470ba0"}}}}}