{"contracts/ExamRegistry.sol":{"ExamRegistry":{"abi":[{"anonymous":false,"inputs":[{"indexed":true,"internalType":"address","name":"authority","type":"address"},{"indexed":false,"internalType":"bytes","name":"publicKey","type":"bytes"}],"name":"AuthorityRegistered","type":"event"},{"anonymous":false,"inputs":[{"indexed":true,"internalType":"address","name":"centerAddress","type":"address"},{"indexed":false,"internalType":"string","name":"name","type":"string"}],"name":"CenterRegistered","type":"event"},{"anonymous":false,"inputs":[{"indexed":true,"internalType":"uint256","name":"paperId","type":"uint256"},{"indexed":false,"internalType":"uint256","name":"unlockTimestamp","type":"uint256"},{"indexed":true,"internalType":"address","name":"authority","type":"address"}],"name":"PaperScheduled","type":"event"},{"anonymous":false,"inputs":[{"indexed":true,"internalType":"uint256","name":"paperId","type":"uint256"},{"indexed":false,"internalType":"uint256","name":"timestamp","type":"uint256"}],"name":"PaperUnlocked","type":"event"},{"anonymous":false,"inputs":[{"indexed":true,"internalType":"uint256","name":"paperId","type":"uint256"},{"indexed":false,"internalType":"string","name":"examName","type":"string"},{"indexed":true,"internalType":"address","name":"teacher","type":"address"}],"name":"PaperUploaded","type":"event"},{"inputs":[],"name":"authorityPublicKey","outputs":[{"internalType":"bytes","name":"","type":"bytes"}],"stateMutability":"view","type":"function"},{"inputs":[{"internalType":"uint256","name":"","type":"uint256"}],"name":"centerAddresses","outputs":[{"internalType":"address","name":"","type":"address"}],"stateMutability":"view","type":"function"},{"inputs":[{"internalType":"address","name":"","type":"address"}],"name":"centers","outputs":[{"internalType":"string","name":"name","type":"string"},{"internalType":"bytes","name":"publicKey","type":"bytes"},{"internalType":"bool","name":"isRegistered","type":"bool"}],"stateMutability":"view","type":"function"},{"inputs":[],"name":"getAllCenters","outputs":[{"internalType":"address[]","name":"","type":"address[]"},{"internalType":"string[]","name":"","type":"string[]"}],"stateMutability":"view","type":"function"},{"inputs":[{"internalType":"address","name":"_center","type":"address"}],"name":"getCenterPublicKey","outputs":[{"internalType":"bytes","name":"","type":"bytes"}],"stateMutability":"view","type":"function"},{"inputs":[{"internalType":"uint256","name":"_paperId","type":"uint256"}],"name":"getMyClassroom","outputs":[{"internalType":"string","name":"","type":"string"}],"stateMutability":"view","type":"function"},{"inputs":[{"internalType":"uint256","name":"_paperId","type":"uint256"}],"name":"getMyPaperKey","outputs":[{"internalType":"bytes","name":"","type":"bytes"}],"stateMutability":"view","type":"function"},{"inputs":[{"internalType":"uint256","name":"_paperId","type":"uint256"}],"name":"getPaper","outputs":[{"components":[{"internalType":"string","name":"examName","type":"string"},{"internalType":"string","name":"subject","type":"string"},{"internalType":"address","name":"teacher","type":"address"},{"internalType":"string[]","name":"ipfsCIDs","type":"string[]"},{"internalType":"uint256","name":"uploadTimestamp","type":"uint256"},{"internalType":"uint256","name":"unlockTimestamp","type":"uint256"},{"internalType":"bool","name":"isScheduled","type":"bool"},{"internalType":"bool","name":"isUnlocked","type":"bool"},{"internalType":"address","name":"authority","type":"address"},{"internalType":"bytes","name":"authorityEncryptedKey","type":"bytes"}],"internalType":"struct ExamRegistry.Paper","name":"","type":"tuple"}],"stateMutability":"view","type":"function"},{"inputs":[{"internalType":"uint256","name":"","type":"uint256"},{"internalType":"address","name":"","type":"address"}],"name":"paperClassrooms","outputs":[{"internalType":"string","name":"","type":"string"}],"stateMutability":"view","type":"function"},{"inputs":[],"name":"paperCount","outputs":[{"internalType":"uint256","name":"","type":"uint256"}],"stateMutability":"view","type":"function"},{"inputs":[{"internalType":"uint256","name":"","type":"uint256"},{"internalType":"address","name":"","type":"address"}],"name":"paperKeys","outputs":[{"internalType":"bytes","name":"","type":"bytes"}],"stateMutability":"view","type":"function"},{"inputs":[{"internalType":"uint256","name":"","type":"uint256"}],"name":"papers","outputs":[{"internalType":"string","name":"examName","type":"string"},{"internalType":"string","name":"subject","type":"string"},{"internalType":"address","name":"teacher","type":"address"},{"internalType":"uint256","name":"uploadTimestamp","type":"uint256"},{"internalType":"uint256","name":"unlockTimestamp","type":"uint256"},{"internalType":"bool","name":"isScheduled","type":"bool"},{"internalType":"bool","name":"isUnlocked","type":"bool"},{"internalType":"address","name":"authority","type":"address"},{"internalType":"bytes","name":"authorityEncryptedKey","type":"bytes"}],"stateMutability":"view","type":"function"},{"inputs":[{"internalType":"bytes","name":"_publicKey","type":"bytes"}],"name":"registerAuthority","outputs":[],"stateMutability":"nonpayable","type":"function"},{"inputs":[{"internalType":"string","name":"_name","type":"string"},{"internalType":"bytes","name":"_publicKey","type":"bytes"}],"name":"registerExamCenter","outputs":[],"stateMutability":"nonpayable","type":"function"},{"inputs":[{"internalType":"uint256","name":"_paperId","type":"uint256"},{"internalType":"uint256","name":"_unlockTimestamp","type":"uint256"},{"internalType":"address[]","name":"_centers","type":"address[]"},{"internalType":"string[]","name":"_classrooms","type":"string[]"},{"internalType":"bytes[]","name":"_encryptedKeys","type":"bytes[]"}],"name":"scheduleExam","outputs":[],"stateMutability":"nonpayable","type":"function"},{"inputs":[{"internalType":"uint256","name":"_paperId","type":"uint256"}],"name":"unlockPaper","outputs":[],"stateMutability":"nonpayable","type":"function"},{"inputs":[{"internalType":"string","name":"_examName","type":"string"},{"internalType":"string","name":"_subject","type":"string"},{"internalType":"string[]","name":"_ipfsCIDs","type":"string[]"},{"internalType":"bytes","name":"_authorityEncryptedKey","type":"bytes"}],"name":"uploadPaper","outputs":[{"internalType":"uint256","name":"","type":"uint256"}],"stateMutability":"nonpayable","type":"function"}],"evm":{"bytecode":{"linkReferences":{},"object":"608060405234801561001057600080fd5b5061371c806100206000396000f3fe608060405234801561001057600080fd5b506004361061010a5760003560e01c8063984f6eae116100a2578063b5438f6d11610071578063b5438f6d146102e8578063b724af4014610318578063ba8d1ac914610348578063bc7cf6dd14610378578063c633f568146103a85761010a565b8063984f6eae1461024e5780639a0dd6661461027e578063a37b7522146102ae578063a56c2cb9146102ca5761010a565b80633b0ae1fd116100de5780633b0ae1fd146101955780634cdf8093146101c5578063554a14ac146101e45780635e775a27146102165761010a565b8062c172a21461010f57806307993f041461012b5780631dcd14fe1461015b5780632460cf7614610179575b600080fd5b61012960048036038101906101249190612104565b6103c4565b005b610145600480360381019061014091906121b2565b610602565b60405161015291906124cf565b60405180910390f35b610163610a07565b604051610170919061253b565b60405180910390f35b610193600480360381019061018e91906121b2565b610a95565b005b6101af60048036038101906101aa9190612589565b610bef565b6040516101bc919061253b565b60405180910390f35b6101cd610cc3565b6040516101db9291906126eb565b60405180910390f35b6101fe60048036038101906101f99190612589565b610f52565b60405161020d9392919061277b565b60405180910390f35b610230600480360381019061022b91906121b2565b611099565b604051610245999897969594939291906127de565b60405180910390f35b610268600480360381019061026391906121b2565b6112d9565b604051610275919061253b565b60405180910390f35b610298600480360381019061029391906121b2565b61140e565b6040516102a59190612880565b60405180910390f35b6102c860048036038101906102c3919061289b565b61144d565b005b6102d26114ae565b6040516102df91906128e4565b60405180910390f35b61030260048036038101906102fd91906121b2565b6114b4565b60405161030f91906128ff565b60405180910390f35b610332600480360381019061032d9190612a07565b6115e9565b60405161033f91906128e4565b60405180910390f35b610362600480360381019061035d9190612ade565b6118c9565b60405161036f919061253b565b60405180910390f35b610392600480360381019061038d9190612ade565b611976565b60405161039f91906128ff565b60405180910390f35b6103c260048036038101906103bd9190612cc2565b611a23565b005b6000825111610408576040517f08c379a00000000000000000000000000000000000000000000000000000000081526004016103ff90612ddd565b60405180910390fd5b600081511161044c576040517f08c379a000000000000000000000000000000000000000000000000000000000815260040161044390612e49565b60405180910390fd5b600260003373ffffffffffffffffffffffffffffffffffffffff1673ffffffffffffffffffffffffffffffffffffffff16815260200190815260200160002060020160009054906101000a900460ff16610504576003339080600181540180825580915050600190039060005260206000200160009091909190916101000a81548173ffffffffffffffffffffffffffffffffffffffff021916908373ffffffffffffffffffffffffffffffffffffffff1602179055505b604051806060016040528083815260200182815260200160011515815250600260003373ffffffffffffffffffffffffffffffffffffffff1673ffffffffffffffffffffffffffffffffffffffff16815260200190815260200160002060008201518160000190816105769190613075565b50602082015181600101908161058c91906131a2565b5060408201518160020160006101000a81548160ff0219169083151502179055509050503373ffffffffffffffffffffffffffffffffffffffff167f1ffb27eb65cbbc9dfaa75d97c82c72d0f599317651d968e7e4ea93553e154c92836040516105f691906128ff565b60405180910390a25050565b61060a611dac565b8160008111801561061d57506001548111155b61065c576040517f08c379a0000000000000000000000000000000000000000000000000000000008152600401610653906132c0565b60405180910390fd5b6000808481526020019081526020016000206040518061014001604052908160008201805461068a90612e98565b80601f01602080910402602001604051908101604052809291908181526020018280546106b690612e98565b80156107035780601f106106d857610100808354040283529160200191610703565b820191906000526020600020905b8154815290600101906020018083116106e657829003601f168201915b5050505050815260200160018201805461071c90612e98565b80601f016020809104026020016040519081016040528092919081815260200182805461074890612e98565b80156107955780601f1061076a57610100808354040283529160200191610795565b820191906000526020600020905b81548152906001019060200180831161077857829003601f168201915b505050505081526020016002820160009054906101000a900473ffffffffffffffffffffffffffffffffffffffff1673ffffffffffffffffffffffffffffffffffffffff1673ffffffffffffffffffffffffffffffffffffffff16815260200160038201805480602002602001604051908101604052809291908181526020016000905b828210156108c557838290600052602060002001805461083890612e98565b80601f016020809104026020016040519081016040528092919081815260200182805461086490612e98565b80156108b15780601f10610886576101008083540402835291602001916108b1565b820191906000526020600020905b81548152906001019060200180831161089457829003601f168201915b505050505081526020019060010190610819565b50505050815260200160048201548152602001600582015481526020016006820160009054906101000a900460ff161515151581526020016006820160019054906101000a900460ff161515151581526020016006820160029054906101000a900473ffffffffffffffffffffffffffffffffffffffff1673ffffffffffffffffffffffffffffffffffffffff1673ffffffffffffffffffffffffffffffffffffffff16815260200160078201805461097d90612e98565b80601f01602080910402602001604051908101604052809291908181526020018280546109a990612e98565b80156109f65780601f106109cb576101008083540402835291602001916109f6565b820191906000526020600020905b8154815290600101906020018083116109d957829003601f168201915b505050505081525050915050919050565b60048054610a1490612e98565b80601f0160208091040260200160405190810160405280929190818152602001828054610a4090612e98565b8015610a8d5780601f10610a6257610100808354040283529160200191610a8d565b820191906000526020600020905b815481529060010190602001808311610a7057829003601f168201915b505050505081565b80600081118015610aa857506001548111155b610ae7576040517f08c379a0000000000000000000000000000000000000000000000000000000008152600401610ade906132c0565b60405180910390fd5b600080600084815260200190815260200160002090508060060160009054906101000a900460ff16610b4e576040517f08c379a0000000000000000000000000000000000000000000000000000000008152600401610b459061332c565b60405180910390fd5b8060050154421015610b95576040517f08c379a0000000000000000000000000000000000000000000000000000000008152600401610b8c90613398565b60405180910390fd5b60018160060160016101000a81548160ff021916908315150217905550827f79f7de7ac9a8923c7ccc915fb4c5041920583f938a5406435331e490e06e0cf342604051610be291906128e4565b60405180910390a2505050565b6060600260008373ffffffffffffffffffffffffffffffffffffffff1673ffffffffffffffffffffffffffffffffffffffff1681526020019081526020016000206001018054610c3e90612e98565b80601f0160208091040260200160405190810160405280929190818152602001828054610c6a90612e98565b8015610cb75780601f10610c8c57610100808354040283529160200191610cb7565b820191906000526020600020905b815481529060010190602001808311610c9a57829003601f168201915b50505050509050919050565b606080600060038054905067ffffffffffffffff811115610ce757610ce6611f38565b5b604051908082528060200260200182016040528015610d155781602001602082028036833780820191505090505b509050600060038054905067ffffffffffffffff811115610d3957610d38611f38565b5b604051908082528060200260200182016040528015610d6c57816020015b6060815260200190600190039081610d575790505b50905060005b600380549050811015610f455760038181548110610d9357610d926133b8565b5b9060005260206000200160009054906101000a900473ffffffffffffffffffffffffffffffffffffffff16838281518110610dd157610dd06133b8565b5b602002602001019073ffffffffffffffffffffffffffffffffffffffff16908173ffffffffffffffffffffffffffffffffffffffff16815250506002600060038381548110610e2357610e226133b8565b5b9060005260206000200160009054906101000a900473ffffffffffffffffffffffffffffffffffffffff1673ffffffffffffffffffffffffffffffffffffffff1673ffffffffffffffffffffffffffffffffffffffff1681526020019081526020016000206000018054610e9690612e98565b80601f0160208091040260200160405190810160405280929190818152602001828054610ec290612e98565b8015610f0f5780601f10610ee457610100808354040283529160200191610f0f565b820191906000526020600020905b815481529060010190602001808311610ef257829003601f168201915b5050505050828281518110610f2757610f266133b8565b5b60200260200101819052508080610f3d90613416565b915050610d72565b5081819350935050509091565b6002602052806000526040600020600091509050806000018054610f7590612e98565b80601f0160208091040260200160405190810160405280929190818152602001828054610fa190612e98565b8015610fee5780601f10610fc357610100808354040283529160200191610fee565b820191906000526020600020905b815481529060010190602001808311610fd157829003601f168201915b50505050509080600101805461100390612e98565b80601f016020809104026020016040519081016040528092919081815260200182805461102f90612e98565b801561107c5780601f106110515761010080835404028352916020019161107c565b820191906000526020600020905b81548152906001019060200180831161105f57829003601f168201915b5050505050908060020160009054906101000a900460ff16905083565b60006020528060005260406000206000915090508060000180546110bc90612e98565b80601f01602080910402602001604051908101604052809291908181526020018280546110e890612e98565b80156111355780601f1061110a57610100808354040283529160200191611135565b820191906000526020600020905b81548152906001019060200180831161111857829003601f168201915b50505050509080600101805461114a90612e98565b80601f016020809104026020016040519081016040528092919081815260200182805461117690612e98565b80156111c35780601f10611198576101008083540402835291602001916111c3565b820191906000526020600020905b8154815290600101906020018083116111a657829003601f168201915b5050505050908060020160009054906101000a900473ffffffffffffffffffffffffffffffffffffffff16908060040154908060050154908060060160009054906101000a900460ff16908060060160019054906101000a900460ff16908060060160029054906101000a900473ffffffffffffffffffffffffffffffffffffffff169080600701805461125690612e98565b80601f016020809104026020016040519081016040528092919081815260200182805461128290612e98565b80156112cf5780601f106112a4576101008083540402835291602001916112cf565b820191906000526020600020905b8154815290600101906020018083116112b257829003601f168201915b5050505050905089565b6060816000811180156112ee57506001548111155b61132d576040517f08c379a0000000000000000000000000000000000000000000000000000000008152600401611324906132c0565b60405180910390fd5b6006600084815260200190815260200160002060003373ffffffffffffffffffffffffffffffffffffffff1673ffffffffffffffffffffffffffffffffffffffff168152602001908152602001600020805461138890612e98565b80601f01602080910402602001604051908101604052809291908181526020018280546113b490612e98565b80156114015780601f106113d657610100808354040283529160200191611401565b820191906000526020600020905b8154815290600101906020018083116113e457829003601f168201915b5050505050915050919050565b6003818154811061141e57600080fd5b906000526020600020016000915054906101000a900473ffffffffffffffffffffffffffffffffffffffff1681565b806004908161145c91906131a2565b503373ffffffffffffffffffffffffffffffffffffffff167f5d47b0b84afb162d342858473fe12f672a0e5896db383cdca19e76abf5092491826040516114a3919061253b565b60405180910390a250565b60015481565b6060816000811180156114c957506001548111155b611508576040517f08c379a00000000000000000000000000000000000000000000000000000000081526004016114ff906132c0565b60405180910390fd5b6005600084815260200190815260200160002060003373ffffffffffffffffffffffffffffffffffffffff1673ffffffffffffffffffffffffffffffffffffffff168152602001908152602001600020805461156390612e98565b80601f016020809104026020016040519081016040528092919081815260200182805461158f90612e98565b80156115dc5780601f106115b1576101008083540402835291602001916115dc565b820191906000526020600020905b8154815290600101906020018083116115bf57829003601f168201915b5050505050915050919050565b60008085511161162e576040517f08c379a0000000000000000000000000000000000000000000000000000000008152600401611625906134aa565b60405180910390fd5b60006004805461163d90612e98565b90501161167f576040517f08c379a000000000000000000000000000000000000000000000000000000000815260040161167690613516565b60405180910390fd5b6001600081548092919061169290613416565b91905055506040518061014001604052808681526020018581526020013373ffffffffffffffffffffffffffffffffffffffff16815260200184815260200142815260200160008152602001600015158152602001600015158152602001600073ffffffffffffffffffffffffffffffffffffffff168152602001838152506000806001548152602001908152602001600020600082015181600001908161173a9190613075565b5060208201518160010190816117509190613075565b5060408201518160020160006101000a81548173ffffffffffffffffffffffffffffffffffffffff021916908373ffffffffffffffffffffffffffffffffffffffff16021790555060608201518160030190805190602001906117b4929190611e2f565b506080820151816004015560a0820151816005015560c08201518160060160006101000a81548160ff02191690831515021790555060e08201518160060160016101000a81548160ff0219169083151502179055506101008201518160060160026101000a81548173ffffffffffffffffffffffffffffffffffffffff021916908373ffffffffffffffffffffffffffffffffffffffff16021790555061012082015181600701908161186791906131a2565b509050503373ffffffffffffffffffffffffffffffffffffffff166001547ff2addd0844bf6c683670be19a71fe7603380bdc0b1a9ecde0137f08b5e0d644a876040516118b491906128ff565b60405180910390a36001549050949350505050565b60066020528160005260406000206020528060005260406000206000915091505080546118f590612e98565b80601f016020809104026020016040519081016040528092919081815260200182805461192190612e98565b801561196e5780601f106119435761010080835404028352916020019161196e565b820191906000526020600020905b81548152906001019060200180831161195157829003601f168201915b505050505081565b60056020528160005260406000206020528060005260406000206000915091505080546119a290612e98565b80601f01602080910402602001604051908101604052809291908181526020018280546119ce90612e98565b8015611a1b5780601f106119f057610100808354040283529160200191611a1b565b820191906000526020600020905b8154815290600101906020018083116119fe57829003601f168201915b505050505081565b84600081118015611a3657506001548111155b611a75576040517f08c379a0000000000000000000000000000000000000000000000000000000008152600401611a6c906132c0565b60405180910390fd5b8251845114611ab9576040517f08c379a0000000000000000000000000000000000000000000000000000000008152600401611ab090613582565b60405180910390fd5b8151845114611afd576040517f08c379a0000000000000000000000000000000000000000000000000000000008152600401611af4906135ee565b60405180910390fd5b428511611b3f576040517f08c379a0000000000000000000000000000000000000000000000000000000008152600401611b369061365a565b60405180910390fd5b600080600088815260200190815260200160002090508060060160009054906101000a900460ff1615611ba7576040517f08c379a0000000000000000000000000000000000000000000000000000000008152600401611b9e906136c6565b60405180910390fd5b60005b8551811015611cea57848181518110611bc657611bc56133b8565b5b6020026020010151600560008a81526020019081526020016000206000888481518110611bf657611bf56133b8565b5b602002602001015173ffffffffffffffffffffffffffffffffffffffff1673ffffffffffffffffffffffffffffffffffffffff1681526020019081526020016000209081611c449190613075565b50838181518110611c5857611c576133b8565b5b6020026020010151600660008a81526020019081526020016000206000888481518110611c8857611c876133b8565b5b602002602001015173ffffffffffffffffffffffffffffffffffffffff1673ffffffffffffffffffffffffffffffffffffffff1681526020019081526020016000209081611cd691906131a2565b508080611ce290613416565b915050611baa565b5085816005018190555060018160060160006101000a81548160ff021916908315150217905550338160060160026101000a81548173ffffffffffffffffffffffffffffffffffffffff021916908373ffffffffffffffffffffffffffffffffffffffff1602179055503373ffffffffffffffffffffffffffffffffffffffff16877f3d33224841a69211485d8e455a900b8e87a0cf87d2e1df52f1ea56ebc485d70088604051611d9b91906128e4565b60405180910390a350505050505050565b6040518061014001604052806060815260200160608152602001600073ffffffffffffffffffffffffffffffffffffffff168152602001606081526020016000815260200160008152602001600015158152602001600015158152602001600073ffffffffffffffffffffffffffffffffffffffff168152602001606081525090565b828054828255906000526020600020908101928215611e77579160200282015b82811115611e76578251829081611e669190613075565b5091602001919060010190611e4f565b5b509050611e849190611e88565b5090565b5b80821115611ea85760008181611e9f9190611eac565b50600101611e89565b5090565b508054611eb890612e98565b6000825580601f10611eca5750611ee9565b601f016020900490600052602060002090810190611ee89190611eec565b5b50565b5b80821115611f05576000816000905550600101611eed565b5090565b6000604051905090565b600080fd5b600080fd5b600080fd5b600080fd5b6000601f19601f8301169050919050565b7f4e487b7100000000000000000000000000000000000000000000000000000000600052604160045260246000fd5b611f7082611f27565b810181811067ffffffffffffffff82111715611f8f57611f8e611f38565b5b80604052505050565b6000611fa2611f09565b9050611fae8282611f67565b919050565b600067ffffffffffffffff821115611fce57611fcd611f38565b5b611fd782611f27565b9050602081019050919050565b82818337600083830152505050565b600061200661200184611fb3565b611f98565b90508281526020810184848401111561202257612021611f22565b5b61202d848285611fe4565b509392505050565b600082601f83011261204a57612049611f1d565b5b813561205a848260208601611ff3565b91505092915050565b600067ffffffffffffffff82111561207e5761207d611f38565b5b61208782611f27565b9050602081019050919050565b60006120a76120a284612063565b611f98565b9050828152602081018484840111156120c3576120c2611f22565b5b6120ce848285611fe4565b509392505050565b600082601f8301126120eb576120ea611f1d565b5b81356120fb848260208601612094565b91505092915050565b6000806040838503121561211b5761211a611f13565b5b600083013567ffffffffffffffff81111561213957612138611f18565b5b61214585828601612035565b925050602083013567ffffffffffffffff81111561216657612165611f18565b5b612172858286016120d6565b9150509250929050565b6000819050919050565b61218f8161217c565b811461219a57600080fd5b50565b6000813590506121ac81612186565b92915050565b6000602082840312156121c8576121c7611f13565b5b60006121d68482850161219d565b91505092915050565b600081519050919050565b600082825260208201905092915050565b60005b838110156122195780820151818401526020810190506121fe565b60008484015250505050565b6000612230826121df565b61223a81856121ea565b935061224a8185602086016121fb565b61225381611f27565b840191505092915050565b600073ffffffffffffffffffffffffffffffffffffffff82169050919050565b60006122898261225e565b9050919050565b6122998161227e565b82525050565b600081519050919050565b600082825260208201905092915050565b6000819050602082019050919050565b60006122d78383612225565b905092915050565b6000602082019050919050565b60006122f78261229f565b61230181856122aa565b935083602082028501612313856122bb565b8060005b8581101561234f578484038952815161233085826122cb565b945061233b836122df565b925060208a01995050600181019050612317565b50829750879550505050505092915050565b61236a8161217c565b82525050565b60008115159050919050565b61238581612370565b82525050565b600081519050919050565b600082825260208201905092915050565b60006123b28261238b565b6123bc8185612396565b93506123cc8185602086016121fb565b6123d581611f27565b840191505092915050565b60006101408301600083015184820360008601526123fe8282612225565b915050602083015184820360208601526124188282612225565b915050604083015161242d6040860182612290565b506060830151848203606086015261244582826122ec565b915050608083015161245a6080860182612361565b5060a083015161246d60a0860182612361565b5060c083015161248060c086018261237c565b5060e083015161249360e086018261237c565b506101008301516124a8610100860182612290565b506101208301518482036101208601526124c282826123a7565b9150508091505092915050565b600060208201905081810360008301526124e981846123e0565b905092915050565b600082825260208201905092915050565b600061250d8261238b565b61251781856124f1565b93506125278185602086016121fb565b61253081611f27565b840191505092915050565b600060208201905081810360008301526125558184612502565b905092915050565b6125668161227e565b811461257157600080fd5b50565b6000813590506125838161255d565b92915050565b60006020828403121561259f5761259e611f13565b5b60006125ad84828501612574565b91505092915050565b600081519050919050565b600082825260208201905092915050565b6000819050602082019050919050565b60006125ee8383612290565b60208301905092915050565b6000602082019050919050565b6000612612826125b6565b61261c81856125c1565b9350612627836125d2565b8060005b8381101561265857815161263f88826125e2565b975061264a836125fa565b92505060018101905061262b565b5085935050505092915050565b600082825260208201905092915050565b60006126818261229f565b61268b8185612665565b93508360208202850161269d856122bb565b8060005b858110156126d957848403895281516126ba85826122cb565b94506126c5836122df565b925060208a019950506001810190506126a1565b50829750879550505050505092915050565b600060408201905081810360008301526127058185612607565b905081810360208301526127198184612676565b90509392505050565b600082825260208201905092915050565b600061273e826121df565b6127488185612722565b93506127588185602086016121fb565b61276181611f27565b840191505092915050565b61277581612370565b82525050565b600060608201905081810360008301526127958186612733565b905081810360208301526127a98185612502565b90506127b8604083018461276c565b949350505050565b6127c98161227e565b82525050565b6127d88161217c565b82525050565b60006101208201905081810360008301526127f9818c612733565b9050818103602083015261280d818b612733565b905061281c604083018a6127c0565b61282960608301896127cf565b61283660808301886127cf565b61284360a083018761276c565b61285060c083018661276c565b61285d60e08301856127c0565b8181036101008301526128708184612502565b90509a9950505050505050505050565b600060208201905061289560008301846127c0565b92915050565b6000602082840312156128b1576128b0611f13565b5b600082013567ffffffffffffffff8111156128cf576128ce611f18565b5b6128db848285016120d6565b91505092915050565b60006020820190506128f960008301846127cf565b92915050565b600060208201905081810360008301526129198184612733565b905092915050565b600067ffffffffffffffff82111561293c5761293b611f38565b5b602082029050602081019050919050565b600080fd5b600061296561296084612921565b611f98565b905080838252602082019050602084028301858111156129885761298761294d565b5b835b818110156129cf57803567ffffffffffffffff8111156129ad576129ac611f1d565b5b8086016129ba8982612035565b8552602085019450505060208101905061298a565b5050509392505050565b600082601f8301126129ee576129ed611f1d565b5b81356129fe848260208601612952565b91505092915050565b60008060008060808587031215612a2157612a20611f13565b5b600085013567ffffffffffffffff811115612a3f57612a3e611f18565b5b612a4b87828801612035565b945050602085013567ffffffffffffffff811115612a6c57612a6b611f18565b5b612a7887828801612035565b935050604085013567ffffffffffffffff811115612a9957612a98611f18565b5b612aa5878288016129d9565b925050606085013567ffffffffffffffff811115612ac657612ac5611f18565b5b612ad2878288016120d6565b91505092959194509250565b60008060408385031215612af557612af4611f13565b5b6000612b038582860161219d565b9250506020612b1485828601612574565b9150509250929050565b600067ffffffffffffffff821115612b3957612b38611f38565b5b602082029050602081019050919050565b6000612b5d612b5884612b1e565b611f98565b90508083825260208201905060208402830185811115612b8057612b7f61294d565b5b835b81811015612ba95780612b958882612574565b845260208401935050602081019050612b82565b5050509392505050565b600082601f830112612bc857612bc7611f1d565b5b8135612bd8848260208601612b4a565b91505092915050565b600067ffffffffffffffff821115612bfc57612bfb611f38565b5b602082029050602081019050919050565b6000612c20612c1b84612be1565b611f98565b90508083825260208201905060208402830185811115612c4357612c4261294d565b5b835b81811015612c8a57803567ffffffffffffffff811115612c6857612c67611f1d565b5b808601612c7589826120d6565b85526020850194505050602081019050612c45565b5050509392505050565b600082601f830112612ca957612ca8611f1d565b5b8135612cb9848260208601612c0d565b91505092915050565b600080600080600060a08688031215612cde57612cdd611f13565b5b6000612cec8882890161219d565b9550506020612cfd8882890161219d565b945050604086013567ffffffffffffffff811115612d1e57612d1d611f18565b5b612d2a88828901612bb3565b935050606086013567ffffffffffffffff811115612d4b57612d4a611f18565b5b612d57888289016129d9565b925050608086013567ffffffffffffffff811115612d7857612d77611f18565b5b612d8488828901612c94565b9150509295509295909350565b7f4e616d6520726571756972656400000000000000000000000000000000000000600082015250565b6000612dc7600d83612722565b9150612dd282612d91565b602082019050919050565b60006020820190508181036000830152612df681612dba565b9050919050565b7f5075626c6963206b657920726571756972656400000000000000000000000000600082015250565b6000612e33601383612722565b9150612e3e82612dfd565b602082019050919050565b60006020820190508181036000830152612e6281612e26565b9050919050565b7f4e487b7100000000000000000000000000000000000000000000000000000000600052602260045260246000fd5b60006002820490506001821680612eb057607f821691505b602082108103612ec357612ec2612e69565b5b50919050565b60008190508160005260206000209050919050565b60006020601f8301049050919050565b600082821b905092915050565b600060088302612f2b7fffffffffffffffffffffffffffffffffffffffffffffffffffffffffffffffff82612eee565b612f358683612eee565b95508019841693508086168417925050509392505050565b6000819050919050565b6000612f72612f6d612f688461217c565b612f4d565b61217c565b9050919050565b6000819050919050565b612f8c83612f57565b612fa0612f9882612f79565b848454612efb565b825550505050565b600090565b612fb5612fa8565b612fc0818484612f83565b505050565b5b81811015612fe457612fd9600082612fad565b600181019050612fc6565b5050565b601f82111561302957612ffa81612ec9565b61300384612ede565b81016020851015613012578190505b61302661301e85612ede565b830182612fc5565b50505b505050565b600082821c905092915050565b600061304c6000198460080261302e565b1980831691505092915050565b6000613065838361303b565b9150826002028217905092915050565b61307e826121df565b67ffffffffffffffff81111561309757613096611f38565b5b6130a18254612e98565b6130ac828285612fe8565b600060209050601f8311600181146130df57600084156130cd578287015190505b6130d78582613059565b86555061313f565b601f1984166130ed86612ec9565b60005b82811015613115578489015182556001820191506020850194506020810190506130f0565b86831015613132578489015161312e601f89168261303b565b8355505b6001600288020188555050505b505050505050565b60008190508160005260206000209050919050565b601f82111561319d5761316e81613147565b61317784612ede565b81016020851015613186578190505b61319a61319285612ede565b830182612fc5565b50505b505050565b6131ab8261238b565b67ffffffffffffffff8111156131c4576131c3611f38565b5b6131ce8254612e98565b6131d982828561315c565b600060209050601f83116001811461320c57600084156131fa578287015190505b6132048582613059565b86555061326c565b601f19841661321a86613147565b60005b828110156132425784890151825560018201915060208501945060208101905061321d565b8683101561325f578489015161325b601f89168261303b565b8355505b6001600288020188555050505b505050505050565b7f496e76616c696420706170657220494400000000000000000000000000000000600082015250565b60006132aa601083612722565b91506132b582613274565b602082019050919050565b600060208201905081810360008301526132d98161329d565b9050919050565b7f5061706572206e6f74207363686564756c656400000000000000000000000000600082015250565b6000613316601383612722565b9150613321826132e0565b602082019050919050565b6000602082019050818103600083015261334581613309565b9050919050565b7f546f6f206561726c7920746f20756e6c6f636b00000000000000000000000000600082015250565b6000613382601383612722565b915061338d8261334c565b602082019050919050565b600060208201905081810360008301526133b181613375565b9050919050565b7f4e487b7100000000000000000000000000000000000000000000000000000000600052603260045260246000fd5b7f4e487b7100000000000000000000000000000000000000000000000000000000600052601160045260246000fd5b60006134218261217c565b91507fffffffffffffffffffffffffffffffffffffffffffffffffffffffffffffffff8203613453576134526133e7565b5b600182019050919050565b7f4578616d206e616d652072657175697265640000000000000000000000000000600082015250565b6000613494601283612722565b915061349f8261345e565b602082019050919050565b600060208201905081810360008301526134c381613487565b9050919050565b7f417574686f72697479206e6f7420726567697374657265642079657400000000600082015250565b6000613500601c83612722565b915061350b826134ca565b602082019050919050565b6000602082019050818103600083015261352f816134f3565b9050919050565b7f43656e746572732f436c617373726f6f6d73206d69736d617463680000000000600082015250565b600061356c601b83612722565b915061357782613536565b602082019050919050565b6000602082019050818103600083015261359b8161355f565b9050919050565b7f43656e746572732f4b657973206d69736d617463680000000000000000000000600082015250565b60006135d8601583612722565b91506135e3826135a2565b602082019050919050565b60006020820190508181036000830152613607816135cb565b9050919050565b7f556e6c6f636b2074696d65206d75737420626520696e20667574757265000000600082015250565b6000613644601d83612722565b915061364f8261360e565b602082019050919050565b6000602082019050818103600083015261367381613637565b9050919050565b7f506170657220616c7265616479207363686564756c6564000000000000000000600082015250565b60006136b0601783612722565b91506136bb8261367a565b602082019050919050565b600060208201905081810360008301526136df816136a3565b905091905056fea264697066735822122040752d47fcd58579b566b9345048d0282ed481ecfdf57585b2e407511448ec7864736f6c63430008140033","opcodes":"PUSH1 0x80 PUSH1 0x40 MSTORE CALLVALUE DUP1 ISZERO PUSH2 0x10 JUMPI PUSH1 0x0 DUP1 REVERT JUMPDEST POP PUSH2 0x371C DUP1 PUSH2 0x20 PUSH1 0x0 CODECOPY PUSH1 0x0 RETURN INVALID PUSH1 0x80 PUSH1 0x40 MSTORE CALLVALUE DUP1 ISZERO PUSH2 0x10 JUMPI PUSH1 0x0 DUP1 REVERT JUMPDEST POP PUSH1 0x4 CALLDATASIZE LT PUSH2 0x10A JUMPI PUSH1 0x0 CALLDATALOAD PUSH1 0xE0 SHR DUP1 PUSH4 0x984F6EAE GT PUSH2 0xA2 JUMPI DUP1 PUSH4 0xB5438F6D GT PUSH2 0x71 JUMPI DUP1 PUSH4 0xB5438F6D EQ PUSH2 0x2E8 JUMPI DUP1 PUSH4 0xB724AF40 EQ PUSH2 0x318 JUMPI DUP1 PUSH4 0xBA8D1AC9 EQ PUSH2 0x348 JUMPI DUP1 PUSH4 0xBC7CF6DD EQ PUSH2 0x378 JUMPI DUP1 PUSH4 0xC633F568 EQ PUSH2 0x3A8 JUMPI PUSH2 0x10A JUMP JUMPDEST DUP1 PUSH4 0x984F6EAE EQ PUSH2 0x24E JUMPI DUP1 PUSH4 0x9A0DD666 EQ PUSH2 0x27E JUMPI DUP1 PUSH4 0xA37B7522 EQ PUSH2 0x2AE JUMPI DUP1 PUSH4 0xA56C2CB9 EQ PUSH2 0x2CA JUMPI PUSH2 0x10A JUMP JUMPDEST DUP1 PUSH4 0x3B0AE1FD GT PUSH2 0xDE JUMPI DUP1 PUSH4 0x3B0AE1FD EQ PUSH2 0x195 JUMPI DUP1 PUSH4 0x4CDF8093 EQ PUSH2 0x1C5 JUMPI DUP1 PUSH4 0x554A14AC EQ PUSH2 0x1E4 JUMPI DUP1 PUSH4 0x5E775A27 EQ PUSH2 0x216 JUMPI PUSH2 0x10A JUMP JUMPDEST DUP1 PUSH3 0xC172A2 EQ PUSH2 0x10F JUMPI DUP1 PUSH4 0x7993F04 EQ PUSH2 0x12B JUMPI DUP1 PUSH4 0x1DCD14FE EQ PUSH2 0x15B JUMPI DUP1 PUSH4 0x2460CF76 EQ PUSH2 0x179 JUMPI JUMPDEST PUSH1 0x0 DUP1 REVERT JUMPDEST PUSH2 0x129 PUSH1 0x4 DUP1 CALLDATASIZE SUB DUP2 ADD SWAP1 PUSH2 0x124 SWAP2 SWAP1 PUSH2 0x2104 JUMP JUMPDEST PUSH2 0x3C4 JUMP JUMPDEST STOP JUMPDEST PUSH2 0x145 PUSH1 0x4 DUP1 CALLDATASIZE SUB DUP2 ADD SWAP1 PUSH2 0x140 SWAP2 SWAP1 PUSH2 0x21B2 JUMP JUMPDEST PUSH2 0x602 JUMP JUMPDEST PUSH1 0x40 MLOAD PUSH2 0x152 SWAP2 SWAP1 PUSH2 0x24CF JUMP JUMPDEST PUSH1 0x40 MLOAD DUP1 SWAP2 SUB SWAP1 RETURN JUMPDEST PUSH2 0x163 PUSH2 0xA07 JUMP JUMPDEST PUSH1 0x40 MLOAD PUSH2 0x170 SWAP2 SWAP1 PUSH2 0x253B JUMP JUMPDEST PUSH1 0x40 MLOAD DUP1 SWAP2 SUB SWAP1 RETURN JUMPDEST PUSH2 0x193 PUSH1 0x4 DUP1 CALLDATASIZE SUB DUP2 ADD SWAP1 PUSH2 0x18E SWAP2 SWAP1 PUSH2 0x21B2 JUMP JUMPDEST PUSH2 0xA95 JUMP JUMPDEST STOP JUMPDEST PUSH2 0x1AF PUSH1 0x4 DUP1 CALLDATASIZE SUB DUP2 ADD SWAP1 PUSH2 0x1AA SWAP2 SWAP1 PUSH2 0x2589 JUMP JUMPDEST PUSH2 0xBEF JUMP JUMPDEST PUSH1 0x40 MLOAD PUSH2 0x1BC SWAP2 SWAP1 PUSH2 0x253B JUMP JUMPDEST PUSH1 0x40 MLOAD DUP1 SWAP2 SUB SWAP1 RETURN JUMPDEST PUSH2 0x1CD PUSH2 0xCC3 JUMP JUMPDEST PUSH1 0x40 MLOAD PUSH2 0x1DB SWAP3 SWAP2 SWAP1 PUSH2 0x26EB JUMP JUMPDEST PUSH1 0x40 MLOAD DUP1 SWAP2 SUB SWAP1 RETURN JUMPDEST PUSH2 0x1FE PUSH1 0x4 DUP1 CALLDATASIZE SUB DUP2 ADD SWAP1 PUSH2 0x1F9 SWAP2 SWAP1 PUSH2 0x2589 JUMP JUMPDEST PUSH2 0xF52 JUMP JUMPDEST PUSH1 0x40 MLOAD PUSH2 0x20D SWAP4 SWAP3 SWAP2 SWAP1 PUSH2 0x277B JUMP JUMPDEST PUSH1 0x40 MLOAD DUP1 SWAP2 SUB SWAP1 RETURN JUMPDEST PUSH2 0x230 PUSH1 0x4 DUP1 CALLDATASIZE SUB DUP2 ADD SWAP1 PUSH2 0x22B SWAP2 SWAP1 PUSH2 0x21B2 JUMP JUMPDEST PUSH2 0x1099 JUMP JUMPDEST PUSH1 0x40 MLOAD PUSH2 0x245 SWAP10 SWAP9 SWAP8 SWAP7 SWAP6 SWAP5 SWAP4 SWAP3 SWAP2 SWAP1 PUSH2 0x27DE JUMP JUMPDEST PUSH1 0x40 MLOAD DUP1 SWAP2 SUB SWAP1 RETURN JUMPDEST PUSH2 0x268 PUSH1 0x4 DUP1 CALLDATASIZE SUB DUP2 ADD SWAP1 PUSH2 0x263 SWAP2 SWAP1 PUSH2 0x21B2 JUMP JUMPDEST PUSH2 0x12D9 JUMP JUMPDEST PUSH1 0x40 MLOAD PUSH2 0x275 SWAP2 SWAP1 PUSH2 0x253B JUMP JUMPDEST PUSH1 0x40 MLOAD DUP1 SWAP2 SUB SWAP1 RETURN JUMPDEST PUSH2 0x298 PUSH1 0x4 DUP1 CALLDATASIZE SUB DUP2 ADD SWAP1 PUSH2 0x293 SWAP2 SWAP1 PUSH2 0x21B2 JUMP JUMPDEST PUSH2 0x140E JUMP JUMPDEST PUSH1 0x40 MLOAD PUSH2 0x2A5 SWAP2 SWAP1 PUSH2 0x2880 JUMP JUMPDEST PUSH1 0x40 MLOAD DUP1 SWAP2 SUB SWAP1 RETURN JUMPDEST PUSH2 0x2C8 PUSH1 0x4 DUP1 CALLDATASIZE SUB DUP2 ADD SWAP1 PUSH2 0x2C3 SWAP2 SWAP1 PUSH2 0x289B JUMP JUMPDEST PUSH2 0x144D JUMP JUMPDEST STOP JUMPDEST PUSH2 0x2D2 PUSH2 0x14AE JUMP JUMPDEST PUSH1 0x40 MLOAD PUSH2 0x2DF SWAP2 SWAP1 PUSH2 0x28E4 JUMP JUMPDEST PUSH1 0x40 MLOAD DUP1 SWAP2 SUB SWAP1 RETURN JUMPDEST PUSH2 0x302 PUSH1 0x4 DUP1 CALLDATASIZE SUB DUP2 ADD SWAP1 PUSH2 0x2FD SWAP2 SWAP1 PUSH2 0x21B2 JUMP JUMPDEST PUSH2 0x14B4 JUMP JUMPDEST PUSH1 0x40 MLOAD PUSH2 0x30F SWAP2 SWAP1 PUSH2 0x28FF JUMP JUMPDEST PUSH1 0x40 MLOAD DUP1 SWAP2 SUB SWAP1 RETURN JUMPDEST PUSH2 0x332 PUSH1 0x4 DUP1 CALLDATASIZE SUB DUP2 ADD SWAP1 PUSH2 0x32D SWAP2 SWAP1 PUSH2 0x2A07 JUMP JUMPDEST PUSH2 0x15E9 JUMP JUMPDEST PUSH1 0x40 MLOAD PUSH2 0x33F SWAP2 SWAP1 PUSH2 0x28E4 JUMP JUMPDEST PUSH1 0x40 MLOAD DUP1 SWAP2 SUB SWAP1 RETURN JUMPDEST PUSH2 0x362 PUSH1 0x4 DUP1 CALLDATASIZE SUB DUP2 ADD SWAP1 PUSH2 0x35D SWAP2 SWAP1 PUSH2 0x2ADE JUMP JUMPDEST PUSH2 0x18C9 JUMP JUMPDEST PUSH1 0x40 MLOAD PUSH2 0x36F SWAP2 SWAP1 PUSH2 0x253B JUMP JUMPDEST PUSH1 0x40 MLOAD DUP1 SWAP2 SUB SWAP1 RETURN JUMPDEST PUSH2 0x392 PUSH1 0x4 DUP1 CALLDATASIZE SUB DUP2 ADD SWAP1 PUSH2 0x38D SWAP2 SWAP1 PUSH2 0x2ADE JUMP JUMPDEST PUSH2 0x1976 JUMP JUMPDEST PUSH1 0x40 MLOAD PUSH2 0x39F SWAP2 SWAP1 PUSH2 0x28FF JUMP JUMPDEST PUSH1 0x40 MLOAD DUP1 SWAP2 SUB SWAP1 RETURN JUMPDEST PUSH2 0x3C2 PUSH1 0x4 DUP1 CALLDATASIZE SUB DUP2 ADD SWAP1 PUSH2 0x3BD SWAP2 SWAP1 PUSH2 0x2CC2 JUMP JUMPDEST PUSH2 0x1A23 JUMP JUMPDEST STOP JUMPDEST PUSH1 0x0 DUP3 MLOAD GT PUSH2 0x408 JUMPI PUSH1 0x40 MLOAD PUSH32 0x8C379A000000000000000000000000000000000000000000000000000000000 DUP2 MSTORE PUSH1 0x4 ADD PUSH2 0x3FF SWAP1 PUSH2 0x2DDD JUMP JUMPDEST PUSH1 0x40 MLOAD DUP1 SWAP2 SUB SWAP1 REVERT JUMPDEST PUSH1 0x0 DUP2 MLOAD GT PUSH2 0x44C JUMPI PUSH1 0x40 MLOAD PUSH32 0x8C379A000000000000000000000000000000000000000000000000000000000 DUP2 MSTORE PUSH1 0x4 ADD PUSH2 0x443 SWAP1 PUSH2 0x2E49 JUMP JUMPDEST PUSH1 0x40 MLOAD DUP1 SWAP2 SUB SWAP1 REVERT JUMPDEST PUSH1 0x2 PUSH1 0x0 CALLER PUSH20 0xFFFFFFFFFFFFFFFFFFFFFFFFFFFFFFFFFFFFFFFF AND PUSH20 0xFFFFFFFFFFFFFFFFFFFFFFFFFFFFFFFFFFFFFFFF AND DUP2 MSTORE PUSH1 0x20 ADD SWAP1 DUP2 MSTORE PUSH1 0x20 ADD PUSH1 0x0 KECCAK256 PUSH1 0x2 ADD PUSH1 0x0 SWAP1 SLOAD SWAP1 PUSH2 0x100 EXP SWAP1 DIV PUSH1 0xFF AND PUSH2 0x504 JUMPI PUSH1 0x3 CALLER SWAP1 DUP1 PUSH1 0x1 DUP2 SLOAD ADD DUP1 DUP3 SSTORE DUP1 SWAP2 POP POP PUSH1 0x1 SWAP1 SUB SWAP1 PUSH1 0x0 MSTORE PUSH1 0x20 PUSH1 0x0 KECCAK256 ADD PUSH1 0x0 SWAP1 SWAP2 SWAP1 SWAP2 SWAP1 SWAP2 PUSH2 0x100 EXP DUP2 SLOAD DUP2 PUSH20 0xFFFFFFFFFFFFFFFFFFFFFFFFFFFFFFFFFFFFFFFF MUL NOT AND SWAP1 DUP4 PUSH20 0xFFFFFFFFFFFFFFFFFFFFFFFFFFFFFFFFFFFFFFFF AND MUL OR SWAP1 SSTORE POP JUMPDEST PUSH1 0x40 MLOAD DUP1 PUSH1 0x60 ADD PUSH1 0x40 MSTORE DUP1 DUP4 DUP2 MSTORE PUSH1 0x20 ADD DUP3 DUP2 MSTORE PUSH1 0x20 ADD PUSH1 0x1 ISZERO ISZERO DUP2 MSTORE POP PUSH1 0x2 PUSH1 0x0 CALLER PUSH20 0xFFFFFFFFFFFFFFFFFFFFFFFFFFFFFFFFFFFFFFFF AND PUSH20 0xFFFFFFFFFFFFFFFFFFFFFFFFFFFFFFFFFFFFFFFF AND DUP2 MSTORE PUSH1 0x20 ADD SWAP1 DUP2 MSTORE PUSH1 0x20 ADD PUSH1 0x0 KECCAK256 PUSH1 0x0 DUP3 ADD MLOAD DUP2 PUSH1 0x0 ADD SWAP1 DUP2 PUSH2 0x576 SWAP2 SWAP1 PUSH2 0x3075 JUMP JUMPDEST POP PUSH1 0x20 DUP3 ADD MLOAD DUP2 PUSH1 0x1 ADD SWAP1 DUP2 PUSH2 0x58C SWAP2 SWAP1 PUSH2 0x31A2 JUMP JUMPDEST POP PUSH1 0x40 DUP3 ADD MLOAD DUP2 PUSH1 0x2 ADD PUSH1 0x0 PUSH2 0x100 EXP DUP2 SLOAD DUP2 PUSH1 0xFF MUL NOT AND SWAP1 DUP4 ISZERO ISZERO MUL OR SWAP1 SSTORE POP SWAP1 POP POP CALLER PUSH20 0xFFFFFFFFFFFFFFFFFFFFFFFFFFFFFFFFFFFFFFFF AND PUSH32 0x1FFB27EB65CBBC9DFAA75D97C82C72D0F599317651D968E7E4EA93553E154C92 DUP4 PUSH1 0x40 MLOAD PUSH2 0x5F6 SWAP2 SWAP1 PUSH2 0x28FF JUMP JUMPDEST PUSH1 0x40 MLOAD DUP1 SWAP2 SUB SWAP1 LOG2 POP POP JUMP JUMPDEST PUSH2 0x60A PUSH2 0x1DAC JUMP JUMPDEST DUP2 PUSH1 0x0 DUP2 GT DUP1 ISZERO PUSH2 0x61D JUMPI POP PUSH1 0x1 SLOAD DUP2 GT ISZERO JUMPDEST PUSH2 0x65C JUMPI PUSH1 0x40 MLOAD PUSH32 0x8C379A000000000000000000000000000000000000000000000000000000000 DUP2 MSTORE PUSH1 0x4 ADD PUSH2 0x653 SWAP1 PUSH2 0x32C0 JUMP JUMPDEST PUSH1 0x40 MLOAD DUP1 SWAP2 SUB SWAP1 REVERT JUMPDEST PUSH1 0x0 DUP1 DUP5 DUP2 MSTORE PUSH1 0x20 ADD SWAP1 DUP2 MSTORE PUSH1 0x20 ADD PUSH1 0x0 KECCAK256 PUSH1 0x40 MLOAD DUP1 PUSH2 0x140 ADD PUSH1 0x40 MSTORE SWAP1 DUP2 PUSH1 0x0 DUP3 ADD DUP1 SLOAD PUSH2 0x68A SWAP1 PUSH2 0x2E98 JUMP JUMPDEST DUP1 PUSH1 0x1F ADD PUSH1 0x20 DUP1 SWAP2 DIV MUL PUSH1 0x20 ADD PUSH1 0x40 MLOAD SWAP1 DUP2 ADD PUSH1 0x40 MSTORE DUP1 SWAP3 SWAP2 SWAP1 DUP2 DUP2 MSTORE PUSH1 0x20 ADD DUP3 DUP1 SLOAD PUSH2 0x6B6 SWAP1 PUSH2 0x2E98 JUMP JUMPDEST DUP1 ISZERO PUSH2 0x703 JUMPI DUP1 PUSH1 0x1F LT PUSH2 0x6D8 JUMPI PUSH2 0x100 DUP1 DUP4 SLOAD DIV MUL DUP4 MSTORE SWAP2 PUSH1 0x20 ADD SWAP2 PUSH2 0x703 JUMP JUMPDEST DUP3 ADD SWAP2 SWAP1 PUSH1 0x0 MSTORE PUSH1 0x20 PUSH1 0x0 KECCAK256 SWAP1 JUMPDEST DUP2 SLOAD DUP2 MSTORE SWAP1 PUSH1 0x1 ADD SWAP1 PUSH1 0x20 ADD DUP1 DUP4 GT PUSH2 0x6E6 JUMPI DUP3 SWAP1 SUB PUSH1 0x1F AND DUP3 ADD SWAP2 JUMPDEST POP POP POP POP POP DUP2 MSTORE PUSH1 0x20 ADD PUSH1 0x1 DUP3 ADD DUP1 SLOAD PUSH2 0x71C SWAP1 PUSH2 0x2E98 JUMP JUMPDEST DUP1 PUSH1 0x1F ADD PUSH1 0x20 DUP1 SWAP2 DIV MUL PUSH1 0x20 ADD PUSH1 0x40 MLOAD SWAP1 DUP2 ADD PUSH1 0x40 MSTORE DUP1 SWAP3 SWAP2 SWAP1 DUP2 DUP2 MSTORE PUSH1 0x20 ADD DUP3 DUP1 SLOAD PUSH2 0x748 SWAP1 PUSH2 0x2E98 JUMP JUMPDEST DUP1 ISZERO PUSH2 0x795 JUMPI DUP1 PUSH1 0x1F LT PUSH2 0x76A JUMPI PUSH2 0x100 DUP1 DUP4 SLOAD DIV MUL DUP4 MSTORE SWAP2 PUSH1 0x20 ADD SWAP2 PUSH2 0x795 JUMP JUMPDEST DUP3 ADD SWAP2 SWAP1 PUSH1 0x0 MSTORE PUSH1 0x20 PUSH1 0x0 KECCAK256 SWAP1 JUMPDEST DUP2 SLOAD DUP2 MSTORE SWAP1 PUSH1 0x1 ADD SWAP1 PUSH1 0x20 ADD DUP1 DUP4 GT PUSH2 0x778 JUMPI DUP3 SWAP1 SUB PUSH1 0x1F AND DUP3 ADD SWAP2 JUMPDEST POP POP POP POP POP DUP2 MSTORE PUSH1 0x20 ADD PUSH1 0x2 DUP3 ADD PUSH1 0x0 SWAP1 SLOAD SWAP1 PUSH2 0x100 EXP SWAP1 DIV PUSH20 0xFFFFFFFFFFFFFFFFFFFFFFFFFFFFFFFFFFFFFFFF AND PUSH20 0xFFFFFFFFFFFFFFFFFFFFFFFFFFFFFFFFFFFFFFFF AND PUSH20 0xFFFFFFFFFFFFFFFFFFFFFFFFFFFFFFFFFFFFFFFF AND DUP2 MSTORE PUSH1 0x20 ADD PUSH1 0x3 DUP3 ADD DUP1 SLOAD DUP1 PUSH1 0x20 MUL PUSH1 0x20 ADD PUSH1 0x40 MLOAD SWAP1 DUP2 ADD PUSH1 0x40 MSTORE DUP1 SWAP3 SWAP2 SWAP1 DUP2 DUP2 MSTORE PUSH1 0x20 ADD PUSH1 0x0 SWAP1 JUMPDEST DUP3 DUP3 LT ISZERO PUSH2 0x8C5 JUMPI DUP4 DUP3 SWAP1 PUSH1 0x0 MSTORE PUSH1 0x20 PUSH1 0x0 KECCAK256 ADD DUP1 SLOAD PUSH2 0x838 SWAP1 PUSH2 0x2E98 JUMP JUMPDEST DUP1 PUSH1 0x1F ADD PUSH1 0x20 DUP1 SWAP2 DIV MUL PUSH1 0x20 ADD PUSH1 0x40 MLOAD SWAP1 DUP2 ADD PUSH1 0x40 MSTORE DUP1 SWAP3 SWAP2 SWAP1 DUP2 DUP2 MSTORE PUSH1 0x20 ADD DUP3 DUP1 SLOAD PUSH2 0x864 SWAP1 PUSH2 0x2E98 JUMP JUMPDEST DUP1 ISZERO PUSH2 0x8B1 JUMPI DUP1 PUSH1 0x1F LT PUSH2 0x886 JUMPI PUSH2 0x100 DUP1 DUP4 SLOAD DIV MUL DUP4 MSTORE SWAP2 PUSH1 0x20 ADD SWAP2 PUSH2 0x8B1 JUMP JUMPDEST DUP3 ADD SWAP2 SWAP1 PUSH1 0x0 MSTORE PUSH1 0x20 PUSH1 0x0 KECCAK256 SWAP1 JUMPDEST DUP2 SLOAD DUP2 MSTORE SWAP1 PUSH1 0x1 ADD SWAP1 PUSH1 0x20 ADD DUP1 DUP4 GT PUSH2 0x894 JUMPI DUP3 SWAP1 SUB PUSH1 0x1F AND DUP3 ADD SWAP2 JUMPDEST POP POP POP POP POP DUP2 MSTORE PUSH1 0x20 ADD SWAP1 PUSH1 0x1 ADD SWAP1 PUSH2 0x819 JUMP JUMPDEST POP POP POP POP DUP2 MSTORE PUSH1 0x20 ADD PUSH1 0x4 DUP3 ADD SLOAD DUP2 MSTORE PUSH1 0x20 ADD PUSH1 0x5 DUP3 ADD SLOAD DUP2 MSTORE PUSH1 0x20 ADD PUSH1 0x6 DUP3 ADD PUSH1 0x0 SWAP1 SLOAD SWAP1 PUSH2 0x100 EXP SWAP1 DIV PUSH1 0xFF AND ISZERO ISZERO ISZERO ISZERO DUP2 MSTORE PUSH1 0x20 ADD PUSH1 0x6 DUP3 ADD PUSH1 0x1 SWAP1 SLOAD SWAP1 PUSH2 0x100 EXP SWAP1 DIV PUSH1 0xFF AND ISZERO ISZERO ISZERO ISZERO DUP2 MSTORE PUSH1 0x20 ADD PUSH1 0x6 DUP3 ADD PUSH1 0x2 SWAP1 SLOAD SWAP1 PUSH2 0x100 EXP SWAP1 DIV PUSH20 0xFFFFFFFFFFFFFFFFFFFFFFFFFFFFFFFFFFFFFFFF AND PUSH20 0xFFFFFFFFFFFFFFFFFFFFFFFFFFFFFFFFFFFFFFFF AND PUSH20 0xFFFFFFFFFFFFFFFFFFFFFFFFFFFFFFFFFFFFFFFF AND DUP2 MSTORE PUSH1 0x20 ADD PUSH1 0x7 DUP3 ADD DUP1 SLOAD PUSH2 0x97D SWAP1 PUSH2 0x2E98 JUMP JUMPDEST DUP1 PUSH1 0x1F ADD PUSH1 0x20 DUP1 SWAP2 DIV MUL PUSH1 0x20 ADD PUSH1 0x40 MLOAD SWAP1 DUP2 ADD PUSH1 0x40 MSTORE DUP1 SWAP3 SWAP2 SWAP1 DUP2 DUP2 MSTORE PUSH1 0x20 ADD DUP3 DUP1 SLOAD PUSH2 0x9A9 SWAP1 PUSH2 0x2E98 JUMP JUMPDEST DUP1 ISZERO PUSH2 0x9F6 JUMPI DUP1 PUSH1 0x1F LT PUSH2 0x9CB JUMPI PUSH2 0x100 DUP1 DUP4 SLOAD DIV MUL DUP4 MSTORE SWAP2 PUSH1 0x20 ADD SWAP2 PUSH2 0x9F6 JUMP JUMPDEST DUP3 ADD SWAP2 SWAP1 PUSH1 0x0 MSTORE PUSH1 0x20 PUSH1 0x0 KECCAK256 SWAP1 JUMPDEST DUP2 SLOAD DUP2 MSTORE SWAP1 PUSH1 0x1 ADD SWAP1 PUSH1 0x20 ADD DUP1 DUP4 GT PUSH2 0x9D9 JUMPI DUP3 SWAP1 SUB PUSH1 0x1F AND DUP3 ADD SWAP2 JUMPDEST POP POP POP POP POP DUP2 MSTORE POP POP SWAP2 POP POP SWAP2 SWAP1 POP JUMP JUMPDEST PUSH1 0x4 DUP1 SLOAD PUSH2 0xA14 SWAP1 PUSH2 0x2E98 JUMP JUMPDEST DUP1 PUSH1 0x1F ADD PUSH1 0x20 DUP1 SWAP2 DIV MUL PUSH1 0x20 ADD PUSH1 0x40 MLOAD SWAP1 DUP2 ADD PUSH1 0x40 MSTORE DUP1 SWAP3 SWAP2 SWAP1 DUP2 DUP2 MSTORE PUSH1 0x20 ADD DUP3 DUP1 SLOAD PUSH2 0xA40 SWAP1 PUSH2 0x2E98 JUMP JUMPDEST DUP1 ISZERO PUSH2 0xA8D JUMPI DUP1 PUSH1 0x1F LT PUSH2 0xA62 JUMPI PUSH2 0x100 DUP1 DUP4 SLOAD DIV MUL DUP4 MSTORE SWAP2 PUSH1 0x20 ADD SWAP2 PUSH2 0xA8D JUMP JUMPDEST DUP3 ADD SWAP2 SWAP1 PUSH1 0x0 MSTORE PUSH1 0x20 PUSH1 0x0 KECCAK256 SWAP1 JUMPDEST DUP2 SLOAD DUP2 MSTORE SWAP1 PUSH1 0x1 ADD SWAP1 PUSH1 0x20 ADD DUP1 DUP4 GT PUSH2 0xA70 JUMPI DUP3 SWAP1 SUB PUSH1 0x1F AND DUP3 ADD SWAP2 JUMPDEST POP POP POP POP POP DUP2 JUMP JUMPDEST DUP1 PUSH1 0x0 DUP2 GT DUP1 ISZERO PUSH2 0xAA8 JUMPI POP PUSH1 0x1 SLOAD DUP2 GT ISZERO JUMPDEST PUSH2 0xAE7 JUMPI PUSH1 0x40 MLOAD PUSH32 0x8C379A000000000000000000000000000000000000000000000000000000000 DUP2 MSTORE PUSH1 0x4 ADD PUSH2 0xADE SWAP1 PUSH2 0x32C0 JUMP JUMPDEST PUSH1 0x40 MLOAD DUP1 SWAP2 SUB SWAP1 REVERT JUMPDEST PUSH1 0x0 DUP1 PUSH1 0x0 DUP5 DUP2 MSTORE PUSH1 0x20 ADD SWAP1 DUP2 MSTORE PUSH1 0x20 ADD PUSH1 0x0 KECCAK256 SWAP1 POP DUP1 PUSH1 0x6 ADD PUSH1 0x0 SWAP1 SLOAD SWAP1 PUSH2 0x100 EXP SWAP1 DIV PUSH1 0xFF AND PUSH2 0xB4E JUMPI PUSH1 0x40 MLOAD PUSH32 0x8C379A000000000000000000000000000000000000000000000000000000000 DUP2 MSTORE PUSH1 0x4 ADD PUSH2 0xB45 SWAP1 PUSH2 0x332C JUMP JUMPDEST PUSH1 0x40 MLOAD DUP1 SWAP2 SUB SWAP1 REVERT JUMPDEST DUP1 PUSH1 0x5 ADD SLOAD TIMESTAMP LT ISZERO PUSH2 0xB95 JUMPI PUSH1 0x40 MLOAD PUSH32 0x8C379A000000000000000000000000000000000000000000000000000000000 DUP2 MSTORE PUSH1 0x4 ADD PUSH2 0xB8C SWAP1 PUSH2 0x3398 JUMP JUMPDEST PUSH1 0x40 MLOAD DUP1 SWAP2 SUB SWAP1 REVERT JUMPDEST PUSH1 0x1 DUP2 PUSH1 0x6 ADD PUSH1 0x1 PUSH2 0x100 EXP DUP2 SLOAD DUP2 PUSH1 0xFF MUL NOT AND SWAP1 DUP4 ISZERO ISZERO MUL OR SWAP1 SSTORE POP DUP3 PUSH32 0x79F7DE7AC9A8923C7CCC915FB4C5041920583F938A5406435331E490E06E0CF3 TIMESTAMP PUSH1 0x40 MLOAD PUSH2 0xBE2 SWAP2 SWAP1 PUSH2 0x28E4 JUMP JUMPDEST PUSH1 0x40 MLOAD DUP1 SWAP2 SUB SWAP1 LOG2 POP POP POP JUMP JUMPDEST PUSH1 0x60 PUSH1 0x2 PUSH1 0x0 DUP4 PUSH20 0xFFFFFFFFFFFFFFFFFFFFFFFFFFFFFFFFFFFFFFFF AND PUSH20 0xFFFFFFFFFFFFFFFFFFFFFFFFFFFFFFFFFFFFFFFF AND DUP2 MSTORE PUSH1 0x20 ADD SWAP1 DUP2 MSTORE PUSH1 0x20 ADD PUSH1 0x0 KECCAK256 PUSH1 0x1 ADD DUP1 SLOAD PUSH2 0xC3E SWAP1 PUSH2 0x2E98 JUMP JUMPDEST DUP1 PUSH1 0x1F ADD PUSH1 0x20 DUP1 SWAP2 DIV MUL PUSH1 0x20 ADD PUSH1 0x40 MLOAD SWAP1 DUP2 ADD PUSH1 0x40 MSTORE DUP1 SWAP3 SWAP2 SWAP1 DUP2 DUP2 MSTORE PUSH1 0x20 ADD DUP3 DUP1 SLOAD PUSH2 0xC6A SWAP1 PUSH2 0x2E98 JUMP JUMPDEST DUP1 ISZERO PUSH2 0xCB7 JUMPI DUP1 PUSH1 0x1F LT PUSH2 0xC8C JUMPI PUSH2 0x100 DUP1 DUP4 SLOAD DIV MUL DUP4 MSTORE SWAP2 PUSH1 0x20 ADD SWAP2 PUSH2 0xCB7 JUMP JUMPDEST DUP3 ADD SWAP2 SWAP1 PUSH1 0x0 MSTORE PUSH1 0x20 PUSH1 0x0 KECCAK256 SWAP1 JUMPDEST DUP2 SLOAD DUP2 MSTORE SWAP1 PUSH1 0x1 ADD SWAP1 PUSH1 0x20 ADD DUP1 DUP4 GT PUSH2 0xC9A JUMPI DUP3 SWAP1 SUB PUSH1 0x1F AND DUP3 ADD SWAP2 JUMPDEST POP POP POP POP POP SWAP1 POP SWAP2 SWAP1 POP JUMP JUMPDEST PUSH1 0x60 DUP1 PUSH1 0x0 PUSH1 0x3 DUP1 SLOAD SWAP1 POP PUSH8 0xFFFFFFFFFFFFFFFF DUP2 GT ISZERO PUSH2 0xCE7 JUMPI PUSH2 0xCE6 PUSH2 0x1F38 JUMP JUMPDEST JUMPDEST PUSH1 0x40 MLOAD SWAP1 DUP1 DUP3 MSTORE DUP1 PUSH1 0x20 MUL PUSH1 0x20 ADD DUP3 ADD PUSH1 0x40 MSTORE DUP1 ISZERO PUSH2 0xD15 JUMPI DUP2 PUSH1 0x20 ADD PUSH1 0x20 DUP3 MUL DUP1 CALLDATASIZE DUP4 CALLDATACOPY DUP1 DUP3 ADD SWAP2 POP POP SWAP1 POP JUMPDEST POP SWAP1 POP PUSH1 0x0 PUSH1 0x3 DUP1 SLOAD SWAP1 POP PUSH8 0xFFFFFFFFFFFFFFFF DUP2 GT ISZERO PUSH2 0xD39 JUMPI PUSH2 0xD38 PUSH2 0x1F38 JUMP JUMPDEST JUMPDEST PUSH1 0x40 MLOAD SWAP1 DUP1 DUP3 MSTORE DUP1 PUSH1 0x20 MUL PUSH1 0x20 ADD DUP3 ADD PUSH1 0x40 MSTORE DUP1 ISZERO PUSH2 0xD6C JUMPI DUP2 PUSH1 0x20 ADD JUMPDEST PUSH1 0x60 DUP2 MSTORE PUSH1 0x20 ADD SWAP1 PUSH1 0x1 SWAP1 SUB SWAP1 DUP2 PUSH2 0xD57 JUMPI SWAP1 POP JUMPDEST POP SWAP1 POP PUSH1 0x0 JUMPDEST PUSH1 0x3 DUP1 SLOAD SWAP1 POP DUP2 LT ISZERO PUSH2 0xF45 JUMPI PUSH1 0x3 DUP2 DUP2 SLOAD DUP2 LT PUSH2 0xD93 JUMPI PUSH2 0xD92 PUSH2 0x33B8 JUMP JUMPDEST JUMPDEST SWAP1 PUSH1 0x0 MSTORE PUSH1 0x20 PUSH1 0x0 KECCAK256 ADD PUSH1 0x0 SWAP1 SLOAD SWAP1 PUSH2 0x100 EXP SWAP1 DIV PUSH20 0xFFFFFFFFFFFFFFFFFFFFFFFFFFFFFFFFFFFFFFFF AND DUP4 DUP3 DUP2 MLOAD DUP2 LT PUSH2 0xDD1 JUMPI PUSH2 0xDD0 PUSH2 0x33B8 JUMP JUMPDEST JUMPDEST PUSH1 0x20 MUL PUSH1 0x20 ADD ADD SWAP1 PUSH20 0xFFFFFFFFFFFFFFFFFFFFFFFFFFFFFFFFFFFFFFFF AND SWAP1 DUP2 PUSH20 0xFFFFFFFFFFFFFFFFFFFFFFFFFFFFFFFFFFFFFFFF AND DUP2 MSTORE POP POP PUSH1 0x2 PUSH1 0x0 PUSH1 0x3 DUP4 DUP2 SLOAD DUP2 LT PUSH2 0xE23 JUMPI PUSH2 0xE22 PUSH2 0x33B8 JUMP JUMPDEST JUMPDEST SWAP1 PUSH1 0x0 MSTORE PUSH1 0x20 PUSH1 0x0 KECCAK256 ADD PUSH1 0x0 SWAP1 SLOAD SWAP1 PUSH2 0x100 EXP SWAP1 DIV PUSH20 0xFFFFFFFFFFFFFFFFFFFFFFFFFFFFFFFFFFFFFFFF AND PUSH20 0xFFFFFFFFFFFFFFFFFFFFFFFFFFFFFFFFFFFFFFFF AND PUSH20 0xFFFFFFFFFFFFFFFFFFFFFFFFFFFFFFFFFFFFFFFF AND DUP2 MSTORE PUSH1 0x20 ADD SWAP1 DUP2 MSTORE PUSH1 0x20 ADD PUSH1 0x0 KECCAK256 PUSH1 0x0 ADD DUP1 SLOAD PUSH2 0xE96 SWAP1 PUSH2 0x2E98 JUMP JUMPDEST DUP1 PUSH1 0x1F ADD PUSH1 0x20 DUP1 SWAP2 DIV MUL PUSH1 0x20 ADD PUSH1 0x40 MLOAD SWAP1 DUP2 ADD PUSH1 0x40 MSTORE DUP1 SWAP3 SWAP2 SWAP1 DUP2 DUP2 MSTORE PUSH1 0x20 ADD DUP3 DUP1 SLOAD PUSH2 0xEC2 SWAP1 PUSH2 0x2E98 JUMP JUMPDEST DUP1 ISZERO PUSH2 0xF0F JUMPI DUP1 PUSH1 0x1F LT PUSH2 0xEE4 JUMPI PUSH2 0x100 DUP1 DUP4 SLOAD DIV MUL DUP4 MSTORE SWAP2 PUSH1 0x20 ADD SWAP2 PUSH2 0xF0F JUMP JUMPDEST DUP3 ADD SWAP2 SWAP1 PUSH1 0x0 MSTORE PUSH1 0x20 PUSH1 0x0 KECCAK256 SWAP1 JUMPDEST DUP2 SLOAD DUP2 MSTORE SWAP1 PUSH1 0x1 ADD SWAP1 PUSH1 0x20 ADD DUP1 DUP4 GT PUSH2 0xEF2 JUMPI DUP3 SWAP1 SUB PUSH1 0x1F AND DUP3 ADD SWAP2 JUMPDEST POP POP POP POP POP DUP3 DUP3 DUP2 MLOAD DUP2 LT PUSH2 0xF27 JUMPI PUSH2 0xF26 PUSH2 0x33B8 JUMP JUMPDEST JUMPDEST PUSH1 0x20 MUL PUSH1 0x20 ADD ADD DUP2 SWAP1 MSTORE POP DUP1 DUP1 PUSH2 0xF3D SWAP1 PUSH2 0x3416 JUMP JUMPDEST SWAP2 POP POP PUSH2 0xD72 JUMP JUMPDEST POP DUP2 DUP2 SWAP4 POP SWAP4 POP POP POP SWAP1 SWAP2 JUMP JUMPDEST PUSH1 0x2 PUSH1 0x20 MSTORE DUP1 PUSH1 0x0 MSTORE PUSH1 0x40 PUSH1 0x0 KECCAK256 PUSH1 0x0 SWAP2 POP SWAP1 POP DUP1 PUSH1 0x0 ADD DUP1 SLOAD PUSH2 0xF75 SWAP1 PUSH2 0x2E98 JUMP JUMPDEST DUP1 PUSH1 0x1F ADD PUSH1 0x20 DUP1 SWAP2 DIV MUL PUSH1 0x20 ADD PUSH1 0x40 MLOAD SWAP1 DUP2 ADD PUSH1 0x40 MSTORE DUP1 SWAP3 SWAP2 SWAP1 DUP2 DUP2 MSTORE PUSH1 0x20 ADD DUP3 DUP1 SLOAD PUSH2 0xFA1 SWAP1 PUSH2 0x2E98 JUMP JUMPDEST DUP1 ISZERO PUSH2 0xFEE JUMPI DUP1 PUSH1 0x1F LT PUSH2 0xFC3 JUMPI PUSH2 0x100 DUP1 DUP4 SLOAD DIV MUL DUP4 MSTORE SWAP2 PUSH1 0x20 ADD SWAP2 PUSH2 0xFEE JUMP JUMPDEST DUP3 ADD SWAP2 SWAP1 PUSH1 0x0 MSTORE PUSH1 0x20 PUSH1 0x0 KECCAK256 SWAP1 JUMPDEST DUP2 SLOAD DUP2 MSTORE SWAP1 PUSH1 0x1 ADD SWAP1 PUSH1 0x20 ADD DUP1 DUP4 GT PUSH2 0xFD1 JUMPI DUP3 SWAP1 SUB PUSH1 0x1F AND DUP3 ADD SWAP2 JUMPDEST POP POP POP POP POP SWAP1 DUP1 PUSH1 0x1 ADD DUP1 SLOAD PUSH2 0x1003 SWAP1 PUSH2 0x2E98 JUMP JUMPDEST DUP1 PUSH1 0x1F ADD PUSH1 0x20 DUP1 SWAP2 DIV MUL PUSH1 0x20 ADD PUSH1 0x40 MLOAD SWAP1 DUP2 ADD PUSH1 0x40 MSTORE DUP1 SWAP3 SWAP2 SWAP1 DUP2 DUP2 MSTORE PUSH1 0x20 ADD DUP3 DUP1 SLOAD PUSH2 0x102F SWAP1 PUSH2 0x2E98 JUMP JUMPDEST DUP1 ISZERO PUSH2 0x107C JUMPI DUP1 PUSH1 0x1F LT PUSH2 0x1051 JUMPI PUSH2 0x100 DUP1 DUP4 SLOAD DIV MUL DUP4 MSTORE SWAP2 PUSH1 0x20 ADD SWAP2 PUSH2 0x107C JUMP JUMPDEST DUP3 ADD SWAP2 SWAP1 PUSH1 0x0 MSTORE PUSH1 0x20 PUSH1 0x0 KECCAK256 SWAP1 JUMPDEST DUP2 SLOAD DUP2 MSTORE SWAP1 PUSH1 0x1 ADD SWAP1 PUSH1 0x20 ADD DUP1 DUP4 GT PUSH2 0x105F JUMPI DUP3 SWAP1 SUB PUSH1 0x1F AND DUP3 ADD SWAP2 JUMPDEST POP POP POP POP POP SWAP1 DUP1 PUSH1 0x2 ADD PUSH1 0x0 SWAP1 SLOAD SWAP1 PUSH2 0x100 EXP SWAP1 DIV PUSH1 0xFF AND SWAP1 POP DUP4 JUMP JUMPDEST PUSH1 0x0 PUSH1 0x20 MSTORE DUP1 PUSH1 0x0 MSTORE PUSH1 0x40 PUSH1 0x0 KECCAK256 PUSH1 0x0 SWAP2 POP SWAP1 POP DUP1 PUSH1 0x0 ADD DUP1 SLOAD PUSH2 0x10BC SWAP1 PUSH2 0x2E98 JUMP JUMPDEST DUP1 PUSH1 0x1F ADD PUSH1 0x20 DUP1 SWAP2 DIV MUL PUSH1 0x20 ADD PUSH1 0x40 MLOAD SWAP1 DUP2 ADD PUSH1 0x40 MSTORE DUP1 SWAP3 SWAP2 SWAP1 DUP2 DUP2 MSTORE PUSH1 0x20 ADD DUP3 DUP1 SLOAD PUSH2 0x10E8 SWAP1 PUSH2 0x2E98 JUMP JUMPDEST DUP1 ISZERO PUSH2 0x1135 JUMPI DUP1 PUSH1 0x1F LT PUSH2 0x110A JUMPI PUSH2 0x100 DUP1 DUP4 SLOAD DIV MUL DUP4 MSTORE SWAP2 PUSH1 0x20 ADD SWAP2 PUSH2 0x1135 JUMP JUMPDEST DUP3 ADD SWAP2 SWAP1 PUSH1 0x0 MSTORE PUSH1 0x20 PUSH1 0x0 KECCAK256 SWAP1 JUMPDEST DUP2 SLOAD DUP2 MSTORE SWAP1 PUSH1 0x1 ADD SWAP1 PUSH1 0x20 ADD DUP1 DUP4 GT PUSH2 0x1118 JUMPI DUP3 SWAP1 SUB PUSH1 0x1F AND DUP3 ADD SWAP2 JUMPDEST POP POP POP POP POP SWAP1 DUP1 PUSH1 0x1 ADD DUP1 SLOAD PUSH2 0x114A SWAP1 PUSH2 0x2E98 JUMP JUMPDEST DUP1 PUSH1 0x1F ADD PUSH1 0x20 DUP1 SWAP2 DIV MUL PUSH1 0x20 ADD PUSH1 0x40 MLOAD SWAP1 DUP2 ADD PUSH1 0x40 MSTORE DUP1 SWAP3 SWAP2 SWAP1 DUP2 DUP2 MSTORE PUSH1 0x20 ADD DUP3 DUP1 SLOAD PUSH2 0x1176 SWAP1 PUSH2 0x2E98 JUMP JUMPDEST DUP1 ISZERO PUSH2 0x11C3 JUMPI DUP1 PUSH1 0x1F LT PUSH2 0x1198 JUMPI PUSH2 0x100 DUP1 DUP4 SLOAD DIV MUL DUP4 MSTORE SWAP2 PUSH1 0x20 ADD SWAP2 PUSH2 0x11C3 JUMP JUMPDEST DUP3 ADD SWAP2 SWAP1 PUSH1 0x0 MSTORE PUSH1 0x20 PUSH1 0x0 KECCAK256 SWAP1 JUMPDEST DUP2 SLOAD DUP2 MSTORE SWAP1 PUSH1 0x1 ADD SWAP1 PUSH1 0x20 ADD DUP1 DUP4 GT PUSH2 0x11A6 JUMPI DUP3 SWAP1 SUB PUSH1 0x1F AND DUP3 ADD SWAP2 JUMPDEST POP POP POP POP POP SWAP1 DUP1 PUSH1 0x2 ADD PUSH1 0x0 SWAP1 SLOAD SWAP1 PUSH2 0x100 EXP SWAP1 DIV PUSH20 0xFFFFFFFFFFFFFFFFFFFFFFFFFFFFFFFFFFFFFFFF AND SWAP1 DUP1 PUSH1 0x4 ADD SLOAD SWAP1 DUP1 PUSH1 0x5 ADD SLOAD SWAP1 DUP1 PUSH1 0x6 ADD PUSH1 0x0 SWAP1 SLOAD SWAP1 PUSH2 0x100 EXP SWAP1 DIV PUSH1 0xFF AND SWAP1 DUP1 PUSH1 0x6 ADD PUSH1 0x1 SWAP1 SLOAD SWAP1 PUSH2 0x100 EXP SWAP1 DIV PUSH1 0xFF AND SWAP1 DUP1 PUSH1 0x6 ADD PUSH1 0x2 SWAP1 SLOAD SWAP1 PUSH2 0x100 EXP SWAP1 DIV PUSH20 0xFFFFFFFFFFFFFFFFFFFFFFFFFFFFFFFFFFFFFFFF AND SWAP1 DUP1 PUSH1 0x7 ADD DUP1 SLOAD PUSH2 0x1256 SWAP1 PUSH2 0x2E98 JUMP JUMPDEST DUP1 PUSH1 0x1F ADD PUSH1 0x20 DUP1 SWAP2 DIV MUL PUSH1 0x20 ADD PUSH1 0x40 MLOAD SWAP1 DUP2 ADD PUSH1 0x40 MSTORE DUP1 SWAP3 SWAP2 SWAP1 DUP2 DUP2 MSTORE PUSH1 0x20 ADD DUP3 DUP1 SLOAD PUSH2 0x1282 SWAP1 PUSH2 0x2E98 JUMP JUMPDEST DUP1 ISZERO PUSH2 0x12CF JUMPI DUP1 PUSH1 0x1F LT PUSH2 0x12A4 JUMPI PUSH2 0x100 DUP1 DUP4 SLOAD DIV MUL DUP4 MSTORE SWAP2 PUSH1 0x20 ADD SWAP2 PUSH2 0x12CF JUMP JUMPDEST DUP3 ADD SWAP2 SWAP1 PUSH1 0x0 MSTORE PUSH1 0x20 PUSH1 0x0 KECCAK256 SWAP1 JUMPDEST DUP2 SLOAD DUP2 MSTORE SWAP1 PUSH1 0x1 ADD SWAP1 PUSH1 0x20 ADD DUP1 DUP4 GT PUSH2 0x12B2 JUMPI DUP3 SWAP1 SUB PUSH1 0x1F AND DUP3 ADD SWAP2 JUMPDEST POP POP POP POP POP SWAP1 POP DUP10 JUMP JUMPDEST PUSH1 0x60 DUP2 PUSH1 0x0 DUP2 GT DUP1 ISZERO PUSH2 0x12EE JUMPI POP PUSH1 0x1 SLOAD DUP2 GT ISZERO JUMPDEST PUSH2 0x132D JUMPI PUSH1 0x40 MLOAD PUSH32 0x8C379A000000000000000000000000000000000000000000000000000000000 DUP2 MSTORE PUSH1 0x4 ADD PUSH2 0x1324 SWAP1 PUSH2 0x32C0 JUMP JUMPDEST PUSH1 0x40 MLOAD DUP1 SWAP2 SUB SWAP1 REVERT JUMPDEST PUSH1 0x6 PUSH1 0x0 DUP5 DUP2 MSTORE PUSH1 0x20 ADD SWAP1 DUP2 MSTORE PUSH1 0x20 ADD PUSH1 0x0 KECCAK256 PUSH1 0x0 CALLER PUSH20 0xFFFFFFFFFFFFFFFFFFFFFFFFFFFFFFFFFFFFFFFF AND PUSH20 0xFFFFFFFFFFFFFFFFFFFFFFFFFFFFFFFFFFFFFFFF AND DUP2 MSTORE PUSH1 0x20 ADD SWAP1 DUP2 MSTORE PUSH1 0x20 ADD PUSH1 0x0 KECCAK256 DUP1 SLOAD PUSH2 0x1388 SWAP1 PUSH2 0x2E98 JUMP JUMPDEST DUP1 PUSH1 0x1F ADD PUSH1 0x20 DUP1 SWAP2 DIV MUL PUSH1 0x20 ADD PUSH1 0x40 MLOAD SWAP1 DUP2 ADD PUSH1 0x40 MSTORE DUP1 SWAP3 SWAP2 SWAP1 DUP2 DUP2 MSTORE PUSH1 0x20 ADD DUP3 DUP1 SLOAD PUSH2 0x13B4 SWAP1 PUSH2 0x2E98 JUMP JUMPDEST DUP1 ISZERO PUSH2 0x1401 JUMPI DUP1 PUSH1 0x1F LT PUSH2 0x13D6 JUMPI PUSH2 0x100 DUP1 DUP4 SLOAD DIV MUL DUP4 MSTORE SWAP2 PUSH1 0x20 ADD SWAP2 PUSH2 0x1401 JUMP JUMPDEST DUP3 ADD SWAP2 SWAP1 PUSH1 0x0 MSTORE PUSH1 0x20 PUSH1 0x0 KECCAK256 SWAP1 JUMPDEST DUP2 SLOAD DUP2 MSTORE SWAP1 PUSH1 0x1 ADD SWAP1 PUSH1 0x20 ADD DUP1 DUP4 GT PUSH2 0x13E4 JUMPI DUP3 SWAP1 SUB PUSH1 0x1F AND DUP3 ADD SWAP2 JUMPDEST POP POP POP POP POP SWAP2 POP POP SWAP2 SWAP1 POP JUMP JUMPDEST PUSH1 0x3 DUP2 DUP2 SLOAD DUP2 LT PUSH2 0x141E JUMPI PUSH1 0x0 DUP1 REVERT JUMPDEST SWAP1 PUSH1 0x0 MSTORE PUSH1 0x20 PUSH1 0x0 KECCAK256 ADD PUSH1 0x0 SWAP2 POP SLOAD SWAP1 PUSH2 0x100 EXP SWAP1 DIV PUSH20 0xFFFFFFFFFFFFFFFFFFFFFFFFFFFFFFFFFFFFFFFF AND DUP2 JUMP JUMPDEST DUP1 PUSH1 0x4 SWAP1 DUP2 PUSH2 0x145C SWAP2 SWAP1 PUSH2 0x31A2 JUMP JUMPDEST POP CALLER PUSH20 0xFFFFFFFFFFFFFFFFFFFFFFFFFFFFFFFFFFFFFFFF AND PUSH32 0x5D47B0B84AFB162D342858473FE12F672A0E5896DB383CDCA19E76ABF5092491 DUP3 PUSH1 0x40 MLOAD PUSH2 0x14A3 SWAP2 SWAP1 PUSH2 0x253B JUMP JUMPDEST PUSH1 0x40 MLOAD DUP1 SWAP2 SUB SWAP1 LOG2 POP JUMP JUMPDEST PUSH1 0x1 SLOAD DUP2 JUMP JUMPDEST PUSH1 0x60 DUP2 PUSH1 0x0 DUP2 GT DUP1 ISZERO PUSH2 0x14C9 JUMPI POP PUSH1 0x1 SLOAD DUP2 GT ISZERO JUMPDEST PUSH2 0x1508 JUMPI PUSH1 0x40 MLOAD PUSH32 0x8C379A000000000000000000000000000000000000000000000000000000000 DUP2 MSTORE PUSH1 0x4 ADD PUSH2 0x14FF SWAP1 PUSH2 0x32C0 JUMP JUMPDEST PUSH1 0x40 MLOAD DUP1 SWAP2 SUB SWAP1 REVERT JUMPDEST PUSH1 0x5 PUSH1 0x0 DUP5 DUP2 MSTORE PUSH1 0x20 ADD SWAP1 DUP2 MSTORE PUSH1 0x20 ADD PUSH1 0x0 KECCAK256 PUSH1 0x0 CALLER PUSH20 0xFFFFFFFFFFFFFFFFFFFFFFFFFFFFFFFFFFFFFFFF AND PUSH20 0xFFFFFFFFFFFFFFFFFFFFFFFFFFFFFFFFFFFFFFFF AND DUP2 MSTORE PUSH1 0x20 ADD SWAP1 DUP2 MSTORE PUSH1 0x20 ADD PUSH1 0x0 KECCAK256 DUP1 SLOAD PUSH2 0x1563 SWAP1 PUSH2 0x2E98 JUMP JUMPDEST DUP1 PUSH1 0x1F ADD PUSH1 0x20 DUP1 SWAP2 DIV MUL PUSH1 0x20 ADD PUSH1 0x40 MLOAD SWAP1 DUP2 ADD PUSH1 0x40 MSTORE DUP1 SWAP3 SWAP2 SWAP1 DUP2 DUP2 MSTORE PUSH1 0x20 ADD DUP3 DUP1 SLOAD PUSH2 0x158F SWAP1 PUSH2 0x2E98 JUMP JUMPDEST DUP1 ISZERO PUSH2 0x15DC JUMPI DUP1 PUSH1 0x1F LT PUSH2 0x15B1 JUMPI PUSH2 0x100 DUP1 DUP4 SLOAD DIV MUL DUP4 MSTORE SWAP2 PUSH1 0x20 ADD SWAP2 PUSH2 0x15DC JUMP JUMPDEST DUP3 ADD SWAP2 SWAP1 PUSH1 0x0 MSTORE PUSH1 0x20 PUSH1 0x0 KECCAK256 SWAP1 JUMPDEST DUP2 SLOAD DUP2 MSTORE SWAP1 PUSH1 0x1 ADD SWAP1 PUSH1 0x20 ADD DUP1 DUP4 GT PUSH2 0x15BF JUMPI DUP3 SWAP1 SUB PUSH1 0x1F AND DUP3 ADD SWAP2 JUMPDEST POP POP POP POP POP SWAP2 POP POP SWAP2 SWAP1 POP JUMP JUMPDEST PUSH1 0x0 DUP1 DUP6 MLOAD GT PUSH2 0x162E JUMPI PUSH1 0x40 MLOAD PUSH32 0x8C379A000000000000000000000000000000000000000000000000000000000 DUP2 MSTORE PUSH1 0x4 ADD PUSH2 0x1625 SWAP1 PUSH2 0x34AA JUMP JUMPDEST PUSH1 0x40 MLOAD DUP1 SWAP2 SUB SWAP1 REVERT JUMPDEST PUSH1 0x0 PUSH1 0x4 DUP1 SLOAD PUSH2 0x163D SWAP1 PUSH2 0x2E98 JUMP JUMPDEST SWAP1 POP GT PUSH2 0x167F JUMPI PUSH1 0x40 MLOAD PUSH32 0x8C379A000000000000000000000000000000000000000000000000000000000 DUP2 MSTORE PUSH1 0x4 ADD PUSH2 0x1676 SWAP1 PUSH2 0x3516 JUMP JUMPDEST PUSH1 0x40 MLOAD DUP1 SWAP2 SUB SWAP1 REVERT JUMPDEST PUSH1 0x1 PUSH1 0x0 DUP2 SLOAD DUP1 SWAP3 SWAP2 SWAP1 PUSH2 0x1692 SWAP1 PUSH2 0x3416 JUMP JUMPDEST SWAP2 SWAP1 POP SSTORE POP PUSH1 0x40 MLOAD DUP1 PUSH2 0x140 ADD PUSH1 0x40 MSTORE DUP1 DUP7 DUP2 MSTORE PUSH1 0x20 ADD DUP6 DUP2 MSTORE PUSH1 0x20 ADD CALLER PUSH20 0xFFFFFFFFFFFFFFFFFFFFFFFFFFFFFFFFFFFFFFFF AND DUP2 MSTORE PUSH1 0x20 ADD DUP5 DUP2 MSTORE PUSH1 0x20 ADD TIMESTAMP DUP2 MSTORE PUSH1 0x20 ADD PUSH1 0x0 DUP2 MSTORE PUSH1 0x20 ADD PUSH1 0x0 ISZERO ISZERO DUP2 MSTORE PUSH1 0x20 ADD PUSH1 0x0 ISZERO ISZERO DUP2 MSTORE PUSH1 0x20 ADD PUSH1 0x0 PUSH20 0xFFFFFFFFFFFFFFFFFFFFFFFFFFFFFFFFFFFFFFFF AND DUP2 MSTORE PUSH1 0x20 ADD DUP4 DUP2 MSTORE POP PUSH1 0x0 DUP1 PUSH1 0x1 SLOAD DUP2 MSTORE PUSH1 0x20 ADD SWAP1 DUP2 MSTORE PUSH1 0x20 ADD PUSH1 0x0 KECCAK256 PUSH1 0x0 DUP3 ADD MLOAD DUP2 PUSH1 0x0 ADD SWAP1 DUP2 PUSH2 0x173A SWAP2 SWAP1 PUSH2 0x3075 JUMP JUMPDEST POP PUSH1 0x20 DUP3 ADD MLOAD DUP2 PUSH1 0x1 ADD SWAP1 DUP2 PUSH2 0x1750 SWAP2 SWAP1 PUSH2 0x3075 JUMP JUMPDEST POP PUSH1 0x40 DUP3 ADD MLOAD DUP2 PUSH1 0x2 ADD PUSH1 0x0 PUSH2 0x100 EXP DUP2 SLOAD DUP2 PUSH20 0xFFFFFFFFFFFFFFFFFFFFFFFFFFFFFFFFFFFFFFFF MUL NOT AND SWAP1 DUP4 PUSH20 0xFFFFFFFFFFFFFFFFFFFFFFFFFFFFFFFFFFFFFFFF AND MUL OR SWAP1 SSTORE POP PUSH1 0x60 DUP3 ADD MLOAD DUP2 PUSH1 0x3 ADD SWAP1 DUP1 MLOAD SWAP1 PUSH1 0x20 ADD SWAP1 PUSH2 0x17B4 SWAP3 SWAP2 SWAP1 PUSH2 0x1E2F JUMP JUMPDEST POP PUSH1 0x80 DUP3 ADD MLOAD DUP2 PUSH1 0x4 ADD SSTORE PUSH1 0xA0 DUP3 ADD MLOAD DUP2 PUSH1 0x5 ADD SSTORE PUSH1 0xC0 DUP3 ADD MLOAD DUP2 PUSH1 0x6 ADD PUSH1 0x0 PUSH2 0x100 EXP DUP2 SLOAD DUP2 PUSH1 0xFF MUL NOT AND SWAP1 DUP4 ISZERO ISZERO MUL OR SWAP1 SSTORE POP PUSH1 0xE0 DUP3 ADD MLOAD DUP2 PUSH1 0x6 ADD PUSH1 0x1 PUSH2 0x100 EXP DUP2 SLOAD DUP2 PUSH1 0xFF MUL NOT AND SWAP1 DUP4 ISZERO ISZERO MUL OR SWAP1 SSTORE POP PUSH2 0x100 DUP3 ADD MLOAD DUP2 PUSH1 0x6 ADD PUSH1 0x2 PUSH2 0x100 EXP DUP2 SLOAD DUP2 PUSH20 0xFFFFFFFFFFFFFFFFFFFFFFFFFFFFFFFFFFFFFFFF MUL NOT AND SWAP1 DUP4 PUSH20 0xFFFFFFFFFFFFFFFFFFFFFFFFFFFFFFFFFFFFFFFF AND MUL OR SWAP1 SSTORE POP PUSH2 0x120 DUP3 ADD MLOAD DUP2 PUSH1 0x7 ADD SWAP1 DUP2 PUSH2 0x1867 SWAP2 SWAP1 PUSH2 0x31A2 JUMP JUMPDEST POP SWAP1 POP POP CALLER PUSH20 0xFFFFFFFFFFFFFFFFFFFFFFFFFFFFFFFFFFFFFFFF AND PUSH1 0x1 SLOAD PUSH32 0xF2ADDD0844BF6C683670BE19A71FE7603380BDC0B1A9ECDE0137F08B5E0D644A DUP8 PUSH1 0x40 MLOAD PUSH2 0x18B4 SWAP2 SWAP1 PUSH2 0x28FF JUMP JUMPDEST PUSH1 0x40 MLOAD DUP1 SWAP2 SUB SWAP1 LOG3 PUSH1 0x1 SLOAD SWAP1 POP SWAP5 SWAP4 POP POP POP POP JUMP JUMPDEST PUSH1 0x6 PUSH1 0x20 MSTORE DUP2 PUSH1 0x0 MSTORE PUSH1 0x40 PUSH1 0x0 KECCAK256 PUSH1 0x20 MSTORE DUP1 PUSH1 0x0 MSTORE PUSH1 0x40 PUSH1 0x0 KECCAK256 PUSH1 0x0 SWAP2 POP SWAP2 POP POP DUP1 SLOAD PUSH2 0x18F5 SWAP1 PUSH2 0x2E98 JUMP JUMPDEST DUP1 PUSH1 0x1F ADD PUSH1 0x20 DUP1 SWAP2 DIV MUL PUSH1 0x20 ADD PUSH1 0x40 MLOAD SWAP1 DUP2 ADD PUSH1 0x40 MSTORE DUP1 SWAP3 SWAP2 SWAP1 DUP2 DUP2 MSTORE PUSH1 0x20 ADD DUP3 DUP1 SLOAD PUSH2 0x1921 SWAP1 PUSH2 0x2E98 JUMP JUMPDEST DUP1 ISZERO PUSH2 0x196E JUMPI DUP1 PUSH1 0x1F LT PUSH2 0x1943 JUMPI PUSH2 0x100 DUP1 DUP4 SLOAD DIV MUL DUP4 MSTORE SWAP2 PUSH1 0x20 ADD SWAP2 PUSH2 0x196E JUMP JUMPDEST DUP3 ADD SWAP2 SWAP1 PUSH1 0x0 MSTORE PUSH1 0x20 PUSH1 0x0 KECCAK256 SWAP1 JUMPDEST DUP2 SLOAD DUP2 MSTORE SWAP1 PUSH1 0x1 ADD SWAP1 PUSH1 0x20 ADD DUP1 DUP4 GT PUSH2 0x1951 JUMPI DUP3 SWAP1 SUB PUSH1 0x1F AND DUP3 ADD SWAP2 JUMPDEST POP POP POP POP POP DUP2 JUMP JUMPDEST PUSH1 0x5 PUSH1 0x20 MSTORE DUP2 PUSH1 0x0 MSTORE PUSH1 0x40 PUSH1 0x0 KECCAK256 PUSH1 0x20 MSTORE DUP1 PUSH1 0x0 MSTORE PUSH1 0x40 PUSH1 0x0 KECCAK256 PUSH1 0x0 SWAP2 POP SWAP2 POP POP DUP1 SLOAD PUSH2 0x19A2 SWAP1 PUSH2 0x2E98 JUMP JUMPDEST DUP1 PUSH1 0x1F ADD PUSH1 0x20 DUP1 SWAP2 DIV MUL PUSH1 0x20 ADD PUSH1 0x40 MLOAD SWAP1 DUP2 ADD PUSH1 0x40 MSTORE DUP1 SWAP3 SWAP2 SWAP1 DUP2 DUP2 MSTORE PUSH1 0x20 ADD DUP3 DUP1 SLOAD PUSH2 0x19CE SWAP1 PUSH2 0x2E98 JUMP JUMPDEST DUP1 ISZERO PUSH2 0x1A1B JUMPI DUP1 PUSH1 0x1F LT PUSH2 0x19F0 JUMPI PUSH2 0x100 DUP1 DUP4 SLOAD DIV MUL DUP4 MSTORE SWAP2 PUSH1 0x20 ADD SWAP2 PUSH2 0x1A1B JUMP JUMPDEST DUP3 ADD SWAP2 SWAP1 PUSH1 0x0 MSTORE PUSH1 0x20 PUSH1 0x0 KECCAK256 SWAP1 JUMPDEST DUP2 SLOAD DUP2 MSTORE SWAP1 PUSH1 0x1 ADD SWAP1 PUSH1 0x20 ADD DUP1 DUP4 GT PUSH2 0x19FE JUMPI DUP3 SWAP1 SUB PUSH1 0x1F AND DUP3 ADD SWAP2 JUMPDEST POP POP POP POP POP DUP2 JUMP JUMPDEST DUP5 PUSH1 0x0 DUP2 GT DUP1 ISZERO PUSH2 0x1A36 JUMPI POP PUSH1 0x1 SLOAD DUP2 GT ISZERO JUMPDEST PUSH2 0x1A75 JUMPI PUSH1 0x40 MLOAD PUSH32 0x8C379A000000000000000000000000000000000000000000000000000000000 DUP2 MSTORE PUSH1 0x4 ADD PUSH2 0x1A6C SWAP1 PUSH2 0x32C0 JUMP JUMPDEST PUSH1 0x40 MLOAD DUP1 SWAP2 SUB SWAP1 REVERT JUMPDEST DUP3 MLOAD DUP5 MLOAD EQ PUSH2 0x1AB9 JUMPI PUSH1 0x40 MLOAD PUSH32 0x8C379A000000000000000000000000000000000000000000000000000000000 DUP2 MSTORE PUSH1 0x4 ADD PUSH2 0x1AB0 SWAP1 PUSH2 0x3582 JUMP JUMPDEST PUSH1 0x40 MLOAD DUP1 SWAP2 SUB SWAP1 REVERT JUMPDEST DUP2 MLOAD DUP5 MLOAD EQ PUSH2 0x1AFD JUMPI PUSH1 0x40 MLOAD PUSH32 0x8C379A000000000000000000000000000000000000000000000000000000000 DUP2 MSTORE PUSH1 0x4 ADD PUSH2 0x1AF4 SWAP1 PUSH2 0x35EE JUMP JUMPDEST PUSH1 0x40 MLOAD DUP1 SWAP2 SUB SWAP1 REVERT JUMPDEST TIMESTAMP DUP6 GT PUSH2 0x1B3F JUMPI PUSH1 0x40 MLOAD PUSH32 0x8C379A000000000000000000000000000000000000000000000000000000000 DUP2 MSTORE PUSH1 0x4 ADD PUSH2 0x1B36 SWAP1 PUSH2 0x365A JUMP JUMPDEST PUSH1 0x40 MLOAD DUP1 SWAP2 SUB SWAP1 REVERT JUMPDEST PUSH1 0x0 DUP1 PUSH1 0x0 DUP9 DUP2 MSTORE PUSH1 0x20 ADD SWAP1 DUP2 MSTORE PUSH1 0x20 ADD PUSH1 0x0 KECCAK256 SWAP1 POP DUP1 PUSH1 0x6 ADD PUSH1 0x0 SWAP1 SLOAD SWAP1 PUSH2 0x100 EXP SWAP1 DIV PUSH1 0xFF AND ISZERO PUSH2 0x1BA7 JUMPI PUSH1 0x40 MLOAD PUSH32 0x8C379A000000000000000000000000000000000000000000000000000000000 DUP2 MSTORE PUSH1 0x4 ADD PUSH2 0x1B9E SWAP1 PUSH2 0x36C6 JUMP JUMPDEST PUSH1 0x40 MLOAD DUP1 SWAP2 SUB SWAP1 REVERT JUMPDEST PUSH1 0x0 JUMPDEST DUP6 MLOAD DUP2 LT ISZERO PUSH2 0x1CEA JUMPI DUP5 DUP2 DUP2 MLOAD DUP2 LT PUSH2 0x1BC6 JUMPI PUSH2 0x1BC5 PUSH2 0x33B8 JUMP JUMPDEST JUMPDEST PUSH1 0x20 MUL PUSH1 0x20 ADD ADD MLOAD PUSH1 0x5 PUSH1 0x0 DUP11 DUP2 MSTORE PUSH1 0x20 ADD SWAP1 DUP2 MSTORE PUSH1 0x20 ADD PUSH1 0x0 KECCAK256 PUSH1 0x0 DUP9 DUP5 DUP2 MLOAD DUP2 LT PUSH2 0x1BF6 JUMPI PUSH2 0x1BF5 PUSH2 0x33B8 JUMP JUMPDEST JUMPDEST PUSH1 0x20 MUL PUSH1 0x20 ADD ADD MLOAD PUSH20 0xFFFFFFFFFFFFFFFFFFFFFFFFFFFFFFFFFFFFFFFF AND PUSH20 0xFFFFFFFFFFFFFFFFFFFFFFFFFFFFFFFFFFFFFFFF AND DUP2 MSTORE PUSH1 0x20 ADD SWAP1 DUP2 MSTORE PUSH1 0x20 ADD PUSH1 0x0 KECCAK256 SWAP1 DUP2 PUSH2 0x1C44 SWAP2 SWAP1 PUSH2 0x3075 JUMP JUMPDEST POP DUP4 DUP2 DUP2 MLOAD DUP2 LT PUSH2 0x1C58 JUMPI PUSH2 0x1C57 PUSH2 0x33B8 JUMP JUMPDEST JUMPDEST PUSH1 0x20 MUL PUSH1 0x20 ADD ADD MLOAD PUSH1 0x6 PUSH1 0x0 DUP11 DUP2 MSTORE PUSH1 0x20 ADD SWAP1 DUP2 MSTORE PUSH1 0x20 ADD PUSH1 0x0 KECCAK256 PUSH1 0x0 DUP9 DUP5 DUP2 MLOAD DUP2 LT PUSH2 0x1C88 JUMPI PUSH2 0x1C87 PUSH2 0x33B8 JUMP JUMPDEST JUMPDEST PUSH1 0x20 MUL PUSH1 0x20 ADD ADD MLOAD PUSH20 0xFFFFFFFFFFFFFFFFFFFFFFFFFFFFFFFFFFFFFFFF AND PUSH20 0xFFFFFFFFFFFFFFFFFFFFFFFFFFFFFFFFFFFFFFFF AND DUP2 MSTORE PUSH1 0x20 ADD SWAP1 DUP2 MSTORE PUSH1 0x20 ADD PUSH1 0x0 KECCAK256 SWAP1 DUP2 PUSH2 0x1CD6 SWAP2 SWAP1 PUSH2 0x31A2 JUMP JUMPDEST POP DUP1 DUP1 PUSH2 0x1CE2 SWAP1 PUSH2 0x3416 JUMP JUMPDEST SWAP2 POP POP PUSH2 0x1BAA JUMP JUMPDEST POP DUP6 DUP2 PUSH1 0x5 ADD DUP2 SWAP1 SSTORE POP PUSH1 0x1 DUP2 PUSH1 0x6 ADD PUSH1 0x0 PUSH2 0x100 EXP DUP2 SLOAD DUP2 PUSH1 0xFF MUL NOT AND SWAP1 DUP4 ISZERO ISZERO MUL OR SWAP1 SSTORE POP CALLER DUP2 PUSH1 0x6 ADD PUSH1 0x2 PUSH2 0x100 EXP DUP2 SLOAD DUP2 PUSH20 0xFFFFFFFFFFFFFFFFFFFFFFFFFFFFFFFFFFFFFFFF MUL NOT AND SWAP1 DUP4 PUSH20 0xFFFFFFFFFFFFFFFFFFFFFFFFFFFFFFFFFFFFFFFF AND MUL OR SWAP1 SSTORE POP CALLER PUSH20 0xFFFFFFFFFFFFFFFFFFFFFFFFFFFFFFFFFFFFFFFF AND DUP8 PUSH32 0x3D33224841A69211485D8E455A900B8E87A0CF87D2E1DF52F1EA56EBC485D700 DUP9 PUSH1 0x40 MLOAD PUSH2 0x1D9B SWAP2 SWAP1 PUSH2 0x28E4 JUMP JUMPDEST PUSH1 0x40 MLOAD DUP1 SWAP2 SUB SWAP1 LOG3 POP POP POP POP POP POP POP JUMP JUMPDEST PUSH1 0x40 MLOAD DUP1 PUSH2 0x140 ADD PUSH1 0x40 MSTORE DUP1 PUSH1 0x60 DUP2 MSTORE PUSH1 0x20 ADD PUSH1 0x60 DUP2 MSTORE PUSH1 0x20 ADD PUSH1 0x0 PUSH20 0xFFFFFFFFFFFFFFFFFFFFFFFFFFFFFFFFFFFFFFFF AND DUP2 MSTORE PUSH1 0x20 ADD PUSH1 0x60 DUP2 MSTORE PUSH1 0x20 ADD PUSH1 0x0 DUP2 MSTORE PUSH1 0x20 ADD PUSH1 0x0 DUP2 MSTORE PUSH1 0x20 ADD PUSH1 0x0 ISZERO ISZERO DUP2 MSTORE PUSH1 0x20 ADD PUSH1 0x0 ISZERO ISZERO DUP2 MSTORE PUSH1 0x20 ADD PUSH1 0x0 PUSH20 0xFFFFFFFFFFFFFFFFFFFFFFFFFFFFFFFFFFFFFFFF AND DUP2 MSTORE PUSH1 0x20 ADD PUSH1 0x60 DUP2 MSTORE POP SWAP1 JUMP JUMPDEST DUP3 DUP1 SLOAD DUP3 DUP3 SSTORE SWAP1 PUSH1 0x0 MSTORE PUSH1 0x20 PUSH1 0x0 KECCAK256 SWAP1 DUP2 ADD SWAP3 DUP3 ISZERO PUSH2 0x1E77 JUMPI SWAP2 PUSH1 0x20 MUL DUP3 ADD JUMPDEST DUP3 DUP2 GT ISZERO PUSH2 0x1E76 JUMPI DUP3 MLOAD DUP3 SWAP1 DUP2 PUSH2 0x1E66 SWAP2 SWAP1 PUSH2 0x3075 JUMP JUMPDEST POP SWAP2 PUSH1 0x20 ADD SWAP2 SWAP1 PUSH1 0x1 ADD SWAP1 PUSH2 0x1E4F JUMP JUMPDEST JUMPDEST POP SWAP1 POP PUSH2 0x1E84 SWAP2 SWAP1 PUSH2 0x1E88 JUMP JUMPDEST POP SWAP1 JUMP JUMPDEST JUMPDEST DUP1 DUP3 GT ISZERO PUSH2 0x1EA8 JUMPI PUSH1 0x0 DUP2 DUP2 PUSH2 0x1E9F SWAP2 SWAP1 PUSH2 0x1EAC JUMP JUMPDEST POP PUSH1 0x1 ADD PUSH2 0x1E89 JUMP JUMPDEST POP SWAP1 JUMP JUMPDEST POP DUP1 SLOAD PUSH2 0x1EB8 SWAP1 PUSH2 0x2E98 JUMP JUMPDEST PUSH1 0x0 DUP3 SSTORE DUP1 PUSH1 0x1F LT PUSH2 0x1ECA JUMPI POP PUSH2 0x1EE9 JUMP JUMPDEST PUSH1 0x1F ADD PUSH1 0x20 SWAP1 DIV SWAP1 PUSH1 0x0 MSTORE PUSH1 0x20 PUSH1 0x0 KECCAK256 SWAP1 DUP2 ADD SWAP1 PUSH2 0x1EE8 SWAP2 SWAP1 PUSH2 0x1EEC JUMP JUMPDEST JUMPDEST POP JUMP JUMPDEST JUMPDEST DUP1 DUP3 GT ISZERO PUSH2 0x1F05 JUMPI PUSH1 0x0 DUP2 PUSH1 0x0 SWAP1 SSTORE POP PUSH1 0x1 ADD PUSH2 0x1EED JUMP JUMPDEST POP SWAP1 JUMP JUMPDEST PUSH1 0x0 PUSH1 0x40 MLOAD SWAP1 POP SWAP1 JUMP JUMPDEST PUSH1 0x0 DUP1 REVERT JUMPDEST PUSH1 0x0 DUP1 REVERT JUMPDEST PUSH1 0x0 DUP1 REVERT JUMPDEST PUSH1 0x0 DUP1 REVERT JUMPDEST PUSH1 0x0 PUSH1 0x1F NOT PUSH1 0x1F DUP4 ADD AND SWAP1 POP SWAP2 SWAP1 POP JUMP JUMPDEST PUSH32 0x4E487B7100000000000000000000000000000000000000000000000000000000 PUSH1 0x0 MSTORE PUSH1 0x41 PUSH1 0x4 MSTORE PUSH1 0x24 PUSH1 0x0 REVERT JUMPDEST PUSH2 0x1F70 DUP3 PUSH2 0x1F27 JUMP JUMPDEST DUP2 ADD DUP2 DUP2 LT PUSH8 0xFFFFFFFFFFFFFFFF DUP3 GT OR ISZERO PUSH2 0x1F8F JUMPI PUSH2 0x1F8E PUSH2 0x1F38 JUMP JUMPDEST JUMPDEST DUP1 PUSH1 0x40 MSTORE POP POP POP JUMP JUMPDEST PUSH1 0x0 PUSH2 0x1FA2 PUSH2 0x1F09 JUMP JUMPDEST SWAP1 POP PUSH2 0x1FAE DUP3 DUP3 PUSH2 0x1F67 JUMP JUMPDEST SWAP2 SWAP1 POP JUMP JUMPDEST PUSH1 0x0 PUSH8 0xFFFFFFFFFFFFFFFF DUP3 GT ISZERO PUSH2 0x1FCE JUMPI PUSH2 0x1FCD PUSH2 0x1F38 JUMP JUMPDEST JUMPDEST PUSH2 0x1FD7 DUP3 PUSH2 0x1F27 JUMP JUMPDEST SWAP1 POP PUSH1 0x20 DUP2 ADD SWAP1 POP SWAP2 SWAP1 POP JUMP JUMPDEST DUP3 DUP2 DUP4 CALLDATACOPY PUSH1 0x0 DUP4 DUP4 ADD MSTORE POP POP POP JUMP JUMPDEST PUSH1 0x0 PUSH2 0x2006 PUSH2 0x2001 DUP5 PUSH2 0x1FB3 JUMP JUMPDEST PUSH2 0x1F98 JUMP JUMPDEST SWAP1 POP DUP3 DUP2 MSTORE PUSH1 0x20 DUP2 ADD DUP5 DUP5 DUP5 ADD GT ISZERO PUSH2 0x2022 JUMPI PUSH2 0x2021 PUSH2 0x1F22 JUMP JUMPDEST JUMPDEST PUSH2 0x202D DUP5 DUP3 DUP6 PUSH2 0x1FE4 JUMP JUMPDEST POP SWAP4 SWAP3 POP POP POP JUMP JUMPDEST PUSH1 0x0 DUP3 PUSH1 0x1F DUP4 ADD SLT PUSH2 0x204A JUMPI PUSH2 0x2049 PUSH2 0x1F1D JUMP JUMPDEST JUMPDEST DUP2 CALLDATALOAD PUSH2 0x205A DUP5 DUP3 PUSH1 0x20 DUP7 ADD PUSH2 0x1FF3 JUMP JUMPDEST SWAP2 POP POP SWAP3 SWAP2 POP POP JUMP JUMPDEST PUSH1 0x0 PUSH8 0xFFFFFFFFFFFFFFFF DUP3 GT ISZERO PUSH2 0x207E JUMPI PUSH2 0x207D PUSH2 0x1F38 JUMP JUMPDEST JUMPDEST PUSH2 0x2087 DUP3 PUSH2 0x1F27 JUMP JUMPDEST SWAP1 POP PUSH1 0x20 DUP2 ADD SWAP1 POP SWAP2 SWAP1 POP JUMP JUMPDEST PUSH1 0x0 PUSH2 0x20A7 PUSH2 0x20A2 DUP5 PUSH2 0x2063 JUMP JUMPDEST PUSH2 0x1F98 JUMP JUMPDEST SWAP1 POP DUP3 DUP2 MSTORE PUSH1 0x20 DUP2 ADD DUP5 DUP5 DUP5 ADD GT ISZERO PUSH2 0x20C3 JUMPI PUSH2 0x20C2 PUSH2 0x1F22 JUMP JUMPDEST JUMPDEST PUSH2 0x20CE DUP5 DUP3 DUP6 PUSH2 0x1FE4 JUMP JUMPDEST POP SWAP4 SWAP3 POP POP POP JUMP JUMPDEST PUSH1 0x0 DUP3 PUSH1 0x1F DUP4 ADD SLT PUSH2 0x20EB JUMPI PUSH2 0x20EA PUSH2 0x1F1D JUMP JUMPDEST JUMPDEST DUP2 CALLDATALOAD PUSH2 0x20FB DUP5 DUP3 PUSH1 0x20 DUP7 ADD PUSH2 0x2094 JUMP JUMPDEST SWAP2 POP POP SWAP3 SWAP2 POP POP JUMP JUMPDEST PUSH1 0x0 DUP1 PUSH1 0x40 DUP4 DUP6 SUB SLT ISZERO PUSH2 0x211B JUMPI PUSH2 0x211A PUSH2 0x1F13 JUMP JUMPDEST JUMPDEST PUSH1 0x0 DUP4 ADD CALLDATALOAD PUSH8 0xFFFFFFFFFFFFFFFF DUP2 GT ISZERO PUSH2 0x2139 JUMPI PUSH2 0x2138 PUSH2 0x1F18 JUMP JUMPDEST JUMPDEST PUSH2 0x2145 DUP6 DUP3 DUP7 ADD PUSH2 0x2035 JUMP JUMPDEST SWAP3 POP POP PUSH1 0x20 DUP4 ADD CALLDATALOAD PUSH8 0xFFFFFFFFFFFFFFFF DUP2 GT ISZERO PUSH2 0x2166 JUMPI PUSH2 0x2165 PUSH2 0x1F18 JUMP JUMPDEST JUMPDEST PUSH2 0x2172 DUP6 DUP3 DUP7 ADD PUSH2 0x20D6 JUMP JUMPDEST SWAP2 POP POP SWAP3 POP SWAP3 SWAP1 POP JUMP JUMPDEST PUSH1 0x0 DUP2 SWAP1 POP SWAP2 SWAP1 POP JUMP JUMPDEST PUSH2 0x218F DUP2 PUSH2 0x217C JUMP JUMPDEST DUP2 EQ PUSH2 0x219A JUMPI PUSH1 0x0 DUP1 REVERT JUMPDEST POP JUMP JUMPDEST PUSH1 0x0 DUP2 CALLDATALOAD SWAP1 POP PUSH2 0x21AC DUP2 PUSH2 0x2186 JUMP JUMPDEST SWAP3 SWAP2 POP POP JUMP JUMPDEST PUSH1 0x0 PUSH1 0x20 DUP3 DUP5 SUB SLT ISZERO PUSH2 0x21C8 JUMPI PUSH2 0x21C7 PUSH2 0x1F13 JUMP JUMPDEST JUMPDEST PUSH1 0x0 PUSH2 0x21D6 DUP5 DUP3 DUP6 ADD PUSH2 0x219D JUMP JUMPDEST SWAP2 POP POP SWAP3 SWAP2 POP POP JUMP JUMPDEST PUSH1 0x0 DUP2 MLOAD SWAP1 POP SWAP2 SWAP1 POP JUMP JUMPDEST PUSH1 0x0 DUP3 DUP3 MSTORE PUSH1 0x20 DUP3 ADD SWAP1 POP SWAP3 SWAP2 POP POP JUMP JUMPDEST PUSH1 0x0 JUMPDEST DUP4 DUP2 LT ISZERO PUSH2 0x2219 JUMPI DUP1 DUP3 ADD MLOAD DUP2 DUP5 ADD MSTORE PUSH1 0x20 DUP2 ADD SWAP1 POP PUSH2 0x21FE JUMP JUMPDEST PUSH1 0x0 DUP5 DUP5 ADD MSTORE POP POP POP POP JUMP JUMPDEST PUSH1 0x0 PUSH2 0x2230 DUP3 PUSH2 0x21DF JUMP JUMPDEST PUSH2 0x223A DUP2 DUP6 PUSH2 0x21EA JUMP JUMPDEST SWAP4 POP PUSH2 0x224A DUP2 DUP6 PUSH1 0x20 DUP7 ADD PUSH2 0x21FB JUMP JUMPDEST PUSH2 0x2253 DUP2 PUSH2 0x1F27 JUMP JUMPDEST DUP5 ADD SWAP2 POP POP SWAP3 SWAP2 POP POP JUMP JUMPDEST PUSH1 0x0 PUSH20 0xFFFFFFFFFFFFFFFFFFFFFFFFFFFFFFFFFFFFFFFF DUP3 AND SWAP1 POP SWAP2 SWAP1 POP JUMP JUMPDEST PUSH1 0x0 PUSH2 0x2289 DUP3 PUSH2 0x225E JUMP JUMPDEST SWAP1 POP SWAP2 SWAP1 POP JUMP JUMPDEST PUSH2 0x2299 DUP2 PUSH2 0x227E JUMP JUMPDEST DUP3 MSTORE POP POP JUMP JUMPDEST PUSH1 0x0 DUP2 MLOAD SWAP1 POP SWAP2 SWAP1 POP JUMP JUMPDEST PUSH1 0x0 DUP3 DUP3 MSTORE PUSH1 0x20 DUP3 ADD SWAP1 POP SWAP3 SWAP2 POP POP JUMP JUMPDEST PUSH1 0x0 DUP2 SWAP1 POP PUSH1 0x20 DUP3 ADD SWAP1 POP SWAP2 SWAP1 POP JUMP JUMPDEST PUSH1 0x0 PUSH2 0x22D7 DUP4 DUP4 PUSH2 0x2225 JUMP JUMPDEST SWAP1 POP SWAP3 SWAP2 POP POP JUMP JUMPDEST PUSH1 0x0 PUSH1 0x20 DUP3 ADD SWAP1 POP SWAP2 SWAP1 POP JUMP JUMPDEST PUSH1 0x0 PUSH2 0x22F7 DUP3 PUSH2 0x229F JUMP JUMPDEST PUSH2 0x2301 DUP2 DUP6 PUSH2 0x22AA JUMP JUMPDEST SWAP4 POP DUP4 PUSH1 0x20 DUP3 MUL DUP6 ADD PUSH2 0x2313 DUP6 PUSH2 0x22BB JUMP JUMPDEST DUP1 PUSH1 0x0 JUMPDEST DUP6 DUP2 LT ISZERO PUSH2 0x234F JUMPI DUP5 DUP5 SUB DUP10 MSTORE DUP2 MLOAD PUSH2 0x2330 DUP6 DUP3 PUSH2 0x22CB JUMP JUMPDEST SWAP5 POP PUSH2 0x233B DUP4 PUSH2 0x22DF JUMP JUMPDEST SWAP3 POP PUSH1 0x20 DUP11 ADD SWAP10 POP POP PUSH1 0x1 DUP2 ADD SWAP1 POP PUSH2 0x2317 JUMP JUMPDEST POP DUP3 SWAP8 POP DUP8 SWAP6 POP POP POP POP POP POP SWAP3 SWAP2 POP POP JUMP JUMPDEST PUSH2 0x236A DUP2 PUSH2 0x217C JUMP JUMPDEST DUP3 MSTORE POP POP JUMP JUMPDEST PUSH1 0x0 DUP2 ISZERO ISZERO SWAP1 POP SWAP2 SWAP1 POP JUMP JUMPDEST PUSH2 0x2385 DUP2 PUSH2 0x2370 JUMP JUMPDEST DUP3 MSTORE POP POP JUMP JUMPDEST PUSH1 0x0 DUP2 MLOAD SWAP1 POP SWAP2 SWAP1 POP JUMP JUMPDEST PUSH1 0x0 DUP3 DUP3 MSTORE PUSH1 0x20 DUP3 ADD SWAP1 POP SWAP3 SWAP2 POP POP JUMP JUMPDEST PUSH1 0x0 PUSH2 0x23B2 DUP3 PUSH2 0x238B JUMP JUMPDEST PUSH2 0x23BC DUP2 DUP6 PUSH2 0x2396 JUMP JUMPDEST SWAP4 POP PUSH2 0x23CC DUP2 DUP6 PUSH1 0x20 DUP7 ADD PUSH2 0x21FB JUMP JUMPDEST PUSH2 0x23D5 DUP2 PUSH2 0x1F27 JUMP JUMPDEST DUP5 ADD SWAP2 POP POP SWAP3 SWAP2 POP POP JUMP JUMPDEST PUSH1 0x0 PUSH2 0x140 DUP4 ADD PUSH1 0x0 DUP4 ADD MLOAD DUP5 DUP3 SUB PUSH1 0x0 DUP7 ADD MSTORE PUSH2 0x23FE DUP3 DUP3 PUSH2 0x2225 JUMP JUMPDEST SWAP2 POP POP PUSH1 0x20 DUP4 ADD MLOAD DUP5 DUP3 SUB PUSH1 0x20 DUP7 ADD MSTORE PUSH2 0x2418 DUP3 DUP3 PUSH2 0x2225 JUMP JUMPDEST SWAP2 POP POP PUSH1 0x40 DUP4 ADD MLOAD PUSH2 0x242D PUSH1 0x40 DUP7 ADD DUP3 PUSH2 0x2290 JUMP JUMPDEST POP PUSH1 0x60 DUP4 ADD MLOAD DUP5 DUP3 SUB PUSH1 0x60 DUP7 ADD MSTORE PUSH2 0x2445 DUP3 DUP3 PUSH2 0x22EC JUMP JUMPDEST SWAP2 POP POP PUSH1 0x80 DUP4 ADD MLOAD PUSH2 0x245A PUSH1 0x80 DUP7 ADD DUP3 PUSH2 0x2361 JUMP JUMPDEST POP PUSH1 0xA0 DUP4 ADD MLOAD PUSH2 0x246D PUSH1 0xA0 DUP7 ADD DUP3 PUSH2 0x2361 JUMP JUMPDEST POP PUSH1 0xC0 DUP4 ADD MLOAD PUSH2 0x2480 PUSH1 0xC0 DUP7 ADD DUP3 PUSH2 0x237C JUMP JUMPDEST POP PUSH1 0xE0 DUP4 ADD MLOAD PUSH2 0x2493 PUSH1 0xE0 DUP7 ADD DUP3 PUSH2 0x237C JUMP JUMPDEST POP PUSH2 0x100 DUP4 ADD MLOAD PUSH2 0x24A8 PUSH2 0x100 DUP7 ADD DUP3 PUSH2 0x2290 JUMP JUMPDEST POP PUSH2 0x120 DUP4 ADD MLOAD DUP5 DUP3 SUB PUSH2 0x120 DUP7 ADD MSTORE PUSH2 0x24C2 DUP3 DUP3 PUSH2 0x23A7 JUMP JUMPDEST SWAP2 POP POP DUP1 SWAP2 POP POP SWAP3 SWAP2 POP POP JUMP JUMPDEST PUSH1 0x0 PUSH1 0x20 DUP3 ADD SWAP1 POP DUP2 DUP2 SUB PUSH1 0x0 DUP4 ADD MSTORE PUSH2 0x24E9 DUP2 DUP5 PUSH2 0x23E0 JUMP JUMPDEST SWAP1 POP SWAP3 SWAP2 POP POP JUMP JUMPDEST PUSH1 0x0 DUP3 DUP3 MSTORE PUSH1 0x20 DUP3 ADD SWAP1 POP SWAP3 SWAP2 POP POP JUMP JUMPDEST PUSH1 0x0 PUSH2 0x250D DUP3 PUSH2 0x238B JUMP JUMPDEST PUSH2 0x2517 DUP2 DUP6 PUSH2 0x24F1 JUMP JUMPDEST SWAP4 POP PUSH2 0x2527 DUP2 DUP6 PUSH1 0x20 DUP7 ADD PUSH2 0x21FB JUMP JUMPDEST PUSH2 0x2530 DUP2 PUSH2 0x1F27 JUMP JUMPDEST DUP5 ADD SWAP2 POP POP SWAP3 SWAP2 POP POP JUMP JUMPDEST PUSH1 0x0 PUSH1 0x20 DUP3 ADD SWAP1 POP DUP2 DUP2 SUB PUSH1 0x0 DUP4 ADD MSTORE PUSH2 0x2555 DUP2 DUP5 PUSH2 0x2502 JUMP JUMPDEST SWAP1 POP SWAP3 SWAP2 POP POP JUMP JUMPDEST PUSH2 0x2566 DUP2 PUSH2 0x227E JUMP JUMPDEST DUP2 EQ PUSH2 0x2571 JUMPI PUSH1 0x0 DUP1 REVERT JUMPDEST POP JUMP JUMPDEST PUSH1 0x0 DUP2 CALLDATALOAD SWAP1 POP PUSH2 0x2583 DUP2 PUSH2 0x255D JUMP JUMPDEST SWAP3 SWAP2 POP POP JUMP JUMPDEST PUSH1 0x0 PUSH1 0x20 DUP3 DUP5 SUB SLT ISZERO PUSH2 0x259F JUMPI PUSH2 0x259E PUSH2 0x1F13 JUMP JUMPDEST JUMPDEST PUSH1 0x0 PUSH2 0x25AD DUP5 DUP3 DUP6 ADD PUSH2 0x2574 JUMP JUMPDEST SWAP2 POP POP SWAP3 SWAP2 POP POP JUMP JUMPDEST PUSH1 0x0 DUP2 MLOAD SWAP1 POP SWAP2 SWAP1 POP JUMP JUMPDEST PUSH1 0x0 DUP3 DUP3 MSTORE PUSH1 0x20 DUP3 ADD SWAP1 POP SWAP3 SWAP2 POP POP JUMP JUMPDEST PUSH1 0x0 DUP2 SWAP1 POP PUSH1 0x20 DUP3 ADD SWAP1 POP SWAP2 SWAP1 POP JUMP JUMPDEST PUSH1 0x0 PUSH2 0x25EE DUP4 DUP4 PUSH2 0x2290 JUMP JUMPDEST PUSH1 0x20 DUP4 ADD SWAP1 POP SWAP3 SWAP2 POP POP JUMP JUMPDEST PUSH1 0x0 PUSH1 0x20 DUP3 ADD SWAP1 POP SWAP2 SWAP1 POP JUMP JUMPDEST PUSH1 0x0 PUSH2 0x2612 DUP3 PUSH2 0x25B6 JUMP JUMPDEST PUSH2 0x261C DUP2 DUP6 PUSH2 0x25C1 JUMP JUMPDEST SWAP4 POP PUSH2 0x2627 DUP4 PUSH2 0x25D2 JUMP JUMPDEST DUP1 PUSH1 0x0 JUMPDEST DUP4 DUP2 LT ISZERO PUSH2 0x2658 JUMPI DUP2 MLOAD PUSH2 0x263F DUP9 DUP3 PUSH2 0x25E2 JUMP JUMPDEST SWAP8 POP PUSH2 0x264A DUP4 PUSH2 0x25FA JUMP JUMPDEST SWAP3 POP POP PUSH1 0x1 DUP2 ADD SWAP1 POP PUSH2 0x262B JUMP JUMPDEST POP DUP6 SWAP4 POP POP POP POP SWAP3 SWAP2 POP POP JUMP JUMPDEST PUSH1 0x0 DUP3 DUP3 MSTORE PUSH1 0x20 DUP3 ADD SWAP1 POP SWAP3 SWAP2 POP POP JUMP JUMPDEST PUSH1 0x0 PUSH2 0x2681 DUP3 PUSH2 0x229F JUMP JUMPDEST PUSH2 0x268B DUP2 DUP6 PUSH2 0x2665 JUMP JUMPDEST SWAP4 POP DUP4 PUSH1 0x20 DUP3 MUL DUP6 ADD PUSH2 0x269D DUP6 PUSH2 0x22BB JUMP JUMPDEST DUP1 PUSH1 0x0 JUMPDEST DUP6 DUP2 LT ISZERO PUSH2 0x26D9 JUMPI DUP5 DUP5 SUB DUP10 MSTORE DUP2 MLOAD PUSH2 0x26BA DUP6 DUP3 PUSH2 0x22CB JUMP JUMPDEST SWAP5 POP PUSH2 0x26C5 DUP4 PUSH2 0x22DF JUMP JUMPDEST SWAP3 POP PUSH1 0x20 DUP11 ADD SWAP10 POP POP PUSH1 0x1 DUP2 ADD SWAP1 POP PUSH2 0x26A1 JUMP JUMPDEST POP DUP3 SWAP8 POP DUP8 SWAP6 POP POP POP POP POP POP SWAP3 SWAP2 POP POP JUMP JUMPDEST PUSH1 0x0 PUSH1 0x40 DUP3 ADD SWAP1 POP DUP2 DUP2 SUB PUSH1 0x0 DUP4 ADD MSTORE PUSH2 0x2705 DUP2 DUP6 PUSH2 0x2607 JUMP JUMPDEST SWAP1 POP DUP2 DUP2 SUB PUSH1 0x20 DUP4 ADD MSTORE PUSH2 0x2719 DUP2 DUP5 PUSH2 0x2676 JUMP JUMPDEST SWAP1 POP SWAP4 SWAP3 POP POP POP JUMP JUMPDEST PUSH1 0x0 DUP3 DUP3 MSTORE PUSH1 0x20 DUP3 ADD SWAP1 POP SWAP3 SWAP2 POP POP JUMP JUMPDEST PUSH1 0x0 PUSH2 0x273E DUP3 PUSH2 0x21DF JUMP JUMPDEST PUSH2 0x2748 DUP2 DUP6 PUSH2 0x2722 JUMP JUMPDEST SWAP4 POP PUSH2 0x2758 DUP2 DUP6 PUSH1 0x20 DUP7 ADD PUSH2 0x21FB JUMP JUMPDEST PUSH2 0x2761 DUP2 PUSH2 0x1F27 JUMP JUMPDEST DUP5 ADD SWAP2 POP POP SWAP3 SWAP2 POP POP JUMP JUMPDEST PUSH2 0x2775 DUP2 PUSH2 0x2370 JUMP JUMPDEST DUP3 MSTORE POP POP JUMP JUMPDEST PUSH1 0x0 PUSH1 0x60 DUP3 ADD SWAP1 POP DUP2 DUP2 SUB PUSH1 0x0 DUP4 ADD MSTORE PUSH2 0x2795 DUP2 DUP7 PUSH2 0x2733 JUMP JUMPDEST SWAP1 POP DUP2 DUP2 SUB PUSH1 0x20 DUP4 ADD MSTORE PUSH2 0x27A9 DUP2 DUP6 PUSH2 0x2502 JUMP JUMPDEST SWAP1 POP PUSH2 0x27B8 PUSH1 0x40 DUP4 ADD DUP5 PUSH2 0x276C JUMP JUMPDEST SWAP5 SWAP4 POP POP POP POP JUMP JUMPDEST PUSH2 0x27C9 DUP2 PUSH2 0x227E JUMP JUMPDEST DUP3 MSTORE POP POP JUMP JUMPDEST PUSH2 0x27D8 DUP2 PUSH2 0x217C JUMP JUMPDEST DUP3 MSTORE POP POP JUMP JUMPDEST PUSH1 0x0 PUSH2 0x120 DUP3 ADD SWAP1 POP DUP2 DUP2 SUB PUSH1 0x0 DUP4 ADD MSTORE PUSH2 0x27F9 DUP2 DUP13 PUSH2 0x2733 JUMP JUMPDEST SWAP1 POP DUP2 DUP2 SUB PUSH1 0x20 DUP4 ADD MSTORE PUSH2 0x280D DUP2 DUP12 PUSH2 0x2733 JUMP JUMPDEST SWAP1 POP PUSH2 0x281C PUSH1 0x40 DUP4 ADD DUP11 PUSH2 0x27C0 JUMP JUMPDEST PUSH2 0x2829 PUSH1 0x60 DUP4 ADD DUP10 PUSH2 0x27CF JUMP JUMPDEST PUSH2 0x2836 PUSH1 0x80 DUP4 ADD DUP9 PUSH2 0x27CF JUMP JUMPDEST PUSH2 0x2843 PUSH1 0xA0 DUP4 ADD DUP8 PUSH2 0x276C JUMP JUMPDEST PUSH2 0x2850 PUSH1 0xC0 DUP4 ADD DUP7 PUSH2 0x276C JUMP JUMPDEST PUSH2 0x285D PUSH1 0xE0 DUP4 ADD DUP6 PUSH2 0x27C0 JUMP JUMPDEST DUP2 DUP2 SUB PUSH2 0x100 DUP4 ADD MSTORE PUSH2 0x2870 DUP2 DUP5 PUSH2 0x2502 JUMP JUMPDEST SWAP1 POP SWAP11 SWAP10 POP POP POP POP POP POP POP POP POP POP JUMP JUMPDEST PUSH1 0x0 PUSH1 0x20 DUP3 ADD SWAP1 POP PUSH2 0x2895 PUSH1 0x0 DUP4 ADD DUP5 PUSH2 0x27C0 JUMP JUMPDEST SWAP3 SWAP2 POP POP JUMP JUMPDEST PUSH1 0x0 PUSH1 0x20 DUP3 DUP5 SUB SLT ISZERO PUSH2 0x28B1 JUMPI PUSH2 0x28B0 PUSH2 0x1F13 JUMP JUMPDEST JUMPDEST PUSH1 0x0 DUP3 ADD CALLDATALOAD PUSH8 0xFFFFFFFFFFFFFFFF DUP2 GT ISZERO PUSH2 0x28CF JUMPI PUSH2 0x28CE PUSH2 0x1F18 JUMP JUMPDEST JUMPDEST PUSH2 0x28DB DUP5 DUP3 DUP6 ADD PUSH2 0x20D6 JUMP JUMPDEST SWAP2 POP POP SWAP3 SWAP2 POP POP JUMP JUMPDEST PUSH1 0x0 PUSH1 0x20 DUP3 ADD SWAP1 POP PUSH2 0x28F9 PUSH1 0x0 DUP4 ADD DUP5 PUSH2 0x27CF JUMP JUMPDEST SWAP3 SWAP2 POP POP JUMP JUMPDEST PUSH1 0x0 PUSH1 0x20 DUP3 ADD SWAP1 POP DUP2 DUP2 SUB PUSH1 0x0 DUP4 ADD MSTORE PUSH2 0x2919 DUP2 DUP5 PUSH2 0x2733 JUMP JUMPDEST SWAP1 POP SWAP3 SWAP2 POP POP JUMP JUMPDEST PUSH1 0x0 PUSH8 0xFFFFFFFFFFFFFFFF DUP3 GT ISZERO PUSH2 0x293C JUMPI PUSH2 0x293B PUSH2 0x1F38 JUMP JUMPDEST JUMPDEST PUSH1 0x20 DUP3 MUL SWAP1 POP PUSH1 0x20 DUP2 ADD SWAP1 POP SWAP2 SWAP1 POP JUMP JUMPDEST PUSH1 0x0 DUP1 REVERT JUMPDEST PUSH1 0x0 PUSH2 0x2965 PUSH2 0x2960 DUP5 PUSH2 0x2921 JUMP JUMPDEST PUSH2 0x1F98 JUMP JUMPDEST SWAP1 POP DUP1 DUP4 DUP3 MSTORE PUSH1 0x20 DUP3 ADD SWAP1 POP PUSH1 0x20 DUP5 MUL DUP4 ADD DUP6 DUP2 GT ISZERO PUSH2 0x2988 JUMPI PUSH2 0x2987 PUSH2 0x294D JUMP JUMPDEST JUMPDEST DUP4 JUMPDEST DUP2 DUP2 LT ISZERO PUSH2 0x29CF JUMPI DUP1 CALLDATALOAD PUSH8 0xFFFFFFFFFFFFFFFF DUP2 GT ISZERO PUSH2 0x29AD JUMPI PUSH2 0x29AC PUSH2 0x1F1D JUMP JUMPDEST JUMPDEST DUP1 DUP7 ADD PUSH2 0x29BA DUP10 DUP3 PUSH2 0x2035 JUMP JUMPDEST DUP6 MSTORE PUSH1 0x20 DUP6 ADD SWAP5 POP POP POP PUSH1 0x20 DUP2 ADD SWAP1 POP PUSH2 0x298A JUMP JUMPDEST POP POP POP SWAP4 SWAP3 POP POP POP JUMP JUMPDEST PUSH1 0x0 DUP3 PUSH1 0x1F DUP4 ADD SLT PUSH2 0x29EE JUMPI PUSH2 0x29ED PUSH2 0x1F1D JUMP JUMPDEST JUMPDEST DUP2 CALLDATALOAD PUSH2 0x29FE DUP5 DUP3 PUSH1 0x20 DUP7 ADD PUSH2 0x2952 JUMP JUMPDEST SWAP2 POP POP SWAP3 SWAP2 POP POP JUMP JUMPDEST PUSH1 0x0 DUP1 PUSH1 0x0 DUP1 PUSH1 0x80 DUP6 DUP8 SUB SLT ISZERO PUSH2 0x2A21 JUMPI PUSH2 0x2A20 PUSH2 0x1F13 JUMP JUMPDEST JUMPDEST PUSH1 0x0 DUP6 ADD CALLDATALOAD PUSH8 0xFFFFFFFFFFFFFFFF DUP2 GT ISZERO PUSH2 0x2A3F JUMPI PUSH2 0x2A3E PUSH2 0x1F18 JUMP JUMPDEST JUMPDEST PUSH2 0x2A4B DUP8 DUP3 DUP9 ADD PUSH2 0x2035 JUMP JUMPDEST SWAP5 POP POP PUSH1 0x20 DUP6 ADD CALLDATALOAD PUSH8 0xFFFFFFFFFFFFFFFF DUP2 GT ISZERO PUSH2 0x2A6C JUMPI PUSH2 0x2A6B PUSH2 0x1F18 JUMP JUMPDEST JUMPDEST PUSH2 0x2A78 DUP8 DUP3 DUP9 ADD PUSH2 0x2035 JUMP JUMPDEST SWAP4 POP POP PUSH1 0x40 DUP6 ADD CALLDATALOAD PUSH8 0xFFFFFFFFFFFFFFFF DUP2 GT ISZERO PUSH2 0x2A99 JUMPI PUSH2 0x2A98 PUSH2 0x1F18 JUMP JUMPDEST JUMPDEST PUSH2 0x2AA5 DUP8 DUP3 DUP9 ADD PUSH2 0x29D9 JUMP JUMPDEST SWAP3 POP POP PUSH1 0x60 DUP6 ADD CALLDATALOAD PUSH8 0xFFFFFFFFFFFFFFFF DUP2 GT ISZERO PUSH2 0x2AC6 JUMPI PUSH2 0x2AC5 PUSH2 0x1F18 JUMP JUMPDEST JUMPDEST PUSH2 0x2AD2 DUP8 DUP3 DUP9 ADD PUSH2 0x20D6 JUMP JUMPDEST SWAP2 POP POP SWAP3 SWAP6 SWAP2 SWAP5 POP SWAP3 POP JUMP JUMPDEST PUSH1 0x0 DUP1 PUSH1 0x40 DUP4 DUP6 SUB SLT ISZERO PUSH2 0x2AF5 JUMPI PUSH2 0x2AF4 PUSH2 0x1F13 JUMP JUMPDEST JUMPDEST PUSH1 0x0 PUSH2 0x2B03 DUP6 DUP3 DUP7 ADD PUSH2 0x219D JUMP JUMPDEST SWAP3 POP POP PUSH1 0x20 PUSH2 0x2B14 DUP6 DUP3 DUP7 ADD PUSH2 0x2574 JUMP JUMPDEST SWAP2 POP POP SWAP3 POP SWAP3 SWAP1 POP JUMP JUMPDEST PUSH1 0x0 PUSH8 0xFFFFFFFFFFFFFFFF DUP3 GT ISZERO PUSH2 0x2B39 JUMPI PUSH2 0x2B38 PUSH2 0x1F38 JUMP JUMPDEST JUMPDEST PUSH1 0x20 DUP3 MUL SWAP1 POP PUSH1 0x20 DUP2 ADD SWAP1 POP SWAP2 SWAP1 POP JUMP JUMPDEST PUSH1 0x0 PUSH2 0x2B5D PUSH2 0x2B58 DUP5 PUSH2 0x2B1E JUMP JUMPDEST PUSH2 0x1F98 JUMP JUMPDEST SWAP1 POP DUP1 DUP4 DUP3 MSTORE PUSH1 0x20 DUP3 ADD SWAP1 POP PUSH1 0x20 DUP5 MUL DUP4 ADD DUP6 DUP2 GT ISZERO PUSH2 0x2B80 JUMPI PUSH2 0x2B7F PUSH2 0x294D JUMP JUMPDEST JUMPDEST DUP4 JUMPDEST DUP2 DUP2 LT ISZERO PUSH2 0x2BA9 JUMPI DUP1 PUSH2 0x2B95 DUP9 DUP3 PUSH2 0x2574 JUMP JUMPDEST DUP5 MSTORE PUSH1 0x20 DUP5 ADD SWAP4 POP POP PUSH1 0x20 DUP2 ADD SWAP1 POP PUSH2 0x2B82 JUMP JUMPDEST POP POP POP SWAP4 SWAP3 POP POP POP JUMP JUMPDEST PUSH1 0x0 DUP3 PUSH1 0x1F DUP4 ADD SLT PUSH2 0x2BC8 JUMPI PUSH2 0x2BC7 PUSH2 0x1F1D JUMP JUMPDEST JUMPDEST DUP2 CALLDATALOAD PUSH2 0x2BD8 DUP5 DUP3 PUSH1 0x20 DUP7 ADD PUSH2 0x2B4A JUMP JUMPDEST SWAP2 POP POP SWAP3 SWAP2 POP POP JUMP JUMPDEST PUSH1 0x0 PUSH8 0xFFFFFFFFFFFFFFFF DUP3 GT ISZERO PUSH2 0x2BFC JUMPI PUSH2 0x2BFB PUSH2 0x1F38 JUMP JUMPDEST JUMPDEST PUSH1 0x20 DUP3 MUL SWAP1 POP PUSH1 0x20 DUP2 ADD SWAP1 POP SWAP2 SWAP1 POP JUMP JUMPDEST PUSH1 0x0 PUSH2 0x2C20 PUSH2 0x2C1B DUP5 PUSH2 0x2BE1 JUMP JUMPDEST PUSH2 0x1F98 JUMP JUMPDEST SWAP1 POP DUP1 DUP4 DUP3 MSTORE PUSH1 0x20 DUP3 ADD SWAP1 POP PUSH1 0x20 DUP5 MUL DUP4 ADD DUP6 DUP2 GT ISZERO PUSH2 0x2C43 JUMPI PUSH2 0x2C42 PUSH2 0x294D JUMP JUMPDEST JUMPDEST DUP4 JUMPDEST DUP2 DUP2 LT ISZERO PUSH2 0x2C8A JUMPI DUP1 CALLDATALOAD PUSH8 0xFFFFFFFFFFFFFFFF DUP2 GT ISZERO PUSH2 0x2C68 JUMPI PUSH2 0x2C67 PUSH2 0x1F1D JUMP JUMPDEST JUMPDEST DUP1 DUP7 ADD PUSH2 0x2C75 DUP10 DUP3 PUSH2 0x20D6 JUMP JUMPDEST DUP6 MSTORE PUSH1 0x20 DUP6 ADD SWAP5 POP POP POP PUSH1 0x20 DUP2 ADD SWAP1 POP PUSH2 0x2C45 JUMP JUMPDEST POP POP POP SWAP4 SWAP3 POP POP POP JUMP JUMPDEST PUSH1 0x0 DUP3 PUSH1 0x1F DUP4 ADD SLT PUSH2 0x2CA9 JUMPI PUSH2 0x2CA8 PUSH2 0x1F1D JUMP JUMPDEST JUMPDEST DUP2 CALLDATALOAD PUSH2 0x2CB9 DUP5 DUP3 PUSH1 0x20 DUP7 ADD PUSH2 0x2C0D JUMP JUMPDEST SWAP2 POP POP SWAP3 SWAP2 POP POP JUMP JUMPDEST PUSH1 0x0 DUP1 PUSH1 0x0 DUP1 PUSH1 0x0 PUSH1 0xA0 DUP7 DUP9 SUB SLT ISZERO PUSH2 0x2CDE JUMPI PUSH2 0x2CDD PUSH2 0x1F13 JUMP JUMPDEST JUMPDEST PUSH1 0x0 PUSH2 0x2CEC DUP9 DUP3 DUP10 ADD PUSH2 0x219D JUMP JUMPDEST SWAP6 POP POP PUSH1 0x20 PUSH2 0x2CFD DUP9 DUP3 DUP10 ADD PUSH2 0x219D JUMP JUMPDEST SWAP5 POP POP PUSH1 0x40 DUP7 ADD CALLDATALOAD PUSH8 0xFFFFFFFFFFFFFFFF DUP2 GT ISZERO PUSH2 0x2D1E JUMPI PUSH2 0x2D1D PUSH2 0x1F18 JUMP JUMPDEST JUMPDEST PUSH2 0x2D2A DUP9 DUP3 DUP10 ADD PUSH2 0x2BB3 JUMP JUMPDEST SWAP4 POP POP PUSH1 0x60 DUP7 ADD CALLDATALOAD PUSH8 0xFFFFFFFFFFFFFFFF DUP2 GT ISZERO PUSH2 0x2D4B JUMPI PUSH2 0x2D4A PUSH2 0x1F18 JUMP JUMPDEST JUMPDEST PUSH2 0x2D57 DUP9 DUP3 DUP10 ADD PUSH2 0x29D9 JUMP JUMPDEST SWAP3 POP POP PUSH1 0x80 DUP7 ADD CALLDATALOAD PUSH8 0xFFFFFFFFFFFFFFFF DUP2 GT ISZERO PUSH2 0x2D78 JUMPI PUSH2 0x2D77 PUSH2 0x1F18 JUMP JUMPDEST JUMPDEST PUSH2 0x2D84 DUP9 DUP3 DUP10 ADD PUSH2 0x2C94 JUMP JUMPDEST SWAP2 POP POP SWAP3 SWAP6 POP SWAP3 SWAP6 SWAP1 SWAP4 POP JUMP JUMPDEST PUSH32 0x4E616D6520726571756972656400000000000000000000000000000000000000 PUSH1 0x0 DUP3 ADD MSTORE POP JUMP JUMPDEST PUSH1 0x0 PUSH2 0x2DC7 PUSH1 0xD DUP4 PUSH2 0x2722 JUMP JUMPDEST SWAP2 POP PUSH2 0x2DD2 DUP3 PUSH2 0x2D91 JUMP JUMPDEST PUSH1 0x20 DUP3 ADD SWAP1 POP SWAP2 SWAP1 POP JUMP JUMPDEST PUSH1 0x0 PUSH1 0x20 DUP3 ADD SWAP1 POP DUP2 DUP2 SUB PUSH1 0x0 DUP4 ADD MSTORE PUSH2 0x2DF6 DUP2 PUSH2 0x2DBA JUMP JUMPDEST SWAP1 POP SWAP2 SWAP1 POP JUMP JUMPDEST PUSH32 0x5075626C6963206B657920726571756972656400000000000000000000000000 PUSH1 0x0 DUP3 ADD MSTORE POP JUMP JUMPDEST PUSH1 0x0 PUSH2 0x2E33 PUSH1 0x13 DUP4 PUSH2 0x2722 JUMP JUMPDEST SWAP2 POP PUSH2 0x2E3E DUP3 PUSH2 0x2DFD JUMP JUMPDEST PUSH1 0x20 DUP3 ADD SWAP1 POP SWAP2 SWAP1 POP JUMP JUMPDEST PUSH1 0x0 PUSH1 0x20 DUP3 ADD SWAP1 POP DUP2 DUP2 SUB PUSH1 0x0 DUP4 ADD MSTORE PUSH2 0x2E62 DUP2 PUSH2 0x2E26 JUMP JUMPDEST SWAP1 POP SWAP2 SWAP1 POP JUMP JUMPDEST PUSH32 0x4E487B7100000000000000000000000000000000000000000000000000000000 PUSH1 0x0 MSTORE PUSH1 0x22 PUSH1 0x4 MSTORE PUSH1 0x24 PUSH1 0x0 REVERT JUMPDEST PUSH1 0x0 PUSH1 0x2 DUP3 DIV SWAP1 POP PUSH1 0x1 DUP3 AND DUP1 PUSH2 0x2EB0 JUMPI PUSH1 0x7F DUP3 AND SWAP2 POP JUMPDEST PUSH1 0x20 DUP3 LT DUP2 SUB PUSH2 0x2EC3 JUMPI PUSH2 0x2EC2 PUSH2 0x2E69 JUMP JUMPDEST JUMPDEST POP SWAP2 SWAP1 POP JUMP JUMPDEST PUSH1 0x0 DUP2 SWAP1 POP DUP2 PUSH1 0x0 MSTORE PUSH1 0x20 PUSH1 0x0 KECCAK256 SWAP1 POP SWAP2 SWAP1 POP JUMP JUMPDEST PUSH1 0x0 PUSH1 0x20 PUSH1 0x1F DUP4 ADD DIV SWAP1 POP SWAP2 SWAP1 POP JUMP JUMPDEST PUSH1 0x0 DUP3 DUP3 SHL SWAP1 POP SWAP3 SWAP2 POP POP JUMP JUMPDEST PUSH1 0x0 PUSH1 0x8 DUP4 MUL PUSH2 0x2F2B PUSH32 0xFFFFFFFFFFFFFFFFFFFFFFFFFFFFFFFFFFFFFFFFFFFFFFFFFFFFFFFFFFFFFFFF DUP3 PUSH2 0x2EEE JUMP JUMPDEST PUSH2 0x2F35 DUP7 DUP4 PUSH2 0x2EEE JUMP JUMPDEST SWAP6 POP DUP1 NOT DUP5 AND SWAP4 POP DUP1 DUP7 AND DUP5 OR SWAP3 POP POP POP SWAP4 SWAP3 POP POP POP JUMP JUMPDEST PUSH1 0x0 DUP2 SWAP1 POP SWAP2 SWAP1 POP JUMP JUMPDEST PUSH1 0x0 PUSH2 0x2F72 PUSH2 0x2F6D PUSH2 0x2F68 DUP5 PUSH2 0x217C JUMP JUMPDEST PUSH2 0x2F4D JUMP JUMPDEST PUSH2 0x217C JUMP JUMPDEST SWAP1 POP SWAP2 SWAP1 POP JUMP JUMPDEST PUSH1 0x0 DUP2 SWAP1 POP SWAP2 SWAP1 POP JUMP JUMPDEST PUSH2 0x2F8C DUP4 PUSH2 0x2F57 JUMP JUMPDEST PUSH2 0x2FA0 PUSH2 0x2F98 DUP3 PUSH2 0x2F79 JUMP JUMPDEST DUP5 DUP5 SLOAD PUSH2 0x2EFB JUMP JUMPDEST DUP3 SSTORE POP POP POP POP JUMP JUMPDEST PUSH1 0x0 SWAP1 JUMP JUMPDEST PUSH2 0x2FB5 PUSH2 0x2FA8 JUMP JUMPDEST PUSH2 0x2FC0 DUP2 DUP5 DUP5 PUSH2 0x2F83 JUMP JUMPDEST POP POP POP JUMP JUMPDEST JUMPDEST DUP2 DUP2 LT ISZERO PUSH2 0x2FE4 JUMPI PUSH2 0x2FD9 PUSH1 0x0 DUP3 PUSH2 0x2FAD JUMP JUMPDEST PUSH1 0x1 DUP2 ADD SWAP1 POP PUSH2 0x2FC6 JUMP JUMPDEST POP POP JUMP JUMPDEST PUSH1 0x1F DUP3 GT ISZERO PUSH2 0x3029 JUMPI PUSH2 0x2FFA DUP2 PUSH2 0x2EC9 JUMP JUMPDEST PUSH2 0x3003 DUP5 PUSH2 0x2EDE JUMP JUMPDEST DUP2 ADD PUSH1 0x20 DUP6 LT ISZERO PUSH2 0x3012 JUMPI DUP2 SWAP1 POP JUMPDEST PUSH2 0x3026 PUSH2 0x301E DUP6 PUSH2 0x2EDE JUMP JUMPDEST DUP4 ADD DUP3 PUSH2 0x2FC5 JUMP JUMPDEST POP POP JUMPDEST POP POP POP JUMP JUMPDEST PUSH1 0x0 DUP3 DUP3 SHR SWAP1 POP SWAP3 SWAP2 POP POP JUMP JUMPDEST PUSH1 0x0 PUSH2 0x304C PUSH1 0x0 NOT DUP5 PUSH1 0x8 MUL PUSH2 0x302E JUMP JUMPDEST NOT DUP1 DUP4 AND SWAP2 POP POP SWAP3 SWAP2 POP POP JUMP JUMPDEST PUSH1 0x0 PUSH2 0x3065 DUP4 DUP4 PUSH2 0x303B JUMP JUMPDEST SWAP2 POP DUP3 PUSH1 0x2 MUL DUP3 OR SWAP1 POP SWAP3 SWAP2 POP POP JUMP JUMPDEST PUSH2 0x307E DUP3 PUSH2 0x21DF JUMP JUMPDEST PUSH8 0xFFFFFFFFFFFFFFFF DUP2 GT ISZERO PUSH2 0x3097 JUMPI PUSH2 0x3096 PUSH2 0x1F38 JUMP JUMPDEST JUMPDEST PUSH2 0x30A1 DUP3 SLOAD PUSH2 0x2E98 JUMP JUMPDEST PUSH2 0x30AC DUP3 DUP3 DUP6 PUSH2 0x2FE8 JUMP JUMPDEST PUSH1 0x0 PUSH1 0x20 SWAP1 POP PUSH1 0x1F DUP4 GT PUSH1 0x1 DUP2 EQ PUSH2 0x30DF JUMPI PUSH1 0x0 DUP5 ISZERO PUSH2 0x30CD JUMPI DUP3 DUP8 ADD MLOAD SWAP1 POP JUMPDEST PUSH2 0x30D7 DUP6 DUP3 PUSH2 0x3059 JUMP JUMPDEST DUP7 SSTORE POP PUSH2 0x313F JUMP JUMPDEST PUSH1 0x1F NOT DUP5 AND PUSH2 0x30ED DUP7 PUSH2 0x2EC9 JUMP JUMPDEST PUSH1 0x0 JUMPDEST DUP3 DUP2 LT ISZERO PUSH2 0x3115 JUMPI DUP5 DUP10 ADD MLOAD DUP3 SSTORE PUSH1 0x1 DUP3 ADD SWAP2 POP PUSH1 0x20 DUP6 ADD SWAP5 POP PUSH1 0x20 DUP2 ADD SWAP1 POP PUSH2 0x30F0 JUMP JUMPDEST DUP7 DUP4 LT ISZERO PUSH2 0x3132 JUMPI DUP5 DUP10 ADD MLOAD PUSH2 0x312E PUSH1 0x1F DUP10 AND DUP3 PUSH2 0x303B JUMP JUMPDEST DUP4 SSTORE POP JUMPDEST PUSH1 0x1 PUSH1 0x2 DUP9 MUL ADD DUP9 SSTORE POP POP POP JUMPDEST POP POP POP POP POP POP JUMP JUMPDEST PUSH1 0x0 DUP2 SWAP1 POP DUP2 PUSH1 0x0 MSTORE PUSH1 0x20 PUSH1 0x0 KECCAK256 SWAP1 POP SWAP2 SWAP1 POP JUMP JUMPDEST PUSH1 0x1F DUP3 GT ISZERO PUSH2 0x319D JUMPI PUSH2 0x316E DUP2 PUSH2 0x3147 JUMP JUMPDEST PUSH2 0x3177 DUP5 PUSH2 0x2EDE JUMP JUMPDEST DUP2 ADD PUSH1 0x20 DUP6 LT ISZERO PUSH2 0x3186 JUMPI DUP2 SWAP1 POP JUMPDEST PUSH2 0x319A PUSH2 0x3192 DUP6 PUSH2 0x2EDE JUMP JUMPDEST DUP4 ADD DUP3 PUSH2 0x2FC5 JUMP JUMPDEST POP POP JUMPDEST POP POP POP JUMP JUMPDEST PUSH2 0x31AB DUP3 PUSH2 0x238B JUMP JUMPDEST PUSH8 0xFFFFFFFFFFFFFFFF DUP2 GT ISZERO PUSH2 0x31C4 JUMPI PUSH2 0x31C3 PUSH2 0x1F38 JUMP JUMPDEST JUMPDEST PUSH2 0x31CE DUP3 SLOAD PUSH2 0x2E98 JUMP JUMPDEST PUSH2 0x31D9 DUP3 DUP3 DUP6 PUSH2 0x315C JUMP JUMPDEST PUSH1 0x0 PUSH1 0x20 SWAP1 POP PUSH1 0x1F DUP4 GT PUSH1 0x1 DUP2 EQ PUSH2 0x320C JUMPI PUSH1 0x0 DUP5 ISZERO PUSH2 0x31FA JUMPI DUP3 DUP8 ADD MLOAD SWAP1 POP JUMPDEST PUSH2 0x3204 DUP6 DUP3 PUSH2 0x3059 JUMP JUMPDEST DUP7 SSTORE POP PUSH2 0x326C JUMP JUMPDEST PUSH1 0x1F NOT DUP5 AND PUSH2 0x321A DUP7 PUSH2 0x3147 JUMP JUMPDEST PUSH1 0x0 JUMPDEST DUP3 DUP2 LT ISZERO PUSH2 0x3242 JUMPI DUP5 DUP10 ADD MLOAD DUP3 SSTORE PUSH1 0x1 DUP3 ADD SWAP2 POP PUSH1 0x20 DUP6 ADD SWAP5 POP PUSH1 0x20 DUP2 ADD SWAP1 POP PUSH2 0x321D JUMP JUMPDEST DUP7 DUP4 LT ISZERO PUSH2 0x325F JUMPI DUP5 DUP10 ADD MLOAD PUSH2 0x325B PUSH1 0x1F DUP10 AND DUP3 PUSH2 0x303B JUMP JUMPDEST DUP4 SSTORE POP JUMPDEST PUSH1 0x1 PUSH1 0x2 DUP9 MUL ADD DUP9 SSTORE POP POP POP JUMPDEST POP POP POP POP POP POP JUMP JUMPDEST PUSH32 0x496E76616C696420706170657220494400000000000000000000000000000000 PUSH1 0x0 DUP3 ADD MSTORE POP JUMP JUMPDEST PUSH1 0x0 PUSH2 0x32AA PUSH1 0x10 DUP4 PUSH2 0x2722 JUMP JUMPDEST SWAP2 POP PUSH2 0x32B5 DUP3 PUSH2 0x3274 JUMP JUMPDEST PUSH1 0x20 DUP3 ADD SWAP1 POP SWAP2 SWAP1 POP JUMP JUMPDEST PUSH1 0x0 PUSH1 0x20 DUP3 ADD SWAP1 POP DUP2 DUP2 SUB PUSH1 0x0 DUP4 ADD MSTORE PUSH2 0x32D9 DUP2 PUSH2 0x329D JUMP JUMPDEST SWAP1 POP SWAP2 SWAP1 POP JUMP JUMPDEST PUSH32 0x5061706572206E6F74207363686564756C656400000000000000000000000000 PUSH1 0x0 DUP3 ADD MSTORE POP JUMP JUMPDEST PUSH1 0x0 PUSH2 0x3316 PUSH1 0x13 DUP4 PUSH2 0x2722 JUMP JUMPDEST SWAP2 POP PUSH2 0x3321 DUP3 PUSH2 0x32E0 JUMP JUMPDEST PUSH1 0x20 DUP3 ADD SWAP1 POP SWAP2 SWAP1 POP JUMP JUMPDEST PUSH1 0x0 PUSH1 0x20 DUP3 ADD SWAP1 POP DUP2 DUP2 SUB PUSH1 0x0 DUP4 ADD MSTORE PUSH2 0x3345 DUP2 PUSH2 0x3309 JUMP JUMPDEST SWAP1 POP SWAP2 SWAP1 POP JUMP JUMPDEST PUSH32 0x546F6F206561726C7920746F20756E6C6F636B00000000000000000000000000 PUSH1 0x0 DUP3 ADD MSTORE POP JUMP JUMPDEST PUSH1 0x0 PUSH2 0x3382 PUSH1 0x13 DUP4 PUSH2 0x2722 JUMP JUMPDEST SWAP2 POP PUSH2 0x338D DUP3 PUSH2 0x334C JUMP JUMPDEST PUSH1 0x20 DUP3 ADD SWAP1 POP SWAP2 SWAP1 POP JUMP JUMPDEST PUSH1 0x0 PUSH1 0x20 DUP3 ADD SWAP1 POP DUP2 DUP2 SUB PUSH1 0x0 DUP4 ADD MSTORE PUSH2 0x33B1 DUP2 PUSH2 0x3375 JUMP JUMPDEST SWAP1 POP SWAP2 SWAP1 POP JUMP JUMPDEST PUSH32 0x4E487B7100000000000000000000000000000000000000000000000000000000 PUSH1 0x0 MSTORE PUSH1 0x32 PUSH1 0x4 MSTORE PUSH1 0x24 PUSH1 0x0 REVERT JUMPDEST PUSH32 0x4E487B7100000000000000000000000000000000000000000000000000000000 PUSH1 0x0 MSTORE PUSH1 0x11 PUSH1 0x4 MSTORE PUSH1 0x24 PUSH1 0x0 REVERT JUMPDEST PUSH1 0x0 PUSH2 0x3421 DUP3 PUSH2 0x217C JUMP JUMPDEST SWAP2 POP PUSH32 0xFFFFFFFFFFFFFFFFFFFFFFFFFFFFFFFFFFFFFFFFFFFFFFFFFFFFFFFFFFFFFFFF DUP3 SUB PUSH2 0x3453 JUMPI PUSH2 0x3452 PUSH2 0x33E7 JUMP JUMPDEST JUMPDEST PUSH1 0x1 DUP3 ADD SWAP1 POP SWAP2 SWAP1 POP JUMP JUMPDEST PUSH32 0x4578616D206E616D652072657175697265640000000000000000000000000000 PUSH1 0x0 DUP3 ADD MSTORE POP JUMP JUMPDEST PUSH1 0x0 PUSH2 0x3494 PUSH1 0x12 DUP4 PUSH2 0x2722 JUMP JUMPDEST SWAP2 POP PUSH2 0x349F DUP3 PUSH2 0x345E JUMP JUMPDEST PUSH1 0x20 DUP3 ADD SWAP1 POP SWAP2 SWAP1 POP JUMP JUMPDEST PUSH1 0x0 PUSH1 0x20 DUP3 ADD SWAP1 POP DUP2 DUP2 SUB PUSH1 0x0 DUP4 ADD MSTORE PUSH2 0x34C3 DUP2 PUSH2 0x3487 JUMP JUMPDEST SWAP1 POP SWAP2 SWAP1 POP JUMP JUMPDEST PUSH32 0x417574686F72697479206E6F7420726567697374657265642079657400000000 PUSH1 0x0 DUP3 ADD MSTORE POP JUMP JUMPDEST PUSH1 0x0 PUSH2 0x3500 PUSH1 0x1C DUP4 PUSH2 0x2722 JUMP JUMPDEST SWAP2 POP PUSH2 0x350B DUP3 PUSH2 0x34CA JUMP JUMPDEST PUSH1 0x20 DUP3 ADD SWAP1 POP SWAP2 SWAP1 POP JUMP JUMPDEST PUSH1 0x0 PUSH1 0x20 DUP3 ADD SWAP1 POP DUP2 DUP2 SUB PUSH1 0x0 DUP4 ADD MSTORE PUSH2 0x352F DUP2 PUSH2 0x34F3 JUMP JUMPDEST SWAP1 POP SWAP2 SWAP1 POP JUMP JUMPDEST PUSH32 0x43656E746572732F436C617373726F6F6D73206D69736D617463680000000000 PUSH1 0x0 DUP3 ADD MSTORE POP JUMP JUMPDEST PUSH1 0x0 PUSH2 0x356C PUSH1 0x1B DUP4 PUSH2 0x2722 JUMP JUMPDEST SWAP2 POP PUSH2 0x3577 DUP3 PUSH2 0x3536 JUMP JUMPDEST PUSH1 0x20 DUP3 ADD SWAP1 POP SWAP2 SWAP1 POP JUMP JUMPDEST PUSH1 0x0 PUSH1 0x20 DUP3 ADD SWAP1 POP DUP2 DUP2 SUB PUSH1 0x0 DUP4 ADD MSTORE PUSH2 0x359B DUP2 PUSH2 0x355F JUMP JUMPDEST SWAP1 POP SWAP2 SWAP1 POP JUMP JUMPDEST PUSH32 0x43656E746572732F4B657973206D69736D617463680000000000000000000000 PUSH1 0x0 DUP3 ADD MSTORE POP JUMP JUMPDEST PUSH1 0x0 PUSH2 0x35D8 PUSH1 0x15 DUP4 PUSH2 0x2722 JUMP JUMPDEST SWAP2 POP PUSH2 0x35E3 DUP3 PUSH2 0x35A2 JUMP JUMPDEST PUSH1 0x20 DUP3 ADD SWAP1 POP SWAP2 SWAP1 POP JUMP JUMPDEST PUSH1 0x0 PUSH1 0x20 DUP3 ADD SWAP1 POP DUP2 DUP2 SUB PUSH1 0x0 DUP4 ADD MSTORE PUSH2 0x3607 DUP2 PUSH2 0x35CB JUMP JUMPDEST SWAP1 POP SWAP2 SWAP1 POP JUMP JUMPDEST PUSH32 0x556E6C6F636B2074696D65206D75737420626520696E20667574757265000000 PUSH1 0x0 DUP3 ADD MSTORE POP JUMP JUMPDEST PUSH1 0x0 PUSH2 0x3644 PUSH1 0x1D DUP4 PUSH2 0x2722 JUMP JUMPDEST SWAP2 POP PUSH2 0x364F DUP3 PUSH2 0x360E JUMP JUMPDEST PUSH1 0x20 DUP3 ADD SWAP1 POP SWAP2 SWAP1 POP JUMP JUMPDEST PUSH1 0x0 PUSH1 0x20 DUP3 ADD SWAP1 POP DUP2 DUP2 SUB PUSH1 0x0 DUP4 ADD MSTORE PUSH2 0x3673 DUP2 PUSH2 0x3637 JUMP JUMPDEST SWAP1 POP SWAP2 SWAP1 POP JUMP JUMPDEST PUSH32 0x506170657220616C7265616479207363686564756C6564000000000000000000 PUSH1 0x0 DUP3 ADD MSTORE POP JUMP JUMPDEST PUSH1 0x0 PUSH2 0x36B0 PUSH1 0x17 DUP4 PUSH2 0x2722 JUMP JUMPDEST SWAP2 POP PUSH2 0x36BB DUP3 PUSH2 0x367A JUMP JUMPDEST PUSH1 0x20 DUP3 ADD SWAP1 POP SWAP2 SWAP1 POP JUMP JUMPDEST PUSH1 0x0 PUSH1 0x20 DUP3 ADD SWAP1 POP DUP2 DUP2 SUB PUSH1 0x0 DUP4 ADD MSTORE PUSH2 0x36DF DUP2 PUSH2 0x36A3 JUMP JUMPDEST SWAP1 POP SWAP2 SWAP1 POP JUMP INVALID LOG2 PUSH5 0x6970667358 0x22 SLT KECCAK256 BLOCKHASH PUSH22 0x2D47FCD58579B566B9345048D0282ED481ECFDF57585 0xB2 0xE4 SMOD MLOAD EQ BASEFEE 0xEC PUSH25 0x64736F6C634300081400330000000000000000000000000000 "},"methodIdentifiers":{"authorityPublicKey()":"1dcd14fe","centerAddresses(uint256)":"9a0dd666","centers(address)":"554a14ac","getAllCenters()":"4cdf8093","getCenterPublicKey(address)":"3b0ae1fd","getMyClassroom(uint256)":"b5438f6d","getMyPaperKey(uint256)":"984f6eae","getPaper(uint256)":"07993f04","paperClassrooms(uint256,address)":"bc7cf6dd","paperCount()":"a56c2cb9","paperKeys(uint256,address)":"ba8d1ac9","papers(uint256)":"5e775a27","registerAuthority(bytes)":"a37b7522","registerExamCenter(string,bytes)":"00c172a2","scheduleExam(uint256,uint256,address[],string[],bytes[])":"c633f568","unlockPaper(uint256)":"2460cf76","uploadPaper(string,string,string[],bytes)":"b724af40"}}}}}